{
  "contractName": "Bonds",
  "abi": [
    {
      "inputs": [],
      "stateMutability": "nonpayable",
      "type": "constructor"
    },
    {
      "anonymous": false,
      "inputs": [
        {
          "indexed": true,
          "internalType": "address",
          "name": "account",
          "type": "address"
        },
        {
          "indexed": true,
          "internalType": "address",
          "name": "operator",
          "type": "address"
        },
        {
          "indexed": false,
          "internalType": "bool",
          "name": "approved",
          "type": "bool"
        }
      ],
      "name": "ApprovalForAll",
      "type": "event"
    },
    {
      "anonymous": false,
      "inputs": [
        {
          "indexed": true,
          "internalType": "address",
          "name": "operator",
          "type": "address"
        },
        {
          "indexed": true,
          "internalType": "address",
          "name": "from",
          "type": "address"
        },
        {
          "indexed": true,
          "internalType": "address",
          "name": "to",
          "type": "address"
        },
        {
          "indexed": false,
          "internalType": "uint256[]",
          "name": "ids",
          "type": "uint256[]"
        },
        {
          "indexed": false,
          "internalType": "uint256[]",
          "name": "values",
          "type": "uint256[]"
        }
      ],
      "name": "TransferBatch",
      "type": "event"
    },
    {
      "anonymous": false,
      "inputs": [
        {
          "indexed": true,
          "internalType": "address",
          "name": "operator",
          "type": "address"
        },
        {
          "indexed": true,
          "internalType": "address",
          "name": "from",
          "type": "address"
        },
        {
          "indexed": true,
          "internalType": "address",
          "name": "to",
          "type": "address"
        },
        {
          "indexed": false,
          "internalType": "uint256",
          "name": "id",
          "type": "uint256"
        },
        {
          "indexed": false,
          "internalType": "uint256",
          "name": "value",
          "type": "uint256"
        }
      ],
      "name": "TransferSingle",
      "type": "event"
    },
    {
      "anonymous": false,
      "inputs": [
        {
          "indexed": false,
          "internalType": "string",
          "name": "value",
          "type": "string"
        },
        {
          "indexed": true,
          "internalType": "uint256",
          "name": "id",
          "type": "uint256"
        }
      ],
      "name": "URI",
      "type": "event"
    },
    {
      "inputs": [
        {
          "internalType": "uint256",
          "name": "",
          "type": "uint256"
        }
      ],
      "name": "IDToContract",
      "outputs": [
        {
          "internalType": "address",
          "name": "",
          "type": "address"
        }
      ],
      "stateMutability": "view",
      "type": "function",
      "constant": true
    },
    {
      "inputs": [
        {
          "internalType": "address",
          "name": "account",
          "type": "address"
        },
        {
          "internalType": "uint256",
          "name": "id",
          "type": "uint256"
        }
      ],
      "name": "balanceOf",
      "outputs": [
        {
          "internalType": "uint256",
          "name": "",
          "type": "uint256"
        }
      ],
      "stateMutability": "view",
      "type": "function",
      "constant": true
    },
    {
      "inputs": [
        {
          "internalType": "address[]",
          "name": "accounts",
          "type": "address[]"
        },
        {
          "internalType": "uint256[]",
          "name": "ids",
          "type": "uint256[]"
        }
      ],
      "name": "balanceOfBatch",
      "outputs": [
        {
          "internalType": "uint256[]",
          "name": "",
          "type": "uint256[]"
        }
      ],
      "stateMutability": "view",
      "type": "function",
      "constant": true
    },
    {
      "inputs": [],
      "name": "head",
      "outputs": [
        {
          "internalType": "uint256",
          "name": "",
          "type": "uint256"
        }
      ],
      "stateMutability": "view",
      "type": "function",
      "constant": true
    },
    {
      "inputs": [
        {
          "internalType": "address",
          "name": "account",
          "type": "address"
        },
        {
          "internalType": "address",
          "name": "operator",
          "type": "address"
        }
      ],
      "name": "isApprovedForAll",
      "outputs": [
        {
          "internalType": "bool",
          "name": "",
          "type": "bool"
        }
      ],
      "stateMutability": "view",
      "type": "function",
      "constant": true
    },
    {
      "inputs": [
        {
          "internalType": "address",
          "name": "",
          "type": "address"
        }
      ],
      "name": "llTail",
      "outputs": [
        {
          "internalType": "uint256",
          "name": "",
          "type": "uint256"
        }
      ],
      "stateMutability": "view",
      "type": "function",
      "constant": true
    },
    {
      "inputs": [
        {
          "internalType": "address",
          "name": "from",
          "type": "address"
        },
        {
          "internalType": "address",
          "name": "to",
          "type": "address"
        },
        {
          "internalType": "uint256[]",
          "name": "ids",
          "type": "uint256[]"
        },
        {
          "internalType": "uint256[]",
          "name": "amounts",
          "type": "uint256[]"
        },
        {
          "internalType": "bytes",
          "name": "data",
          "type": "bytes"
        }
      ],
      "name": "safeBatchTransferFrom",
      "outputs": [],
      "stateMutability": "nonpayable",
      "type": "function"
    },
    {
      "inputs": [
        {
          "internalType": "address",
          "name": "from",
          "type": "address"
        },
        {
          "internalType": "address",
          "name": "to",
          "type": "address"
        },
        {
          "internalType": "uint256",
          "name": "id",
          "type": "uint256"
        },
        {
          "internalType": "uint256",
          "name": "amount",
          "type": "uint256"
        },
        {
          "internalType": "bytes",
          "name": "data",
          "type": "bytes"
        }
      ],
      "name": "safeTransferFrom",
      "outputs": [],
      "stateMutability": "nonpayable",
      "type": "function"
    },
    {
      "inputs": [
        {
          "internalType": "address",
          "name": "operator",
          "type": "address"
        },
        {
          "internalType": "bool",
          "name": "approved",
          "type": "bool"
        }
      ],
      "name": "setApprovalForAll",
      "outputs": [],
      "stateMutability": "nonpayable",
      "type": "function"
    },
    {
      "inputs": [
        {
          "internalType": "address",
          "name": "",
          "type": "address"
        },
        {
          "internalType": "uint256",
          "name": "",
          "type": "uint256"
        }
      ],
      "name": "staking",
      "outputs": [
        {
          "internalType": "uint256",
          "name": "last",
          "type": "uint256"
        },
        {
          "internalType": "uint256",
          "name": "next",
          "type": "uint256"
        },
        {
          "components": [
            {
              "internalType": "bool",
              "name": "staking",
              "type": "bool"
            },
            {
              "internalType": "uint256",
              "name": "ID",
              "type": "uint256"
            },
            {
              "internalType": "uint256",
              "name": "ammount",
              "type": "uint256"
            },
            {
              "internalType": "uint256",
              "name": "timeStaked",
              "type": "uint256"
            }
          ],
          "internalType": "struct Bonds.IOU",
          "name": "value",
          "type": "tuple"
        }
      ],
      "stateMutability": "view",
      "type": "function",
      "constant": true
    },
    {
      "inputs": [
        {
          "internalType": "bytes4",
          "name": "interfaceId",
          "type": "bytes4"
        }
      ],
      "name": "supportsInterface",
      "outputs": [
        {
          "internalType": "bool",
          "name": "",
          "type": "bool"
        }
      ],
      "stateMutability": "view",
      "type": "function",
      "constant": true
    },
    {
      "inputs": [
        {
          "internalType": "uint256",
          "name": "",
          "type": "uint256"
        }
      ],
      "name": "uri",
      "outputs": [
        {
          "internalType": "string",
          "name": "",
          "type": "string"
        }
      ],
      "stateMutability": "view",
      "type": "function",
      "constant": true
    },
    {
      "inputs": [
        {
          "internalType": "address",
          "name": "_paymentContractAddress",
          "type": "address"
        },
        {
          "internalType": "uint256",
          "name": "_id",
          "type": "uint256"
        }
      ],
      "name": "newLoan",
      "outputs": [],
      "stateMutability": "nonpayable",
      "type": "function"
    },
    {
      "inputs": [
        {
          "internalType": "uint256",
          "name": "_id",
          "type": "uint256"
        },
        {
          "internalType": "uint256",
          "name": "_amm",
          "type": "uint256"
        }
      ],
      "name": "stake",
      "outputs": [],
      "stateMutability": "nonpayable",
      "type": "function"
    },
    {
      "inputs": [
        {
          "internalType": "uint256",
          "name": "_index",
          "type": "uint256"
        }
      ],
      "name": "unstake",
      "outputs": [
        {
          "internalType": "bool",
          "name": "",
          "type": "bool"
        }
      ],
      "stateMutability": "nonpayable",
      "type": "function"
    },
    {
      "inputs": [
        {
          "internalType": "address",
          "name": "_who",
          "type": "address"
        },
        {
          "internalType": "uint256",
          "name": "_index",
          "type": "uint256"
        }
      ],
      "name": "getAccruances",
      "outputs": [
        {
          "internalType": "uint256",
          "name": "",
          "type": "uint256"
        }
      ],
      "stateMutability": "view",
      "type": "function",
      "constant": true
    },
    {
      "inputs": [
        {
          "internalType": "address",
          "name": "_operator",
          "type": "address"
        },
        {
          "internalType": "address",
          "name": "_from",
          "type": "address"
        },
        {
          "internalType": "uint256",
          "name": "_id",
          "type": "uint256"
        },
        {
          "internalType": "uint256",
          "name": "_value",
          "type": "uint256"
        },
        {
          "internalType": "bytes",
          "name": "_data",
          "type": "bytes"
        }
      ],
      "name": "onERC1155Received",
      "outputs": [
        {
          "internalType": "bytes4",
          "name": "",
          "type": "bytes4"
        }
      ],
      "stateMutability": "nonpayable",
      "type": "function"
    },
    {
      "inputs": [
        {
          "internalType": "address",
          "name": "_operator",
          "type": "address"
        },
        {
          "internalType": "address",
          "name": "_from",
          "type": "address"
        },
        {
          "internalType": "uint256[]",
          "name": "_ids",
          "type": "uint256[]"
        },
        {
          "internalType": "uint256[]",
          "name": "_values",
          "type": "uint256[]"
        },
        {
          "internalType": "bytes",
          "name": "_data",
          "type": "bytes"
        }
      ],
      "name": "onERC1155BatchReceived",
      "outputs": [
        {
          "internalType": "bytes4",
          "name": "",
          "type": "bytes4"
        }
      ],
      "stateMutability": "nonpayable",
      "type": "function"
    }
  ],
  "bytecode": "0x60806040523480156200001157600080fd5b506040518060400160405280601e81526020017f68747470733a2f2f746573742e636f6d2f6170692f7b69647d2e6a736f6e000081525062000059816200006060201b60201c565b5062000191565b8060029080519060200190620000789291906200007c565b5050565b8280546200008a906200012c565b90600052602060002090601f016020900481019282620000ae5760008555620000fa565b82601f10620000c957805160ff1916838001178555620000fa565b82800160010185558215620000fa579182015b82811115620000f9578251825591602001919060010190620000dc565b5b5090506200010991906200010d565b5090565b5b80821115620001285760008160009055506001016200010e565b5090565b600060028204905060018216806200014557607f821691505b602082108114156200015c576200015b62000162565b5b50919050565b7f4e487b7100000000000000000000000000000000000000000000000000000000600052602260045260246000fd5b613f9080620001a16000396000f3fe608060405234801561001057600080fd5b50600436106101155760003560e01c806395dfea77116100a2578063a59061bc11610071578063a59061bc1461032a578063bc197c811461035a578063e985e9c51461038a578063f23a6e61146103ba578063f242432a146103ea57610115565b806395dfea771461029057806397ed51d3146102c2578063a097b7ab146102f2578063a22cb4651461030e57610115565b80632eb2c2d6116100e95780632eb2c2d6146101da578063485eddc9146101f65780634e1273f4146102265780637b0472f0146102565780638f7dcfa31461027257610115565b8062fdd58e1461011a57806301ffc9a71461014a5780630e89341c1461017a5780632e17de78146101aa575b600080fd5b610134600480360381019061012f9190612c99565b610406565b6040516101419190613555565b60405180910390f35b610164600480360381019061015f9190612d6a565b6104cf565b604051610171919061333d565b60405180910390f35b610194600480360381019061018f9190612dbc565b6105b1565b6040516101a19190613373565b60405180910390f35b6101c460048036038101906101bf9190612dbc565b610645565b6040516101d1919061333d565b60405180910390f35b6101f460048036038101906101ef9190612a7d565b610915565b005b610210600480360381019061020b9190612a18565b610d0b565b60405161021d9190613555565b60405180910390f35b610240600480360381019061023b9190612cd5565b610d23565b60405161024d91906132e4565b60405180910390f35b610270600480360381019061026b9190612e4a565b610ed4565b005b61027a610f21565b6040516102879190613555565b60405180910390f35b6102aa60048036038101906102a59190612c99565b610f26565b6040516102b993929190613599565b60405180910390f35b6102dc60048036038101906102d79190612c99565b610fa0565b6040516102e99190613555565b60405180910390f35b61030c60048036038101906103079190612c99565b611179565b005b61032860048036038101906103239190612c5d565b6112f5565b005b610344600480360381019061033f9190612dbc565b611476565b6040516103519190613207565b60405180910390f35b610374600480360381019061036f9190612a7d565b6114a9565b6040516103819190613358565b60405180910390f35b6103a4600480360381019061039f9190612a41565b6114be565b6040516103b1919061333d565b60405180910390f35b6103d460048036038101906103cf9190612b3c565b611552565b6040516103e19190613358565b60405180910390f35b61040460048036038101906103ff9190612bce565b611568565b005b60008073ffffffffffffffffffffffffffffffffffffffff168373ffffffffffffffffffffffffffffffffffffffff161415610477576040517f08c379a000000000000000000000000000000000000000000000000000000000815260040161046e906133d5565b60405180910390fd5b60008083815260200190815260200160002060008473ffffffffffffffffffffffffffffffffffffffff1673ffffffffffffffffffffffffffffffffffffffff16815260200190815260200160002054905092915050565b60007fd9b67a26000000000000000000000000000000000000000000000000000000007bffffffffffffffffffffffffffffffffffffffffffffffffffffffff1916827bffffffffffffffffffffffffffffffffffffffffffffffffffffffff1916148061059a57507f0e89341c000000000000000000000000000000000000000000000000000000007bffffffffffffffffffffffffffffffffffffffffffffffffffffffff1916827bffffffffffffffffffffffffffffffffffffffffffffffffffffffff1916145b806105aa57506105a982611880565b5b9050919050565b6060600280546105c0906138ba565b80601f01602080910402602001604051908101604052809291908181526020018280546105ec906138ba565b80156106395780601f1061060e57610100808354040283529160200191610639565b820191906000526020600020905b81548152906001019060200180831161061c57829003601f168201915b50505050509050919050565b6000610650336118ea565b15610690576040517f08c379a000000000000000000000000000000000000000000000000000000000815260040161068790613415565b60405180910390fd5b6000600560003373ffffffffffffffffffffffffffffffffffffffff1673ffffffffffffffffffffffffffffffffffffffff16815260200190815260200160002060008481526020019081526020016000206002016001015490506000600560003373ffffffffffffffffffffffffffffffffffffffff1673ffffffffffffffffffffffffffffffffffffffff168152602001908152602001600020600085815260200190815260200160002060020160020154905060006107523386610fa0565b905060006003600085815260200190815260200160002060009054906101000a900473ffffffffffffffffffffffffffffffffffffffff1690506107968633611949565b600081905060008173ffffffffffffffffffffffffffffffffffffffff16635fe2d689876040518263ffffffff1660e01b81526004016107d69190613555565b60206040518083038186803b1580156107ee57600080fd5b505afa158015610802573d6000803e3d6000fd5b505050506040513d601f19601f820116820180604052508101906108269190612de5565b856108319190613745565b8461083c9190613776565b905060008273ffffffffffffffffffffffffffffffffffffffff1663e62e1e4283896040518363ffffffff1660e01b815260040161087b929190613570565b602060405180830381600087803b15801561089557600080fd5b505af11580156108a9573d6000803e3d6000fd5b505050506040513d601f19601f820116820180604052508101906108cd9190612d41565b156108db57600190506108e0565b600090505b610906338888856108f191906136ef565b60405180602001604052806000815250611deb565b80975050505050505050919050565b8151835114610959576040517f08c379a000000000000000000000000000000000000000000000000000000000815260040161095090613515565b60405180910390fd5b600073ffffffffffffffffffffffffffffffffffffffff168473ffffffffffffffffffffffffffffffffffffffff1614156109c9576040517f08c379a00000000000000000000000000000000000000000000000000000000081526004016109c090613435565b60405180910390fd5b6109d1611f81565b73ffffffffffffffffffffffffffffffffffffffff168573ffffffffffffffffffffffffffffffffffffffff161480610a175750610a1685610a11611f81565b6114be565b5b610a56576040517f08c379a0000000000000000000000000000000000000000000000000000000008152600401610a4d90613455565b60405180910390fd5b6000610a60611f81565b9050610a70818787878787611f89565b60005b8451811015610c76576000858281518110610ab7577f4e487b7100000000000000000000000000000000000000000000000000000000600052603260045260246000fd5b602002602001015190506000858381518110610afc577f4e487b7100000000000000000000000000000000000000000000000000000000600052603260045260246000fd5b60200260200101519050600080600084815260200190815260200160002060008b73ffffffffffffffffffffffffffffffffffffffff1673ffffffffffffffffffffffffffffffffffffffff16815260200190815260200160002054905081811015610b9d576040517f08c379a0000000000000000000000000000000000000000000000000000000008152600401610b9490613495565b60405180910390fd5b8181610ba991906137d0565b60008085815260200190815260200160002060008c73ffffffffffffffffffffffffffffffffffffffff1673ffffffffffffffffffffffffffffffffffffffff168152602001908152602001600020819055508160008085815260200190815260200160002060008b73ffffffffffffffffffffffffffffffffffffffff1673ffffffffffffffffffffffffffffffffffffffff1681526020019081526020016000206000828254610c5b91906136ef565b9250508190555050505080610c6f9061391d565b9050610a73565b508473ffffffffffffffffffffffffffffffffffffffff168673ffffffffffffffffffffffffffffffffffffffff168273ffffffffffffffffffffffffffffffffffffffff167f4a39dc06d4c0dbc64b70af90fd698a233a518aa5d07e595d983b8c0526c8f7fb8787604051610ced929190613306565b60405180910390a4610d03818787878787611f91565b505050505050565b60046020528060005260406000206000915090505481565b60608151835114610d69576040517f08c379a0000000000000000000000000000000000000000000000000000000008152600401610d60906134f5565b60405180910390fd5b6000835167ffffffffffffffff811115610dac577f4e487b7100000000000000000000000000000000000000000000000000000000600052604160045260246000fd5b604051908082528060200260200182016040528015610dda5781602001602082028036833780820191505090505b50905060005b8451811015610ec957610e73858281518110610e25577f4e487b7100000000000000000000000000000000000000000000000000000000600052603260045260246000fd5b6020026020010151858381518110610e66577f4e487b7100000000000000000000000000000000000000000000000000000000600052603260045260246000fd5b6020026020010151610406565b828281518110610eac577f4e487b7100000000000000000000000000000000000000000000000000000000600052603260045260246000fd5b60200260200101818152505080610ec29061391d565b9050610de0565b508091505092915050565b610ef03330848460405180602001604052806000815250611568565b610f1d60405180608001604052806001151581526020018481526020018381526020014281525033612178565b5050565b600081565b600560205281600052604060002060205280600052604060002060009150915050806000015490806001015490806002016040518060800160405290816000820160009054906101000a900460ff161515151581526020016001820154815260200160028201548152602001600382015481525050905083565b600080600560008573ffffffffffffffffffffffffffffffffffffffff1673ffffffffffffffffffffffffffffffffffffffff16815260200190815260200160002060008481526020019081526020016000206002016040518060800160405290816000820160009054906101000a900460ff16151515158152602001600182015481526020016002820154815260200160038201548152505090508060000151611080576040517f08c379a000000000000000000000000000000000000000000000000000000000815260040161107790613415565b60405180910390fd5b6000600360008360200151815260200190815260200160002060009054906101000a900473ffffffffffffffffffffffffffffffffffffffff169050600081905060008173ffffffffffffffffffffffffffffffffffffffff16635fe2d68985602001516040518263ffffffff1660e01b81526004016111009190613555565b60206040518083038186803b15801561111857600080fd5b505afa15801561112c573d6000803e3d6000fd5b505050506040513d601f19601f820116820180604052508101906111509190612de5565b90508084606001514261116391906137d0565b61116d9190613745565b94505050505092915050565b60008290506000808273ffffffffffffffffffffffffffffffffffffffff1663d41db84b856040518263ffffffff1660e01b81526004016111ba9190613555565b6040805180830381600087803b1580156111d357600080fd5b505af11580156111e7573d6000803e3d6000fd5b505050506040513d601f19601f8201168201806040525081019061120b9190612e0e565b80925081935050508073ffffffffffffffffffffffffffffffffffffffff163373ffffffffffffffffffffffffffffffffffffffff1614611281576040517f08c379a0000000000000000000000000000000000000000000000000000000008152600401611278906134b5565b60405180910390fd5b846003600086815260200190815260200160002060006101000a81548173ffffffffffffffffffffffffffffffffffffffff021916908373ffffffffffffffffffffffffffffffffffffffff1602179055506112ee81858460405180602001604052806000815250611deb565b5050505050565b8173ffffffffffffffffffffffffffffffffffffffff16611314611f81565b73ffffffffffffffffffffffffffffffffffffffff16141561136b576040517f08c379a0000000000000000000000000000000000000000000000000000000008152600401611362906134d5565b60405180910390fd5b8060016000611378611f81565b73ffffffffffffffffffffffffffffffffffffffff1673ffffffffffffffffffffffffffffffffffffffff16815260200190815260200160002060008473ffffffffffffffffffffffffffffffffffffffff1673ffffffffffffffffffffffffffffffffffffffff16815260200190815260200160002060006101000a81548160ff0219169083151502179055508173ffffffffffffffffffffffffffffffffffffffff16611425611f81565b73ffffffffffffffffffffffffffffffffffffffff167f17307eab39ab6107e8899845ad3d59bd9653f200f220920489ca2b5937696c318360405161146a919061333d565b60405180910390a35050565b60036020528060005260406000206000915054906101000a900473ffffffffffffffffffffffffffffffffffffffff1681565b600063bc197c8160e01b905095945050505050565b6000600160008473ffffffffffffffffffffffffffffffffffffffff1673ffffffffffffffffffffffffffffffffffffffff16815260200190815260200160002060008373ffffffffffffffffffffffffffffffffffffffff1673ffffffffffffffffffffffffffffffffffffffff16815260200190815260200160002060009054906101000a900460ff16905092915050565b600063f23a6e6160e01b90509695505050505050565b600073ffffffffffffffffffffffffffffffffffffffff168473ffffffffffffffffffffffffffffffffffffffff1614156115d8576040517f08c379a00000000000000000000000000000000000000000000000000000000081526004016115cf90613435565b60405180910390fd5b6115e0611f81565b73ffffffffffffffffffffffffffffffffffffffff168573ffffffffffffffffffffffffffffffffffffffff161480611626575061162585611620611f81565b6114be565b5b611665576040517f08c379a000000000000000000000000000000000000000000000000000000000815260040161165c906133f5565b60405180910390fd5b600061166f611f81565b905061168f818787611680886124d2565b611689886124d2565b87611f89565b600080600086815260200190815260200160002060008873ffffffffffffffffffffffffffffffffffffffff1673ffffffffffffffffffffffffffffffffffffffff16815260200190815260200160002054905083811015611726576040517f08c379a000000000000000000000000000000000000000000000000000000000815260040161171d90613495565b60405180910390fd5b838161173291906137d0565b60008087815260200190815260200160002060008973ffffffffffffffffffffffffffffffffffffffff1673ffffffffffffffffffffffffffffffffffffffff168152602001908152602001600020819055508360008087815260200190815260200160002060008873ffffffffffffffffffffffffffffffffffffffff1673ffffffffffffffffffffffffffffffffffffffff16815260200190815260200160002060008282546117e491906136ef565b925050819055508573ffffffffffffffffffffffffffffffffffffffff168773ffffffffffffffffffffffffffffffffffffffff168373ffffffffffffffffffffffffffffffffffffffff167fc3d58168c5ae7397731d063d5bbf3d657854427343f4c083240f7aacaa2d0f628888604051611861929190613570565b60405180910390a4611877828888888888612598565b50505050505050565b60007f01ffc9a7000000000000000000000000000000000000000000000000000000007bffffffffffffffffffffffffffffffffffffffffffffffffffffffff1916827bffffffffffffffffffffffffffffffffffffffffffffffffffffffff1916149050919050565b600080600560008473ffffffffffffffffffffffffffffffffffffffff1673ffffffffffffffffffffffffffffffffffffffff168152602001908152602001600020600080815260200190815260200160002060010154149050919050565b6000600460008373ffffffffffffffffffffffffffffffffffffffff1673ffffffffffffffffffffffffffffffffffffffff16815260200190815260200160002054905060008314156119d1576040517f08c379a00000000000000000000000000000000000000000000000000000000081526004016119c890613475565b60405180910390fd5b80831415611a7157600560008373ffffffffffffffffffffffffffffffffffffffff1673ffffffffffffffffffffffffffffffffffffffff168152602001908152602001600020600082815260200190815260200160002060000154600460008473ffffffffffffffffffffffffffffffffffffffff1673ffffffffffffffffffffffffffffffffffffffff168152602001908152602001600020819055505b6000600560008473ffffffffffffffffffffffffffffffffffffffff1673ffffffffffffffffffffffffffffffffffffffff16815260200190815260200160002060008581526020019081526020016000206000015490506000600560008573ffffffffffffffffffffffffffffffffffffffff1673ffffffffffffffffffffffffffffffffffffffff1681526020019081526020016000206000868152602001908152602001600020600101549050600560008573ffffffffffffffffffffffffffffffffffffffff1673ffffffffffffffffffffffffffffffffffffffff168152602001908152602001600020600086815260200190815260200160002060010154600560008673ffffffffffffffffffffffffffffffffffffffff1673ffffffffffffffffffffffffffffffffffffffff168152602001908152602001600020600084815260200190815260200160002060010181905550600560008573ffffffffffffffffffffffffffffffffffffffff1673ffffffffffffffffffffffffffffffffffffffff168152602001908152602001600020600086815260200190815260200160002060000154600560008673ffffffffffffffffffffffffffffffffffffffff1673ffffffffffffffffffffffffffffffffffffffff168152602001908152602001600020600083815260200190815260200160002060000181905550604051806080016040528060001515815260200160008152602001600081526020016000815250600560003373ffffffffffffffffffffffffffffffffffffffff1673ffffffffffffffffffffffffffffffffffffffff168152602001908152602001600020600087815260200190815260200160002060020160008201518160000160006101000a81548160ff0219169083151502179055506020820151816001015560408201518160020155606082015181600301559050506000600560003373ffffffffffffffffffffffffffffffffffffffff1673ffffffffffffffffffffffffffffffffffffffff1681526020019081526020016000206000878152602001908152602001600020600101819055506000600560003373ffffffffffffffffffffffffffffffffffffffff1673ffffffffffffffffffffffffffffffffffffffff1681526020019081526020016000206000878152602001908152602001600020600001819055505050505050565b600073ffffffffffffffffffffffffffffffffffffffff168473ffffffffffffffffffffffffffffffffffffffff161415611e5b576040517f08c379a0000000000000000000000000000000000000000000000000000000008152600401611e5290613535565b60405180910390fd5b6000611e65611f81565b9050611e8681600087611e77886124d2565b611e80886124d2565b87611f89565b8260008086815260200190815260200160002060008773ffffffffffffffffffffffffffffffffffffffff1673ffffffffffffffffffffffffffffffffffffffff1681526020019081526020016000206000828254611ee591906136ef565b925050819055508473ffffffffffffffffffffffffffffffffffffffff16600073ffffffffffffffffffffffffffffffffffffffff168273ffffffffffffffffffffffffffffffffffffffff167fc3d58168c5ae7397731d063d5bbf3d657854427343f4c083240f7aacaa2d0f628787604051611f63929190613570565b60405180910390a4611f7a81600087878787612598565b5050505050565b600033905090565b505050505050565b611fb08473ffffffffffffffffffffffffffffffffffffffff1661277f565b15612170578373ffffffffffffffffffffffffffffffffffffffff1663bc197c8187878686866040518663ffffffff1660e01b8152600401611ff6959493929190613222565b602060405180830381600087803b15801561201057600080fd5b505af192505050801561204157506040513d601f19601f8201168201806040525081019061203e9190612d93565b60015b6120e75761204d613a22565b806308c379a014156120aa5750612062613e68565b8061206d57506120ac565b806040517f08c379a00000000000000000000000000000000000000000000000000000000081526004016120a19190613373565b60405180910390fd5b505b6040517f08c379a00000000000000000000000000000000000000000000000000000000081526004016120de90613395565b60405180910390fd5b63bc197c8160e01b7bffffffffffffffffffffffffffffffffffffffffffffffffffffffff1916817bffffffffffffffffffffffffffffffffffffffffffffffffffffffff19161461216e576040517f08c379a0000000000000000000000000000000000000000000000000000000008152600401612165906133b5565b60405180910390fd5b505b505050505050565b6000600460008373ffffffffffffffffffffffffffffffffffffffff1673ffffffffffffffffffffffffffffffffffffffff1681526020019081526020016000205490506121c5826118ea565b1561233b576001600560008473ffffffffffffffffffffffffffffffffffffffff1673ffffffffffffffffffffffffffffffffffffffff1681526020019081526020016000206000808152602001908152602001600020600101819055506040518060600160405280600081526020016000815260200184815250600560008473ffffffffffffffffffffffffffffffffffffffff1673ffffffffffffffffffffffffffffffffffffffff168152602001908152602001600020600060018152602001908152602001600020600082015181600001556020820151816001015560408201518160020160008201518160000160006101000a81548160ff02191690831515021790555060208201518160010155604082015181600201556060820151816003015550509050506001600460008473ffffffffffffffffffffffffffffffffffffffff1673ffffffffffffffffffffffffffffffffffffffff168152602001908152602001600020819055506124cd565b60018161234891906136ef565b600560008473ffffffffffffffffffffffffffffffffffffffff1673ffffffffffffffffffffffffffffffffffffffff16815260200190815260200160002060008381526020019081526020016000206001018190555060405180606001604052808281526020016000815260200184815250600560008473ffffffffffffffffffffffffffffffffffffffff1673ffffffffffffffffffffffffffffffffffffffff168152602001908152602001600020600060018461240991906136ef565b8152602001908152602001600020600082015181600001556020820151816001015560408201518160020160008201518160000160006101000a81548160ff0219169083151502179055506020820151816001015560408201518160020155606082015181600301555050905050600460008373ffffffffffffffffffffffffffffffffffffffff1673ffffffffffffffffffffffffffffffffffffffff16815260200190815260200160002060008154809291906124c79061391d565b91905055505b505050565b60606000600167ffffffffffffffff811115612517577f4e487b7100000000000000000000000000000000000000000000000000000000600052604160045260246000fd5b6040519080825280602002602001820160405280156125455781602001602082028036833780820191505090505b5090508281600081518110612583577f4e487b7100000000000000000000000000000000000000000000000000000000600052603260045260246000fd5b60200260200101818152505080915050919050565b6125b78473ffffffffffffffffffffffffffffffffffffffff1661277f565b15612777578373ffffffffffffffffffffffffffffffffffffffff1663f23a6e6187878686866040518663ffffffff1660e01b81526004016125fd95949392919061328a565b602060405180830381600087803b15801561261757600080fd5b505af192505050801561264857506040513d601f19601f820116820180604052508101906126459190612d93565b60015b6126ee57612654613a22565b806308c379a014156126b15750612669613e68565b8061267457506126b3565b806040517f08c379a00000000000000000000000000000000000000000000000000000000081526004016126a89190613373565b60405180910390fd5b505b6040517f08c379a00000000000000000000000000000000000000000000000000000000081526004016126e590613395565b60405180910390fd5b63f23a6e6160e01b7bffffffffffffffffffffffffffffffffffffffffffffffffffffffff1916817bffffffffffffffffffffffffffffffffffffffffffffffffffffffff191614612775576040517f08c379a000000000000000000000000000000000000000000000000000000000815260040161276c906133b5565b60405180910390fd5b505b505050505050565b600080823b905060008111915050919050565b60006127a56127a0846135f5565b6135d0565b905080838252602082019050828560208602820111156127c457600080fd5b60005b858110156127f457816127da88826128a8565b8452602084019350602083019250506001810190506127c7565b5050509392505050565b600061281161280c84613621565b6135d0565b9050808382526020820190508285602086028201111561283057600080fd5b60005b85811015612860578161284688826129ee565b845260208401935060208301925050600181019050612833565b5050509392505050565b600061287d6128788461364d565b6135d0565b90508281526020810184848401111561289557600080fd5b6128a0848285613878565b509392505050565b6000813590506128b781613efe565b92915050565b6000815190506128cc81613efe565b92915050565b600082601f8301126128e357600080fd5b81356128f3848260208601612792565b91505092915050565b600082601f83011261290d57600080fd5b813561291d8482602086016127fe565b91505092915050565b60008135905061293581613f15565b92915050565b60008151905061294a81613f15565b92915050565b60008135905061295f81613f2c565b92915050565b60008151905061297481613f2c565b92915050565b60008083601f84011261298c57600080fd5b8235905067ffffffffffffffff8111156129a557600080fd5b6020830191508360018202830111156129bd57600080fd5b9250929050565b600082601f8301126129d557600080fd5b81356129e584826020860161286a565b91505092915050565b6000813590506129fd81613f43565b92915050565b600081519050612a1281613f43565b92915050565b600060208284031215612a2a57600080fd5b6000612a38848285016128a8565b91505092915050565b60008060408385031215612a5457600080fd5b6000612a62858286016128a8565b9250506020612a73858286016128a8565b9150509250929050565b600080600080600060a08688031215612a9557600080fd5b6000612aa3888289016128a8565b9550506020612ab4888289016128a8565b945050604086013567ffffffffffffffff811115612ad157600080fd5b612add888289016128fc565b935050606086013567ffffffffffffffff811115612afa57600080fd5b612b06888289016128fc565b925050608086013567ffffffffffffffff811115612b2357600080fd5b612b2f888289016129c4565b9150509295509295909350565b60008060008060008060a08789031215612b5557600080fd5b6000612b6389828a016128a8565b9650506020612b7489828a016128a8565b9550506040612b8589828a016129ee565b9450506060612b9689828a016129ee565b935050608087013567ffffffffffffffff811115612bb357600080fd5b612bbf89828a0161297a565b92509250509295509295509295565b600080600080600060a08688031215612be657600080fd5b6000612bf4888289016128a8565b9550506020612c05888289016128a8565b9450506040612c16888289016129ee565b9350506060612c27888289016129ee565b925050608086013567ffffffffffffffff811115612c4457600080fd5b612c50888289016129c4565b9150509295509295909350565b60008060408385031215612c7057600080fd5b6000612c7e858286016128a8565b9250506020612c8f85828601612926565b9150509250929050565b60008060408385031215612cac57600080fd5b6000612cba858286016128a8565b9250506020612ccb858286016129ee565b9150509250929050565b60008060408385031215612ce857600080fd5b600083013567ffffffffffffffff811115612d0257600080fd5b612d0e858286016128d2565b925050602083013567ffffffffffffffff811115612d2b57600080fd5b612d37858286016128fc565b9150509250929050565b600060208284031215612d5357600080fd5b6000612d618482850161293b565b91505092915050565b600060208284031215612d7c57600080fd5b6000612d8a84828501612950565b91505092915050565b600060208284031215612da557600080fd5b6000612db384828501612965565b91505092915050565b600060208284031215612dce57600080fd5b6000612ddc848285016129ee565b91505092915050565b600060208284031215612df757600080fd5b6000612e0584828501612a03565b91505092915050565b60008060408385031215612e2157600080fd5b6000612e2f85828601612a03565b9250506020612e40858286016128bd565b9150509250929050565b60008060408385031215612e5d57600080fd5b6000612e6b858286016129ee565b9250506020612e7c858286016129ee565b9150509250929050565b6000612e9283836131e9565b60208301905092915050565b612ea781613804565b82525050565b6000612eb88261368e565b612ec281856136bc565b9350612ecd8361367e565b8060005b83811015612efe578151612ee58882612e86565b9750612ef0836136af565b925050600181019050612ed1565b5085935050505092915050565b612f1481613816565b82525050565b612f2381613816565b82525050565b612f3281613822565b82525050565b6000612f4382613699565b612f4d81856136cd565b9350612f5d818560208601613887565b612f6681613a44565b840191505092915050565b6000612f7c826136a4565b612f8681856136de565b9350612f96818560208601613887565b612f9f81613a44565b840191505092915050565b6000612fb76034836136de565b9150612fc282613a62565b604082019050919050565b6000612fda6028836136de565b9150612fe582613ab1565b604082019050919050565b6000612ffd602b836136de565b915061300882613b00565b604082019050919050565b60006130206029836136de565b915061302b82613b4f565b604082019050919050565b6000613043601c836136de565b915061304e82613b9e565b602082019050919050565b60006130666025836136de565b915061307182613bc7565b604082019050919050565b60006130896032836136de565b915061309482613c16565b604082019050919050565b60006130ac6016836136de565b91506130b782613c65565b602082019050919050565b60006130cf602a836136de565b91506130da82613c8e565b604082019050919050565b60006130f2603b836136de565b91506130fd82613cdd565b604082019050919050565b60006131156029836136de565b915061312082613d2c565b604082019050919050565b60006131386029836136de565b915061314382613d7b565b604082019050919050565b600061315b6028836136de565b915061316682613dca565b604082019050919050565b600061317e6021836136de565b915061318982613e19565b604082019050919050565b6080820160008201516131aa6000850182612f0b565b5060208201516131bd60208501826131e9565b5060408201516131d060408501826131e9565b5060608201516131e360608501826131e9565b50505050565b6131f28161386e565b82525050565b6132018161386e565b82525050565b600060208201905061321c6000830184612e9e565b92915050565b600060a0820190506132376000830188612e9e565b6132446020830187612e9e565b81810360408301526132568186612ead565b9050818103606083015261326a8185612ead565b9050818103608083015261327e8184612f38565b90509695505050505050565b600060a08201905061329f6000830188612e9e565b6132ac6020830187612e9e565b6132b960408301866131f8565b6132c660608301856131f8565b81810360808301526132d88184612f38565b90509695505050505050565b600060208201905081810360008301526132fe8184612ead565b905092915050565b600060408201905081810360008301526133208185612ead565b905081810360208301526133348184612ead565b90509392505050565b60006020820190506133526000830184612f1a565b92915050565b600060208201905061336d6000830184612f29565b92915050565b6000602082019050818103600083015261338d8184612f71565b905092915050565b600060208201905081810360008301526133ae81612faa565b9050919050565b600060208201905081810360008301526133ce81612fcd565b9050919050565b600060208201905081810360008301526133ee81612ff0565b9050919050565b6000602082019050818103600083015261340e81613013565b9050919050565b6000602082019050818103600083015261342e81613036565b9050919050565b6000602082019050818103600083015261344e81613059565b9050919050565b6000602082019050818103600083015261346e8161307c565b9050919050565b6000602082019050818103600083015261348e8161309f565b9050919050565b600060208201905081810360008301526134ae816130c2565b9050919050565b600060208201905081810360008301526134ce816130e5565b9050919050565b600060208201905081810360008301526134ee81613108565b9050919050565b6000602082019050818103600083015261350e8161312b565b9050919050565b6000602082019050818103600083015261352e8161314e565b9050919050565b6000602082019050818103600083015261354e81613171565b9050919050565b600060208201905061356a60008301846131f8565b92915050565b600060408201905061358560008301856131f8565b61359260208301846131f8565b9392505050565b600060c0820190506135ae60008301866131f8565b6135bb60208301856131f8565b6135c86040830184613194565b949350505050565b60006135da6135eb565b90506135e682826138ec565b919050565b6000604051905090565b600067ffffffffffffffff8211156136105761360f6139f3565b5b602082029050602081019050919050565b600067ffffffffffffffff82111561363c5761363b6139f3565b5b602082029050602081019050919050565b600067ffffffffffffffff821115613668576136676139f3565b5b61367182613a44565b9050602081019050919050565b6000819050602082019050919050565b600081519050919050565b600081519050919050565b600081519050919050565b6000602082019050919050565b600082825260208201905092915050565b600082825260208201905092915050565b600082825260208201905092915050565b60006136fa8261386e565b91506137058361386e565b9250827fffffffffffffffffffffffffffffffffffffffffffffffffffffffffffffffff0382111561373a57613739613966565b5b828201905092915050565b60006137508261386e565b915061375b8361386e565b92508261376b5761376a613995565b5b828204905092915050565b60006137818261386e565b915061378c8361386e565b9250817fffffffffffffffffffffffffffffffffffffffffffffffffffffffffffffffff04831182151516156137c5576137c4613966565b5b828202905092915050565b60006137db8261386e565b91506137e68361386e565b9250828210156137f9576137f8613966565b5b828203905092915050565b600061380f8261384e565b9050919050565b60008115159050919050565b60007fffffffff0000000000000000000000000000000000000000000000000000000082169050919050565b600073ffffffffffffffffffffffffffffffffffffffff82169050919050565b6000819050919050565b82818337600083830152505050565b60005b838110156138a557808201518184015260208101905061388a565b838111156138b4576000848401525b50505050565b600060028204905060018216806138d257607f821691505b602082108114156138e6576138e56139c4565b5b50919050565b6138f582613a44565b810181811067ffffffffffffffff82111715613914576139136139f3565b5b80604052505050565b60006139288261386e565b91507fffffffffffffffffffffffffffffffffffffffffffffffffffffffffffffffff82141561395b5761395a613966565b5b600182019050919050565b7f4e487b7100000000000000000000000000000000000000000000000000000000600052601160045260246000fd5b7f4e487b7100000000000000000000000000000000000000000000000000000000600052601260045260246000fd5b7f4e487b7100000000000000000000000000000000000000000000000000000000600052602260045260246000fd5b7f4e487b7100000000000000000000000000000000000000000000000000000000600052604160045260246000fd5b600060033d1115613a415760046000803e613a3e600051613a55565b90505b90565b6000601f19601f8301169050919050565b60008160e01c9050919050565b7f455243313135353a207472616e7366657220746f206e6f6e204552433131353560008201527f526563656976657220696d706c656d656e746572000000000000000000000000602082015250565b7f455243313135353a204552433131353552656365697665722072656a6563746560008201527f6420746f6b656e73000000000000000000000000000000000000000000000000602082015250565b7f455243313135353a2062616c616e636520717565727920666f7220746865207a60008201527f65726f2061646472657373000000000000000000000000000000000000000000602082015250565b7f455243313135353a2063616c6c6572206973206e6f74206f776e6572206e6f7260008201527f20617070726f7665640000000000000000000000000000000000000000000000602082015250565b7f596f7520617265206e6f74207374616b696e6720616e79204e46547300000000600082015250565b7f455243313135353a207472616e7366657220746f20746865207a65726f20616460008201527f6472657373000000000000000000000000000000000000000000000000000000602082015250565b7f455243313135353a207472616e736665722063616c6c6572206973206e6f742060008201527f6f776e6572206e6f7220617070726f7665640000000000000000000000000000602082015250565b7f63616e6e6f742064656c65746520746865206865616400000000000000000000600082015250565b7f455243313135353a20696e73756666696369656e742062616c616e636520666f60008201527f72207472616e7366657200000000000000000000000000000000000000000000602082015250565b7f4f6e6c792074686520626f72726f776572206f66207468697320636f6e74726160008201527f63742063616e206d696e742074686520626f6e647320746f2069740000000000602082015250565b7f455243313135353a2073657474696e6720617070726f76616c2073746174757360008201527f20666f722073656c660000000000000000000000000000000000000000000000602082015250565b7f455243313135353a206163636f756e747320616e6420696473206c656e67746860008201527f206d69736d617463680000000000000000000000000000000000000000000000602082015250565b7f455243313135353a2069647320616e6420616d6f756e7473206c656e6774682060008201527f6d69736d61746368000000000000000000000000000000000000000000000000602082015250565b7f455243313135353a206d696e7420746f20746865207a65726f2061646472657360008201527f7300000000000000000000000000000000000000000000000000000000000000602082015250565b600060443d1015613e7857613efb565b613e806135eb565b60043d036004823e80513d602482011167ffffffffffffffff82111715613ea8575050613efb565b808201805167ffffffffffffffff811115613ec65750505050613efb565b80602083010160043d038501811115613ee3575050505050613efb565b613ef2826020018501866138ec565b82955050505050505b90565b613f0781613804565b8114613f1257600080fd5b50565b613f1e81613816565b8114613f2957600080fd5b50565b613f3581613822565b8114613f4057600080fd5b50565b613f4c8161386e565b8114613f5757600080fd5b5056fea2646970667358221220e6d10e69183a7aab81726d881785df5c896409b667d9527f854aa821e571f64864736f6c63430008010033",
  "immutableReferences": {},
  "source": "/// SPDX-License-Identifier: None\npragma solidity ^0.8.0;\n\nimport \"@openzeppelin/contracts/token/ERC1155/ERC1155.sol\";\nimport {IERC20PaymentStandard} from './IERC20PaymentStandard.sol';\n/**\n* @title Bonds\n* @author Carson Case\n* @notice Bonds mints ERC1155 tokens that represent ownership of a loan specified by a Payment Contract. These bonds can accrue interest and be exchanged for payments made in the payment contract\n */\ncontract Bonds is ERC1155 {\n    \n    //Stores ID-> payment contract relationships\n    mapping(uint256 => address) public IDToContract;\n\n    /// @notice A linked list is used to keep track of staking for each user. This is so we can delete (ustake) nodes in constant time while still being able to itterate easily\n    /// @dev may one day use this in payment standard as well to itterate through loans per person.\n    //Data held per person to keep track of staking\n    struct IOU{\n        bool staking;\n        uint256 ID;\n        uint256 ammount;\n        uint256 timeStaked;\n    }\n    \n    //Node for a linked list\n    struct node{\n        uint last;\n        uint next;\n        IOU value;\n    }\n\n    //In the linked list the head is always 0. Head actually represents null. There will never be a value stored there\n    uint256 constant public head = 0;\n\n    //Used to keep track of this info for each user's linked list of staking data\n    mapping(address => uint256) public llTail;\n\n    /// @notice this is the staking linked list. Access the node to find the next/last.The 0 node is the HEAD and cannot hold values. If HEAD points to\n    /// itself then it's empty\n    mapping(address => mapping(uint256 => node)) public staking;\n    \n    //Constructor. Empty for now except the metadata url\n    constructor() ERC1155(\"https://test.com/api/{id}.json\"){}\n    \n    /**\n    * @notice function creates the tokens for a new loan so they can be sold to generate funding\n    * @param _paymentContractAddress is the address of the loan's contract. \"Borrower\" in this\n    * @param _id is the ID of the loan you;re minting\n     */\n    function newLoan(address _paymentContractAddress, uint256 _id) external{\n        IERC20PaymentStandard pc = IERC20PaymentStandard(_paymentContractAddress);\n        uint256 amm;\n        address creator;\n        (amm, creator) = pc.issueBonds(_id);\n        require(msg.sender == creator, \"Only the borrower of this contract can mint the bonds to it\");\n        IDToContract[_id] = _paymentContractAddress;\n        _mint(creator, _id, amm, \"\");\n    }\n    \n    /**\n    * @notice function stakes an ammount of ERC-1155's with id from sender\n    * @param _id is the token's id\n    * @param _amm is the ammount to stake\n     */\n    function stake(uint256 _id, uint256 _amm) external {\n        safeTransferFrom(msg.sender, address(this), _id, _amm, \"\");\n        _push(IOU(\n            true,\n            _id,\n            _amm,\n            block.timestamp\n        ),msg.sender);\n    }\n\n    /** \n    * @notice function unstakes bonds\n    * @param _index is the index in the linked list mentioned above with state varaibles\n    * @return if successful. May not be if loan has been completed since staking\n     */\n    function unstake(uint256 _index) external returns(bool){\n        require(!_isEmpty(msg.sender), \"You are not staking any NFTs\");\n        uint256 id = staking[msg.sender][_index].value.ID; \n        uint256 amm = staking[msg.sender][_index].value.ammount;\n        uint256 x = getAccruances(msg.sender,_index);\n        address paymentContract = IDToContract[id];\n        //Reset the staking for sender before calling any functions\n        \n        //Remove staking from the ll\n        _del(_index, msg.sender);\n        //Call the payment contract before minting or transfering any tokens\n        IERC20PaymentStandard pc = IERC20PaymentStandard(paymentContract);\n        uint256 toMint = x * (amm / pc.getInterest(id));\n        bool r;                 //Store return so we can call other contract before mint funciton. Don't want callback attacks\n        //Update the balance with new interest. Store return value based on response.\n        if(pc.addInterest(toMint, id)){\n            r = true;\n        }else{\n            r = false;\n        }\n        //safeTransferFrom(address(this), msg.sender, id, amm, \"\"); This causes an issue. It thinks itself is not approved. Just going to mint for now\n        _mint(msg.sender, id, toMint+amm, \"\");\n        return r;\n        \n    }\n    \n    /**\n    * @notice function get's how many accruance periods a person has staked through\n    * @param _who is who to check\n    * @param _index in the linked list\n    * @return the number of periods\n     */\n    function getAccruances(address _who, uint256 _index) public view returns(uint256) {\n        IOU memory iou = staking[_who][_index].value;\n        require(iou.staking,\"You are not staking any NFTs\");\n        address paymentContract = IDToContract[iou.ID];\n        IERC20PaymentStandard pc = IERC20PaymentStandard(paymentContract);\n        uint256 accrualPeriod = pc.getInterest(iou.ID);\n        return((block.timestamp - iou.timeStaked)/accrualPeriod);\n    }\n    \n    /// @notice ERC1155 receiver function\n    function onERC1155Received\n        (\n        address _operator,\n        address _from,\n        uint256 _id,\n        uint256 _value,\n        bytes calldata _data\n        ) \n        public \n        returns(bytes4)\n        {\n            return this.onERC1155Received.selector;\n    }\n\n    /// @notice ERC1155 batch receiver function\n    function onERC1155BatchReceived\n        (\n        address _operator, \n        address _from, \n        uint256[] memory _ids, \n        uint256[] memory _values, \n        bytes memory _data\n        ) \n        public \n        virtual \n        returns (bytes4) \n            {\n            return this.onERC1155BatchReceived.selector;\n    }\n\n\n    /*=============================================================\n    *LINKED LIST FUNCTIONS \n    *BELLOW \n    ==============================================================*/\n    \n    /**\n    * @notice helper function\n    * @param _who to lookup the linked list of\n    * @return if ll is empty\n     */\n    function _isEmpty(address _who) private view returns(bool){\n        return(staking[_who][head].next == 0);   \n    }\n    \n    /** @notice push to tail of linkedList\n    * @param _val is the value to insert at tail\n    * @param _who is who to push in ll mapping\n     */\n    function _push(IOU memory _val, address _who) private{\n        uint256 tail = llTail[_who];\n        if(_isEmpty(_who)){\n            staking[_who][head].next = 1;\n            staking[_who][1] = node(0,0,_val);\n            llTail[_who] = 1;\n        }else{\n            staking[_who][tail].next = tail+1;\n            staking[_who][tail+1] = node(tail,0,_val);\n            llTail[_who]++;\n        }\n    }\n    \n    /** @notice delete at a given index\n    * @param _index is the pointer to the node\n    * @param _who is who in ll mapping\n     */\n    function _del(uint256 _index, address _who) private{\n        uint256 tail = llTail[_who];\n        require(_index != head,\"cannot delete the head\");\n        if(_index == tail){\n            llTail[_who] = staking[_who][tail].last;\n        }\n        uint256 a = staking[_who][_index].last;\n        uint256 b = staking[_who][_index].next;\n        staking[_who][a].next = staking[_who][_index].next;\n        staking[_who][b].last = staking[_who][_index].last;\n        \n        staking[msg.sender][_index].value = IOU(\n            false,\n            0,\n            0,\n            0\n        );\n        staking[msg.sender][_index].next = 0;\n        staking[msg.sender][_index].last = 0;\n        \n    }\n}\n\n",
  "sourcePath": "/home/carson/Documents/linkHackathon2021/loan-wolf/contracts/contracts/Bonds.sol",
  "compiler": {
    "name": "solc",
    "version": "0.8.1+commit.df193b15.Emscripten.clang"
  },
  "schemaVersion": "3.3.4",
  "updatedAt": "2021-04-06T01:53:47.983Z",
  "networkType": "ethereum",
  "devdoc": {
    "author": "Carson Case",
    "kind": "dev",
    "methods": {
      "balanceOf(address,uint256)": {
        "details": "See {IERC1155-balanceOf}. Requirements: - `account` cannot be the zero address."
      },
      "balanceOfBatch(address[],uint256[])": {
        "details": "See {IERC1155-balanceOfBatch}. Requirements: - `accounts` and `ids` must have the same length."
      },
      "getAccruances(address,uint256)": {
        "params": {
          "_index": "in the linked list",
          "_who": "is who to check"
        },
        "returns": {
          "_0": "the number of periods"
        }
      },
      "isApprovedForAll(address,address)": {
        "details": "See {IERC1155-isApprovedForAll}."
      },
      "newLoan(address,uint256)": {
        "params": {
          "_id": "is the ID of the loan you;re minting",
          "_paymentContractAddress": "is the address of the loan's contract. \"Borrower\" in this"
        }
      },
      "safeBatchTransferFrom(address,address,uint256[],uint256[],bytes)": {
        "details": "See {IERC1155-safeBatchTransferFrom}."
      },
      "safeTransferFrom(address,address,uint256,uint256,bytes)": {
        "details": "See {IERC1155-safeTransferFrom}."
      },
      "setApprovalForAll(address,bool)": {
        "details": "See {IERC1155-setApprovalForAll}."
      },
      "stake(uint256,uint256)": {
        "params": {
          "_amm": "is the ammount to stake",
          "_id": "is the token's id"
        }
      },
      "supportsInterface(bytes4)": {
        "details": "See {IERC165-supportsInterface}."
      },
      "unstake(uint256)": {
        "params": {
          "_index": "is the index in the linked list mentioned above with state varaibles"
        },
        "returns": {
          "_0": "if successful. May not be if loan has been completed since staking"
        }
      },
      "uri(uint256)": {
        "details": "See {IERC1155MetadataURI-uri}. This implementation returns the same URI for *all* token types. It relies on the token type ID substitution mechanism https://eips.ethereum.org/EIPS/eip-1155#metadata[defined in the EIP]. Clients calling this function must replace the `\\{id\\}` substring with the actual token type ID."
      }
    },
    "title": "Bonds",
    "version": 1
  },
  "userdoc": {
    "kind": "user",
    "methods": {
      "getAccruances(address,uint256)": {
        "notice": "function get's how many accruance periods a person has staked through"
      },
      "newLoan(address,uint256)": {
        "notice": "function creates the tokens for a new loan so they can be sold to generate funding"
      },
      "onERC1155BatchReceived(address,address,uint256[],uint256[],bytes)": {
        "notice": "ERC1155 batch receiver function"
      },
      "onERC1155Received(address,address,uint256,uint256,bytes)": {
        "notice": "ERC1155 receiver function"
      },
      "stake(uint256,uint256)": {
        "notice": "function stakes an ammount of ERC-1155's with id from sender"
      },
      "staking(address,uint256)": {
        "notice": "this is the staking linked list. Access the node to find the next/last.The 0 node is the HEAD and cannot hold values. If HEAD points to itself then it's empty"
      },
      "unstake(uint256)": {
        "notice": "function unstakes bonds"
      }
    },
    "notice": "Bonds mints ERC1155 tokens that represent ownership of a loan specified by a Payment Contract. These bonds can accrue interest and be exchanged for payments made in the payment contract",
    "version": 1
  }
}