{
  "contractName": "Bonds",
  "abi": [
    {
      "inputs": [],
      "stateMutability": "nonpayable",
      "type": "constructor"
    },
    {
      "anonymous": false,
      "inputs": [
        {
          "indexed": true,
          "internalType": "address",
          "name": "account",
          "type": "address"
        },
        {
          "indexed": true,
          "internalType": "address",
          "name": "operator",
          "type": "address"
        },
        {
          "indexed": false,
          "internalType": "bool",
          "name": "approved",
          "type": "bool"
        }
      ],
      "name": "ApprovalForAll",
      "type": "event"
    },
    {
      "anonymous": false,
      "inputs": [
        {
          "indexed": true,
          "internalType": "address",
          "name": "operator",
          "type": "address"
        },
        {
          "indexed": true,
          "internalType": "address",
          "name": "from",
          "type": "address"
        },
        {
          "indexed": true,
          "internalType": "address",
          "name": "to",
          "type": "address"
        },
        {
          "indexed": false,
          "internalType": "uint256[]",
          "name": "ids",
          "type": "uint256[]"
        },
        {
          "indexed": false,
          "internalType": "uint256[]",
          "name": "values",
          "type": "uint256[]"
        }
      ],
      "name": "TransferBatch",
      "type": "event"
    },
    {
      "anonymous": false,
      "inputs": [
        {
          "indexed": true,
          "internalType": "address",
          "name": "operator",
          "type": "address"
        },
        {
          "indexed": true,
          "internalType": "address",
          "name": "from",
          "type": "address"
        },
        {
          "indexed": true,
          "internalType": "address",
          "name": "to",
          "type": "address"
        },
        {
          "indexed": false,
          "internalType": "uint256",
          "name": "id",
          "type": "uint256"
        },
        {
          "indexed": false,
          "internalType": "uint256",
          "name": "value",
          "type": "uint256"
        }
      ],
      "name": "TransferSingle",
      "type": "event"
    },
    {
      "anonymous": false,
      "inputs": [
        {
          "indexed": false,
          "internalType": "string",
          "name": "value",
          "type": "string"
        },
        {
          "indexed": true,
          "internalType": "uint256",
          "name": "id",
          "type": "uint256"
        }
      ],
      "name": "URI",
      "type": "event"
    },
    {
      "inputs": [
        {
          "internalType": "uint256",
          "name": "",
          "type": "uint256"
        }
      ],
      "name": "IDToContract",
      "outputs": [
        {
          "internalType": "address",
          "name": "",
          "type": "address"
        }
      ],
      "stateMutability": "view",
      "type": "function"
    },
    {
      "inputs": [
        {
          "internalType": "address",
          "name": "account",
          "type": "address"
        },
        {
          "internalType": "uint256",
          "name": "id",
          "type": "uint256"
        }
      ],
      "name": "balanceOf",
      "outputs": [
        {
          "internalType": "uint256",
          "name": "",
          "type": "uint256"
        }
      ],
      "stateMutability": "view",
      "type": "function"
    },
    {
      "inputs": [
        {
          "internalType": "address[]",
          "name": "accounts",
          "type": "address[]"
        },
        {
          "internalType": "uint256[]",
          "name": "ids",
          "type": "uint256[]"
        }
      ],
      "name": "balanceOfBatch",
      "outputs": [
        {
          "internalType": "uint256[]",
          "name": "",
          "type": "uint256[]"
        }
      ],
      "stateMutability": "view",
      "type": "function"
    },
    {
      "inputs": [],
      "name": "head",
      "outputs": [
        {
          "internalType": "uint256",
          "name": "",
          "type": "uint256"
        }
      ],
      "stateMutability": "view",
      "type": "function"
    },
    {
      "inputs": [
        {
          "internalType": "address",
          "name": "account",
          "type": "address"
        },
        {
          "internalType": "address",
          "name": "operator",
          "type": "address"
        }
      ],
      "name": "isApprovedForAll",
      "outputs": [
        {
          "internalType": "bool",
          "name": "",
          "type": "bool"
        }
      ],
      "stateMutability": "view",
      "type": "function"
    },
    {
      "inputs": [
        {
          "internalType": "address",
          "name": "",
          "type": "address"
        }
      ],
      "name": "llTail",
      "outputs": [
        {
          "internalType": "uint256",
          "name": "",
          "type": "uint256"
        }
      ],
      "stateMutability": "view",
      "type": "function"
    },
    {
      "inputs": [
        {
          "internalType": "address",
          "name": "from",
          "type": "address"
        },
        {
          "internalType": "address",
          "name": "to",
          "type": "address"
        },
        {
          "internalType": "uint256[]",
          "name": "ids",
          "type": "uint256[]"
        },
        {
          "internalType": "uint256[]",
          "name": "amounts",
          "type": "uint256[]"
        },
        {
          "internalType": "bytes",
          "name": "data",
          "type": "bytes"
        }
      ],
      "name": "safeBatchTransferFrom",
      "outputs": [],
      "stateMutability": "nonpayable",
      "type": "function"
    },
    {
      "inputs": [
        {
          "internalType": "address",
          "name": "from",
          "type": "address"
        },
        {
          "internalType": "address",
          "name": "to",
          "type": "address"
        },
        {
          "internalType": "uint256",
          "name": "id",
          "type": "uint256"
        },
        {
          "internalType": "uint256",
          "name": "amount",
          "type": "uint256"
        },
        {
          "internalType": "bytes",
          "name": "data",
          "type": "bytes"
        }
      ],
      "name": "safeTransferFrom",
      "outputs": [],
      "stateMutability": "nonpayable",
      "type": "function"
    },
    {
      "inputs": [
        {
          "internalType": "address",
          "name": "operator",
          "type": "address"
        },
        {
          "internalType": "bool",
          "name": "approved",
          "type": "bool"
        }
      ],
      "name": "setApprovalForAll",
      "outputs": [],
      "stateMutability": "nonpayable",
      "type": "function"
    },
    {
      "inputs": [
        {
          "internalType": "address",
          "name": "",
          "type": "address"
        },
        {
          "internalType": "uint256",
          "name": "",
          "type": "uint256"
        }
      ],
      "name": "staking",
      "outputs": [
        {
          "internalType": "uint256",
          "name": "last",
          "type": "uint256"
        },
        {
          "internalType": "uint256",
          "name": "next",
          "type": "uint256"
        },
        {
          "components": [
            {
              "internalType": "uint256",
              "name": "ID",
              "type": "uint256"
            },
            {
              "internalType": "uint256",
              "name": "ammount",
              "type": "uint256"
            },
            {
              "internalType": "uint256",
              "name": "timeStaked",
              "type": "uint256"
            }
          ],
          "internalType": "struct Bonds.IOU",
          "name": "value",
          "type": "tuple"
        }
      ],
      "stateMutability": "view",
      "type": "function"
    },
    {
      "inputs": [
        {
          "internalType": "bytes4",
          "name": "interfaceId",
          "type": "bytes4"
        }
      ],
      "name": "supportsInterface",
      "outputs": [
        {
          "internalType": "bool",
          "name": "",
          "type": "bool"
        }
      ],
      "stateMutability": "view",
      "type": "function"
    },
    {
      "inputs": [
        {
          "internalType": "uint256",
          "name": "",
          "type": "uint256"
        }
      ],
      "name": "uri",
      "outputs": [
        {
          "internalType": "string",
          "name": "",
          "type": "string"
        }
      ],
      "stateMutability": "view",
      "type": "function"
    },
    {
      "inputs": [
        {
          "internalType": "address",
          "name": "_paymentContractAddress",
          "type": "address"
        },
        {
          "internalType": "uint256",
          "name": "_id",
          "type": "uint256"
        }
      ],
      "name": "newLoan",
      "outputs": [],
      "stateMutability": "nonpayable",
      "type": "function"
    },
    {
      "inputs": [
        {
          "internalType": "uint256",
          "name": "_id",
          "type": "uint256"
        },
        {
          "internalType": "uint256",
          "name": "_amm",
          "type": "uint256"
        }
      ],
      "name": "stake",
      "outputs": [],
      "stateMutability": "nonpayable",
      "type": "function"
    },
    {
      "inputs": [
        {
          "internalType": "uint256",
          "name": "_index",
          "type": "uint256"
        }
      ],
      "name": "unstake",
      "outputs": [
        {
          "internalType": "bool",
          "name": "",
          "type": "bool"
        }
      ],
      "stateMutability": "nonpayable",
      "type": "function"
    },
    {
      "inputs": [
        {
          "internalType": "address",
          "name": "_who",
          "type": "address"
        },
        {
          "internalType": "uint256",
          "name": "_index",
          "type": "uint256"
        }
      ],
      "name": "getAccruances",
      "outputs": [
        {
          "internalType": "uint256",
          "name": "",
          "type": "uint256"
        }
      ],
      "stateMutability": "view",
      "type": "function"
    },
    {
      "inputs": [
        {
          "internalType": "address",
          "name": "_operator",
          "type": "address"
        },
        {
          "internalType": "address",
          "name": "_from",
          "type": "address"
        },
        {
          "internalType": "uint256",
          "name": "_id",
          "type": "uint256"
        },
        {
          "internalType": "uint256",
          "name": "_value",
          "type": "uint256"
        },
        {
          "internalType": "bytes",
          "name": "_data",
          "type": "bytes"
        }
      ],
      "name": "onERC1155Received",
      "outputs": [
        {
          "internalType": "bytes4",
          "name": "",
          "type": "bytes4"
        }
      ],
      "stateMutability": "nonpayable",
      "type": "function"
    },
    {
      "inputs": [
        {
          "internalType": "address",
          "name": "_operator",
          "type": "address"
        },
        {
          "internalType": "address",
          "name": "_from",
          "type": "address"
        },
        {
          "internalType": "uint256[]",
          "name": "_ids",
          "type": "uint256[]"
        },
        {
          "internalType": "uint256[]",
          "name": "_values",
          "type": "uint256[]"
        },
        {
          "internalType": "bytes",
          "name": "_data",
          "type": "bytes"
        }
      ],
      "name": "onERC1155BatchReceived",
      "outputs": [
        {
          "internalType": "bytes4",
          "name": "",
          "type": "bytes4"
        }
      ],
      "stateMutability": "nonpayable",
      "type": "function"
    }
  ],
  "bytecode": "0x60806040523480156200001157600080fd5b5060408051808201909152601e81527f68747470733a2f2f746573742e636f6d2f6170692f7b69647d2e6a736f6e000060208201526200005a8164010000000062000061810204565b5062000176565b8051620000769060029060208401906200007a565b5050565b828054620000889062000120565b90600052602060002090601f016020900481019282620000ac5760008555620000f7565b82601f10620000c757805160ff1916838001178555620000f7565b82800160010185558215620000f7579182015b82811115620000f7578251825591602001919060010190620000da565b506200010592915062000109565b5090565b5b808211156200010557600081556001016200010a565b6002810460018216806200013557607f821691505b6020821081141562000170577f4e487b7100000000000000000000000000000000000000000000000000000000600052602260045260246000fd5b50919050565b6124b480620001866000396000f3fe608060405234801561001057600080fd5b50600436106101195760003560e060020a9004806395dfea77116100a6578063a59061bc11610075578063a59061bc14610258578063bc197c8114610278578063e985e9c514610298578063f23a6e61146102ab578063f242432a146102be57610119565b806395dfea77146101fd57806397ed51d31461021f578063a097b7ab14610232578063a22cb4651461024557610119565b80632eb2c2d6116100ed5780632eb2c2d61461019a578063485eddc9146101af5780634e1273f4146101c25780637b0472f0146101e25780638f7dcfa3146101f557610119565b8062fdd58e1461011e57806301ffc9a7146101475780630e89341c146101675780632e17de7814610187575b600080fd5b61013161012c366004611987565b6102d1565b60405161013e9190612204565b60405180910390f35b61015a610155366004611a99565b61032b565b60405161013e9190611caa565b61017a610175366004611ad1565b6103a3565b60405161013e9190611cca565b61015a610195366004611ad1565b610437565b6101ad6101a83660046117a4565b610631565b005b6101316101bd366004611749565b6108a9565b6101d56101d03660046119b2565b6108bb565b60405161013e9190611c69565b6101ad6101f0366004611b25565b6109ea565b610131610a2e565b61021061020b366004611987565b610a33565b60405161013e9392919061221b565b61013161022d366004611987565b610a81565b6101ad610240366004611987565b610bc3565b6101ad61025336600461195a565b610ce7565b61026b610266366004611ad1565b610db8565b60405161013e9190611bcb565b61028b6102863660046117a4565b610dd3565b60405161013e9190611cb5565b61015a6102a636600461176c565b610dfd565b61028b6102b936600461184e565b610e2b565b6101ad6102cc3660046118f3565b610e56565b6000600160a060020a0383166103055760405160e560020a62461bcd0281526004016102fc90611d97565b60405180910390fd5b50600090815260208181526040808320600160a060020a03949094168352929052205490565b6000600160e060020a031982167fd9b67a2600000000000000000000000000000000000000000000000000000000148061038e5750600160e060020a031982167f0e89341c00000000000000000000000000000000000000000000000000000000145b8061039d575061039d82610ff5565b92915050565b6060600280546103b2906122dd565b80601f01602080910402602001604051908101604052809291908181526020018280546103de906122dd565b801561042b5780601f106104005761010080835404028352916020019161042b565b820191906000526020600020905b81548152906001019060200180831161040e57829003601f168201915b50505050509050919050565b600061044233611027565b156104625760405160e560020a62461bcd0281526004016102fc90611e51565b3360008181526005602090815260408083208684529091528120600281015460039091015490929091906104969086610a81565b600084815260036020526040902054909150600160a060020a03166104bb8633611051565b6040517f5fe2d6890000000000000000000000000000000000000000000000000000000081528190600090600160a060020a03831690635fe2d68990610505908990600401612204565b60206040518083038186803b15801561051d57600080fd5b505afa158015610531573d6000803e3d6000fd5b505050506040513d601f19601f820116820180604052508101906105559190611ae9565b61055f9086612284565b61056990856122a7565b9050600082600160a060020a031663e62e1e4283896040518363ffffffff1660e060020a02815260040161059e92919061220d565b602060405180830381600087803b1580156105b857600080fd5b505af11580156105cc573d6000803e3d6000fd5b505050506040513d601f19601f820116820180604052508101906105f09190611a7d565b156105fd57506001610601565b5060005b6106253388610610898661226c565b6040518060200160405280600081525061114a565b98975050505050505050565b81518351146106555760405160e560020a62461bcd0281526004016102fc9061214a565b600160a060020a03841661067e5760405160e560020a62461bcd0281526004016102fc90611ee5565b61068661122d565b600160a060020a031685600160a060020a031614806106ac57506106ac856102a661122d565b6106cb5760405160e560020a62461bcd0281526004016102fc90611f42565b60006106d561122d565b90506106e58187878787876108a1565b60005b845181101561083b5760008582815181106107165760e060020a634e487b7102600052603260045260246000fd5b6020026020010151905060008583815181106107455760e060020a634e487b7102600052603260045260246000fd5b60209081029190910181015160008481528083526040808220600160a060020a038e1683529093529190912054909150818110156107985760405160e560020a62461bcd0281526004016102fc90611fd6565b6107a282826122c6565b60008085815260200190815260200160002060008c600160a060020a0316600160a060020a03168152602001908152602001600020819055508160008085815260200190815260200160002060008b600160a060020a0316600160a060020a031681526020019081526020016000206000828254610820919061226c565b925050819055505050508061083490612348565b90506106e8565b5084600160a060020a031686600160a060020a031682600160a060020a03167f4a39dc06d4c0dbc64b70af90fd698a233a518aa5d07e595d983b8c0526c8f7fb878760405161088b929190611c7c565b60405180910390a46108a1818787878787611232565b505050505050565b60046020526000908152604090205481565b606081518351146108e15760405160e560020a62461bcd0281526004016102fc906120ed565b6000835167ffffffffffffffff81111561090e5760e060020a634e487b7102600052604160045260246000fd5b604051908082528060200260200182016040528015610937578160200160208202803683370190505b50905060005b84518110156109e2576109a485828151811061096c5760e060020a634e487b7102600052603260045260246000fd5b60200260200101518583815181106109975760e060020a634e487b7102600052603260045260246000fd5b60200260200101516102d1565b8282815181106109c75760e060020a634e487b7102600052603260045260246000fd5b60209081029190910101526109db81612348565b905061093d565b509392505050565b610a063330848460405180602001604052806000815250610e56565b610a2a60405180606001604052808481526020018381526020014281525033611392565b5050565b600081565b60056020908152600092835260408084208252918352918190208054600182015483516060810185526002840154815260038401549581019590955260049092015492840192909252909183565b600160a060020a03821660009081526005602090815260408083208484528252808320815160608101835260028201548082526003830154948201949094526004909101549181019190915290610aed5760405160e560020a62461bcd0281526004016102fc90611e88565b805160009081526003602052604080822054835191517f5fe2d689000000000000000000000000000000000000000000000000000000008152600160a060020a0390911692839290918391635fe2d68991610b4b9190600401612204565b60206040518083038186803b158015610b6357600080fd5b505afa158015610b77573d6000803e3d6000fd5b505050506040513d601f19601f82011682018060405250810190610b9b9190611ae9565b905080846040015142610bae91906122c6565b610bb89190612284565b979650505050505050565b6040517fd41db84b00000000000000000000000000000000000000000000000000000000815282906000908190600160a060020a0384169063d41db84b90610c0f908790600401612204565b6040805180830381600087803b158015610c2857600080fd5b505af1158015610c3c573d6000803e3d6000fd5b505050506040513d601f19601f82011682018060405250810190610c609190611b01565b909250905033600160a060020a03821614610c905760405160e560020a62461bcd0281526004016102fc90612033565b6000848152600360209081526040808320805473ffffffffffffffffffffffffffffffffffffffff1916600160a060020a038a1617905580519182019052908152610ce09082908690859061114a565b5050505050565b81600160a060020a0316610cf961122d565b600160a060020a03161415610d235760405160e560020a62461bcd0281526004016102fc90612090565b8060016000610d3061122d565b600160a060020a03908116825260208083019390935260409182016000908120918716808252919093529120805460ff191692151592909217909155610d7461122d565b600160a060020a03167f17307eab39ab6107e8899845ad3d59bd9653f200f220920489ca2b5937696c3183604051610dac9190611caa565b60405180910390a35050565b600360205260009081526040902054600160a060020a031681565b7fbc197c810000000000000000000000000000000000000000000000000000000095945050505050565b600160a060020a03918216600090815260016020908152604080832093909416825291909152205460ff1690565b7ff23a6e61000000000000000000000000000000000000000000000000000000009695505050505050565b600160a060020a038416610e7f5760405160e560020a62461bcd0281526004016102fc90611ee5565b610e8761122d565b600160a060020a031685600160a060020a03161480610ead5750610ead856102a661122d565b610ecc5760405160e560020a62461bcd0281526004016102fc90611df4565b6000610ed661122d565b9050610ef6818787610ee788611500565b610ef088611500565b876108a1565b600084815260208181526040808320600160a060020a038a16845290915290205483811015610f3a5760405160e560020a62461bcd0281526004016102fc90611fd6565b610f4484826122c6565b600086815260208181526040808320600160a060020a038c81168552925280832093909355881681529081208054869290610f8090849061226c565b9250508190555085600160a060020a031687600160a060020a031683600160a060020a03167fc3d58168c5ae7397731d063d5bbf3d657854427343f4c083240f7aacaa2d0f628888604051610fd692919061220d565b60405180910390a4610fec82888888888861155c565b50505050505050565b600160e060020a031981167f01ffc9a70000000000000000000000000000000000000000000000000000000014919050565b600160a060020a031660009081526005602090815260408083208380529091529020600101541590565b600160a060020a0381166000908152600460205260409020548261108a5760405160e560020a62461bcd0281526004016102fc90611f9f565b808314156110c257600160a060020a038216600081815260056020908152604080832085845282528083205493835260049091529020555b50600160a060020a031660009081526005602081815260408084208585528252808420805460018083015491875283872081018290559154908652828620558151606081018352858152808401868152818401878152338852958552838720978752969093529084209151600283015593516003820155905160048201559182018190559055565b600160a060020a0384166111735760405160e560020a62461bcd0281526004016102fc906121a7565b600061117d61122d565b905061118f81600087610ee788611500565b600084815260208181526040808320600160a060020a0389168452909152812080548592906111bf90849061226c565b9250508190555084600160a060020a03166000600160a060020a031682600160a060020a03167fc3d58168c5ae7397731d063d5bbf3d657854427343f4c083240f7aacaa2d0f62878760405161121692919061220d565b60405180910390a4610ce08160008787878761155c565b335b90565b61124484600160a060020a0316611662565b156108a1576040517fbc197c81000000000000000000000000000000000000000000000000000000008152600160a060020a0385169063bc197c81906112969089908990889088908890600401611bdf565b602060405180830381600087803b1580156112b057600080fd5b505af19250505080156112e0575060408051601f3d908101601f191682019092526112dd91810190611ab5565b60015b611346576112ec612395565b806308c379a0141561132957506113016123b0565b8061130c575061132b565b8060405160e560020a62461bcd0281526004016102fc9190611cca565b505b60405160e560020a62461bcd0281526004016102fc90611cdd565b600160e060020a031981167fbc197c810000000000000000000000000000000000000000000000000000000014610fec5760405160e560020a62461bcd0281526004016102fc90611d3a565b600160a060020a0381166000908152600460205260409020546113b482611027565b1561143757600160a060020a0382166000818152600560209081526040808320838052808352818420600190810181905582516060810184528581528085018681528185018b81528388529386528487209151825551818301559151805160028401558085015160038401558301516004928301559484529091529020556114fb565b61144281600161226c565b600160a060020a038316600081815260056020818152604080842087855280835281852060019081019790975581516060810183528881528084018690529182018a90529484529190529261149890859061226c565b815260208082019290925260409081016000908120845181558484015160018201559382015180516002860155808401516003860155820151600494850155600160a060020a03861681529290915281208054916114f583612348565b91905055505b505050565b6040805160018082528183019092526060916000919060208083019080368337019050509050828160008151811061154b5760e060020a634e487b7102600052603260045260246000fd5b602090810291909101015292915050565b61156e84600160a060020a0316611662565b156108a1576040517ff23a6e61000000000000000000000000000000000000000000000000000000008152600160a060020a0385169063f23a6e61906115c09089908990889088908890600401611c31565b602060405180830381600087803b1580156115da57600080fd5b505af192505050801561160a575060408051601f3d908101601f1916820190925261160791810190611ab5565b60015b611616576112ec612395565b600160e060020a031981167ff23a6e610000000000000000000000000000000000000000000000000000000014610fec5760405160e560020a62461bcd0281526004016102fc90611d3a565b3b151590565b600082601f830112611678578081fd5b8135602061168582612248565b604051611692828261231b565b8381528281019150858301838502870184018810156116af578586fd5b855b858110156116cd578135845292840192908401906001016116b1565b5090979650505050505050565b600082601f8301126116ea578081fd5b813567ffffffffffffffff8111156117045761170461237c565b60405161171b601f8301601f19166020018261231b565b81815284602083860101111561172f578283fd5b816020850160208301379081016020019190915292915050565b60006020828403121561175a578081fd5b813561176581612442565b9392505050565b6000806040838503121561177e578081fd5b823561178981612442565b9150602083013561179981612442565b809150509250929050565b600080600080600060a086880312156117bb578081fd5b85356117c681612442565b945060208601356117d681612442565b9350604086013567ffffffffffffffff808211156117f2578283fd5b6117fe89838a01611668565b94506060880135915080821115611813578283fd5b61181f89838a01611668565b93506080880135915080821115611834578283fd5b50611841888289016116da565b9150509295509295909350565b60008060008060008060a08789031215611866578081fd5b863561187181612442565b9550602087013561188181612442565b94506040870135935060608701359250608087013567ffffffffffffffff808211156118ab578283fd5b818901915089601f8301126118be578283fd5b8135818111156118cc578384fd5b8a60208285010111156118dd578384fd5b6020830194508093505050509295509295509295565b600080600080600060a0868803121561190a578081fd5b853561191581612442565b9450602086013561192581612442565b93506040860135925060608601359150608086013567ffffffffffffffff81111561194e578182fd5b611841888289016116da565b6000806040838503121561196c578182fd5b823561197781612442565b915060208301356117998161245a565b60008060408385031215611999578081fd5b82356119a481612442565b946020939093013593505050565b600080604083850312156119c4578182fd5b823567ffffffffffffffff808211156119db578384fd5b818501915085601f8301126119ee578384fd5b813560206119fb82612248565b604051611a08828261231b565b8381528281019150858301838502870184018b1015611a25578889fd5b8896505b84871015611a50578035611a3c81612442565b835260019690960195918301918301611a29565b5096505086013592505080821115611a66578283fd5b50611a7385828601611668565b9150509250929050565b600060208284031215611a8e578081fd5b81516117658161245a565b600060208284031215611aaa578081fd5b813561176581612468565b600060208284031215611ac6578081fd5b815161176581612468565b600060208284031215611ae2578081fd5b5035919050565b600060208284031215611afa578081fd5b5051919050565b60008060408385031215611b13578182fd5b82519150602083015161179981612442565b60008060408385031215611b37578182fd5b50508035926020909101359150565b6000815180845260208085019450808401835b83811015611b7557815187529582019590820190600101611b59565b509495945050505050565b60008151808452815b81811015611ba557602081850181015186830182015201611b89565b81811115611bb65782602083870101525b50601f01601f19169290920160200192915050565b600160a060020a0391909116815260200190565b6000600160a060020a03808816835280871660208401525060a06040830152611c0b60a0830186611b46565b8281036060840152611c1d8186611b46565b905082810360808401526106258185611b80565b6000600160a060020a03808816835280871660208401525084604083015283606083015260a06080830152610bb860a0830184611b80565b6000602082526117656020830184611b46565b600060408252611c8f6040830185611b46565b8281036020840152611ca18185611b46565b95945050505050565b901515815260200190565b600160e060020a031991909116815260200190565b6000602082526117656020830184611b80565b60208082526034908201527f455243313135353a207472616e7366657220746f206e6f6e204552433131353560408201527f526563656976657220696d706c656d656e746572000000000000000000000000606082015260800190565b60208082526028908201527f455243313135353a204552433131353552656365697665722072656a6563746560408201527f6420746f6b656e73000000000000000000000000000000000000000000000000606082015260800190565b6020808252602b908201527f455243313135353a2062616c616e636520717565727920666f7220746865207a60408201527f65726f2061646472657373000000000000000000000000000000000000000000606082015260800190565b60208082526029908201527f455243313135353a2063616c6c6572206973206e6f74206f776e6572206e6f7260408201527f20617070726f7665640000000000000000000000000000000000000000000000606082015260800190565b6020808252601c908201527f596f7520617265206e6f74207374616b696e6720616e79204e46547300000000604082015260600190565b6020808252602c908201527f596f7520617265206e6f74207374616b696e6720616e7920746f6b656e73206160408201527f74207468697320696e6465780000000000000000000000000000000000000000606082015260800190565b60208082526025908201527f455243313135353a207472616e7366657220746f20746865207a65726f20616460408201527f6472657373000000000000000000000000000000000000000000000000000000606082015260800190565b60208082526032908201527f455243313135353a207472616e736665722063616c6c6572206973206e6f742060408201527f6f776e6572206e6f7220617070726f7665640000000000000000000000000000606082015260800190565b60208082526016908201527f63616e6e6f742064656c65746520746865206865616400000000000000000000604082015260600190565b6020808252602a908201527f455243313135353a20696e73756666696369656e742062616c616e636520666f60408201527f72207472616e7366657200000000000000000000000000000000000000000000606082015260800190565b6020808252603b908201527f4f6e6c792074686520626f72726f776572206f66207468697320636f6e74726160408201527f63742063616e206d696e742074686520626f6e647320746f2069740000000000606082015260800190565b60208082526029908201527f455243313135353a2073657474696e6720617070726f76616c2073746174757360408201527f20666f722073656c660000000000000000000000000000000000000000000000606082015260800190565b60208082526029908201527f455243313135353a206163636f756e747320616e6420696473206c656e67746860408201527f206d69736d617463680000000000000000000000000000000000000000000000606082015260800190565b60208082526028908201527f455243313135353a2069647320616e6420616d6f756e7473206c656e6774682060408201527f6d69736d61746368000000000000000000000000000000000000000000000000606082015260800190565b60208082526021908201527f455243313135353a206d696e7420746f20746865207a65726f2061646472657360408201527f7300000000000000000000000000000000000000000000000000000000000000606082015260800190565b90815260200190565b918252602082015260400190565b92835260208084019290925280516040808501919091529181015160608401520151608082015260a00190565b600067ffffffffffffffff8211156122625761226261237c565b5060209081020190565b6000821982111561227f5761227f612363565b500190565b6000826122a25760e060020a634e487b710281526012600452602481fd5b500490565b60008160001904831182151516156122c1576122c1612363565b500290565b6000828210156122d8576122d8612363565b500390565b6002810460018216806122f157607f821691505b602082108114156123155760e060020a634e487b7102600052602260045260246000fd5b50919050565b601f8201601f1916810167ffffffffffffffff811182821017156123415761234161237c565b6040525050565b600060001982141561235c5761235c612363565b5060010190565b60e060020a634e487b7102600052601160045260246000fd5b60e060020a634e487b7102600052604160045260246000fd5b600060033d111561122f57600481823e5160e060020a900490565b600060443d10156123c05761122f565b6040516003193d81016004833e81513d67ffffffffffffffff81602484011181841117156123f257505050505061122f565b828501915081518181111561240c5750505050505061122f565b843d87010160208285010111156124285750505050505061122f565b6124376020828601018761231b565b509094505050505090565b600160a060020a038116811461245757600080fd5b50565b801515811461245757600080fd5b600160e060020a03198116811461245757600080fdfea26469706673582212205966a1a956bfffd8660634fad4e8dd5f9694339a68f4f7357ddae79a8e34967064736f6c63430008010033",
  "immutableReferences": {},
  "source": "/// SPDX-License-Identifier: None\npragma solidity ^0.8.0;\n\nimport \"@openzeppelin/contracts/token/ERC1155/ERC1155.sol\";\nimport {IERC20PaymentStandard} from './IERC20PaymentStandard.sol';\n/**\n* @title Bonds\n* @author Carson Case\n* @notice Bonds mints ERC1155 tokens that represent ownership of a loan specified by a Payment Contract. These bonds can accrue interest and be exchanged for payments made in the payment contract\n */\ncontract Bonds is ERC1155 {\n    \n    //Stores ID-> payment contract relationships\n    mapping(uint256 => address) public IDToContract;\n\n    /// @notice A linked list is used to keep track of staking for each user. This is so we can delete (ustake) nodes in constant time while still being able to itterate easily\n    /// @dev may one day use this in payment standard as well to itterate through loans per person.\n    //Data held per person to keep track of staking\n    struct IOU{\n        uint256 ID;\n        uint256 ammount;\n        uint256 timeStaked;\n    }\n    \n    //Node for a linked list\n    struct node{\n        uint last;\n        uint next;\n        IOU value;\n    }\n\n    //In the linked list the head is always 0. Head actually represents null. There will never be a value stored there\n    uint256 constant public head = 0;\n\n    //Used to keep track of this info for each user's linked list of staking data\n    mapping(address => uint256) public llTail;\n\n    /// @notice this is the staking linked list. Access the node to find the next/last.The 0 node is the HEAD and cannot hold values. If HEAD points to\n    /// itself then it's empty\n    mapping(address => mapping(uint256 => node)) public staking;\n    \n    //Constructor. Empty for now except the metadata url\n    constructor() ERC1155(\"https://test.com/api/{id}.json\"){}\n    \n    /**\n    * @notice function creates the tokens for a new loan so they can be sold to generate funding\n    * @param _paymentContractAddress is the address of the loan's contract. \"Borrower\" in this\n    * @param _id is the ID of the loan you're minting\n     */\n    function newLoan(address _paymentContractAddress, uint256 _id) external{\n        IERC20PaymentStandard pc = IERC20PaymentStandard(_paymentContractAddress);\n        uint256 amm;\n        address creator;\n        (amm, creator) = pc.issueBonds(_id);\n        require(msg.sender == creator, \"Only the borrower of this contract can mint the bonds to it\");\n        IDToContract[_id] = _paymentContractAddress;\n        _mint(creator, _id, amm, \"\");\n    }\n    \n    /**\n    * @notice function stakes an ammount of ERC-1155's with id from sender. MUST Approve contract first\n    * @param _id is the token's id\n    * @param _amm is the ammount to stake\n     */\n    function stake(uint256 _id, uint256 _amm) external {\n        safeTransferFrom(msg.sender, address(this), _id, _amm, \"\");\n        _push(IOU(\n            _id,\n            _amm,\n            block.timestamp\n        ),msg.sender);\n    }\n\n    /** \n    * @notice function unstakes bonds\n    * @param _index is the index in the linked list mentioned above with state varaibles\n    * @return if successful. May not be if loan has been completed since staking\n     */\n    function unstake(uint256 _index) external returns(bool){\n        require(!_isEmpty(msg.sender), \"You are not staking any NFTs\");\n        //Get some important variables\n        uint256 id = staking[msg.sender][_index].value.ID; \n        uint256 amm = staking[msg.sender][_index].value.ammount;\n        uint256 periodsStaked = getAccruances(msg.sender,_index);\n        address paymentContract = IDToContract[id];\n        \n        //Remove staking from the ll\n        _del(_index, msg.sender);\n        //Call the payment contract before minting or transfering any tokens\n        IERC20PaymentStandard pc = IERC20PaymentStandard(paymentContract);\n        uint256 toMint = periodsStaked * (amm / pc.getInterest(id));\n        bool r;                 //Store return so we can call other contract before mint funciton. Don't want callback attacks\n        //Update the balance with new interest. Store return value based on response.\n        if(pc.addInterest(toMint, id)){\n            r = true;\n        }else{\n            r = false;\n        }\n        //safeTransferFrom(address(this), msg.sender, id, amm, \"\"); This causes an issue. It thinks itself is not approved. Just going to mint for now\n        _mint(msg.sender, id, toMint+amm, \"\");\n        return r;\n        \n    }\n    \n    /**\n    * @notice function get's how many accruance periods a person has staked through\n    * @param _who is who to check\n    * @param _index in the linked list\n    * @return the number of periods\n     */\n    function getAccruances(address _who, uint256 _index) public view returns(uint256) {\n        IOU memory iou = staking[_who][_index].value;\n        require(iou.ID != 0,\"You are not staking any tokens at this index\");\n        address paymentContract = IDToContract[iou.ID];\n        IERC20PaymentStandard pc = IERC20PaymentStandard(paymentContract);\n        uint256 accrualPeriod = pc.getInterest(iou.ID);\n        return((block.timestamp - iou.timeStaked)/accrualPeriod);\n    }\n    \n    /// @notice ERC1155 receiver function\n    function onERC1155Received\n        (\n        address _operator,\n        address _from,\n        uint256 _id,\n        uint256 _value,\n        bytes calldata _data\n        ) \n        public \n        returns(bytes4)\n        {\n            return this.onERC1155Received.selector;\n    }\n\n    /// @notice ERC1155 batch receiver function\n    function onERC1155BatchReceived\n        (\n        address _operator, \n        address _from, \n        uint256[] memory _ids, \n        uint256[] memory _values, \n        bytes memory _data\n        ) \n        public \n        virtual \n        returns (bytes4) \n            {\n            return this.onERC1155BatchReceived.selector;\n    }\n\n\n    /*=============================================================\n    *LINKED LIST FUNCTIONS \n    *BELLOW \n    ==============================================================*/\n    \n    /**\n    * @notice helper function\n    * @param _who to lookup the linked list of\n    * @return if ll is empty\n     */\n    function _isEmpty(address _who) private view returns(bool){\n        return(staking[_who][head].next == 0);   \n    }\n    \n    /** @notice push to tail of linkedList\n    * @param _val is the value to insert at tail\n    * @param _who is who to push in ll mapping\n     */\n    function _push(IOU memory _val, address _who) private{\n        uint256 tail = llTail[_who];\n        if(_isEmpty(_who)){\n            staking[_who][head].next = 1;\n            staking[_who][1] = node(0,0,_val);\n            llTail[_who] = 1;\n        }else{\n            staking[_who][tail].next = tail+1;\n            staking[_who][tail+1] = node(tail,0,_val);\n            llTail[_who]++;\n        }\n    }\n    \n    /** @notice delete at a given index\n    * @param _index is the pointer to the node\n    * @param _who is who in ll mapping\n     */\n    function _del(uint256 _index, address _who) private{\n        uint256 tail = llTail[_who];\n        require(_index != head,\"cannot delete the head\");\n        if(_index == tail){\n            llTail[_who] = staking[_who][tail].last;\n        }\n        uint256 a = staking[_who][_index].last;\n        uint256 b = staking[_who][_index].next;\n        staking[_who][a].next = staking[_who][_index].next;\n        staking[_who][b].last = staking[_who][_index].last;\n        \n        staking[msg.sender][_index].value = IOU(\n            0,\n            0,\n            0\n        );\n        staking[msg.sender][_index].next = 0;\n        staking[msg.sender][_index].last = 0;\n        \n    }\n}\n\n",
  "sourcePath": "/home/carson/Documents/linkHackathon2021/loan-wolf/contracts/contracts/Bonds.sol",
  "compiler": {
    "name": "solc",
    "version": "0.8.1+commit.df193b15.Emscripten.clang"
  },
  "schemaVersion": "3.3.4",
  "updatedAt": "2021-04-10T02:55:55.735Z",
  "devdoc": {
    "author": "Carson Case",
    "kind": "dev",
    "methods": {
      "balanceOf(address,uint256)": {
        "details": "See {IERC1155-balanceOf}. Requirements: - `account` cannot be the zero address."
      },
      "balanceOfBatch(address[],uint256[])": {
        "details": "See {IERC1155-balanceOfBatch}. Requirements: - `accounts` and `ids` must have the same length."
      },
      "getAccruances(address,uint256)": {
        "params": {
          "_index": "in the linked list",
          "_who": "is who to check"
        },
        "returns": {
          "_0": "the number of periods"
        }
      },
      "isApprovedForAll(address,address)": {
        "details": "See {IERC1155-isApprovedForAll}."
      },
      "newLoan(address,uint256)": {
        "params": {
          "_id": "is the ID of the loan you're minting",
          "_paymentContractAddress": "is the address of the loan's contract. \"Borrower\" in this"
        }
      },
      "safeBatchTransferFrom(address,address,uint256[],uint256[],bytes)": {
        "details": "See {IERC1155-safeBatchTransferFrom}."
      },
      "safeTransferFrom(address,address,uint256,uint256,bytes)": {
        "details": "See {IERC1155-safeTransferFrom}."
      },
      "setApprovalForAll(address,bool)": {
        "details": "See {IERC1155-setApprovalForAll}."
      },
      "stake(uint256,uint256)": {
        "params": {
          "_amm": "is the ammount to stake",
          "_id": "is the token's id"
        }
      },
      "supportsInterface(bytes4)": {
        "details": "See {IERC165-supportsInterface}."
      },
      "unstake(uint256)": {
        "params": {
          "_index": "is the index in the linked list mentioned above with state varaibles"
        },
        "returns": {
          "_0": "if successful. May not be if loan has been completed since staking"
        }
      },
      "uri(uint256)": {
        "details": "See {IERC1155MetadataURI-uri}. This implementation returns the same URI for *all* token types. It relies on the token type ID substitution mechanism https://eips.ethereum.org/EIPS/eip-1155#metadata[defined in the EIP]. Clients calling this function must replace the `\\{id\\}` substring with the actual token type ID."
      }
    },
    "title": "Bonds",
    "version": 1
  },
  "userdoc": {
    "kind": "user",
    "methods": {
      "getAccruances(address,uint256)": {
        "notice": "function get's how many accruance periods a person has staked through"
      },
      "newLoan(address,uint256)": {
        "notice": "function creates the tokens for a new loan so they can be sold to generate funding"
      },
      "onERC1155BatchReceived(address,address,uint256[],uint256[],bytes)": {
        "notice": "ERC1155 batch receiver function"
      },
      "onERC1155Received(address,address,uint256,uint256,bytes)": {
        "notice": "ERC1155 receiver function"
      },
      "stake(uint256,uint256)": {
        "notice": "function stakes an ammount of ERC-1155's with id from sender. MUST Approve contract first"
      },
      "staking(address,uint256)": {
        "notice": "this is the staking linked list. Access the node to find the next/last.The 0 node is the HEAD and cannot hold values. If HEAD points to itself then it's empty"
      },
      "unstake(uint256)": {
        "notice": "function unstakes bonds"
      }
    },
    "notice": "Bonds mints ERC1155 tokens that represent ownership of a loan specified by a Payment Contract. These bonds can accrue interest and be exchanged for payments made in the payment contract",
    "version": 1
  }
}