{
  "contractName": "Bonds",
  "abi": [
    {
      "inputs": [],
      "stateMutability": "nonpayable",
      "type": "constructor"
    },
    {
      "anonymous": false,
      "inputs": [
        {
          "indexed": true,
          "internalType": "address",
          "name": "account",
          "type": "address"
        },
        {
          "indexed": true,
          "internalType": "address",
          "name": "operator",
          "type": "address"
        },
        {
          "indexed": false,
          "internalType": "bool",
          "name": "approved",
          "type": "bool"
        }
      ],
      "name": "ApprovalForAll",
      "type": "event"
    },
    {
      "anonymous": false,
      "inputs": [
        {
          "indexed": true,
          "internalType": "address",
          "name": "operator",
          "type": "address"
        },
        {
          "indexed": true,
          "internalType": "address",
          "name": "from",
          "type": "address"
        },
        {
          "indexed": true,
          "internalType": "address",
          "name": "to",
          "type": "address"
        },
        {
          "indexed": false,
          "internalType": "uint256[]",
          "name": "ids",
          "type": "uint256[]"
        },
        {
          "indexed": false,
          "internalType": "uint256[]",
          "name": "values",
          "type": "uint256[]"
        }
      ],
      "name": "TransferBatch",
      "type": "event"
    },
    {
      "anonymous": false,
      "inputs": [
        {
          "indexed": true,
          "internalType": "address",
          "name": "operator",
          "type": "address"
        },
        {
          "indexed": true,
          "internalType": "address",
          "name": "from",
          "type": "address"
        },
        {
          "indexed": true,
          "internalType": "address",
          "name": "to",
          "type": "address"
        },
        {
          "indexed": false,
          "internalType": "uint256",
          "name": "id",
          "type": "uint256"
        },
        {
          "indexed": false,
          "internalType": "uint256",
          "name": "value",
          "type": "uint256"
        }
      ],
      "name": "TransferSingle",
      "type": "event"
    },
    {
      "anonymous": false,
      "inputs": [
        {
          "indexed": false,
          "internalType": "string",
          "name": "value",
          "type": "string"
        },
        {
          "indexed": true,
          "internalType": "uint256",
          "name": "id",
          "type": "uint256"
        }
      ],
      "name": "URI",
      "type": "event"
    },
    {
      "inputs": [
        {
          "internalType": "address",
          "name": "account",
          "type": "address"
        },
        {
          "internalType": "uint256",
          "name": "id",
          "type": "uint256"
        }
      ],
      "name": "balanceOf",
      "outputs": [
        {
          "internalType": "uint256",
          "name": "",
          "type": "uint256"
        }
      ],
      "stateMutability": "view",
      "type": "function",
      "constant": true
    },
    {
      "inputs": [
        {
          "internalType": "address[]",
          "name": "accounts",
          "type": "address[]"
        },
        {
          "internalType": "uint256[]",
          "name": "ids",
          "type": "uint256[]"
        }
      ],
      "name": "balanceOfBatch",
      "outputs": [
        {
          "internalType": "uint256[]",
          "name": "",
          "type": "uint256[]"
        }
      ],
      "stateMutability": "view",
      "type": "function",
      "constant": true
    },
    {
      "inputs": [
        {
          "internalType": "address",
          "name": "account",
          "type": "address"
        },
        {
          "internalType": "address",
          "name": "operator",
          "type": "address"
        }
      ],
      "name": "isApprovedForAll",
      "outputs": [
        {
          "internalType": "bool",
          "name": "",
          "type": "bool"
        }
      ],
      "stateMutability": "view",
      "type": "function",
      "constant": true
    },
    {
      "inputs": [
        {
          "internalType": "address",
          "name": "from",
          "type": "address"
        },
        {
          "internalType": "address",
          "name": "to",
          "type": "address"
        },
        {
          "internalType": "uint256[]",
          "name": "ids",
          "type": "uint256[]"
        },
        {
          "internalType": "uint256[]",
          "name": "amounts",
          "type": "uint256[]"
        },
        {
          "internalType": "bytes",
          "name": "data",
          "type": "bytes"
        }
      ],
      "name": "safeBatchTransferFrom",
      "outputs": [],
      "stateMutability": "nonpayable",
      "type": "function"
    },
    {
      "inputs": [
        {
          "internalType": "address",
          "name": "from",
          "type": "address"
        },
        {
          "internalType": "address",
          "name": "to",
          "type": "address"
        },
        {
          "internalType": "uint256",
          "name": "id",
          "type": "uint256"
        },
        {
          "internalType": "uint256",
          "name": "amount",
          "type": "uint256"
        },
        {
          "internalType": "bytes",
          "name": "data",
          "type": "bytes"
        }
      ],
      "name": "safeTransferFrom",
      "outputs": [],
      "stateMutability": "nonpayable",
      "type": "function"
    },
    {
      "inputs": [
        {
          "internalType": "address",
          "name": "operator",
          "type": "address"
        },
        {
          "internalType": "bool",
          "name": "approved",
          "type": "bool"
        }
      ],
      "name": "setApprovalForAll",
      "outputs": [],
      "stateMutability": "nonpayable",
      "type": "function"
    },
    {
      "inputs": [
        {
          "internalType": "address",
          "name": "",
          "type": "address"
        }
      ],
      "name": "staking",
      "outputs": [
        {
          "internalType": "bool",
          "name": "staking",
          "type": "bool"
        },
        {
          "internalType": "uint256",
          "name": "ID",
          "type": "uint256"
        },
        {
          "internalType": "uint256",
          "name": "ammount",
          "type": "uint256"
        },
        {
          "internalType": "uint256",
          "name": "timeStaked",
          "type": "uint256"
        }
      ],
      "stateMutability": "view",
      "type": "function",
      "constant": true
    },
    {
      "inputs": [
        {
          "internalType": "bytes4",
          "name": "interfaceId",
          "type": "bytes4"
        }
      ],
      "name": "supportsInterface",
      "outputs": [
        {
          "internalType": "bool",
          "name": "",
          "type": "bool"
        }
      ],
      "stateMutability": "view",
      "type": "function",
      "constant": true
    },
    {
      "inputs": [
        {
          "internalType": "uint256",
          "name": "",
          "type": "uint256"
        }
      ],
      "name": "uri",
      "outputs": [
        {
          "internalType": "string",
          "name": "",
          "type": "string"
        }
      ],
      "stateMutability": "view",
      "type": "function",
      "constant": true
    },
    {
      "inputs": [
        {
          "internalType": "address",
          "name": "_paymentContractAddress",
          "type": "address"
        }
      ],
      "name": "newLoan",
      "outputs": [
        {
          "internalType": "uint256",
          "name": "",
          "type": "uint256"
        }
      ],
      "stateMutability": "nonpayable",
      "type": "function"
    },
    {
      "inputs": [
        {
          "internalType": "uint256",
          "name": "_id",
          "type": "uint256"
        },
        {
          "internalType": "uint256",
          "name": "_amm",
          "type": "uint256"
        }
      ],
      "name": "stake",
      "outputs": [],
      "stateMutability": "nonpayable",
      "type": "function"
    },
    {
      "inputs": [],
      "name": "unstakeAll",
      "outputs": [
        {
          "internalType": "bool",
          "name": "",
          "type": "bool"
        }
      ],
      "stateMutability": "nonpayable",
      "type": "function"
    },
    {
      "inputs": [
        {
          "internalType": "address",
          "name": "",
          "type": "address"
        },
        {
          "internalType": "address",
          "name": "",
          "type": "address"
        },
        {
          "internalType": "uint256",
          "name": "",
          "type": "uint256"
        },
        {
          "internalType": "uint256",
          "name": "",
          "type": "uint256"
        },
        {
          "internalType": "bytes",
          "name": "",
          "type": "bytes"
        }
      ],
      "name": "onERC1155Received",
      "outputs": [
        {
          "internalType": "bytes4",
          "name": "",
          "type": "bytes4"
        }
      ],
      "stateMutability": "nonpayable",
      "type": "function"
    },
    {
      "inputs": [
        {
          "internalType": "address",
          "name": "",
          "type": "address"
        },
        {
          "internalType": "address",
          "name": "",
          "type": "address"
        },
        {
          "internalType": "uint256[]",
          "name": "",
          "type": "uint256[]"
        },
        {
          "internalType": "uint256[]",
          "name": "",
          "type": "uint256[]"
        },
        {
          "internalType": "bytes",
          "name": "",
          "type": "bytes"
        }
      ],
      "name": "onERC1155BatchReceived",
      "outputs": [
        {
          "internalType": "bytes4",
          "name": "",
          "type": "bytes4"
        }
      ],
      "stateMutability": "nonpayable",
      "type": "function"
    }
  ],
  "bytecode": "0x60806040523480156200001157600080fd5b506040518060400160405280601e81526020017f68747470733a2f2f746573742e636f6d2f6170692f7b69647d2e6a736f6e000081525062000059816200006060201b60201c565b5062000191565b8060029080519060200190620000789291906200007c565b5050565b8280546200008a906200012c565b90600052602060002090601f016020900481019282620000ae5760008555620000fa565b82601f10620000c957805160ff1916838001178555620000fa565b82800160010185558215620000fa579182015b82811115620000f9578251825591602001919060010190620000dc565b5b5090506200010991906200010d565b5090565b5b80821115620001285760008160009055506001016200010e565b5090565b600060028204905060018216806200014557607f821691505b602082108114156200015c576200015b62000162565b5b50919050565b7f4e487b7100000000000000000000000000000000000000000000000000000000600052602260045260246000fd5b61361480620001a16000396000f3fe608060405234801561001057600080fd5b50600436106100e95760003560e01c8063893cfe131161008c578063d764b78f11610066578063d764b78f14610280578063e985e9c5146102b3578063f23a6e61146102e3578063f242432a14610313576100e9565b8063893cfe1314610204578063a22cb46514610234578063bc197c8114610250576100e9565b80632eb2c2d6116100c85780632eb2c2d61461017e57806335322f371461019a5780634e1273f4146101b85780637b0472f0146101e8576100e9565b8062fdd58e146100ee57806301ffc9a71461011e5780630e89341c1461014e575b600080fd5b610108600480360381019061010391906123a4565b61032f565b6040516101159190612bea565b60405180910390f35b61013860048036038101906101339190612475565b6103f8565b604051610145919061298d565b60405180910390f35b610168600480360381019061016391906124c7565b6104da565b6040516101759190612a08565b60405180910390f35b6101986004803603810190610193919061221a565b61056e565b005b6101a2610964565b6040516101af919061298d565b60405180910390f35b6101d260048036038101906101cd91906123e0565b610ca6565b6040516101df9190612934565b60405180910390f35b61020260048036038101906101fd9190612519565b610e57565b005b61021e6004803603810190610219919061218c565b610f1b565b60405161022b9190612bea565b60405180910390f35b61024e60048036038101906102499190612368565b61118f565b005b61026a6004803603810190610265919061221a565b611310565b60405161027791906129ed565b60405180910390f35b61029a6004803603810190610295919061218c565b611325565b6040516102aa94939291906129a8565b60405180910390f35b6102cd60048036038101906102c891906121de565b611362565b6040516102da919061298d565b60405180910390f35b6102fd60048036038101906102f891906122d9565b6113f6565b60405161030a91906129ed565b60405180910390f35b61032d600480360381019061032891906122d9565b61140b565b005b60008073ffffffffffffffffffffffffffffffffffffffff168373ffffffffffffffffffffffffffffffffffffffff1614156103a0576040517f08c379a000000000000000000000000000000000000000000000000000000000815260040161039790612a6a565b60405180910390fd5b60008083815260200190815260200160002060008473ffffffffffffffffffffffffffffffffffffffff1673ffffffffffffffffffffffffffffffffffffffff16815260200190815260200160002054905092915050565b60007fd9b67a26000000000000000000000000000000000000000000000000000000007bffffffffffffffffffffffffffffffffffffffffffffffffffffffff1916827bffffffffffffffffffffffffffffffffffffffffffffffffffffffff191614806104c357507f0e89341c000000000000000000000000000000000000000000000000000000007bffffffffffffffffffffffffffffffffffffffffffffffffffffffff1916827bffffffffffffffffffffffffffffffffffffffffffffffffffffffff1916145b806104d357506104d282611723565b5b9050919050565b6060600280546104e990612f18565b80601f016020809104026020016040519081016040528092919081815260200182805461051590612f18565b80156105625780601f1061053757610100808354040283529160200191610562565b820191906000526020600020905b81548152906001019060200180831161054557829003601f168201915b50505050509050919050565b81518351146105b2576040517f08c379a00000000000000000000000000000000000000000000000000000000081526004016105a990612baa565b60405180910390fd5b600073ffffffffffffffffffffffffffffffffffffffff168473ffffffffffffffffffffffffffffffffffffffff161415610622576040517f08c379a000000000000000000000000000000000000000000000000000000000815260040161061990612aea565b60405180910390fd5b61062a61178d565b73ffffffffffffffffffffffffffffffffffffffff168573ffffffffffffffffffffffffffffffffffffffff161480610670575061066f8561066a61178d565b611362565b5b6106af576040517f08c379a00000000000000000000000000000000000000000000000000000000081526004016106a690612b0a565b60405180910390fd5b60006106b961178d565b90506106c9818787878787611795565b60005b84518110156108cf576000858281518110610710577f4e487b7100000000000000000000000000000000000000000000000000000000600052603260045260246000fd5b602002602001015190506000858381518110610755577f4e487b7100000000000000000000000000000000000000000000000000000000600052603260045260246000fd5b60200260200101519050600080600084815260200190815260200160002060008b73ffffffffffffffffffffffffffffffffffffffff1673ffffffffffffffffffffffffffffffffffffffff168152602001908152602001600020549050818110156107f6576040517f08c379a00000000000000000000000000000000000000000000000000000000081526004016107ed90612b2a565b60405180910390fd5b81816108029190612e2e565b60008085815260200190815260200160002060008c73ffffffffffffffffffffffffffffffffffffffff1673ffffffffffffffffffffffffffffffffffffffff168152602001908152602001600020819055508160008085815260200190815260200160002060008b73ffffffffffffffffffffffffffffffffffffffff1673ffffffffffffffffffffffffffffffffffffffff16815260200190815260200160002060008282546108b49190612d4d565b92505081905550505050806108c890612f7b565b90506106cc565b508473ffffffffffffffffffffffffffffffffffffffff168673ffffffffffffffffffffffffffffffffffffffff168273ffffffffffffffffffffffffffffffffffffffff167f4a39dc06d4c0dbc64b70af90fd698a233a518aa5d07e595d983b8c0526c8f7fb8787604051610946929190612956565b60405180910390a461095c81878787878761179d565b505050505050565b6000600360003373ffffffffffffffffffffffffffffffffffffffff1673ffffffffffffffffffffffffffffffffffffffff16815260200190815260200160002060000160009054906101000a900460ff166109f5576040517f08c379a00000000000000000000000000000000000000000000000000000000081526004016109ec90612aca565b60405180910390fd5b6000600360003373ffffffffffffffffffffffffffffffffffffffff1673ffffffffffffffffffffffffffffffffffffffff1681526020019081526020016000206001015490506000600360003373ffffffffffffffffffffffffffffffffffffffff1673ffffffffffffffffffffffffffffffffffffffff1681526020019081526020016000206002015490506000610a8e33611984565b9050604051806080016040528060001515815260200160008152602001600081526020016000815250600360003373ffffffffffffffffffffffffffffffffffffffff1673ffffffffffffffffffffffffffffffffffffffff16815260200190815260200160002060008201518160000160006101000a81548160ff021916908315150217905550602082015181600101556040820151816002015560608201518160030155905050600083905060008173ffffffffffffffffffffffffffffffffffffffff16639f0a340c6040518163ffffffff1660e01b815260040160206040518083038186803b158015610b8457600080fd5b505afa158015610b98573d6000803e3d6000fd5b505050506040513d601f19601f82011682018060405250810190610bbc91906124f0565b84610bc79190612da3565b83610bd29190612dd4565b905060008273ffffffffffffffffffffffffffffffffffffffff16633290f515836040518263ffffffff1660e01b8152600401610c0f9190612bea565b602060405180830381600087803b158015610c2957600080fd5b505af1158015610c3d573d6000803e3d6000fd5b505050506040513d601f19601f82011682018060405250810190610c61919061244c565b15610c6f5760019050610c74565b600090505b610c9a33878785610c859190612d4d565b60405180602001604052806000815250611afa565b80965050505050505090565b60608151835114610cec576040517f08c379a0000000000000000000000000000000000000000000000000000000008152600401610ce390612b8a565b60405180910390fd5b6000835167ffffffffffffffff811115610d2f577f4e487b7100000000000000000000000000000000000000000000000000000000600052604160045260246000fd5b604051908082528060200260200182016040528015610d5d5781602001602082028036833780820191505090505b50905060005b8451811015610e4c57610df6858281518110610da8577f4e487b7100000000000000000000000000000000000000000000000000000000600052603260045260246000fd5b6020026020010151858381518110610de9577f4e487b7100000000000000000000000000000000000000000000000000000000600052603260045260246000fd5b602002602001015161032f565b828281518110610e2f577f4e487b7100000000000000000000000000000000000000000000000000000000600052603260045260246000fd5b60200260200101818152505080610e4590612f7b565b9050610d63565b508091505092915050565b610e73333084846040518060200160405280600081525061140b565b604051806080016040528060011515815260200183815260200182815260200142815250600360003373ffffffffffffffffffffffffffffffffffffffff1673ffffffffffffffffffffffffffffffffffffffff16815260200190815260200160002060008201518160000160006101000a81548160ff0219169083151502179055506020820151816001015560408201518160020155606082015181600301559050505050565b6000808290508073ffffffffffffffffffffffffffffffffffffffff16637df1f1b96040518163ffffffff1660e01b815260040160206040518083038186803b158015610f6757600080fd5b505afa158015610f7b573d6000803e3d6000fd5b505050506040513d601f19601f82011682018060405250810190610f9f91906121b5565b73ffffffffffffffffffffffffffffffffffffffff163373ffffffffffffffffffffffffffffffffffffffff161461100c576040517f08c379a000000000000000000000000000000000000000000000000000000000815260040161100390612b4a565b60405180910390fd5b8073ffffffffffffffffffffffffffffffffffffffff1663b2fa1c9e6040518163ffffffff1660e01b8152600401602060405180830381600087803b15801561105457600080fd5b505af1158015611068573d6000803e3d6000fd5b505050506040513d601f19601f8201168201806040525081019061108c919061244c565b156110cc576040517f08c379a00000000000000000000000000000000000000000000000000000000081526004016110c390612a8a565b60405180910390fd5b60008373ffffffffffffffffffffffffffffffffffffffff16905060008273ffffffffffffffffffffffffffffffffffffffff1663ba5d30786040518163ffffffff1660e01b815260040160206040518083038186803b15801561112f57600080fd5b505afa158015611143573d6000803e3d6000fd5b505050506040513d601f19601f8201168201806040525081019061116791906124f0565b905061118433838360405180602001604052806000815250611afa565b819350505050919050565b8173ffffffffffffffffffffffffffffffffffffffff166111ae61178d565b73ffffffffffffffffffffffffffffffffffffffff161415611205576040517f08c379a00000000000000000000000000000000000000000000000000000000081526004016111fc90612b6a565b60405180910390fd5b806001600061121261178d565b73ffffffffffffffffffffffffffffffffffffffff1673ffffffffffffffffffffffffffffffffffffffff16815260200190815260200160002060008473ffffffffffffffffffffffffffffffffffffffff1673ffffffffffffffffffffffffffffffffffffffff16815260200190815260200160002060006101000a81548160ff0219169083151502179055508173ffffffffffffffffffffffffffffffffffffffff166112bf61178d565b73ffffffffffffffffffffffffffffffffffffffff167f17307eab39ab6107e8899845ad3d59bd9653f200f220920489ca2b5937696c3183604051611304919061298d565b60405180910390a35050565b600063bc197c8160e01b905095945050505050565b60036020528060005260406000206000915090508060000160009054906101000a900460ff16908060010154908060020154908060030154905084565b6000600160008473ffffffffffffffffffffffffffffffffffffffff1673ffffffffffffffffffffffffffffffffffffffff16815260200190815260200160002060008373ffffffffffffffffffffffffffffffffffffffff1673ffffffffffffffffffffffffffffffffffffffff16815260200190815260200160002060009054906101000a900460ff16905092915050565b600063f23a6e6160e01b905095945050505050565b600073ffffffffffffffffffffffffffffffffffffffff168473ffffffffffffffffffffffffffffffffffffffff16141561147b576040517f08c379a000000000000000000000000000000000000000000000000000000000815260040161147290612aea565b60405180910390fd5b61148361178d565b73ffffffffffffffffffffffffffffffffffffffff168573ffffffffffffffffffffffffffffffffffffffff1614806114c957506114c8856114c361178d565b611362565b5b611508576040517f08c379a00000000000000000000000000000000000000000000000000000000081526004016114ff90612aaa565b60405180910390fd5b600061151261178d565b905061153281878761152388611c90565b61152c88611c90565b87611795565b600080600086815260200190815260200160002060008873ffffffffffffffffffffffffffffffffffffffff1673ffffffffffffffffffffffffffffffffffffffff168152602001908152602001600020549050838110156115c9576040517f08c379a00000000000000000000000000000000000000000000000000000000081526004016115c090612b2a565b60405180910390fd5b83816115d59190612e2e565b60008087815260200190815260200160002060008973ffffffffffffffffffffffffffffffffffffffff1673ffffffffffffffffffffffffffffffffffffffff168152602001908152602001600020819055508360008087815260200190815260200160002060008873ffffffffffffffffffffffffffffffffffffffff1673ffffffffffffffffffffffffffffffffffffffff16815260200190815260200160002060008282546116879190612d4d565b925050819055508573ffffffffffffffffffffffffffffffffffffffff168773ffffffffffffffffffffffffffffffffffffffff168373ffffffffffffffffffffffffffffffffffffffff167fc3d58168c5ae7397731d063d5bbf3d657854427343f4c083240f7aacaa2d0f628888604051611704929190612c05565b60405180910390a461171a828888888888611d56565b50505050505050565b60007f01ffc9a7000000000000000000000000000000000000000000000000000000007bffffffffffffffffffffffffffffffffffffffffffffffffffffffff1916827bffffffffffffffffffffffffffffffffffffffffffffffffffffffff1916149050919050565b600033905090565b505050505050565b6117bc8473ffffffffffffffffffffffffffffffffffffffff16611f3d565b1561197c578373ffffffffffffffffffffffffffffffffffffffff1663bc197c8187878686866040518663ffffffff1660e01b8152600401611802959493929190612872565b602060405180830381600087803b15801561181c57600080fd5b505af192505050801561184d57506040513d601f19601f8201168201806040525081019061184a919061249e565b60015b6118f357611859613080565b806308c379a014156118b6575061186e6134ec565b8061187957506118b8565b806040517f08c379a00000000000000000000000000000000000000000000000000000000081526004016118ad9190612a08565b60405180910390fd5b505b6040517f08c379a00000000000000000000000000000000000000000000000000000000081526004016118ea90612a2a565b60405180910390fd5b63bc197c8160e01b7bffffffffffffffffffffffffffffffffffffffffffffffffffffffff1916817bffffffffffffffffffffffffffffffffffffffffffffffffffffffff19161461197a576040517f08c379a000000000000000000000000000000000000000000000000000000000815260040161197190612a4a565b60405180910390fd5b505b505050505050565b600080600360008473ffffffffffffffffffffffffffffffffffffffff1673ffffffffffffffffffffffffffffffffffffffff1681526020019081526020016000206040518060800160405290816000820160009054906101000a900460ff16151515158152602001600182015481526020016002820154815260200160038201548152505090508060000151611a50576040517f08c379a0000000000000000000000000000000000000000000000000000000008152600401611a4790612aca565b60405180910390fd5b6000816020015173ffffffffffffffffffffffffffffffffffffffff1663f66641556040518163ffffffff1660e01b815260040160206040518083038186803b158015611a9c57600080fd5b505afa158015611ab0573d6000803e3d6000fd5b505050506040513d601f19601f82011682018060405250810190611ad491906124f0565b905080826060015142611ae79190612e2e565b611af19190612da3565b92505050919050565b600073ffffffffffffffffffffffffffffffffffffffff168473ffffffffffffffffffffffffffffffffffffffff161415611b6a576040517f08c379a0000000000000000000000000000000000000000000000000000000008152600401611b6190612bca565b60405180910390fd5b6000611b7461178d565b9050611b9581600087611b8688611c90565b611b8f88611c90565b87611795565b8260008086815260200190815260200160002060008773ffffffffffffffffffffffffffffffffffffffff1673ffffffffffffffffffffffffffffffffffffffff1681526020019081526020016000206000828254611bf49190612d4d565b925050819055508473ffffffffffffffffffffffffffffffffffffffff16600073ffffffffffffffffffffffffffffffffffffffff168273ffffffffffffffffffffffffffffffffffffffff167fc3d58168c5ae7397731d063d5bbf3d657854427343f4c083240f7aacaa2d0f628787604051611c72929190612c05565b60405180910390a4611c8981600087878787611d56565b5050505050565b60606000600167ffffffffffffffff811115611cd5577f4e487b7100000000000000000000000000000000000000000000000000000000600052604160045260246000fd5b604051908082528060200260200182016040528015611d035781602001602082028036833780820191505090505b5090508281600081518110611d41577f4e487b7100000000000000000000000000000000000000000000000000000000600052603260045260246000fd5b60200260200101818152505080915050919050565b611d758473ffffffffffffffffffffffffffffffffffffffff16611f3d565b15611f35578373ffffffffffffffffffffffffffffffffffffffff1663f23a6e6187878686866040518663ffffffff1660e01b8152600401611dbb9594939291906128da565b602060405180830381600087803b158015611dd557600080fd5b505af1925050508015611e0657506040513d601f19601f82011682018060405250810190611e03919061249e565b60015b611eac57611e12613080565b806308c379a01415611e6f5750611e276134ec565b80611e325750611e71565b806040517f08c379a0000000000000000000000000000000000000000000000000000000008152600401611e669190612a08565b60405180910390fd5b505b6040517f08c379a0000000000000000000000000000000000000000000000000000000008152600401611ea390612a2a565b60405180910390fd5b63f23a6e6160e01b7bffffffffffffffffffffffffffffffffffffffffffffffffffffffff1916817bffffffffffffffffffffffffffffffffffffffffffffffffffffffff191614611f33576040517f08c379a0000000000000000000000000000000000000000000000000000000008152600401611f2a90612a4a565b60405180910390fd5b505b505050505050565b600080823b905060008111915050919050565b6000611f63611f5e84612c53565b612c2e565b90508083825260208201905082856020860282011115611f8257600080fd5b60005b85811015611fb25781611f988882612066565b845260208401935060208301925050600181019050611f85565b5050509392505050565b6000611fcf611fca84612c7f565b612c2e565b90508083825260208201905082856020860282011115611fee57600080fd5b60005b8581101561201e57816120048882612162565b845260208401935060208301925050600181019050611ff1565b5050509392505050565b600061203b61203684612cab565b612c2e565b90508281526020810184848401111561205357600080fd5b61205e848285612ed6565b509392505050565b60008135905061207581613582565b92915050565b60008151905061208a81613582565b92915050565b600082601f8301126120a157600080fd5b81356120b1848260208601611f50565b91505092915050565b600082601f8301126120cb57600080fd5b81356120db848260208601611fbc565b91505092915050565b6000813590506120f381613599565b92915050565b60008151905061210881613599565b92915050565b60008135905061211d816135b0565b92915050565b600081519050612132816135b0565b92915050565b600082601f83011261214957600080fd5b8135612159848260208601612028565b91505092915050565b600081359050612171816135c7565b92915050565b600081519050612186816135c7565b92915050565b60006020828403121561219e57600080fd5b60006121ac84828501612066565b91505092915050565b6000602082840312156121c757600080fd5b60006121d58482850161207b565b91505092915050565b600080604083850312156121f157600080fd5b60006121ff85828601612066565b925050602061221085828601612066565b9150509250929050565b600080600080600060a0868803121561223257600080fd5b600061224088828901612066565b955050602061225188828901612066565b945050604086013567ffffffffffffffff81111561226e57600080fd5b61227a888289016120ba565b935050606086013567ffffffffffffffff81111561229757600080fd5b6122a3888289016120ba565b925050608086013567ffffffffffffffff8111156122c057600080fd5b6122cc88828901612138565b9150509295509295909350565b600080600080600060a086880312156122f157600080fd5b60006122ff88828901612066565b955050602061231088828901612066565b945050604061232188828901612162565b935050606061233288828901612162565b925050608086013567ffffffffffffffff81111561234f57600080fd5b61235b88828901612138565b9150509295509295909350565b6000806040838503121561237b57600080fd5b600061238985828601612066565b925050602061239a858286016120e4565b9150509250929050565b600080604083850312156123b757600080fd5b60006123c585828601612066565b92505060206123d685828601612162565b9150509250929050565b600080604083850312156123f357600080fd5b600083013567ffffffffffffffff81111561240d57600080fd5b61241985828601612090565b925050602083013567ffffffffffffffff81111561243657600080fd5b612442858286016120ba565b9150509250929050565b60006020828403121561245e57600080fd5b600061246c848285016120f9565b91505092915050565b60006020828403121561248757600080fd5b60006124958482850161210e565b91505092915050565b6000602082840312156124b057600080fd5b60006124be84828501612123565b91505092915050565b6000602082840312156124d957600080fd5b60006124e784828501612162565b91505092915050565b60006020828403121561250257600080fd5b600061251084828501612177565b91505092915050565b6000806040838503121561252c57600080fd5b600061253a85828601612162565b925050602061254b85828601612162565b9150509250929050565b60006125618383612854565b60208301905092915050565b61257681612e62565b82525050565b600061258782612cec565b6125918185612d1a565b935061259c83612cdc565b8060005b838110156125cd5781516125b48882612555565b97506125bf83612d0d565b9250506001810190506125a0565b5085935050505092915050565b6125e381612e74565b82525050565b6125f281612e80565b82525050565b600061260382612cf7565b61260d8185612d2b565b935061261d818560208601612ee5565b612626816130a2565b840191505092915050565b600061263c82612d02565b6126468185612d3c565b9350612656818560208601612ee5565b61265f816130a2565b840191505092915050565b6000612677603483612d3c565b9150612682826130c0565b604082019050919050565b600061269a602883612d3c565b91506126a58261310f565b604082019050919050565b60006126bd602b83612d3c565b91506126c88261315e565b604082019050919050565b60006126e0603c83612d3c565b91506126eb826131ad565b604082019050919050565b6000612703602983612d3c565b915061270e826131fc565b604082019050919050565b6000612726601c83612d3c565b91506127318261324b565b602082019050919050565b6000612749602583612d3c565b915061275482613274565b604082019050919050565b600061276c603283612d3c565b9150612777826132c3565b604082019050919050565b600061278f602a83612d3c565b915061279a82613312565b604082019050919050565b60006127b2603b83612d3c565b91506127bd82613361565b604082019050919050565b60006127d5602983612d3c565b91506127e0826133b0565b604082019050919050565b60006127f8602983612d3c565b9150612803826133ff565b604082019050919050565b600061281b602883612d3c565b91506128268261344e565b604082019050919050565b600061283e602183612d3c565b91506128498261349d565b604082019050919050565b61285d81612ecc565b82525050565b61286c81612ecc565b82525050565b600060a082019050612887600083018861256d565b612894602083018761256d565b81810360408301526128a6818661257c565b905081810360608301526128ba818561257c565b905081810360808301526128ce81846125f8565b90509695505050505050565b600060a0820190506128ef600083018861256d565b6128fc602083018761256d565b6129096040830186612863565b6129166060830185612863565b818103608083015261292881846125f8565b90509695505050505050565b6000602082019050818103600083015261294e818461257c565b905092915050565b60006040820190508181036000830152612970818561257c565b90508181036020830152612984818461257c565b90509392505050565b60006020820190506129a260008301846125da565b92915050565b60006080820190506129bd60008301876125da565b6129ca6020830186612863565b6129d76040830185612863565b6129e46060830184612863565b95945050505050565b6000602082019050612a0260008301846125e9565b92915050565b60006020820190508181036000830152612a228184612631565b905092915050565b60006020820190508181036000830152612a438161266a565b9050919050565b60006020820190508181036000830152612a638161268d565b9050919050565b60006020820190508181036000830152612a83816126b0565b9050919050565b60006020820190508181036000830152612aa3816126d3565b9050919050565b60006020820190508181036000830152612ac3816126f6565b9050919050565b60006020820190508181036000830152612ae381612719565b9050919050565b60006020820190508181036000830152612b038161273c565b9050919050565b60006020820190508181036000830152612b238161275f565b9050919050565b60006020820190508181036000830152612b4381612782565b9050919050565b60006020820190508181036000830152612b63816127a5565b9050919050565b60006020820190508181036000830152612b83816127c8565b9050919050565b60006020820190508181036000830152612ba3816127eb565b9050919050565b60006020820190508181036000830152612bc38161280e565b9050919050565b60006020820190508181036000830152612be381612831565b9050919050565b6000602082019050612bff6000830184612863565b92915050565b6000604082019050612c1a6000830185612863565b612c276020830184612863565b9392505050565b6000612c38612c49565b9050612c448282612f4a565b919050565b6000604051905090565b600067ffffffffffffffff821115612c6e57612c6d613051565b5b602082029050602081019050919050565b600067ffffffffffffffff821115612c9a57612c99613051565b5b602082029050602081019050919050565b600067ffffffffffffffff821115612cc657612cc5613051565b5b612ccf826130a2565b9050602081019050919050565b6000819050602082019050919050565b600081519050919050565b600081519050919050565b600081519050919050565b6000602082019050919050565b600082825260208201905092915050565b600082825260208201905092915050565b600082825260208201905092915050565b6000612d5882612ecc565b9150612d6383612ecc565b9250827fffffffffffffffffffffffffffffffffffffffffffffffffffffffffffffffff03821115612d9857612d97612fc4565b5b828201905092915050565b6000612dae82612ecc565b9150612db983612ecc565b925082612dc957612dc8612ff3565b5b828204905092915050565b6000612ddf82612ecc565b9150612dea83612ecc565b9250817fffffffffffffffffffffffffffffffffffffffffffffffffffffffffffffffff0483118215151615612e2357612e22612fc4565b5b828202905092915050565b6000612e3982612ecc565b9150612e4483612ecc565b925082821015612e5757612e56612fc4565b5b828203905092915050565b6000612e6d82612eac565b9050919050565b60008115159050919050565b60007fffffffff0000000000000000000000000000000000000000000000000000000082169050919050565b600073ffffffffffffffffffffffffffffffffffffffff82169050919050565b6000819050919050565b82818337600083830152505050565b60005b83811015612f03578082015181840152602081019050612ee8565b83811115612f12576000848401525b50505050565b60006002820490506001821680612f3057607f821691505b60208210811415612f4457612f43613022565b5b50919050565b612f53826130a2565b810181811067ffffffffffffffff82111715612f7257612f71613051565b5b80604052505050565b6000612f8682612ecc565b91507fffffffffffffffffffffffffffffffffffffffffffffffffffffffffffffffff821415612fb957612fb8612fc4565b5b600182019050919050565b7f4e487b7100000000000000000000000000000000000000000000000000000000600052601160045260246000fd5b7f4e487b7100000000000000000000000000000000000000000000000000000000600052601260045260246000fd5b7f4e487b7100000000000000000000000000000000000000000000000000000000600052602260045260246000fd5b7f4e487b7100000000000000000000000000000000000000000000000000000000600052604160045260246000fd5b600060033d111561309f5760046000803e61309c6000516130b3565b90505b90565b6000601f19601f8301169050919050565b60008160e01c9050919050565b7f455243313135353a207472616e7366657220746f206e6f6e204552433131353560008201527f526563656976657220696d706c656d656e746572000000000000000000000000602082015250565b7f455243313135353a204552433131353552656365697665722072656a6563746560008201527f6420746f6b656e73000000000000000000000000000000000000000000000000602082015250565b7f455243313135353a2062616c616e636520717565727920666f7220746865207a60008201527f65726f2061646472657373000000000000000000000000000000000000000000602082015250565b7f596f75206d75737420706179206f666620796f75722063757272656e74206c6f60008201527f616e206265666f7265207374617274696e672061206e6577206f6e6500000000602082015250565b7f455243313135353a2063616c6c6572206973206e6f74206f776e6572206e6f7260008201527f20617070726f7665640000000000000000000000000000000000000000000000602082015250565b7f596f7520617265206e6f74207374616b696e6720616e79204e46547300000000600082015250565b7f455243313135353a207472616e7366657220746f20746865207a65726f20616460008201527f6472657373000000000000000000000000000000000000000000000000000000602082015250565b7f455243313135353a207472616e736665722063616c6c6572206973206e6f742060008201527f6f776e6572206e6f7220617070726f7665640000000000000000000000000000602082015250565b7f455243313135353a20696e73756666696369656e742062616c616e636520666f60008201527f72207472616e7366657200000000000000000000000000000000000000000000602082015250565b7f4f6e6c792074686520626f72726f776572206f66207468697320636f6e74726160008201527f63742063616e206d696e742074686520626f6e647320746f2069740000000000602082015250565b7f455243313135353a2073657474696e6720617070726f76616c2073746174757360008201527f20666f722073656c660000000000000000000000000000000000000000000000602082015250565b7f455243313135353a206163636f756e747320616e6420696473206c656e67746860008201527f206d69736d617463680000000000000000000000000000000000000000000000602082015250565b7f455243313135353a2069647320616e6420616d6f756e7473206c656e6774682060008201527f6d69736d61746368000000000000000000000000000000000000000000000000602082015250565b7f455243313135353a206d696e7420746f20746865207a65726f2061646472657360008201527f7300000000000000000000000000000000000000000000000000000000000000602082015250565b600060443d10156134fc5761357f565b613504612c49565b60043d036004823e80513d602482011167ffffffffffffffff8211171561352c57505061357f565b808201805167ffffffffffffffff81111561354a575050505061357f565b80602083010160043d03850181111561356757505050505061357f565b61357682602001850186612f4a565b82955050505050505b90565b61358b81612e62565b811461359657600080fd5b50565b6135a281612e74565b81146135ad57600080fd5b50565b6135b981612e80565b81146135c457600080fd5b50565b6135d081612ecc565b81146135db57600080fd5b5056fea2646970667358221220eed302a7265bdf10c0d871db1bfb532f4dd470907880075b8fb8aa561377b44164736f6c63430008010033",
  "immutableReferences": {},
  "source": "/// SPDX-License-Identifier: None\npragma solidity ^0.8.0;\n\n//For Remix:\n//import \"https://github.com/OpenZeppelin/openzeppelin-contracts/blob/master/contracts/token/ERC1155/ERC1155.sol\";\n//For Local:\nimport \"@openzeppelin/contracts/token/ERC1155/ERC1155.sol\";\n\n/**\n* @title paymentContract\n* @author Carson Case\n*\n* @dev interface for paymentContract\n*As of right now, each payment contract can only have 1 address (borrower).\n*And they can only mint identical NFTs. In the future I'd like to have the\n*standard allow for shared use of the contracts as it can make things a\n*lot more user friendly.\n*\n* @notice these are the REQUIRED functions of a pyament contract.\n*More is possible and encouraged. But these are the only ways that the bonds\n*contract will interact with them\n */\ninterface paymentContract {\n\n    /// @dev used to define a new loans quantity of tokens to mint\n    function principal() external view returns(uint256);\n\n    /// @dev used to get accruances while staking\n    function accrualPeriod() external view returns(uint256);\n   \n    /// @dev used to calculate interest when unstaking\n    function interestRateInverse() external view returns(uint256);\n\n    /// @dev used to check if borrower is calling a function\n    function borrower() external view returns(address);\n\n    /// @dev can only be called by bonds contract. Updates the total due\n    function addInterest(uint256 _amm) external returns(bool);\n\n    /// @dev is used to make sure new loans can only be minted if actually new\n    function isComplete() external returns(bool);\n}\n\n\n/**\n* @title Bonds\n* @author Carson Case\n*\n* @dev bellow are some notes on improvements\n*   -figure out compound staking interest\n*       *compare complexity/gas\n*   -allow multiple users/loans per contract\n*   -unstakeAmmount()\n*   -Fix issue with unstakeAll not sending nfts but instead minting\n*   -See if holding functions can be imported/interfaced\n*   -Create interface for this contract. Seperate file\n*   -Move metadata url to non magic variable\n */\ncontract Bonds is ERC1155 {\n    \n    //Data held per person to keep track of staking\n    struct IOU{\n        bool staking;\n        uint256 ID;\n        uint256 ammount;\n        uint256 timeStaked;\n    }\n    \n    //Staking info mapping\n    mapping(address => IOU) public staking;\n    \n    //Constructor. Empty for now except the metadata url\n    constructor() ERC1155(\"https://test.com/api/{id}.json\"){\n        \n    }\n    \n    /**\n    * @notice function creates the tokens for a new loan so they can be sold to generate funding\n    * @param _paymentContractAddress is the address of the loan's contract. \"Borrower\" in this\n    *must be the same as msg.sender\n    * @return uint256 as the id of the ERC1155 token. This is for now, the uint160 representation \n    *of the payment contract's address. Typecasted to uint256\n     */\n    function newLoan(address _paymentContractAddress) external returns(uint256) {\n        paymentContract pc = paymentContract(_paymentContractAddress);\n        require(msg.sender == pc.borrower(), \"Only the borrower of this contract can mint the bonds to it\");\n        require(!pc.isComplete(),\"You must pay off your current loan before starting a new one\");\n        uint256 id = uint256(uint160(_paymentContractAddress));\n        uint256 ammToMint = pc.principal();\n\n        _mint(msg.sender, id, ammToMint, \"\");\n        return(id);\n    }\n    \n    /**\n    * @notice function stakes an ammount of ERC-1155's with id from sender\n    * @notice you need to approve this contract to spend your ERC-1155's first\n    * @param _id is the token's id. Also the paymentcontract's uint256 representation\n    * @param _amm is the ammount to stake\n     */\n    function stake(uint256 _id, uint256 _amm) external {\n        safeTransferFrom(msg.sender, address(this), _id, _amm, \"\");\n        staking[msg.sender] = IOU(\n            true,\n            _id,\n            _amm,\n            block.timestamp\n        );\n    }\n    \n    /**\n    * @notice function calculates interest earned over time staking and mints that along with your staking balance\n    * @notice the addInterest function (which only this contract can preform) also updates total ammount due to contract\n     */\n    function unstakeAll() external returns(bool){\n        require(staking[msg.sender].staking, \"You are not staking any NFTs\");\n        uint256 id = staking[msg.sender].ID; \n        uint256 amm = staking[msg.sender].ammount;\n        uint256 x = getAccruances(msg.sender);\n        //Reset the staking for sender before calling any functions\n        staking[msg.sender] = IOU(\n            false,\n            0,\n            0,\n            0\n        );\n        //Call the payment contract before minting or transfering any tokens\n        paymentContract pc = paymentContract(address(uint160(id)));\n        uint256 toMint = x * (amm / pc.interestRateInverse());\n        bool r;                 //Store return so we can call other contract before mint funciton. Don't want callback attacks\n        //Update the balance with new interest. Store return value based on response.\n        if(pc.addInterest(toMint)){\n            r = true;\n        }else{\n            r = false;\n        }\n        //safeTransferFrom(address(this), msg.sender, id, amm, \"\"); This causes an issue. It thinks itself is not approved. Just going to mint for now\n        _mint(msg.sender, id, toMint+amm, \"\");\n        return r;\n        \n    }\n    \n    /**\n    * @notice function get's how many accruance periods a person has staked through\n    * @param _who is who to check\n    * @return the number of periods\n     */\n    function getAccruances(address _who) internal view returns(uint256) {\n        IOU memory iou = staking[_who];\n        require(iou.staking,\"You are not staking any NFTs\");\n        uint256 accrualPeriod = paymentContract(address(uint160(iou.ID))).accrualPeriod();\n        return((block.timestamp - iou.timeStaked)/accrualPeriod);\n    }\n    \n    //Functions to receive ERC1155. Since I can't make it a ERC1155Holder with dependancy colission\n    function onERC1155Received(address, address, uint256, uint256, bytes memory) public virtual returns (bytes4) {\n        return this.onERC1155Received.selector;\n    }\n\n    function onERC1155BatchReceived(address, address, uint256[] memory, uint256[] memory, bytes memory) public virtual returns (bytes4) {\n        return this.onERC1155BatchReceived.selector;\n    }\n    \n    \n}",
  "sourcePath": "/home/carson/Documents/linkHackathon2021/loan-wolf/contracts/contracts/Bonds.sol",
  "compiler": {
    "name": "solc",
    "version": "0.8.1+commit.df193b15.Emscripten.clang"
  },
  "schemaVersion": "3.3.4",
  "updatedAt": "2021-03-26T02:04:48.258Z",
  "networkType": "ethereum",
  "devdoc": {
    "author": "Carson Case",
    "details": "bellow are some notes on improvements   -figure out compound staking interest       *compare complexity/gas   -allow multiple users/loans per contract   -unstakeAmmount()   -Fix issue with unstakeAll not sending nfts but instead minting   -See if holding functions can be imported/interfaced   -Create interface for this contract. Seperate file   -Move metadata url to non magic variable",
    "kind": "dev",
    "methods": {
      "balanceOf(address,uint256)": {
        "details": "See {IERC1155-balanceOf}. Requirements: - `account` cannot be the zero address."
      },
      "balanceOfBatch(address[],uint256[])": {
        "details": "See {IERC1155-balanceOfBatch}. Requirements: - `accounts` and `ids` must have the same length."
      },
      "isApprovedForAll(address,address)": {
        "details": "See {IERC1155-isApprovedForAll}."
      },
      "newLoan(address)": {
        "params": {
          "_paymentContractAddress": "is the address of the loan's contract. \"Borrower\" in this must be the same as msg.sender"
        },
        "returns": {
          "_0": "uint256 as the id of the ERC1155 token. This is for now, the uint160 representation  of the payment contract's address. Typecasted to uint256"
        }
      },
      "safeBatchTransferFrom(address,address,uint256[],uint256[],bytes)": {
        "details": "See {IERC1155-safeBatchTransferFrom}."
      },
      "safeTransferFrom(address,address,uint256,uint256,bytes)": {
        "details": "See {IERC1155-safeTransferFrom}."
      },
      "setApprovalForAll(address,bool)": {
        "details": "See {IERC1155-setApprovalForAll}."
      },
      "stake(uint256,uint256)": {
        "params": {
          "_amm": "is the ammount to stake",
          "_id": "is the token's id. Also the paymentcontract's uint256 representation"
        }
      },
      "supportsInterface(bytes4)": {
        "details": "See {IERC165-supportsInterface}."
      },
      "uri(uint256)": {
        "details": "See {IERC1155MetadataURI-uri}. This implementation returns the same URI for *all* token types. It relies on the token type ID substitution mechanism https://eips.ethereum.org/EIPS/eip-1155#metadata[defined in the EIP]. Clients calling this function must replace the `\\{id\\}` substring with the actual token type ID."
      }
    },
    "title": "Bonds",
    "version": 1
  },
  "userdoc": {
    "kind": "user",
    "methods": {
      "newLoan(address)": {
        "notice": "function creates the tokens for a new loan so they can be sold to generate funding"
      },
      "stake(uint256,uint256)": {
        "notice": "function stakes an ammount of ERC-1155's with id from senderyou need to approve this contract to spend your ERC-1155's first"
      },
      "unstakeAll()": {
        "notice": "function calculates interest earned over time staking and mints that along with your staking balancethe addInterest function (which only this contract can preform) also updates total ammount due to contract"
      }
    },
    "version": 1
  }
}