{
  "contractName": "Bonds",
  "abi": [
    {
      "inputs": [],
      "stateMutability": "nonpayable",
      "type": "constructor"
    },
    {
      "anonymous": false,
      "inputs": [
        {
          "indexed": true,
          "internalType": "address",
          "name": "account",
          "type": "address"
        },
        {
          "indexed": true,
          "internalType": "address",
          "name": "operator",
          "type": "address"
        },
        {
          "indexed": false,
          "internalType": "bool",
          "name": "approved",
          "type": "bool"
        }
      ],
      "name": "ApprovalForAll",
      "type": "event"
    },
    {
      "anonymous": false,
      "inputs": [
        {
          "indexed": true,
          "internalType": "address",
          "name": "operator",
          "type": "address"
        },
        {
          "indexed": true,
          "internalType": "address",
          "name": "from",
          "type": "address"
        },
        {
          "indexed": true,
          "internalType": "address",
          "name": "to",
          "type": "address"
        },
        {
          "indexed": false,
          "internalType": "uint256[]",
          "name": "ids",
          "type": "uint256[]"
        },
        {
          "indexed": false,
          "internalType": "uint256[]",
          "name": "values",
          "type": "uint256[]"
        }
      ],
      "name": "TransferBatch",
      "type": "event"
    },
    {
      "anonymous": false,
      "inputs": [
        {
          "indexed": true,
          "internalType": "address",
          "name": "operator",
          "type": "address"
        },
        {
          "indexed": true,
          "internalType": "address",
          "name": "from",
          "type": "address"
        },
        {
          "indexed": true,
          "internalType": "address",
          "name": "to",
          "type": "address"
        },
        {
          "indexed": false,
          "internalType": "uint256",
          "name": "id",
          "type": "uint256"
        },
        {
          "indexed": false,
          "internalType": "uint256",
          "name": "value",
          "type": "uint256"
        }
      ],
      "name": "TransferSingle",
      "type": "event"
    },
    {
      "anonymous": false,
      "inputs": [
        {
          "indexed": false,
          "internalType": "string",
          "name": "value",
          "type": "string"
        },
        {
          "indexed": true,
          "internalType": "uint256",
          "name": "id",
          "type": "uint256"
        }
      ],
      "name": "URI",
      "type": "event"
    },
    {
      "anonymous": false,
      "inputs": [
        {
          "indexed": false,
          "internalType": "uint256",
          "name": "",
          "type": "uint256"
        }
      ],
      "name": "test",
      "type": "event"
    },
    {
      "inputs": [
        {
          "internalType": "address",
          "name": "account",
          "type": "address"
        },
        {
          "internalType": "uint256",
          "name": "id",
          "type": "uint256"
        }
      ],
      "name": "balanceOf",
      "outputs": [
        {
          "internalType": "uint256",
          "name": "",
          "type": "uint256"
        }
      ],
      "stateMutability": "view",
      "type": "function"
    },
    {
      "inputs": [
        {
          "internalType": "address[]",
          "name": "accounts",
          "type": "address[]"
        },
        {
          "internalType": "uint256[]",
          "name": "ids",
          "type": "uint256[]"
        }
      ],
      "name": "balanceOfBatch",
      "outputs": [
        {
          "internalType": "uint256[]",
          "name": "",
          "type": "uint256[]"
        }
      ],
      "stateMutability": "view",
      "type": "function"
    },
    {
      "inputs": [],
      "name": "head",
      "outputs": [
        {
          "internalType": "uint256",
          "name": "",
          "type": "uint256"
        }
      ],
      "stateMutability": "view",
      "type": "function"
    },
    {
      "inputs": [
        {
          "internalType": "address",
          "name": "account",
          "type": "address"
        },
        {
          "internalType": "address",
          "name": "operator",
          "type": "address"
        }
      ],
      "name": "isApprovedForAll",
      "outputs": [
        {
          "internalType": "bool",
          "name": "",
          "type": "bool"
        }
      ],
      "stateMutability": "view",
      "type": "function"
    },
    {
      "inputs": [
        {
          "internalType": "address",
          "name": "",
          "type": "address"
        }
      ],
      "name": "llData",
      "outputs": [
        {
          "internalType": "uint256",
          "name": "tail",
          "type": "uint256"
        }
      ],
      "stateMutability": "view",
      "type": "function"
    },
    {
      "inputs": [
        {
          "internalType": "address",
          "name": "from",
          "type": "address"
        },
        {
          "internalType": "address",
          "name": "to",
          "type": "address"
        },
        {
          "internalType": "uint256[]",
          "name": "ids",
          "type": "uint256[]"
        },
        {
          "internalType": "uint256[]",
          "name": "amounts",
          "type": "uint256[]"
        },
        {
          "internalType": "bytes",
          "name": "data",
          "type": "bytes"
        }
      ],
      "name": "safeBatchTransferFrom",
      "outputs": [],
      "stateMutability": "nonpayable",
      "type": "function"
    },
    {
      "inputs": [
        {
          "internalType": "address",
          "name": "from",
          "type": "address"
        },
        {
          "internalType": "address",
          "name": "to",
          "type": "address"
        },
        {
          "internalType": "uint256",
          "name": "id",
          "type": "uint256"
        },
        {
          "internalType": "uint256",
          "name": "amount",
          "type": "uint256"
        },
        {
          "internalType": "bytes",
          "name": "data",
          "type": "bytes"
        }
      ],
      "name": "safeTransferFrom",
      "outputs": [],
      "stateMutability": "nonpayable",
      "type": "function"
    },
    {
      "inputs": [
        {
          "internalType": "address",
          "name": "operator",
          "type": "address"
        },
        {
          "internalType": "bool",
          "name": "approved",
          "type": "bool"
        }
      ],
      "name": "setApprovalForAll",
      "outputs": [],
      "stateMutability": "nonpayable",
      "type": "function"
    },
    {
      "inputs": [
        {
          "internalType": "address",
          "name": "",
          "type": "address"
        },
        {
          "internalType": "uint256",
          "name": "",
          "type": "uint256"
        }
      ],
      "name": "staking",
      "outputs": [
        {
          "internalType": "uint256",
          "name": "last",
          "type": "uint256"
        },
        {
          "internalType": "uint256",
          "name": "next",
          "type": "uint256"
        },
        {
          "components": [
            {
              "internalType": "bool",
              "name": "staking",
              "type": "bool"
            },
            {
              "internalType": "uint256",
              "name": "ID",
              "type": "uint256"
            },
            {
              "internalType": "uint256",
              "name": "ammount",
              "type": "uint256"
            },
            {
              "internalType": "uint256",
              "name": "timeStaked",
              "type": "uint256"
            }
          ],
          "internalType": "struct Bonds.IOU",
          "name": "value",
          "type": "tuple"
        }
      ],
      "stateMutability": "view",
      "type": "function"
    },
    {
      "inputs": [
        {
          "internalType": "bytes4",
          "name": "interfaceId",
          "type": "bytes4"
        }
      ],
      "name": "supportsInterface",
      "outputs": [
        {
          "internalType": "bool",
          "name": "",
          "type": "bool"
        }
      ],
      "stateMutability": "view",
      "type": "function"
    },
    {
      "inputs": [
        {
          "internalType": "uint256",
          "name": "",
          "type": "uint256"
        }
      ],
      "name": "uri",
      "outputs": [
        {
          "internalType": "string",
          "name": "",
          "type": "string"
        }
      ],
      "stateMutability": "view",
      "type": "function"
    },
    {
      "inputs": [
        {
          "internalType": "address",
          "name": "_paymentContractAddress",
          "type": "address"
        },
        {
          "internalType": "uint256",
          "name": "_id",
          "type": "uint256"
        }
      ],
      "name": "newLoan",
      "outputs": [],
      "stateMutability": "nonpayable",
      "type": "function"
    },
    {
      "inputs": [
        {
          "internalType": "uint256",
          "name": "_index",
          "type": "uint256"
        }
      ],
      "name": "unstake",
      "outputs": [
        {
          "internalType": "bool",
          "name": "",
          "type": "bool"
        }
      ],
      "stateMutability": "nonpayable",
      "type": "function"
    },
    {
      "inputs": [
        {
          "internalType": "address",
          "name": "_who",
          "type": "address"
        },
        {
          "internalType": "uint256",
          "name": "_index",
          "type": "uint256"
        }
      ],
      "name": "getAccruances",
      "outputs": [
        {
          "internalType": "uint256",
          "name": "",
          "type": "uint256"
        }
      ],
      "stateMutability": "nonpayable",
      "type": "function"
    },
    {
      "inputs": [
        {
          "internalType": "address",
          "name": "_operator",
          "type": "address"
        },
        {
          "internalType": "address",
          "name": "_from",
          "type": "address"
        },
        {
          "internalType": "uint256",
          "name": "_id",
          "type": "uint256"
        },
        {
          "internalType": "uint256",
          "name": "_value",
          "type": "uint256"
        },
        {
          "internalType": "bytes",
          "name": "_data",
          "type": "bytes"
        }
      ],
      "name": "onERC1155Received",
      "outputs": [
        {
          "internalType": "bytes4",
          "name": "",
          "type": "bytes4"
        }
      ],
      "stateMutability": "nonpayable",
      "type": "function"
    },
    {
      "inputs": [
        {
          "internalType": "address",
          "name": "",
          "type": "address"
        },
        {
          "internalType": "address",
          "name": "",
          "type": "address"
        },
        {
          "internalType": "uint256[]",
          "name": "",
          "type": "uint256[]"
        },
        {
          "internalType": "uint256[]",
          "name": "",
          "type": "uint256[]"
        },
        {
          "internalType": "bytes",
          "name": "",
          "type": "bytes"
        }
      ],
      "name": "onERC1155BatchReceived",
      "outputs": [
        {
          "internalType": "bytes4",
          "name": "",
          "type": "bytes4"
        }
      ],
      "stateMutability": "nonpayable",
      "type": "function"
    }
  ],
  "bytecode": "0x60806040523480156200001157600080fd5b506040518060400160405280601e81526020017f68747470733a2f2f746573742e636f6d2f6170692f7b69647d2e6a736f6e000081525062000059816200006060201b60201c565b5062000191565b8060029080519060200190620000789291906200007c565b5050565b8280546200008a906200012c565b90600052602060002090601f016020900481019282620000ae5760008555620000fa565b82601f10620000c957805160ff1916838001178555620000fa565b82800160010185558215620000fa579182015b82811115620000f9578251825591602001919060010190620000dc565b5b5090506200010991906200010d565b5090565b5b80821115620001285760008160009055506001016200010e565b5090565b600060028204905060018216806200014557607f821691505b602082108114156200015c576200015b62000162565b5b50919050565b7f4e487b7100000000000000000000000000000000000000000000000000000000600052602260045260246000fd5b613de580620001a16000396000f3fe608060405234801561001057600080fd5b50600436106100ff5760003560e01c806395dfea7711610097578063bc197c8111610066578063bc197c81146102f8578063e985e9c514610328578063f23a6e6114610358578063f242432a14610388576100ff565b806395dfea771461025e57806397ed51d314610290578063a097b7ab146102c0578063a22cb465146102dc576100ff565b80632e17de78116100d35780632e17de78146101c45780632eb2c2d6146101f45780634e1273f4146102105780638f7dcfa314610240576100ff565b8062fdd58e1461010457806301ffc9a7146101345780630e89341c146101645780632159e32714610194575b600080fd5b61011e60048036038101906101199190612b45565b6103a4565b60405161012b91906133aa565b60405180910390f35b61014e60048036038101906101499190612c16565b61046d565b60405161015b9190613192565b60405180910390f35b61017e60048036038101906101799190612c68565b61054f565b60405161018b91906131c8565b60405180910390f35b6101ae60048036038101906101a991906128c4565b6105e3565b6040516101bb91906133aa565b60405180910390f35b6101de60048036038101906101d99190612c68565b610601565b6040516101eb9190613192565b60405180910390f35b61020e60048036038101906102099190612929565b610898565b005b61022a60048036038101906102259190612b81565b610c8e565b6040516102379190613139565b60405180910390f35b610248610e3f565b60405161025591906133aa565b60405180910390f35b61027860048036038101906102739190612b45565b610e44565b604051610287939291906133ee565b60405180910390f35b6102aa60048036038101906102a59190612b45565b610ebe565b6040516102b791906133aa565b60405180910390f35b6102da60048036038101906102d59190612b45565b61105e565b005b6102f660048036038101906102f19190612b09565b611188565b005b610312600480360381019061030d9190612929565b611309565b60405161031f91906131ad565b60405180910390f35b610342600480360381019061033d91906128ed565b61131e565b60405161034f9190613192565b60405180910390f35b610372600480360381019061036d91906129e8565b6113b2565b60405161037f91906131ad565b60405180910390f35b6103a2600480360381019061039d9190612a7a565b6113d3565b005b60008073ffffffffffffffffffffffffffffffffffffffff168373ffffffffffffffffffffffffffffffffffffffff161415610415576040517f08c379a000000000000000000000000000000000000000000000000000000000815260040161040c9061322a565b60405180910390fd5b60008083815260200190815260200160002060008473ffffffffffffffffffffffffffffffffffffffff1673ffffffffffffffffffffffffffffffffffffffff16815260200190815260200160002054905092915050565b60007fd9b67a26000000000000000000000000000000000000000000000000000000007bffffffffffffffffffffffffffffffffffffffffffffffffffffffff1916827bffffffffffffffffffffffffffffffffffffffffffffffffffffffff1916148061053857507f0e89341c000000000000000000000000000000000000000000000000000000007bffffffffffffffffffffffffffffffffffffffffffffffffffffffff1916827bffffffffffffffffffffffffffffffffffffffffffffffffffffffff1916145b806105485750610547826116eb565b5b9050919050565b60606002805461055e9061370f565b80601f016020809104026020016040519081016040528092919081815260200182805461058a9061370f565b80156105d75780601f106105ac576101008083540402835291602001916105d7565b820191906000526020600020905b8154815290600101906020018083116105ba57829003601f168201915b50505050509050919050565b60036020528060005260406000206000915090508060000154905081565b600061060c33611755565b1561064c576040517f08c379a00000000000000000000000000000000000000000000000000000000081526004016106439061326a565b60405180910390fd5b6000600460003373ffffffffffffffffffffffffffffffffffffffff1673ffffffffffffffffffffffffffffffffffffffff16815260200190815260200160002060008481526020019081526020016000206002016001015490506000600460003373ffffffffffffffffffffffffffffffffffffffff1673ffffffffffffffffffffffffffffffffffffffff1681526020019081526020016000206000858152602001908152602001600020600201600201549050600061070e3386610ebe565b905061071a85336117b4565b600083905060008173ffffffffffffffffffffffffffffffffffffffff16635fe2d689866040518263ffffffff1660e01b815260040161075a91906133aa565b60206040518083038186803b15801561077257600080fd5b505afa158015610786573d6000803e3d6000fd5b505050506040513d601f19601f820116820180604052508101906107aa9190612c91565b846107b5919061359a565b836107c091906135cb565b905060008273ffffffffffffffffffffffffffffffffffffffff1663e62e1e4283886040518363ffffffff1660e01b81526004016107ff9291906133c5565b602060405180830381600087803b15801561081957600080fd5b505af115801561082d573d6000803e3d6000fd5b505050506040513d601f19601f820116820180604052508101906108519190612bed565b1561085f5760019050610864565b600090505b61088a338787856108759190613544565b60405180602001604052806000815250611c5c565b809650505050505050919050565b81518351146108dc576040517f08c379a00000000000000000000000000000000000000000000000000000000081526004016108d39061336a565b60405180910390fd5b600073ffffffffffffffffffffffffffffffffffffffff168473ffffffffffffffffffffffffffffffffffffffff16141561094c576040517f08c379a00000000000000000000000000000000000000000000000000000000081526004016109439061328a565b60405180910390fd5b610954611df2565b73ffffffffffffffffffffffffffffffffffffffff168573ffffffffffffffffffffffffffffffffffffffff16148061099a575061099985610994611df2565b61131e565b5b6109d9576040517f08c379a00000000000000000000000000000000000000000000000000000000081526004016109d0906132aa565b60405180910390fd5b60006109e3611df2565b90506109f3818787878787611dfa565b60005b8451811015610bf9576000858281518110610a3a577f4e487b7100000000000000000000000000000000000000000000000000000000600052603260045260246000fd5b602002602001015190506000858381518110610a7f577f4e487b7100000000000000000000000000000000000000000000000000000000600052603260045260246000fd5b60200260200101519050600080600084815260200190815260200160002060008b73ffffffffffffffffffffffffffffffffffffffff1673ffffffffffffffffffffffffffffffffffffffff16815260200190815260200160002054905081811015610b20576040517f08c379a0000000000000000000000000000000000000000000000000000000008152600401610b17906132ea565b60405180910390fd5b8181610b2c9190613625565b60008085815260200190815260200160002060008c73ffffffffffffffffffffffffffffffffffffffff1673ffffffffffffffffffffffffffffffffffffffff168152602001908152602001600020819055508160008085815260200190815260200160002060008b73ffffffffffffffffffffffffffffffffffffffff1673ffffffffffffffffffffffffffffffffffffffff1681526020019081526020016000206000828254610bde9190613544565b9250508190555050505080610bf290613772565b90506109f6565b508473ffffffffffffffffffffffffffffffffffffffff168673ffffffffffffffffffffffffffffffffffffffff168273ffffffffffffffffffffffffffffffffffffffff167f4a39dc06d4c0dbc64b70af90fd698a233a518aa5d07e595d983b8c0526c8f7fb8787604051610c7092919061315b565b60405180910390a4610c86818787878787611e02565b505050505050565b60608151835114610cd4576040517f08c379a0000000000000000000000000000000000000000000000000000000008152600401610ccb9061334a565b60405180910390fd5b6000835167ffffffffffffffff811115610d17577f4e487b7100000000000000000000000000000000000000000000000000000000600052604160045260246000fd5b604051908082528060200260200182016040528015610d455781602001602082028036833780820191505090505b50905060005b8451811015610e3457610dde858281518110610d90577f4e487b7100000000000000000000000000000000000000000000000000000000600052603260045260246000fd5b6020026020010151858381518110610dd1577f4e487b7100000000000000000000000000000000000000000000000000000000600052603260045260246000fd5b60200260200101516103a4565b828281518110610e17577f4e487b7100000000000000000000000000000000000000000000000000000000600052603260045260246000fd5b60200260200101818152505080610e2d90613772565b9050610d4b565b508091505092915050565b600081565b600460205281600052604060002060205280600052604060002060009150915050806000015490806001015490806002016040518060800160405290816000820160009054906101000a900460ff161515151581526020016001820154815260200160028201548152602001600382015481525050905083565b600080600460008573ffffffffffffffffffffffffffffffffffffffff1673ffffffffffffffffffffffffffffffffffffffff16815260200190815260200160002060008481526020019081526020016000206002016040518060800160405290816000820160009054906101000a900460ff16151515158152602001600182015481526020016002820154815260200160038201548152505090508060000151610f9e576040517f08c379a0000000000000000000000000000000000000000000000000000000008152600401610f959061326a565b60405180910390fd5b60008160200151905060008173ffffffffffffffffffffffffffffffffffffffff16635fe2d68984602001516040518263ffffffff1660e01b8152600401610fe691906133aa565b60206040518083038186803b158015610ffe57600080fd5b505afa158015611012573d6000803e3d6000fd5b505050506040513d601f19601f820116820180604052508101906110369190612c91565b9050808360600151426110499190613625565b611053919061359a565b935050505092915050565b60008290506000808273ffffffffffffffffffffffffffffffffffffffff1663d41db84b856040518263ffffffff1660e01b815260040161109f91906133aa565b6040805180830381600087803b1580156110b857600080fd5b505af11580156110cc573d6000803e3d6000fd5b505050506040513d601f19601f820116820180604052508101906110f09190612cba565b80925081935050508073ffffffffffffffffffffffffffffffffffffffff163373ffffffffffffffffffffffffffffffffffffffff1614611166576040517f08c379a000000000000000000000000000000000000000000000000000000000815260040161115d9061330a565b60405180910390fd5b61118181858460405180602001604052806000815250611c5c565b5050505050565b8173ffffffffffffffffffffffffffffffffffffffff166111a7611df2565b73ffffffffffffffffffffffffffffffffffffffff1614156111fe576040517f08c379a00000000000000000000000000000000000000000000000000000000081526004016111f59061332a565b60405180910390fd5b806001600061120b611df2565b73ffffffffffffffffffffffffffffffffffffffff1673ffffffffffffffffffffffffffffffffffffffff16815260200190815260200160002060008473ffffffffffffffffffffffffffffffffffffffff1673ffffffffffffffffffffffffffffffffffffffff16815260200190815260200160002060006101000a81548160ff0219169083151502179055508173ffffffffffffffffffffffffffffffffffffffff166112b8611df2565b73ffffffffffffffffffffffffffffffffffffffff167f17307eab39ab6107e8899845ad3d59bd9653f200f220920489ca2b5937696c31836040516112fd9190613192565b60405180910390a35050565b600063bc197c8160e01b905095945050505050565b6000600160008473ffffffffffffffffffffffffffffffffffffffff1673ffffffffffffffffffffffffffffffffffffffff16815260200190815260200160002060008373ffffffffffffffffffffffffffffffffffffffff1673ffffffffffffffffffffffffffffffffffffffff16815260200190815260200160002060009054906101000a900460ff16905092915050565b60006113bf858588611fe9565b63f23a6e6160e01b90509695505050505050565b600073ffffffffffffffffffffffffffffffffffffffff168473ffffffffffffffffffffffffffffffffffffffff161415611443576040517f08c379a000000000000000000000000000000000000000000000000000000000815260040161143a9061328a565b60405180910390fd5b61144b611df2565b73ffffffffffffffffffffffffffffffffffffffff168573ffffffffffffffffffffffffffffffffffffffff16148061149157506114908561148b611df2565b61131e565b5b6114d0576040517f08c379a00000000000000000000000000000000000000000000000000000000081526004016114c79061324a565b60405180910390fd5b60006114da611df2565b90506114fa8187876114eb8861201b565b6114f48861201b565b87611dfa565b600080600086815260200190815260200160002060008873ffffffffffffffffffffffffffffffffffffffff1673ffffffffffffffffffffffffffffffffffffffff16815260200190815260200160002054905083811015611591576040517f08c379a0000000000000000000000000000000000000000000000000000000008152600401611588906132ea565b60405180910390fd5b838161159d9190613625565b60008087815260200190815260200160002060008973ffffffffffffffffffffffffffffffffffffffff1673ffffffffffffffffffffffffffffffffffffffff168152602001908152602001600020819055508360008087815260200190815260200160002060008873ffffffffffffffffffffffffffffffffffffffff1673ffffffffffffffffffffffffffffffffffffffff168152602001908152602001600020600082825461164f9190613544565b925050819055508573ffffffffffffffffffffffffffffffffffffffff168773ffffffffffffffffffffffffffffffffffffffff168373ffffffffffffffffffffffffffffffffffffffff167fc3d58168c5ae7397731d063d5bbf3d657854427343f4c083240f7aacaa2d0f6288886040516116cc9291906133c5565b60405180910390a46116e28288888888886120e1565b50505050505050565b60007f01ffc9a7000000000000000000000000000000000000000000000000000000007bffffffffffffffffffffffffffffffffffffffffffffffffffffffff1916827bffffffffffffffffffffffffffffffffffffffffffffffffffffffff1916149050919050565b600080600460008473ffffffffffffffffffffffffffffffffffffffff1673ffffffffffffffffffffffffffffffffffffffff168152602001908152602001600020600080815260200190815260200160002060010154149050919050565b6000600360008373ffffffffffffffffffffffffffffffffffffffff1673ffffffffffffffffffffffffffffffffffffffff168152602001908152602001600020600001549050600083141561183f576040517f08c379a0000000000000000000000000000000000000000000000000000000008152600401611836906132ca565b60405180910390fd5b808314156118e257600460008373ffffffffffffffffffffffffffffffffffffffff1673ffffffffffffffffffffffffffffffffffffffff168152602001908152602001600020600082815260200190815260200160002060000154600360008473ffffffffffffffffffffffffffffffffffffffff1673ffffffffffffffffffffffffffffffffffffffff168152602001908152602001600020600001819055505b6000600460008473ffffffffffffffffffffffffffffffffffffffff1673ffffffffffffffffffffffffffffffffffffffff16815260200190815260200160002060008581526020019081526020016000206000015490506000600460008573ffffffffffffffffffffffffffffffffffffffff1673ffffffffffffffffffffffffffffffffffffffff1681526020019081526020016000206000868152602001908152602001600020600101549050600460008573ffffffffffffffffffffffffffffffffffffffff1673ffffffffffffffffffffffffffffffffffffffff168152602001908152602001600020600086815260200190815260200160002060010154600460008673ffffffffffffffffffffffffffffffffffffffff1673ffffffffffffffffffffffffffffffffffffffff168152602001908152602001600020600084815260200190815260200160002060010181905550600460008573ffffffffffffffffffffffffffffffffffffffff1673ffffffffffffffffffffffffffffffffffffffff168152602001908152602001600020600086815260200190815260200160002060000154600460008673ffffffffffffffffffffffffffffffffffffffff1673ffffffffffffffffffffffffffffffffffffffff168152602001908152602001600020600083815260200190815260200160002060000181905550604051806080016040528060001515815260200160008152602001600081526020016000815250600460003373ffffffffffffffffffffffffffffffffffffffff1673ffffffffffffffffffffffffffffffffffffffff168152602001908152602001600020600087815260200190815260200160002060020160008201518160000160006101000a81548160ff0219169083151502179055506020820151816001015560408201518160020155606082015181600301559050506000600460003373ffffffffffffffffffffffffffffffffffffffff1673ffffffffffffffffffffffffffffffffffffffff1681526020019081526020016000206000878152602001908152602001600020600101819055506000600460003373ffffffffffffffffffffffffffffffffffffffff1673ffffffffffffffffffffffffffffffffffffffff1681526020019081526020016000206000878152602001908152602001600020600001819055505050505050565b600073ffffffffffffffffffffffffffffffffffffffff168473ffffffffffffffffffffffffffffffffffffffff161415611ccc576040517f08c379a0000000000000000000000000000000000000000000000000000000008152600401611cc39061338a565b60405180910390fd5b6000611cd6611df2565b9050611cf781600087611ce88861201b565b611cf18861201b565b87611dfa565b8260008086815260200190815260200160002060008773ffffffffffffffffffffffffffffffffffffffff1673ffffffffffffffffffffffffffffffffffffffff1681526020019081526020016000206000828254611d569190613544565b925050819055508473ffffffffffffffffffffffffffffffffffffffff16600073ffffffffffffffffffffffffffffffffffffffff168273ffffffffffffffffffffffffffffffffffffffff167fc3d58168c5ae7397731d063d5bbf3d657854427343f4c083240f7aacaa2d0f628787604051611dd49291906133c5565b60405180910390a4611deb816000878787876120e1565b5050505050565b600033905090565b505050505050565b611e218473ffffffffffffffffffffffffffffffffffffffff166122c8565b15611fe1578373ffffffffffffffffffffffffffffffffffffffff1663bc197c8187878686866040518663ffffffff1660e01b8152600401611e67959493929190613077565b602060405180830381600087803b158015611e8157600080fd5b505af1925050508015611eb257506040513d601f19601f82011682018060405250810190611eaf9190612c3f565b60015b611f5857611ebe613877565b806308c379a01415611f1b5750611ed3613cbd565b80611ede5750611f1d565b806040517f08c379a0000000000000000000000000000000000000000000000000000000008152600401611f1291906131c8565b60405180910390fd5b505b6040517f08c379a0000000000000000000000000000000000000000000000000000000008152600401611f4f906131ea565b60405180910390fd5b63bc197c8160e01b7bffffffffffffffffffffffffffffffffffffffffffffffffffffffff1916817bffffffffffffffffffffffffffffffffffffffffffffffffffffffff191614611fdf576040517f08c379a0000000000000000000000000000000000000000000000000000000008152600401611fd69061320a565b60405180910390fd5b505b505050505050565b612016604051806080016040528060011515815260200185815260200184815260200142815250826122db565b505050565b60606000600167ffffffffffffffff811115612060577f4e487b7100000000000000000000000000000000000000000000000000000000600052604160045260246000fd5b60405190808252806020026020018201604052801561208e5781602001602082028036833780820191505090505b50905082816000815181106120cc577f4e487b7100000000000000000000000000000000000000000000000000000000600052603260045260246000fd5b60200260200101818152505080915050919050565b6121008473ffffffffffffffffffffffffffffffffffffffff166122c8565b156122c0578373ffffffffffffffffffffffffffffffffffffffff1663f23a6e6187878686866040518663ffffffff1660e01b81526004016121469594939291906130df565b602060405180830381600087803b15801561216057600080fd5b505af192505050801561219157506040513d601f19601f8201168201806040525081019061218e9190612c3f565b60015b6122375761219d613877565b806308c379a014156121fa57506121b2613cbd565b806121bd57506121fc565b806040517f08c379a00000000000000000000000000000000000000000000000000000000081526004016121f191906131c8565b60405180910390fd5b505b6040517f08c379a000000000000000000000000000000000000000000000000000000000815260040161222e906131ea565b60405180910390fd5b63f23a6e6160e01b7bffffffffffffffffffffffffffffffffffffffffffffffffffffffff1916817bffffffffffffffffffffffffffffffffffffffffffffffffffffffff1916146122be576040517f08c379a00000000000000000000000000000000000000000000000000000000081526004016122b59061320a565b60405180910390fd5b505b505050505050565b600080823b905060008111915050919050565b6000600360008373ffffffffffffffffffffffffffffffffffffffff1673ffffffffffffffffffffffffffffffffffffffff16815260200190815260200160002060000154905061232b82611755565b156124a4576001600460008473ffffffffffffffffffffffffffffffffffffffff1673ffffffffffffffffffffffffffffffffffffffff1681526020019081526020016000206000808152602001908152602001600020600101819055506040518060600160405280600081526020016000815260200184815250600460008473ffffffffffffffffffffffffffffffffffffffff1673ffffffffffffffffffffffffffffffffffffffff168152602001908152602001600020600060018152602001908152602001600020600082015181600001556020820151816001015560408201518160020160008201518160000160006101000a81548160ff02191690831515021790555060208201518160010155604082015181600201556060820151816003015550509050506001600360008473ffffffffffffffffffffffffffffffffffffffff1673ffffffffffffffffffffffffffffffffffffffff16815260200190815260200160002060000181905550612639565b6001816124b19190613544565b600460008473ffffffffffffffffffffffffffffffffffffffff1673ffffffffffffffffffffffffffffffffffffffff16815260200190815260200160002060008381526020019081526020016000206001018190555060405180606001604052808281526020016000815260200184815250600460008473ffffffffffffffffffffffffffffffffffffffff1673ffffffffffffffffffffffffffffffffffffffff16815260200190815260200160002060006001846125729190613544565b8152602001908152602001600020600082015181600001556020820151816001015560408201518160020160008201518160000160006101000a81548160ff0219169083151502179055506020820151816001015560408201518160020155606082015181600301555050905050600360008373ffffffffffffffffffffffffffffffffffffffff1673ffffffffffffffffffffffffffffffffffffffff168152602001908152602001600020600001600081548092919061263390613772565b91905055505b505050565b600061265161264c8461344a565b613425565b9050808382526020820190508285602086028201111561267057600080fd5b60005b858110156126a057816126868882612754565b845260208401935060208301925050600181019050612673565b5050509392505050565b60006126bd6126b884613476565b613425565b905080838252602082019050828560208602820111156126dc57600080fd5b60005b8581101561270c57816126f2888261289a565b8452602084019350602083019250506001810190506126df565b5050509392505050565b6000612729612724846134a2565b613425565b90508281526020810184848401111561274157600080fd5b61274c8482856136cd565b509392505050565b60008135905061276381613d53565b92915050565b60008151905061277881613d53565b92915050565b600082601f83011261278f57600080fd5b813561279f84826020860161263e565b91505092915050565b600082601f8301126127b957600080fd5b81356127c98482602086016126aa565b91505092915050565b6000813590506127e181613d6a565b92915050565b6000815190506127f681613d6a565b92915050565b60008135905061280b81613d81565b92915050565b60008151905061282081613d81565b92915050565b60008083601f84011261283857600080fd5b8235905067ffffffffffffffff81111561285157600080fd5b60208301915083600182028301111561286957600080fd5b9250929050565b600082601f83011261288157600080fd5b8135612891848260208601612716565b91505092915050565b6000813590506128a981613d98565b92915050565b6000815190506128be81613d98565b92915050565b6000602082840312156128d657600080fd5b60006128e484828501612754565b91505092915050565b6000806040838503121561290057600080fd5b600061290e85828601612754565b925050602061291f85828601612754565b9150509250929050565b600080600080600060a0868803121561294157600080fd5b600061294f88828901612754565b955050602061296088828901612754565b945050604086013567ffffffffffffffff81111561297d57600080fd5b612989888289016127a8565b935050606086013567ffffffffffffffff8111156129a657600080fd5b6129b2888289016127a8565b925050608086013567ffffffffffffffff8111156129cf57600080fd5b6129db88828901612870565b9150509295509295909350565b60008060008060008060a08789031215612a0157600080fd5b6000612a0f89828a01612754565b9650506020612a2089828a01612754565b9550506040612a3189828a0161289a565b9450506060612a4289828a0161289a565b935050608087013567ffffffffffffffff811115612a5f57600080fd5b612a6b89828a01612826565b92509250509295509295509295565b600080600080600060a08688031215612a9257600080fd5b6000612aa088828901612754565b9550506020612ab188828901612754565b9450506040612ac28882890161289a565b9350506060612ad38882890161289a565b925050608086013567ffffffffffffffff811115612af057600080fd5b612afc88828901612870565b9150509295509295909350565b60008060408385031215612b1c57600080fd5b6000612b2a85828601612754565b9250506020612b3b858286016127d2565b9150509250929050565b60008060408385031215612b5857600080fd5b6000612b6685828601612754565b9250506020612b778582860161289a565b9150509250929050565b60008060408385031215612b9457600080fd5b600083013567ffffffffffffffff811115612bae57600080fd5b612bba8582860161277e565b925050602083013567ffffffffffffffff811115612bd757600080fd5b612be3858286016127a8565b9150509250929050565b600060208284031215612bff57600080fd5b6000612c0d848285016127e7565b91505092915050565b600060208284031215612c2857600080fd5b6000612c36848285016127fc565b91505092915050565b600060208284031215612c5157600080fd5b6000612c5f84828501612811565b91505092915050565b600060208284031215612c7a57600080fd5b6000612c888482850161289a565b91505092915050565b600060208284031215612ca357600080fd5b6000612cb1848285016128af565b91505092915050565b60008060408385031215612ccd57600080fd5b6000612cdb858286016128af565b9250506020612cec85828601612769565b9150509250929050565b6000612d028383613059565b60208301905092915050565b612d1781613659565b82525050565b6000612d28826134e3565b612d328185613511565b9350612d3d836134d3565b8060005b83811015612d6e578151612d558882612cf6565b9750612d6083613504565b925050600181019050612d41565b5085935050505092915050565b612d848161366b565b82525050565b612d938161366b565b82525050565b612da281613677565b82525050565b6000612db3826134ee565b612dbd8185613522565b9350612dcd8185602086016136dc565b612dd681613899565b840191505092915050565b6000612dec826134f9565b612df68185613533565b9350612e068185602086016136dc565b612e0f81613899565b840191505092915050565b6000612e27603483613533565b9150612e32826138b7565b604082019050919050565b6000612e4a602883613533565b9150612e5582613906565b604082019050919050565b6000612e6d602b83613533565b9150612e7882613955565b604082019050919050565b6000612e90602983613533565b9150612e9b826139a4565b604082019050919050565b6000612eb3601c83613533565b9150612ebe826139f3565b602082019050919050565b6000612ed6602583613533565b9150612ee182613a1c565b604082019050919050565b6000612ef9603283613533565b9150612f0482613a6b565b604082019050919050565b6000612f1c601683613533565b9150612f2782613aba565b602082019050919050565b6000612f3f602a83613533565b9150612f4a82613ae3565b604082019050919050565b6000612f62603b83613533565b9150612f6d82613b32565b604082019050919050565b6000612f85602983613533565b9150612f9082613b81565b604082019050919050565b6000612fa8602983613533565b9150612fb382613bd0565b604082019050919050565b6000612fcb602883613533565b9150612fd682613c1f565b604082019050919050565b6000612fee602183613533565b9150612ff982613c6e565b604082019050919050565b60808201600082015161301a6000850182612d7b565b50602082015161302d6020850182613059565b5060408201516130406040850182613059565b5060608201516130536060850182613059565b50505050565b613062816136c3565b82525050565b613071816136c3565b82525050565b600060a08201905061308c6000830188612d0e565b6130996020830187612d0e565b81810360408301526130ab8186612d1d565b905081810360608301526130bf8185612d1d565b905081810360808301526130d38184612da8565b90509695505050505050565b600060a0820190506130f46000830188612d0e565b6131016020830187612d0e565b61310e6040830186613068565b61311b6060830185613068565b818103608083015261312d8184612da8565b90509695505050505050565b600060208201905081810360008301526131538184612d1d565b905092915050565b600060408201905081810360008301526131758185612d1d565b905081810360208301526131898184612d1d565b90509392505050565b60006020820190506131a76000830184612d8a565b92915050565b60006020820190506131c26000830184612d99565b92915050565b600060208201905081810360008301526131e28184612de1565b905092915050565b6000602082019050818103600083015261320381612e1a565b9050919050565b6000602082019050818103600083015261322381612e3d565b9050919050565b6000602082019050818103600083015261324381612e60565b9050919050565b6000602082019050818103600083015261326381612e83565b9050919050565b6000602082019050818103600083015261328381612ea6565b9050919050565b600060208201905081810360008301526132a381612ec9565b9050919050565b600060208201905081810360008301526132c381612eec565b9050919050565b600060208201905081810360008301526132e381612f0f565b9050919050565b6000602082019050818103600083015261330381612f32565b9050919050565b6000602082019050818103600083015261332381612f55565b9050919050565b6000602082019050818103600083015261334381612f78565b9050919050565b6000602082019050818103600083015261336381612f9b565b9050919050565b6000602082019050818103600083015261338381612fbe565b9050919050565b600060208201905081810360008301526133a381612fe1565b9050919050565b60006020820190506133bf6000830184613068565b92915050565b60006040820190506133da6000830185613068565b6133e76020830184613068565b9392505050565b600060c0820190506134036000830186613068565b6134106020830185613068565b61341d6040830184613004565b949350505050565b600061342f613440565b905061343b8282613741565b919050565b6000604051905090565b600067ffffffffffffffff82111561346557613464613848565b5b602082029050602081019050919050565b600067ffffffffffffffff82111561349157613490613848565b5b602082029050602081019050919050565b600067ffffffffffffffff8211156134bd576134bc613848565b5b6134c682613899565b9050602081019050919050565b6000819050602082019050919050565b600081519050919050565b600081519050919050565b600081519050919050565b6000602082019050919050565b600082825260208201905092915050565b600082825260208201905092915050565b600082825260208201905092915050565b600061354f826136c3565b915061355a836136c3565b9250827fffffffffffffffffffffffffffffffffffffffffffffffffffffffffffffffff0382111561358f5761358e6137bb565b5b828201905092915050565b60006135a5826136c3565b91506135b0836136c3565b9250826135c0576135bf6137ea565b5b828204905092915050565b60006135d6826136c3565b91506135e1836136c3565b9250817fffffffffffffffffffffffffffffffffffffffffffffffffffffffffffffffff048311821515161561361a576136196137bb565b5b828202905092915050565b6000613630826136c3565b915061363b836136c3565b92508282101561364e5761364d6137bb565b5b828203905092915050565b6000613664826136a3565b9050919050565b60008115159050919050565b60007fffffffff0000000000000000000000000000000000000000000000000000000082169050919050565b600073ffffffffffffffffffffffffffffffffffffffff82169050919050565b6000819050919050565b82818337600083830152505050565b60005b838110156136fa5780820151818401526020810190506136df565b83811115613709576000848401525b50505050565b6000600282049050600182168061372757607f821691505b6020821081141561373b5761373a613819565b5b50919050565b61374a82613899565b810181811067ffffffffffffffff8211171561376957613768613848565b5b80604052505050565b600061377d826136c3565b91507fffffffffffffffffffffffffffffffffffffffffffffffffffffffffffffffff8214156137b0576137af6137bb565b5b600182019050919050565b7f4e487b7100000000000000000000000000000000000000000000000000000000600052601160045260246000fd5b7f4e487b7100000000000000000000000000000000000000000000000000000000600052601260045260246000fd5b7f4e487b7100000000000000000000000000000000000000000000000000000000600052602260045260246000fd5b7f4e487b7100000000000000000000000000000000000000000000000000000000600052604160045260246000fd5b600060033d11156138965760046000803e6138936000516138aa565b90505b90565b6000601f19601f8301169050919050565b60008160e01c9050919050565b7f455243313135353a207472616e7366657220746f206e6f6e204552433131353560008201527f526563656976657220696d706c656d656e746572000000000000000000000000602082015250565b7f455243313135353a204552433131353552656365697665722072656a6563746560008201527f6420746f6b656e73000000000000000000000000000000000000000000000000602082015250565b7f455243313135353a2062616c616e636520717565727920666f7220746865207a60008201527f65726f2061646472657373000000000000000000000000000000000000000000602082015250565b7f455243313135353a2063616c6c6572206973206e6f74206f776e6572206e6f7260008201527f20617070726f7665640000000000000000000000000000000000000000000000602082015250565b7f596f7520617265206e6f74207374616b696e6720616e79204e46547300000000600082015250565b7f455243313135353a207472616e7366657220746f20746865207a65726f20616460008201527f6472657373000000000000000000000000000000000000000000000000000000602082015250565b7f455243313135353a207472616e736665722063616c6c6572206973206e6f742060008201527f6f776e6572206e6f7220617070726f7665640000000000000000000000000000602082015250565b7f63616e6e6f742064656c65746520746865206865616400000000000000000000600082015250565b7f455243313135353a20696e73756666696369656e742062616c616e636520666f60008201527f72207472616e7366657200000000000000000000000000000000000000000000602082015250565b7f4f6e6c792074686520626f72726f776572206f66207468697320636f6e74726160008201527f63742063616e206d696e742074686520626f6e647320746f2069740000000000602082015250565b7f455243313135353a2073657474696e6720617070726f76616c2073746174757360008201527f20666f722073656c660000000000000000000000000000000000000000000000602082015250565b7f455243313135353a206163636f756e747320616e6420696473206c656e67746860008201527f206d69736d617463680000000000000000000000000000000000000000000000602082015250565b7f455243313135353a2069647320616e6420616d6f756e7473206c656e6774682060008201527f6d69736d61746368000000000000000000000000000000000000000000000000602082015250565b7f455243313135353a206d696e7420746f20746865207a65726f2061646472657360008201527f7300000000000000000000000000000000000000000000000000000000000000602082015250565b600060443d1015613ccd57613d50565b613cd5613440565b60043d036004823e80513d602482011167ffffffffffffffff82111715613cfd575050613d50565b808201805167ffffffffffffffff811115613d1b5750505050613d50565b80602083010160043d038501811115613d38575050505050613d50565b613d4782602001850186613741565b82955050505050505b90565b613d5c81613659565b8114613d6757600080fd5b50565b613d738161366b565b8114613d7e57600080fd5b50565b613d8a81613677565b8114613d9557600080fd5b50565b613da1816136c3565b8114613dac57600080fd5b5056fea2646970667358221220629b5b0b8a783a60ccb901585d82dfc769ae936445f5a17f2af96de5dfa44de364736f6c63430008010033",
  "immutableReferences": {},
  "source": "/// SPDX-License-Identifier: None\npragma solidity ^0.8.0;\n\n//For Remix:\nimport \"@openzeppelin/contracts/token/ERC1155/ERC1155.sol\";\nimport {IERC20PaymentStandard} from './IERC20PaymentStandard.sol';\n/**\n* @title paymentContract\n* @author Carson Case\n*\n* @dev interface for paymentContract\n*As of right now, each payment contract can only have 1 address (borrower).\n*And they can only mint identical NFTs. In the future I'd like to have the\n*standard allow for shared use of the contracts as it can make things a\n*lot more user friendly.\n*\n* @notice these are the REQUIRED functions of a pyament contract.\n*More is possible and encouraged. But these are the only ways that the bonds\n*contract will interact with them\n */\n\n/**\n* @title Bonds\n* @author Carson Case\n*\n* @dev bellow are some notes on improvements\n*   -figure out compound staking interest\n*       *compare complexity/gas\n*   -allow multiple users/loans per contract\n*   -unstakeAmmount()\n*   -Fix issue with unstakeAll not sending nfts but instead minting\n*   -See if holding functions can be imported/interfaced\n*   -Create interface for this contract. Seperate file\n*   -Move metadata url to non magic variable\n*   -Replace stake with erc1155Received\n */\ncontract Bonds is ERC1155 {\n    \n    //Data held per person to keep track of staking\n    struct IOU{\n        bool staking;\n        uint256 ID;\n        uint256 ammount;\n        uint256 timeStaked;\n    }\n    \n    //Node for a linked list\n    struct node{\n        uint last;\n        uint next;\n        IOU value;          //Replace with you own data. Change uint256 where you see it\n    }\n\n    //In the linked list the head is always 0. Head actually represents null. There will never be a value stored there\n    uint256 constant public head = 0;\n    //Used to keep track of this info for each user\n    struct llMeta{\n        uint256 tail;\n    }\n    mapping(address => llMeta) public llData;\n\n    //Staking info linked list for each address\n    mapping(address => mapping(uint256 => node)) public staking;\n    \n    //Constructor. Empty for now except the metadata url\n    constructor() ERC1155(\"https://test.com/api/{id}.json\"){\n        \n    }\n    \n    /**\n    * @notice function creates the tokens for a new loan so they can be sold to generate funding\n    * @param _paymentContractAddress is the address of the loan's contract. \"Borrower\" in this\n    *must be the same as msg.sender\n    *of the payment contract's address. Typecasted to uint256\n     */\n    function newLoan(address _paymentContractAddress, uint256 _id) external{\n        IERC20PaymentStandard pc = IERC20PaymentStandard(_paymentContractAddress);\n        uint256 amm;\n        address creator;\n        (amm, creator) = pc.issueBonds(_id);\n        require(msg.sender == creator, \"Only the borrower of this contract can mint the bonds to it\");\n        _mint(creator, _id, amm, \"\");\n    }\n    \n\n    function unstake(uint256 _index) external returns(bool){\n        require(!_isEmpty(msg.sender), \"You are not staking any NFTs\");\n        uint256 id = staking[msg.sender][_index].value.ID; \n        uint256 amm = staking[msg.sender][_index].value.ammount;\n        uint256 x = getAccruances(msg.sender,_index);\n        //Reset the staking for sender before calling any functions\n        \n        //Remove staking from the ll\n        _del(_index, msg.sender);\n        //Call the payment contract before minting or transfering any tokens\n        IERC20PaymentStandard pc = IERC20PaymentStandard(address(uint160(id)));\n        uint256 toMint = x * (amm / pc.getInterest(id));\n        bool r;                 //Store return so we can call other contract before mint funciton. Don't want callback attacks\n        //Update the balance with new interest. Store return value based on response.\n        if(pc.addInterest(toMint, id)){\n            r = true;\n        }else{\n            r = false;\n        }\n        //safeTransferFrom(address(this), msg.sender, id, amm, \"\"); This causes an issue. It thinks itself is not approved. Just going to mint for now\n        _mint(msg.sender, id, toMint+amm, \"\");\n        return r;\n        \n    }\n    \n    /**\n    * @notice function get's how many accruance periods a person has staked through\n    * @param _who is who to check\n    * @return the number of periods\n    * SOME PROBLEM HERE. IDK WHAT IT IS YET\n     */\n    function getAccruances(address _who, uint256 _index) public returns(uint256) {\n        IOU memory iou = staking[_who][_index].value;\n        require(iou.staking,\"You are not staking any NFTs\");\n        IERC20PaymentStandard pc = IERC20PaymentStandard(address(uint160(iou.ID)));\n        uint256 accrualPeriod = pc.getInterest(iou.ID);\n        return((block.timestamp - iou.timeStaked)/accrualPeriod);\n    }\n    \n    //Functions to receive ERC1155. Since I can't make it a ERC1155Holder with dependancy colission\n    function onERC1155Received(address _operator, address _from, uint256 _id, uint256 _value, bytes calldata _data) public returns(bytes4){\n        stake(_id,_value,_from);\n        return this.onERC1155Received.selector;\n    }\n\n    function onERC1155BatchReceived(address, address, uint256[] memory, uint256[] memory, bytes memory) public virtual returns (bytes4) {\n        return this.onERC1155BatchReceived.selector;\n    }\n\n\n    /*=============================================================\n    *LINKED LIST FUNCTIONS \n    *BELLOW \n    ==============================================================*/\n    \n    /// @notice helper function\n    /// @return if ll is empty\n    function _isEmpty(address _who) private view returns(bool){\n        return(staking[_who][head].next == 0);   \n    }\n    \n    event test(uint256);\n    /// @notice push to tail of linkedList\n    /// @param _val is the value to insert at tail\n    function _push(IOU memory _val, address _who) private{\n        uint256 tail = llData[_who].tail;\n        if(_isEmpty(_who)){\n            staking[_who][head].next = 1;\n            staking[_who][1] = node(0,0,_val);\n            llData[_who].tail = 1;\n        }else{\n            staking[_who][tail].next = tail+1;\n            staking[_who][tail+1] = node(tail,0,_val);\n            llData[_who].tail++;\n        }\n    }\n    \n    /// @notice delete at a given index\n    /// @param _index is the pointer to the node\n    function _del(uint256 _index, address _who) private{\n        uint256 tail = llData[_who].tail;\n        require(_index != head,\"cannot delete the head\");\n        if(_index == tail){\n            llData[_who].tail = staking[_who][tail].last;\n        }\n        uint256 a = staking[_who][_index].last;\n        uint256 b = staking[_who][_index].next;\n        staking[_who][a].next = staking[_who][_index].next;\n        staking[_who][b].last = staking[_who][_index].last;\n        \n        staking[msg.sender][_index].value = IOU(\n            false,\n            0,\n            0,\n            0\n        );\n        staking[msg.sender][_index].next = 0;\n        staking[msg.sender][_index].last = 0;\n        \n    }\n        /**\n    * @notice function stakes an ammount of ERC-1155's with id from sender\n    * @notice you need to approve this contract to spend your ERC-1155's first\n    * @param _id is the token's id. Also the paymentcontract's uint256 representation\n    * @param _amm is the ammount to stake\n     */\n    function stake(uint256 _id, uint256 _amm, address _who) private {\n        _push(IOU(\n            true,\n            _id,\n            _amm,\n            block.timestamp\n        ),_who);\n    }\n}\n\n",
  "sourcePath": "/home/carson/Documents/linkHackathon2021/loan-wolf/contracts/contracts/Bonds.sol",
  "compiler": {
    "name": "solc",
    "version": "0.8.1+commit.df193b15.Emscripten.clang"
  },
  "schemaVersion": "3.3.4",
  "updatedAt": "2021-03-31T18:32:14.757Z",
  "devdoc": {
    "author": "Carson Case",
    "details": "bellow are some notes on improvements   -figure out compound staking interest       *compare complexity/gas   -allow multiple users/loans per contract   -unstakeAmmount()   -Fix issue with unstakeAll not sending nfts but instead minting   -See if holding functions can be imported/interfaced   -Create interface for this contract. Seperate file   -Move metadata url to non magic variable   -Replace stake with erc1155Received",
    "kind": "dev",
    "methods": {
      "balanceOf(address,uint256)": {
        "details": "See {IERC1155-balanceOf}. Requirements: - `account` cannot be the zero address."
      },
      "balanceOfBatch(address[],uint256[])": {
        "details": "See {IERC1155-balanceOfBatch}. Requirements: - `accounts` and `ids` must have the same length."
      },
      "getAccruances(address,uint256)": {
        "params": {
          "_who": "is who to check"
        },
        "returns": {
          "_0": "the number of periods SOME PROBLEM HERE. IDK WHAT IT IS YET"
        }
      },
      "isApprovedForAll(address,address)": {
        "details": "See {IERC1155-isApprovedForAll}."
      },
      "newLoan(address,uint256)": {
        "params": {
          "_paymentContractAddress": "is the address of the loan's contract. \"Borrower\" in this must be the same as msg.sender of the payment contract's address. Typecasted to uint256"
        }
      },
      "safeBatchTransferFrom(address,address,uint256[],uint256[],bytes)": {
        "details": "See {IERC1155-safeBatchTransferFrom}."
      },
      "safeTransferFrom(address,address,uint256,uint256,bytes)": {
        "details": "See {IERC1155-safeTransferFrom}."
      },
      "setApprovalForAll(address,bool)": {
        "details": "See {IERC1155-setApprovalForAll}."
      },
      "supportsInterface(bytes4)": {
        "details": "See {IERC165-supportsInterface}."
      },
      "uri(uint256)": {
        "details": "See {IERC1155MetadataURI-uri}. This implementation returns the same URI for *all* token types. It relies on the token type ID substitution mechanism https://eips.ethereum.org/EIPS/eip-1155#metadata[defined in the EIP]. Clients calling this function must replace the `\\{id\\}` substring with the actual token type ID."
      }
    },
    "title": "Bonds",
    "version": 1
  },
  "userdoc": {
    "kind": "user",
    "methods": {
      "getAccruances(address,uint256)": {
        "notice": "function get's how many accruance periods a person has staked through"
      },
      "newLoan(address,uint256)": {
        "notice": "function creates the tokens for a new loan so they can be sold to generate funding"
      }
    },
    "version": 1
  }
}