{
  "contractName": "Bonds",
  "abi": [
    {
      "inputs": [],
      "stateMutability": "nonpayable",
      "type": "constructor"
    },
    {
      "anonymous": false,
      "inputs": [
        {
          "indexed": true,
          "internalType": "address",
          "name": "account",
          "type": "address"
        },
        {
          "indexed": true,
          "internalType": "address",
          "name": "operator",
          "type": "address"
        },
        {
          "indexed": false,
          "internalType": "bool",
          "name": "approved",
          "type": "bool"
        }
      ],
      "name": "ApprovalForAll",
      "type": "event"
    },
    {
      "anonymous": false,
      "inputs": [
        {
          "indexed": true,
          "internalType": "address",
          "name": "operator",
          "type": "address"
        },
        {
          "indexed": true,
          "internalType": "address",
          "name": "from",
          "type": "address"
        },
        {
          "indexed": true,
          "internalType": "address",
          "name": "to",
          "type": "address"
        },
        {
          "indexed": false,
          "internalType": "uint256[]",
          "name": "ids",
          "type": "uint256[]"
        },
        {
          "indexed": false,
          "internalType": "uint256[]",
          "name": "values",
          "type": "uint256[]"
        }
      ],
      "name": "TransferBatch",
      "type": "event"
    },
    {
      "anonymous": false,
      "inputs": [
        {
          "indexed": true,
          "internalType": "address",
          "name": "operator",
          "type": "address"
        },
        {
          "indexed": true,
          "internalType": "address",
          "name": "from",
          "type": "address"
        },
        {
          "indexed": true,
          "internalType": "address",
          "name": "to",
          "type": "address"
        },
        {
          "indexed": false,
          "internalType": "uint256",
          "name": "id",
          "type": "uint256"
        },
        {
          "indexed": false,
          "internalType": "uint256",
          "name": "value",
          "type": "uint256"
        }
      ],
      "name": "TransferSingle",
      "type": "event"
    },
    {
      "anonymous": false,
      "inputs": [
        {
          "indexed": false,
          "internalType": "string",
          "name": "value",
          "type": "string"
        },
        {
          "indexed": true,
          "internalType": "uint256",
          "name": "id",
          "type": "uint256"
        }
      ],
      "name": "URI",
      "type": "event"
    },
    {
      "inputs": [
        {
          "internalType": "uint256",
          "name": "",
          "type": "uint256"
        }
      ],
      "name": "IDToContract",
      "outputs": [
        {
          "internalType": "address",
          "name": "",
          "type": "address"
        }
      ],
      "stateMutability": "view",
      "type": "function"
    },
    {
      "inputs": [
        {
          "internalType": "address",
          "name": "account",
          "type": "address"
        },
        {
          "internalType": "uint256",
          "name": "id",
          "type": "uint256"
        }
      ],
      "name": "balanceOf",
      "outputs": [
        {
          "internalType": "uint256",
          "name": "",
          "type": "uint256"
        }
      ],
      "stateMutability": "view",
      "type": "function"
    },
    {
      "inputs": [
        {
          "internalType": "address[]",
          "name": "accounts",
          "type": "address[]"
        },
        {
          "internalType": "uint256[]",
          "name": "ids",
          "type": "uint256[]"
        }
      ],
      "name": "balanceOfBatch",
      "outputs": [
        {
          "internalType": "uint256[]",
          "name": "",
          "type": "uint256[]"
        }
      ],
      "stateMutability": "view",
      "type": "function"
    },
    {
      "inputs": [],
      "name": "head",
      "outputs": [
        {
          "internalType": "uint256",
          "name": "",
          "type": "uint256"
        }
      ],
      "stateMutability": "view",
      "type": "function"
    },
    {
      "inputs": [
        {
          "internalType": "address",
          "name": "account",
          "type": "address"
        },
        {
          "internalType": "address",
          "name": "operator",
          "type": "address"
        }
      ],
      "name": "isApprovedForAll",
      "outputs": [
        {
          "internalType": "bool",
          "name": "",
          "type": "bool"
        }
      ],
      "stateMutability": "view",
      "type": "function"
    },
    {
      "inputs": [
        {
          "internalType": "address",
          "name": "",
          "type": "address"
        }
      ],
      "name": "llTail",
      "outputs": [
        {
          "internalType": "uint256",
          "name": "",
          "type": "uint256"
        }
      ],
      "stateMutability": "view",
      "type": "function"
    },
    {
      "inputs": [
        {
          "internalType": "address",
          "name": "from",
          "type": "address"
        },
        {
          "internalType": "address",
          "name": "to",
          "type": "address"
        },
        {
          "internalType": "uint256[]",
          "name": "ids",
          "type": "uint256[]"
        },
        {
          "internalType": "uint256[]",
          "name": "amounts",
          "type": "uint256[]"
        },
        {
          "internalType": "bytes",
          "name": "data",
          "type": "bytes"
        }
      ],
      "name": "safeBatchTransferFrom",
      "outputs": [],
      "stateMutability": "nonpayable",
      "type": "function"
    },
    {
      "inputs": [
        {
          "internalType": "address",
          "name": "from",
          "type": "address"
        },
        {
          "internalType": "address",
          "name": "to",
          "type": "address"
        },
        {
          "internalType": "uint256",
          "name": "id",
          "type": "uint256"
        },
        {
          "internalType": "uint256",
          "name": "amount",
          "type": "uint256"
        },
        {
          "internalType": "bytes",
          "name": "data",
          "type": "bytes"
        }
      ],
      "name": "safeTransferFrom",
      "outputs": [],
      "stateMutability": "nonpayable",
      "type": "function"
    },
    {
      "inputs": [
        {
          "internalType": "address",
          "name": "operator",
          "type": "address"
        },
        {
          "internalType": "bool",
          "name": "approved",
          "type": "bool"
        }
      ],
      "name": "setApprovalForAll",
      "outputs": [],
      "stateMutability": "nonpayable",
      "type": "function"
    },
    {
      "inputs": [
        {
          "internalType": "bytes4",
          "name": "interfaceId",
          "type": "bytes4"
        }
      ],
      "name": "supportsInterface",
      "outputs": [
        {
          "internalType": "bool",
          "name": "",
          "type": "bool"
        }
      ],
      "stateMutability": "view",
      "type": "function"
    },
    {
      "inputs": [
        {
          "internalType": "uint256",
          "name": "",
          "type": "uint256"
        }
      ],
      "name": "uri",
      "outputs": [
        {
          "internalType": "string",
          "name": "",
          "type": "string"
        }
      ],
      "stateMutability": "view",
      "type": "function"
    },
    {
      "inputs": [
        {
          "internalType": "address",
          "name": "_who",
          "type": "address"
        },
        {
          "internalType": "uint256",
          "name": "_index",
          "type": "uint256"
        }
      ],
      "name": "getStakingAt",
      "outputs": [
        {
          "internalType": "uint256",
          "name": "",
          "type": "uint256"
        },
        {
          "internalType": "uint256",
          "name": "",
          "type": "uint256"
        },
        {
          "internalType": "uint256",
          "name": "",
          "type": "uint256"
        },
        {
          "internalType": "uint256",
          "name": "",
          "type": "uint256"
        },
        {
          "internalType": "uint256",
          "name": "",
          "type": "uint256"
        }
      ],
      "stateMutability": "view",
      "type": "function"
    },
    {
      "inputs": [
        {
          "internalType": "address",
          "name": "_paymentContractAddress",
          "type": "address"
        },
        {
          "internalType": "uint256",
          "name": "_id",
          "type": "uint256"
        }
      ],
      "name": "newLoan",
      "outputs": [],
      "stateMutability": "nonpayable",
      "type": "function"
    },
    {
      "inputs": [
        {
          "internalType": "uint256",
          "name": "_id",
          "type": "uint256"
        },
        {
          "internalType": "uint256",
          "name": "_amm",
          "type": "uint256"
        }
      ],
      "name": "stake",
      "outputs": [],
      "stateMutability": "nonpayable",
      "type": "function"
    },
    {
      "inputs": [
        {
          "internalType": "uint256",
          "name": "_index",
          "type": "uint256"
        }
      ],
      "name": "unstake",
      "outputs": [
        {
          "internalType": "bool",
          "name": "",
          "type": "bool"
        }
      ],
      "stateMutability": "nonpayable",
      "type": "function"
    },
    {
      "inputs": [
        {
          "internalType": "address",
          "name": "_who",
          "type": "address"
        },
        {
          "internalType": "uint256",
          "name": "_index",
          "type": "uint256"
        }
      ],
      "name": "getAccruances",
      "outputs": [
        {
          "internalType": "uint256",
          "name": "",
          "type": "uint256"
        }
      ],
      "stateMutability": "view",
      "type": "function"
    },
    {
      "inputs": [
        {
          "internalType": "address",
          "name": "_operator",
          "type": "address"
        },
        {
          "internalType": "address",
          "name": "_from",
          "type": "address"
        },
        {
          "internalType": "uint256",
          "name": "_id",
          "type": "uint256"
        },
        {
          "internalType": "uint256",
          "name": "_value",
          "type": "uint256"
        },
        {
          "internalType": "bytes",
          "name": "_data",
          "type": "bytes"
        }
      ],
      "name": "onERC1155Received",
      "outputs": [
        {
          "internalType": "bytes4",
          "name": "",
          "type": "bytes4"
        }
      ],
      "stateMutability": "nonpayable",
      "type": "function"
    },
    {
      "inputs": [
        {
          "internalType": "address",
          "name": "_operator",
          "type": "address"
        },
        {
          "internalType": "address",
          "name": "_from",
          "type": "address"
        },
        {
          "internalType": "uint256[]",
          "name": "_ids",
          "type": "uint256[]"
        },
        {
          "internalType": "uint256[]",
          "name": "_values",
          "type": "uint256[]"
        },
        {
          "internalType": "bytes",
          "name": "_data",
          "type": "bytes"
        }
      ],
      "name": "onERC1155BatchReceived",
      "outputs": [
        {
          "internalType": "bytes4",
          "name": "",
          "type": "bytes4"
        }
      ],
      "stateMutability": "nonpayable",
      "type": "function"
    }
  ],
  "bytecode": "0x60806040523480156200001157600080fd5b5060408051808201909152601e81527f68747470733a2f2f746573742e636f6d2f6170692f7b69647d2e6a736f6e000060208201526200007a7f01ffc9a700000000000000000000000000000000000000000000000000000000640100000000620000fd810204565b6200008e81640100000000620001cc810204565b620000c27fd9b67a2600000000000000000000000000000000000000000000000000000000640100000000620000fd810204565b620000f67f0e89341c00000000000000000000000000000000000000000000000000000000640100000000620000fd810204565b506200028a565b7fffffffff0000000000000000000000000000000000000000000000000000000080821614156200018f57604080517f08c379a000000000000000000000000000000000000000000000000000000000815260206004820152601c60248201527f4552433136353a20696e76616c696420696e7465726661636520696400000000604482015290519081900360640190fd5b7fffffffff00000000000000000000000000000000000000000000000000000000166000908152602081905260409020805460ff19166001179055565b8051620001e1906003906020840190620001e5565b5050565b828054600181600116156101000203166002900490600052602060002090601f016020900481019282601f106200022857805160ff191683800117855562000258565b8280016001018555821562000258579182015b82811115620002585782518255916020019190600101906200023b565b50620002669291506200026a565b5090565b6200028791905b8082111562000266576000815560010162000271565b90565b612609806200029a6000396000f3fe608060405234801561001057600080fd5b50600436106101195760003560e060020a9004806397ed51d3116100a6578063bc197c8111610075578063bc197c8114610696578063cd544dac1461087a578063e985e9c5146108d1578063f23a6e61146108ff578063f242432a146109ca57610119565b806397ed51d3146105d7578063a097b7ab14610603578063a22cb4651461062f578063a59061bc1461065d57610119565b80632eb2c2d6116100ed5780632eb2c2d614610246578063485eddc91461040f5780634e1273f4146104355780637b0472f0146105ac5780638f7dcfa3146105cf57610119565b8062fdd58e1461011e57806301ffc9a71461015c5780630e89341c146101975780632e17de7814610229575b600080fd5b61014a6004803603604081101561013457600080fd5b50600160a060020a038135169060200135610a95565b60408051918252519081900360200190f35b6101836004803603602081101561017257600080fd5b5035600160e060020a031916610b07565b604080519115158252519081900360200190f35b6101b4600480360360208110156101ad57600080fd5b5035610b26565b6040805160208082528351818301528351919283929083019185019080838360005b838110156101ee5781810151838201526020016101d6565b50505050905090810190601f16801561021b5780820380516001836020036101000a031916815260200191505b509250505060405180910390f35b6101836004803603602081101561023f57600080fd5b5035610bbe565b61040d600480360360a081101561025c57600080fd5b600160a060020a03823581169260208101359091169181019060608101604082013564010000000081111561029057600080fd5b8201836020820111156102a257600080fd5b803590602001918460208302840111640100000000831117156102c457600080fd5b919080806020026020016040519081016040528093929190818152602001838360200280828437600092019190915250929594936020810193503591505064010000000081111561031457600080fd5b82018360208201111561032657600080fd5b8035906020019184602083028401116401000000008311171561034857600080fd5b919080806020026020016040519081016040528093929190818152602001838360200280828437600092019190915250929594936020810193503591505064010000000081111561039857600080fd5b8201836020820111156103aa57600080fd5b803590602001918460018302840111640100000000831117156103cc57600080fd5b91908080601f016020809104026020016040519081016040528093929190818152602001838380828437600092019190915250929550610db7945050505050565b005b61014a6004803603602081101561042557600080fd5b5035600160a060020a03166110be565b61055c6004803603604081101561044b57600080fd5b81019060208101813564010000000081111561046657600080fd5b82018360208201111561047857600080fd5b8035906020019184602083028401116401000000008311171561049a57600080fd5b91908080602002602001604051908101604052809392919081815260200183836020028082843760009201919091525092959493602081019350359150506401000000008111156104ea57600080fd5b8201836020820111156104fc57600080fd5b8035906020019184602083028401116401000000008311171561051e57600080fd5b9190808060200260200160405190810160405280939291908181526020018383602002808284376000920191909152509295506110d0945050505050565b60408051602080825283518183015283519192839290830191858101910280838360005b83811015610598578181015183820152602001610580565b505050509050019250505060405180910390f35b61040d600480360360408110156105c257600080fd5b5080359060200135611254565b61014a611298565b61014a600480360360408110156105ed57600080fd5b50600160a060020a03813516906020013561129d565b61040d6004803603604081101561061957600080fd5b50600160a060020a0381351690602001356113f3565b61040d6004803603604081101561064557600080fd5b50600160a060020a0381351690602001351515611530565b61067a6004803603602081101561067357600080fd5b5035611622565b60408051600160a060020a039092168252519081900360200190f35b61085d600480360360a08110156106ac57600080fd5b600160a060020a0382358116926020810135909116918101906060810160408201356401000000008111156106e057600080fd5b8201836020820111156106f257600080fd5b8035906020019184602083028401116401000000008311171561071457600080fd5b919080806020026020016040519081016040528093929190818152602001838360200280828437600092019190915250929594936020810193503591505064010000000081111561076457600080fd5b82018360208201111561077657600080fd5b8035906020019184602083028401116401000000008311171561079857600080fd5b91908080602002602001604051908101604052809392919081815260200183836020028082843760009201919091525092959493602081019350359150506401000000008111156107e857600080fd5b8201836020820111156107fa57600080fd5b8035906020019184600183028401116401000000008311171561081c57600080fd5b91908080601f01602080910402602001604051908101604052809392919081815260200183838082843760009201919091525092955061163d945050505050565b60408051600160e060020a03199092168252519081900360200190f35b6108a66004803603604081101561089057600080fd5b50600160a060020a038135169060200135611667565b6040805195865260208601949094528484019290925260608401526080830152519081900360a00190f35b610183600480360360408110156108e757600080fd5b50600160a060020a03813581169160200135166116fb565b61085d600480360360a081101561091557600080fd5b600160a060020a03823581169260208101359091169160408201359160608101359181019060a08101608082013564010000000081111561095557600080fd5b82018360208201111561096757600080fd5b8035906020019184600183028401116401000000008311171561098957600080fd5b91908080601f016020809104026020016040519081016040528093929190818152602001838380828437600092019190915250929550611729945050505050565b61040d600480360360a08110156109e057600080fd5b600160a060020a03823581169260208101359091169160408201359160608101359181019060a081016080820135640100000000811115610a2057600080fd5b820183602082011115610a3257600080fd5b80359060200191846001830284011164010000000083111715610a5457600080fd5b91908080601f016020809104026020016040519081016040528093929190818152602001838380828437600092019190915250929550611753945050505050565b6000600160a060020a038316610adf5760405160e560020a62461bcd02815260040180806020018281038252602b8152602001806123cc602b913960400191505060405180910390fd5b506000908152600160209081526040808320600160a060020a03949094168352929052205490565b600160e060020a03191660009081526020819052604090205460ff1690565b60038054604080516020601f6002600019610100600188161502019095169490940493840181900481028201810190925282815260609390929091830182828015610bb25780601f10610b8757610100808354040283529160200191610bb2565b820191906000526020600020905b815481529060010190602001808311610b9557829003601f168201915b50505050509050919050565b6000610bc93361192a565b15610c1e576040805160e560020a62461bcd02815260206004820152601c60248201527f596f7520617265206e6f74207374616b696e6720616e79204e46547300000000604482015290519081900360640190fd5b336000818152600660209081526040808320868452909152812060028101546003909101549092909190610c52908661129d565b600084815260046020526040902054909150600160a060020a0316610c778633611954565b6000819050600081600160a060020a0316635fe2d689876040518263ffffffff1660e060020a0281526004018082815260200191505060206040518083038186803b158015610cc557600080fd5b505afa158015610cd9573d6000803e3d6000fd5b505050506040513d6020811015610cef57600080fd5b50518581610cf957fe5b0484029050600082600160a060020a031663e62e1e4283896040518363ffffffff1660e060020a0281526004018083815260200182815260200192505050602060405180830381600087803b158015610d5157600080fd5b505af1158015610d65573d6000803e3d6000fd5b505050506040513d6020811015610d7b57600080fd5b505115610d8a57506001610d8e565b5060005b610dab338888850160405180602001604052806000815250611a82565b98975050505050505050565b8151835114610dfa5760405160e560020a62461bcd02815260040180806020018281038252602881526020018061258b6028913960400191505060405180910390fd5b600160a060020a038416610e425760405160e560020a62461bcd02815260040180806020018281038252602581526020018061247d6025913960400191505060405180910390fd5b610e4a611b8c565b600160a060020a031685600160a060020a03161480610e755750610e7585610e70611b8c565b6116fb565b610eb35760405160e560020a62461bcd0281526004018080602001828103825260328152602001806124a26032913960400191505060405180910390fd5b6000610ebd611b8c565b9050610ecd8187878787876110b6565b60005b8451811015610fce576000858281518110610ee757fe5b602002602001015190506000858381518110610eff57fe5b60200260200101519050610f6c816040518060600160405280602a81526020016124d4602a91396001600086815260200190815260200160002060008d600160a060020a0316600160a060020a0316815260200190815260200160002054611b909092919063ffffffff16565b6000838152600160209081526040808320600160a060020a038e811685529252808320939093558a1681522054610fa39082611c2a565b6000928352600160208181526040808620600160a060020a038d168752909152909320555001610ed0565b5084600160a060020a031686600160a060020a031682600160a060020a03167f4a39dc06d4c0dbc64b70af90fd698a233a518aa5d07e595d983b8c0526c8f7fb8787604051808060200180602001838103835285818151815260200191508051906020019060200280838360005b8381101561105457818101518382015260200161103c565b50505050905001838103825284818151815260200191508051906020019060200280838360005b8381101561109357818101518382015260200161107b565b5050505090500194505050505060405180910390a46110b6818787878787611c8e565b505050505050565b60056020526000908152604090205481565b606081518351146111155760405160e560020a62461bcd0281526004018080602001828103825260298152602001806125626029913960400191505060405180910390fd5b6060835167ffffffffffffffff8111801561112f57600080fd5b50604051908082528060200260200182016040528015611159578160200160208202803683370190505b50905060005b845181101561124c576000600160a060020a031685828151811061117f57fe5b6020026020010151600160a060020a031614156111d05760405160e560020a62461bcd0281526004018080602001828103825260318152602001806123f76031913960400191505060405180910390fd5b600160008583815181106111e057fe5b60200260200101518152602001908152602001600020600086838151811061120457fe5b6020026020010151600160a060020a0316600160a060020a031681526020019081526020016000205482828151811061123957fe5b602090810291909101015260010161115f565b509392505050565b6112703330848460405180602001604052806000815250611753565b61129460405180606001604052808481526020018381526020014281525033611ff4565b5050565b600081565b60006112a7612328565b50600160a060020a038316600090815260066020908152604080832085845282529182902082516060810184526002820154808252600383015493820193909352600490910154928101929092526113335760405160e560020a62461bcd02815260040180806020018281038252602c815260200180612451602c913960400191505060405180910390fd5b8051600090815260046020818152604080842054855182517f5fe2d689000000000000000000000000000000000000000000000000000000008152948501529051600160a060020a0390911693849390928492635fe2d689926024808201939291829003018186803b1580156113a857600080fd5b505afa1580156113bc573d6000803e3d6000fd5b505050506040513d60208110156113d257600080fd5b5051604085015190915081904203816113e757fe5b04979650505050505050565b604080517fd41db84b00000000000000000000000000000000000000000000000000000000815260048101839052815184926000928392600160a060020a0386169263d41db84b926024808201939182900301818787803b15801561145757600080fd5b505af115801561146b573d6000803e3d6000fd5b505050506040513d604081101561148157600080fd5b508051602090910151909250905033600160a060020a038216146114d95760405160e560020a62461bcd02815260040180806020018281038252603b8152602001806124fe603b913960400191505060405180910390fd5b6000848152600460209081526040808320805473ffffffffffffffffffffffffffffffffffffffff1916600160a060020a038a161790558051918201905290815261152990829086908590611a82565b5050505050565b81600160a060020a0316611542611b8c565b600160a060020a0316141561158b5760405160e560020a62461bcd0281526004018080602001828103825260298152602001806125396029913960400191505060405180910390fd5b8060026000611598611b8c565b600160a060020a03908116825260208083019390935260409182016000908120918716808252919093529120805460ff1916921515929092179091556115dc611b8c565b6040805184151581529051600160a060020a0392909216917f17307eab39ab6107e8899845ad3d59bd9653f200f220920489ca2b5937696c319181900360200190a35050565b600460205260009081526040902054600160a060020a031681565b7fbc197c810000000000000000000000000000000000000000000000000000000095945050505050565b6000806000806000611677612349565b50505050600160a060020a0393909316600090815260066020908152604080832094835293815290839020835160608082018652825482526001830154828501908152865191820187526002840154825260038401549482019485526004909301548187019081529582018190529051915190519251945191969095509193925090565b600160a060020a03918216600090815260026020908152604080832093909416825291909152205460ff1690565b7ff23a6e610000000000000000000000000000000000000000000000000000000095945050505050565b600160a060020a03841661179b5760405160e560020a62461bcd02815260040180806020018281038252602581526020018061247d6025913960400191505060405180910390fd5b6117a3611b8c565b600160a060020a031685600160a060020a031614806117c957506117c985610e70611b8c565b6118075760405160e560020a62461bcd0281526004018080602001828103825260298152602001806124286029913960400191505060405180910390fd5b6000611811611b8c565b90506118318187876118228861212c565b61182b8861212c565b876110b6565b61187e836040518060600160405280602a81526020016124d4602a91396000878152600160209081526040808320600160a060020a038d168452909152902054919063ffffffff611b9016565b6000858152600160209081526040808320600160a060020a038b811685529252808320939093558716815220546118b59084611c2a565b6000858152600160209081526040808320600160a060020a03808b168086529184529382902094909455805188815291820187905280518a8416938616927fc3d58168c5ae7397731d063d5bbf3d657854427343f4c083240f7aacaa2d0f6292908290030190a46110b6818787878787612170565b600160a060020a031660009081526006602090815260408083208380529091529020600101541590565b600160a060020a038116600090815260056020526040902054826119c2576040805160e560020a62461bcd02815260206004820152601660248201527f63616e6e6f742064656c65746520746865206865616400000000000000000000604482015290519081900360640190fd5b808314156119fa57600160a060020a038216600081815260066020908152604080832085845282528083205493835260059091529020555b50600160a060020a031660009081526006602081815260408084208585528252808420805460018083015491875283872081018290559154908652828620558151606081018352858152808401868152818401878152338852958552838720978752969093529084209151600283015593516003820155905160048201559182018190559055565b600160a060020a038416611aca5760405160e560020a62461bcd0281526004018080602001828103825260218152602001806125b36021913960400191505060405180910390fd5b6000611ad4611b8c565b9050611ae6816000876118228861212c565b6000848152600160209081526040808320600160a060020a0389168452909152902054611b19908463ffffffff611c2a16565b6000858152600160209081526040808320600160a060020a03808b16808652918452828520959095558151898152928301889052815190948616927fc3d58168c5ae7397731d063d5bbf3d657854427343f4c083240f7aacaa2d0f6292908290030190a461152981600087878787612170565b3390565b60008184841115611c225760405160e560020a62461bcd0281526004018080602001828103825283818151815260200191508051906020019080838360005b83811015611be7578181015183820152602001611bcf565b50505050905090810190601f168015611c145780820380516001836020036101000a031916815260200191505b509250505060405180910390fd5b505050900390565b600082820183811015611c87576040805160e560020a62461bcd02815260206004820152601b60248201527f536166654d6174683a206164646974696f6e206f766572666c6f770000000000604482015290519081900360640190fd5b9392505050565b611ca084600160a060020a0316612322565b156110b65783600160a060020a031663bc197c8187878686866040518663ffffffff1660e060020a0281526004018086600160a060020a0316600160a060020a0316815260200185600160a060020a0316600160a060020a03168152602001806020018060200180602001848103845287818151815260200191508051906020019060200280838360005b83811015611d43578181015183820152602001611d2b565b50505050905001848103835286818151815260200191508051906020019060200280838360005b83811015611d82578181015183820152602001611d6a565b50505050905001848103825285818151815260200191508051906020019080838360005b83811015611dbe578181015183820152602001611da6565b50505050905090810190601f168015611deb5780820380516001836020036101000a031916815260200191505b5098505050505050505050602060405180830381600087803b158015611e1057600080fd5b505af1925050508015611e3557506040513d6020811015611e3057600080fd5b505160015b611f80576040516000815260443d1015611e5157506000611ef1565b60046000803e60e060020a600051046308c379a08114611e75576000915050611ef1565b60043d036004833e81513d602482011167ffffffffffffffff82111715611ea157600092505050611ef1565b808301805167ffffffffffffffff811115611ec3576000945050505050611ef1565b8060208301013d8601811115611ee157600095505050505050611ef1565b601f01601f191660405250925050505b80611efc5750611f46565b60405160e560020a62461bcd028152602060048201818152835160248401528351849391928392604401919085019080838360008315611be7578181015183820152602001611bcf565b60405160e560020a62461bcd0281526004018080602001828103825260348152602001806123706034913960400191505060405180910390fd5b600160e060020a031981167fbc197c810000000000000000000000000000000000000000000000000000000014611feb5760405160e560020a62461bcd0281526004018080602001828103825260288152602001806123a46028913960400191505060405180910390fd5b50505050505050565b600160a060020a0381166000908152600560205260409020546120168261192a565b1561209e57600160a060020a0382166000818152600660209081526040808320838052808352818420600190810181905582516060810184528581528085018681528185018b81528388529386528487209151825551818301559151805160028401558085015160038401558301516004909201919091559383526005909152902055612127565b600160a060020a0382166000818152600660209081526040808320858452808352818420600180880191810182905583516060810185528881528086018781528186018c81529388529386528487209051815592518382015590518051600284015580850151600384015583015160049092019190915593835260059091529020805490910190555b505050565b60408051600180825281830190925260609182919060208083019080368337019050509050828160008151811061215f57fe5b602090810291909101015292915050565b61218284600160a060020a0316612322565b156110b65783600160a060020a031663f23a6e6187878686866040518663ffffffff1660e060020a0281526004018086600160a060020a0316600160a060020a0316815260200185600160a060020a0316600160a060020a0316815260200184815260200183815260200180602001828103825283818151815260200191508051906020019080838360005b8381101561222657818101518382015260200161220e565b50505050905090810190601f1680156122535780820380516001836020036101000a031916815260200191505b509650505050505050602060405180830381600087803b15801561227657600080fd5b505af192505050801561229b57506040513d602081101561229657600080fd5b505160015b6122b7576040516000815260443d1015611e5157506000611ef1565b600160e060020a031981167ff23a6e610000000000000000000000000000000000000000000000000000000014611feb5760405160e560020a62461bcd0281526004018080602001828103825260288152602001806123a46028913960400191505060405180910390fd5b3b151590565b60405180606001604052806000815260200160008152602001600081525090565b6040518060600160405280600081526020016000815260200161236a612328565b90529056fe455243313135353a207472616e7366657220746f206e6f6e2045524331313535526563656976657220696d706c656d656e746572455243313135353a204552433131353552656365697665722072656a656374656420746f6b656e73455243313135353a2062616c616e636520717565727920666f7220746865207a65726f2061646472657373455243313135353a2062617463682062616c616e636520717565727920666f7220746865207a65726f2061646472657373455243313135353a2063616c6c6572206973206e6f74206f776e6572206e6f7220617070726f766564596f7520617265206e6f74207374616b696e6720616e7920746f6b656e73206174207468697320696e646578455243313135353a207472616e7366657220746f20746865207a65726f2061646472657373455243313135353a207472616e736665722063616c6c6572206973206e6f74206f776e6572206e6f7220617070726f766564455243313135353a20696e73756666696369656e742062616c616e636520666f72207472616e736665724f6e6c792074686520626f72726f776572206f66207468697320636f6e74726163742063616e206d696e742074686520626f6e647320746f206974455243313135353a2073657474696e6720617070726f76616c2073746174757320666f722073656c66455243313135353a206163636f756e747320616e6420696473206c656e677468206d69736d61746368455243313135353a2069647320616e6420616d6f756e7473206c656e677468206d69736d61746368455243313135353a206d696e7420746f20746865207a65726f2061646472657373a2646970667358221220b5edf7a92aa8827183ba7149e2f065a048d59fe67bb9ed698f458af09137fc9464736f6c63430006060033",
  "immutableReferences": {},
  "source": "/// SPDX-License-Identifier: None\npragma solidity ^0.6.6;\n\nimport \"@openzeppelin/contracts/token/ERC1155/ERC1155.sol\";\nimport {IERC20PaymentStandard} from './IERC20PaymentStandard.sol';\n/**\n* @title Bonds\n* @author Carson Case\n* @notice Bonds mints ERC1155 tokens that represent ownership of a loan specified by a Payment Contract. These bonds can accrue interest and be exchanged for payments made in the payment contract\n */\ncontract Bonds is ERC1155 {\n    \n    //Stores ID-> payment contract relationships\n    mapping(uint256 => address) public IDToContract;\n\n    /// @notice A linked list is used to keep track of staking for each user. This is so we can delete (ustake) nodes in constant time while still being able to itterate easily\n    /// @dev may one day use this in payment standard as well to itterate through loans per person.\n    //Data held per person to keep track of staking\n    struct IOU{\n        uint256 ID;\n        uint256 ammount;\n        uint256 timeStaked;\n    }\n    \n    //Node for a linked list\n    struct node{\n        uint last;\n        uint next;\n        IOU value;\n    }\n\n    //In the linked list the head is always 0. Head actually represents null. There will never be a value stored there\n    uint256 constant public head = 0;\n\n    //Used to keep track of this info for each user's linked list of staking data\n    mapping(address => uint256) public llTail;\n\n    /// @notice this is the staking linked list. Access the node to find the next/last.The 0 node is the HEAD and cannot hold values. If HEAD points to\n    /// itself then it's empty\n    mapping(address => mapping(uint256 => node)) staking;\n    \n    //Constructor. Empty for now except the metadata url\n    constructor() ERC1155(\"https://test.com/api/{id}.json\") public{}\n    \n    /**\n    * @notice Staking mapping is no longer public. Must call this to get staking info\n    * @param _who is address in first mapping\n    * @param _index is LL index in nested mapping\n    * @return the Linked List Node last pointer\n    * @return the Linked List Node next pointer\n    * @return the IOU struct Loan ID value\n    * @return the IOU struct ammount value\n    * @return the IOU struct timestamp for staking\n    * in that order\n     */\n    function getStakingAt(address _who, uint256 _index) external view returns(uint, uint, uint256, uint256, uint256){\n        node memory n = staking[_who][_index];\n        return(n.last,n.next,n.value.ID,n.value.ammount,n.value.timeStaked);\n    }\n\n    /**\n    * @notice function creates the tokens for a new loan so they can be sold to generate funding\n    * @param _paymentContractAddress is the address of the loan's contract. \"Borrower\" in this\n    * @param _id is the ID of the loan you're minting\n     */\n    function newLoan(address _paymentContractAddress, uint256 _id) external{\n        IERC20PaymentStandard pc = IERC20PaymentStandard(_paymentContractAddress);\n        uint256 amm;\n        address creator;\n        (amm, creator) = pc.issueBonds(_id);\n        require(msg.sender == creator, \"Only the borrower of this contract can mint the bonds to it\");\n        IDToContract[_id] = _paymentContractAddress;\n        _mint(creator, _id, amm, \"\");\n    }\n    \n    /**\n    * @notice function stakes an ammount of ERC-1155's with id from sender. MUST Approve contract first\n    * @param _id is the token's id\n    * @param _amm is the ammount to stake\n     */\n    function stake(uint256 _id, uint256 _amm) external {\n        safeTransferFrom(msg.sender, address(this), _id, _amm, \"\");\n        _push(IOU(\n            _id,\n            _amm,\n            block.timestamp\n        ),msg.sender);\n    }\n\n    /** \n    * @notice function unstakes bonds\n    * @param _index is the index in the linked list mentioned above with state varaibles\n    * @return if successful. May not be if loan has been completed since staking\n     */\n    function unstake(uint256 _index) external returns(bool){\n        require(!_isEmpty(msg.sender), \"You are not staking any NFTs\");\n        //Get some important variables\n        uint256 id = staking[msg.sender][_index].value.ID; \n        uint256 amm = staking[msg.sender][_index].value.ammount;\n        uint256 periodsStaked = getAccruances(msg.sender,_index);\n        address paymentContract = IDToContract[id];\n        \n        //Remove staking from the ll\n        _del(_index, msg.sender);\n        //Call the payment contract before minting or transfering any tokens\n        IERC20PaymentStandard pc = IERC20PaymentStandard(paymentContract);\n        uint256 toMint = periodsStaked * (amm / pc.getInterest(id));\n        bool r;                 //Store return so we can call other contract before mint funciton. Don't want callback attacks\n        //Update the balance with new interest. Store return value based on response.\n        if(pc.addInterest(toMint, id)){\n            r = true;\n        }else{\n            r = false;\n        }\n        //safeTransferFrom(address(this), msg.sender, id, amm, \"\"); This causes an issue. It thinks itself is not approved. Just going to mint for now\n        _mint(msg.sender, id, toMint+amm, \"\");\n        return r;\n        \n    }\n    \n    /**\n    * @notice function get's how many accruance periods a person has staked through\n    * @param _who is who to check\n    * @param _index in the linked list\n    * @return the number of periods\n     */\n    function getAccruances(address _who, uint256 _index) public view returns(uint256) {\n        IOU memory iou = staking[_who][_index].value;\n        require(iou.ID != 0,\"You are not staking any tokens at this index\");\n        address paymentContract = IDToContract[iou.ID];\n        IERC20PaymentStandard pc = IERC20PaymentStandard(paymentContract);\n        uint256 accrualPeriod = pc.getInterest(iou.ID);\n        return((block.timestamp - iou.timeStaked)/accrualPeriod);\n    }\n    \n    /// @notice ERC1155 receiver function\n    function onERC1155Received\n        (\n        address _operator,\n        address _from,\n        uint256 _id,\n        uint256 _value,\n        bytes memory _data\n        ) \n        public \n        returns(bytes4)\n        {\n            return this.onERC1155Received.selector;\n    }\n\n    /// @notice ERC1155 batch receiver function\n    function onERC1155BatchReceived\n        (\n        address _operator, \n        address _from, \n        uint256[] memory _ids, \n        uint256[] memory _values, \n        bytes memory _data\n        ) \n        public \n        virtual \n        returns (bytes4) \n            {\n            return this.onERC1155BatchReceived.selector;\n    }\n\n\n    /*=============================================================\n    *LINKED LIST FUNCTIONS \n    *BELLOW \n    ==============================================================*/\n    \n    /**\n    * @notice helper function\n    * @param _who to lookup the linked list of\n    * @return if ll is empty\n     */\n    function _isEmpty(address _who) private view returns(bool){\n        return(staking[_who][head].next == 0);   \n    }\n    \n    /** @notice push to tail of linkedList\n    * @param _val is the value to insert at tail\n    * @param _who is who to push in ll mapping\n     */\n    function _push(IOU memory _val, address _who) private{\n        uint256 tail = llTail[_who];\n        if(_isEmpty(_who)){\n            staking[_who][head].next = 1;\n            staking[_who][1] = node(0,0,_val);\n            llTail[_who] = 1;\n        }else{\n            staking[_who][tail].next = tail+1;\n            staking[_who][tail+1] = node(tail,0,_val);\n            llTail[_who]++;\n        }\n    }\n    \n    /** @notice delete at a given index\n    * @param _index is the pointer to the node\n    * @param _who is who in ll mapping\n     */\n    function _del(uint256 _index, address _who) private{\n        uint256 tail = llTail[_who];\n        require(_index != head,\"cannot delete the head\");\n        if(_index == tail){\n            llTail[_who] = staking[_who][tail].last;\n        }\n        uint256 a = staking[_who][_index].last;\n        uint256 b = staking[_who][_index].next;\n        staking[_who][a].next = staking[_who][_index].next;\n        staking[_who][b].last = staking[_who][_index].last;\n        \n        staking[msg.sender][_index].value = IOU(\n            0,\n            0,\n            0\n        );\n        staking[msg.sender][_index].next = 0;\n        staking[msg.sender][_index].last = 0;\n        \n    }\n}\n\n",
  "sourcePath": "/home/carson/Documents/linkHackathon2021/loan-wolf/contracts/contracts/Bonds.sol",
  "compiler": {
    "name": "solc",
    "version": "0.6.6+commit.6c089d02.Emscripten.clang"
  },
  "schemaVersion": "3.3.4",
  "updatedAt": "2021-04-13T17:47:39.636Z",
  "devdoc": {
    "author": "Carson Case",
    "methods": {
      "balanceOf(address,uint256)": {
        "details": "See {IERC1155-balanceOf}.     * Requirements:     * - `account` cannot be the zero address."
      },
      "balanceOfBatch(address[],uint256[])": {
        "details": "See {IERC1155-balanceOfBatch}.     * Requirements:     * - `accounts` and `ids` must have the same length."
      },
      "getAccruances(address,uint256)": {
        "params": {
          "_index": "in the linked list",
          "_who": "is who to check"
        },
        "returns": {
          "_0": "the number of periods"
        }
      },
      "getStakingAt(address,uint256)": {
        "params": {
          "_index": "is LL index in nested mapping",
          "_who": "is address in first mapping"
        },
        "returns": {
          "_0": "the Linked List Node last pointer",
          "_1": "the Linked List Node next pointer",
          "_2": "the IOU struct Loan ID value",
          "_3": "the IOU struct ammount value",
          "_4": "the IOU struct timestamp for staking in that order"
        }
      },
      "isApprovedForAll(address,address)": {
        "details": "See {IERC1155-isApprovedForAll}."
      },
      "newLoan(address,uint256)": {
        "params": {
          "_id": "is the ID of the loan you're minting",
          "_paymentContractAddress": "is the address of the loan's contract. \"Borrower\" in this"
        }
      },
      "safeBatchTransferFrom(address,address,uint256[],uint256[],bytes)": {
        "details": "See {IERC1155-safeBatchTransferFrom}."
      },
      "safeTransferFrom(address,address,uint256,uint256,bytes)": {
        "details": "See {IERC1155-safeTransferFrom}."
      },
      "setApprovalForAll(address,bool)": {
        "details": "See {IERC1155-setApprovalForAll}."
      },
      "stake(uint256,uint256)": {
        "params": {
          "_amm": "is the ammount to stake",
          "_id": "is the token's id"
        }
      },
      "supportsInterface(bytes4)": {
        "details": "See {IERC165-supportsInterface}.     * Time complexity O(1), guaranteed to always use less than 30 000 gas."
      },
      "unstake(uint256)": {
        "params": {
          "_index": "is the index in the linked list mentioned above with state varaibles"
        },
        "returns": {
          "_0": "if successful. May not be if loan has been completed since staking"
        }
      },
      "uri(uint256)": {
        "details": "See {IERC1155MetadataURI-uri}.     * This implementation returns the same URI for *all* token types. It relies on the token type ID substitution mechanism https://eips.ethereum.org/EIPS/eip-1155#metadata[defined in the EIP].     * Clients calling this function must replace the `\\{id\\}` substring with the actual token type ID."
      }
    },
    "title": "Bonds"
  },
  "userdoc": {
    "methods": {
      "getAccruances(address,uint256)": {
        "notice": "function get's how many accruance periods a person has staked through"
      },
      "getStakingAt(address,uint256)": {
        "notice": "Staking mapping is no longer public. Must call this to get staking info"
      },
      "newLoan(address,uint256)": {
        "notice": "function creates the tokens for a new loan so they can be sold to generate funding"
      },
      "onERC1155BatchReceived(address,address,uint256[],uint256[],bytes)": {
        "notice": "ERC1155 batch receiver function"
      },
      "onERC1155Received(address,address,uint256,uint256,bytes)": {
        "notice": "ERC1155 receiver function"
      },
      "stake(uint256,uint256)": {
        "notice": "function stakes an ammount of ERC-1155's with id from sender. MUST Approve contract first"
      },
      "unstake(uint256)": {
        "notice": "function unstakes bonds"
      }
    },
    "notice": "Bonds mints ERC1155 tokens that represent ownership of a loan specified by a Payment Contract. These bonds can accrue interest and be exchanged for payments made in the payment contract"
  }
}