{
  "contractName": "CircularDoublyLinkedList",
  "abi": [
    {
      "inputs": [],
      "name": "head",
      "outputs": [
        {
          "internalType": "uint256",
          "name": "",
          "type": "uint256"
        }
      ],
      "stateMutability": "view",
      "type": "function"
    },
    {
      "inputs": [
        {
          "internalType": "uint256",
          "name": "",
          "type": "uint256"
        }
      ],
      "name": "linkedList",
      "outputs": [
        {
          "internalType": "uint256",
          "name": "last",
          "type": "uint256"
        },
        {
          "internalType": "uint256",
          "name": "next",
          "type": "uint256"
        },
        {
          "internalType": "uint256",
          "name": "value",
          "type": "uint256"
        }
      ],
      "stateMutability": "view",
      "type": "function"
    },
    {
      "inputs": [],
      "name": "tail",
      "outputs": [
        {
          "internalType": "uint256",
          "name": "",
          "type": "uint256"
        }
      ],
      "stateMutability": "view",
      "type": "function"
    },
    {
      "inputs": [
        {
          "internalType": "uint256",
          "name": "_val",
          "type": "uint256"
        }
      ],
      "name": "push",
      "outputs": [],
      "stateMutability": "nonpayable",
      "type": "function"
    },
    {
      "inputs": [
        {
          "internalType": "uint256",
          "name": "_index",
          "type": "uint256"
        }
      ],
      "name": "del",
      "outputs": [],
      "stateMutability": "nonpayable",
      "type": "function"
    },
    {
      "inputs": [],
      "name": "isEmpty",
      "outputs": [
        {
          "internalType": "bool",
          "name": "",
          "type": "bool"
        }
      ],
      "stateMutability": "view",
      "type": "function"
    }
  ],
  "bytecode": "0x60806040526000805534801561001457600080fd5b506105cf806100246000396000f3fe608060405234801561001057600080fd5b50600436106100625760003560e01c806313d8c840146100675780633b18b0f61461008557806357771a23146100b7578063681fe70c146100d35780638f7dcfa3146100f1578063959ac4841461010f575b600080fd5b61006f61012b565b60405161007c9190610412565b60405180910390f35b61009f600480360381019061009a919061036d565b610131565b6040516100ae9392919061042d565b60405180910390f35b6100d160048036038101906100cc919061036d565b61015b565b005b6100db610218565b6040516100e891906103d7565b60405180910390f35b6100f9610238565b6040516101069190610412565b60405180910390f35b6101296004803603810190610124919061036d565b61023d565b005b60005481565b60016020528060005260406000206000915090508060000154908060010154908060020154905083565b600081141561019f576040517f08c379a0000000000000000000000000000000000000000000000000000000008152600401610196906103f2565b60405180910390fd5b6000548114156101c8576001600080548152602001908152602001600020600001546000819055505b600060016000838152602001908152602001600020600001549050600160008381526020019081526020016000206001015460016000838152602001908152602001600020600101819055505050565b600080600160008081526020019081526020016000206001015414905090565b600081565b610245610218565b156102c457600180600080815260200190815260200160002060010181905550604051806060016040528060008152602001600081526020018281525060016000600181526020019081526020016000206000820151816000015560208201518160010155604082015181600201559050506001600081905550610355565b60016000546102d39190610475565b600160008054815260200190815260200160002060010181905550604051806060016040528060008081548092919061030b906104e1565b919050558152602001600081526020018281525060016000805481526020019081526020016000206000820151816000015560208201518160010155604082015181600201559050505b50565b60008135905061036781610582565b92915050565b60006020828403121561037f57600080fd5b600061038d84828501610358565b91505092915050565b61039f816104cb565b82525050565b60006103b2601683610464565b91506103bd82610559565b602082019050919050565b6103d1816104d7565b82525050565b60006020820190506103ec6000830184610396565b92915050565b6000602082019050818103600083015261040b816103a5565b9050919050565b600060208201905061042760008301846103c8565b92915050565b600060608201905061044260008301866103c8565b61044f60208301856103c8565b61045c60408301846103c8565b949350505050565b600082825260208201905092915050565b6000610480826104d7565b915061048b836104d7565b9250827fffffffffffffffffffffffffffffffffffffffffffffffffffffffffffffffff038211156104c0576104bf61052a565b5b828201905092915050565b60008115159050919050565b6000819050919050565b60006104ec826104d7565b91507fffffffffffffffffffffffffffffffffffffffffffffffffffffffffffffffff82141561051f5761051e61052a565b5b600182019050919050565b7f4e487b7100000000000000000000000000000000000000000000000000000000600052601160045260246000fd5b7f63616e6e6f742064656c65746520746865206865616400000000000000000000600082015250565b61058b816104d7565b811461059657600080fd5b5056fea2646970667358221220c374afb310eda4ef0b2e64e062e227d82aa18e352ecc3331d2ae60f4cc18e9ad64736f6c63430008010033",
  "immutableReferences": {},
  "source": "// SPDX-License-Identifier: GPL-3.0\npragma solidity >=0.7.0 <0.9.0;\n/// @title CircularDoublyLinkedList\n/// @author Carson Case\n/// @notice no insert function. It's not needed for my implementation as of right now\ncontract CircularDoublyLinkedList {\n    \n    /// @notice head and dail of the doubly linked list\n    uint constant public head = 0;          //Can comment out. Head will always be 0 and value will always be 0. Head is actually like null in a normal ll;\n    uint public tail = 0;\n    \n    /// @notice node object. Replace value with your own type as needed\n    struct node{\n        uint last;\n        uint next;\n        uint256 value;          //Replace with you own data. Change uint256 where you see it\n    }\n\n    /// @notice traversal is done off chain by using the getter for this\n    mapping(uint256 => node) public linkedList;\n    \n    /// @notice push to tail of linkedList\n    /// @param _val is the value to insert at tail\n    function push(uint256 _val) external{\n        if(isEmpty()){\n            linkedList[head].next = 1;\n            linkedList[1] = node(0,0,_val);\n            tail = 1;\n        }else{\n            linkedList[tail].next = tail+1;\n            linkedList[tail] = node(tail++,0,_val);\n        }\n    }\n    \n    /// @notice delete at a given index\n    /// @param _index is the pointer to the node\n    function del(uint256 _index) external{\n        require(_index != head,\"cannot delete the head\");\n        if(_index == tail){\n            tail = linkedList[tail].last;\n        }\n        uint256 a = linkedList[_index].last;\n        linkedList[a].next = linkedList[_index].next;\n    }\n    \n    /// @notice helper function\n    /// @return if ll is empty\n    function isEmpty() public view returns(bool){\n        return(linkedList[head].next == 0);   \n    }\n}\n",
  "sourcePath": "/home/carson/Documents/linkHackathon2021/loan-wolf/contracts/contracts/utils/CircularDoublyLinkedList.sol",
  "compiler": {
    "name": "solc",
    "version": "0.8.1+commit.df193b15.Emscripten.clang"
  },
  "schemaVersion": "3.3.4",
  "updatedAt": "2021-03-29T22:03:44.780Z",
  "devdoc": {
    "author": "Carson Case",
    "kind": "dev",
    "methods": {
      "del(uint256)": {
        "params": {
          "_index": "is the pointer to the node"
        }
      },
      "isEmpty()": {
        "returns": {
          "_0": "if ll is empty"
        }
      },
      "push(uint256)": {
        "params": {
          "_val": "is the value to insert at tail"
        }
      }
    },
    "title": "CircularDoublyLinkedList",
    "version": 1
  },
  "userdoc": {
    "kind": "user",
    "methods": {
      "del(uint256)": {
        "notice": "delete at a given index"
      },
      "head()": {
        "notice": "head and dail of the doubly linked list"
      },
      "isEmpty()": {
        "notice": "helper function"
      },
      "linkedList(uint256)": {
        "notice": "traversal is done off chain by using the getter for this"
      },
      "push(uint256)": {
        "notice": "push to tail of linkedList"
      }
    },
    "notice": "no insert function. It's not needed for my implementation as of right now",
    "version": 1
  }
}