{
  "contractName": "ERC20PaymentStandard",
  "abi": [
    {
      "inputs": [
        {
          "internalType": "address",
          "name": "_bonds",
          "type": "address"
        }
      ],
      "stateMutability": "nonpayable",
      "type": "constructor"
    },
    {
      "inputs": [],
      "name": "bondContract",
      "outputs": [
        {
          "internalType": "address",
          "name": "",
          "type": "address"
        }
      ],
      "stateMutability": "view",
      "type": "function"
    },
    {
      "inputs": [
        {
          "internalType": "address",
          "name": "",
          "type": "address"
        },
        {
          "internalType": "uint256",
          "name": "",
          "type": "uint256"
        }
      ],
      "name": "loanIDs",
      "outputs": [
        {
          "internalType": "uint256",
          "name": "",
          "type": "uint256"
        }
      ],
      "stateMutability": "view",
      "type": "function"
    },
    {
      "inputs": [
        {
          "internalType": "uint256",
          "name": "",
          "type": "uint256"
        }
      ],
      "name": "loanLookup",
      "outputs": [
        {
          "internalType": "bool",
          "name": "issued",
          "type": "bool"
        },
        {
          "internalType": "address",
          "name": "ERC20Address",
          "type": "address"
        },
        {
          "internalType": "address",
          "name": "borrower",
          "type": "address"
        },
        {
          "internalType": "uint256",
          "name": "paymentPeriod",
          "type": "uint256"
        },
        {
          "internalType": "uint256",
          "name": "paymentDueDate",
          "type": "uint256"
        },
        {
          "internalType": "uint256",
          "name": "minPayment",
          "type": "uint256"
        },
        {
          "internalType": "uint256",
          "name": "interestRateInverse",
          "type": "uint256"
        },
        {
          "internalType": "uint256",
          "name": "accrualPeriod",
          "type": "uint256"
        },
        {
          "internalType": "uint256",
          "name": "principal",
          "type": "uint256"
        },
        {
          "internalType": "uint256",
          "name": "totalPaymentsValue",
          "type": "uint256"
        },
        {
          "internalType": "uint256",
          "name": "awaitingCollection",
          "type": "uint256"
        },
        {
          "internalType": "uint256",
          "name": "paymentComplete",
          "type": "uint256"
        }
      ],
      "stateMutability": "view",
      "type": "function"
    },
    {
      "inputs": [
        {
          "internalType": "address",
          "name": "",
          "type": "address"
        },
        {
          "internalType": "address",
          "name": "",
          "type": "address"
        },
        {
          "internalType": "uint256[]",
          "name": "",
          "type": "uint256[]"
        },
        {
          "internalType": "uint256[]",
          "name": "",
          "type": "uint256[]"
        },
        {
          "internalType": "bytes",
          "name": "",
          "type": "bytes"
        }
      ],
      "name": "onERC1155BatchReceived",
      "outputs": [
        {
          "internalType": "bytes4",
          "name": "",
          "type": "bytes4"
        }
      ],
      "stateMutability": "nonpayable",
      "type": "function"
    },
    {
      "inputs": [
        {
          "internalType": "bytes4",
          "name": "interfaceId",
          "type": "bytes4"
        }
      ],
      "name": "supportsInterface",
      "outputs": [
        {
          "internalType": "bool",
          "name": "",
          "type": "bool"
        }
      ],
      "stateMutability": "view",
      "type": "function"
    },
    {
      "inputs": [
        {
          "internalType": "address",
          "name": "_who",
          "type": "address"
        }
      ],
      "name": "getNumberOfLoans",
      "outputs": [
        {
          "internalType": "uint256",
          "name": "",
          "type": "uint256"
        }
      ],
      "stateMutability": "view",
      "type": "function"
    },
    {
      "inputs": [
        {
          "internalType": "uint256",
          "name": "_id",
          "type": "uint256"
        }
      ],
      "name": "issueBonds",
      "outputs": [
        {
          "internalType": "uint256",
          "name": "",
          "type": "uint256"
        },
        {
          "internalType": "address",
          "name": "",
          "type": "address"
        }
      ],
      "stateMutability": "nonpayable",
      "type": "function"
    },
    {
      "inputs": [
        {
          "internalType": "uint256",
          "name": "_amm",
          "type": "uint256"
        },
        {
          "internalType": "uint256",
          "name": "_id",
          "type": "uint256"
        }
      ],
      "name": "addInterest",
      "outputs": [
        {
          "internalType": "bool",
          "name": "",
          "type": "bool"
        }
      ],
      "stateMutability": "nonpayable",
      "type": "function"
    },
    {
      "inputs": [
        {
          "internalType": "uint256",
          "name": "_id",
          "type": "uint256"
        }
      ],
      "name": "getInterest",
      "outputs": [
        {
          "internalType": "uint256",
          "name": "",
          "type": "uint256"
        }
      ],
      "stateMutability": "view",
      "type": "function"
    },
    {
      "inputs": [
        {
          "internalType": "uint256",
          "name": "_id",
          "type": "uint256"
        }
      ],
      "name": "isDelinquent",
      "outputs": [
        {
          "internalType": "bool",
          "name": "",
          "type": "bool"
        }
      ],
      "stateMutability": "view",
      "type": "function"
    },
    {
      "inputs": [
        {
          "internalType": "address",
          "name": "_erc20",
          "type": "address"
        },
        {
          "internalType": "uint256",
          "name": "_minPayment",
          "type": "uint256"
        },
        {
          "internalType": "uint256",
          "name": "_paymentPeriod",
          "type": "uint256"
        },
        {
          "internalType": "uint256",
          "name": "_principal",
          "type": "uint256"
        },
        {
          "internalType": "uint256",
          "name": "_inverseInterestRate",
          "type": "uint256"
        },
        {
          "internalType": "uint256",
          "name": "_accrualPeriod",
          "type": "uint256"
        }
      ],
      "name": "configureNew",
      "outputs": [],
      "stateMutability": "nonpayable",
      "type": "function"
    },
    {
      "inputs": [
        {
          "internalType": "uint256",
          "name": "_id",
          "type": "uint256"
        },
        {
          "internalType": "uint256",
          "name": "_erc20Ammount",
          "type": "uint256"
        }
      ],
      "name": "payment",
      "outputs": [],
      "stateMutability": "nonpayable",
      "type": "function"
    },
    {
      "inputs": [
        {
          "internalType": "address",
          "name": "_operator",
          "type": "address"
        },
        {
          "internalType": "address",
          "name": "_from",
          "type": "address"
        },
        {
          "internalType": "uint256",
          "name": "_id",
          "type": "uint256"
        },
        {
          "internalType": "uint256",
          "name": "_value",
          "type": "uint256"
        },
        {
          "internalType": "bytes",
          "name": "_data",
          "type": "bytes"
        }
      ],
      "name": "onERC1155Received",
      "outputs": [
        {
          "internalType": "bytes4",
          "name": "",
          "type": "bytes4"
        }
      ],
      "stateMutability": "nonpayable",
      "type": "function"
    },
    {
      "inputs": [
        {
          "internalType": "uint256",
          "name": "_id",
          "type": "uint256"
        }
      ],
      "name": "isComplete",
      "outputs": [
        {
          "internalType": "bool",
          "name": "",
          "type": "bool"
        }
      ],
      "stateMutability": "view",
      "type": "function"
    },
    {
      "inputs": [
        {
          "internalType": "address",
          "name": "_borrower",
          "type": "address"
        },
        {
          "internalType": "uint256",
          "name": "_index",
          "type": "uint256"
        }
      ],
      "name": "getId",
      "outputs": [
        {
          "internalType": "uint256",
          "name": "",
          "type": "uint256"
        }
      ],
      "stateMutability": "view",
      "type": "function"
    }
  ],
  "bytecode": "0x60806040523480156200001157600080fd5b5060405162001ec138038062001ec1833981810160405281019062000037919062000095565b806000806101000a81548173ffffffffffffffffffffffffffffffffffffffff021916908373ffffffffffffffffffffffffffffffffffffffff160217905550506200010f565b6000815190506200008f81620000f5565b92915050565b600060208284031215620000a857600080fd5b6000620000b8848285016200007e565b91505092915050565b6000620000ce82620000d5565b9050919050565b600073ffffffffffffffffffffffffffffffffffffffff82169050919050565b6200010081620000c1565b81146200010c57600080fd5b50565b611da2806200011f6000396000f3fe608060405234801561001057600080fd5b50600436106100f55760003560e01c80637e23f5dd11610097578063d41db84b11610066578063d41db84b146102ed578063e62e1e421461031e578063e7004a7a1461034e578063f23a6e611461036c576100f5565b80637e23f5dd1461022d57806391f671911461025d578063bc197c811461028d578063c5d3e11d146102bd576100f5565b80633a0be1a6116100d35780633a0be1a6146101625780634af50116146101925780635fe2d689146101c2578063630e69ad146101f2576100f5565b806301ffc9a7146100fa5780631a25005b1461012a5780632f63147f14610146575b600080fd5b610114600480360381019061010f9190611448565b61039c565b60405161012191906116a1565b60405180910390f35b610144600480360381019061013f9190611396565b610416565b005b610160600480360381019061015b919061149a565b610685565b005b61017c60048036038101906101779190611471565b610989565b60405161018991906116a1565b60405180910390f35b6101ac60048036038101906101a7919061135a565b6109ee565b6040516101b99190611851565b60405180910390f35b6101dc60048036038101906101d79190611471565b610a1f565b6040516101e99190611851565b60405180910390f35b61020c60048036038101906102079190611471565b610a3f565b6040516102249c9b9a999897969594939291906116bc565b60405180910390f35b610247600480360381019061024291906111e0565b610aec565b6040516102549190611851565b60405180910390f35b61027760048036038101906102729190611471565b610b38565b60405161028491906116a1565b60405180910390f35b6102a760048036038101906102a29190611209565b610b6d565b6040516102b49190611776565b60405180910390f35b6102d760048036038101906102d2919061135a565b610b82565b6040516102e49190611851565b60405180910390f35b61030760048036038101906103029190611471565b610bbf565b60405161031592919061186c565b60405180910390f35b6103386004803603810190610333919061149a565b610d39565b60405161034591906116a1565b60405180910390f35b610356610e18565b604051610363919061164f565b60405180910390f35b610386600480360381019061038191906112c8565b610e3c565b6040516103939190611776565b60405180910390f35b60007f4e2312e0000000000000000000000000000000000000000000000000000000007bffffffffffffffffffffffffffffffffffffffffffffffffffffffff1916827bffffffffffffffffffffffffffffffffffffffffffffffffffffffff1916148061040f575061040e82610fda565b5b9050919050565b600061046433600260003373ffffffffffffffffffffffffffffffffffffffff1673ffffffffffffffffffffffffffffffffffffffff16815260200190815260200160002080549050610b82565b9050600260003373ffffffffffffffffffffffffffffffffffffffff1673ffffffffffffffffffffffffffffffffffffffff1681526020019081526020016000208190806001815401808255809150506001900390600052602060002001600090919091909150556040518061018001604052806000151581526020018873ffffffffffffffffffffffffffffffffffffffff1681526020013373ffffffffffffffffffffffffffffffffffffffff168152602001868152602001864261052b9190611928565b81526020018781526020018481526020018381526020018581526020018581526020016000815260200160008152506001600083815260200190815260200160002060008201518160000160006101000a81548160ff02191690831515021790555060208201518160000160016101000a81548173ffffffffffffffffffffffffffffffffffffffff021916908373ffffffffffffffffffffffffffffffffffffffff16021790555060408201518160010160006101000a81548173ffffffffffffffffffffffffffffffffffffffff021916908373ffffffffffffffffffffffffffffffffffffffff160217905550606082015181600201556080820151816003015560a0820151816004015560c0820151816005015560e0820151816006015561010082015181600701556101208201518160080155610140820151816009015561016082015181600a015590505050505050505050565b81600160008281526020019081526020016000206008015460016000838152602001908152602001600020600a0154106106f4576040517f08c379a00000000000000000000000000000000000000000000000000000000081526004016106eb90611811565b60405180910390fd5b600060016000858152602001908152602001600020604051806101800160405290816000820160009054906101000a900460ff161515151581526020016000820160019054906101000a900473ffffffffffffffffffffffffffffffffffffffff1673ffffffffffffffffffffffffffffffffffffffff1673ffffffffffffffffffffffffffffffffffffffff1681526020016001820160009054906101000a900473ffffffffffffffffffffffffffffffffffffffff1673ffffffffffffffffffffffffffffffffffffffff1673ffffffffffffffffffffffffffffffffffffffff1681526020016002820154815260200160038201548152602001600482015481526020016005820154815260200160068201548152602001600782015481526020016008820154815260200160098201548152602001600a8201548152505090508060a001518310158061086357508060a00151816101600151826101200151610861919061197e565b105b6108a2576040517f08c379a0000000000000000000000000000000000000000000000000000000008152600401610899906117d1565b60405180910390fd5b806020015173ffffffffffffffffffffffffffffffffffffffff166323b872dd3330866040518463ffffffff1660e01b81526004016108e39392919061166a565b602060405180830381600087803b1580156108fd57600080fd5b505af1158015610911573d6000803e3d6000fd5b505050506040513d601f19601f82011682018060405250810190610935919061141f565b508281610140018181516109499190611928565b915081815250508060600151426109609190611928565b81608001818152505082816101600181815161097c9190611928565b9150818152505050505050565b6000600160008381526020019081526020016000206008015460016000848152602001908152602001600020600a01541015806109e757506001600083815260200190815260200160002060000160009054906101000a900460ff16155b9050919050565b60026020528160005260406000208181548110610a0a57600080fd5b90600052602060002001600091509150505481565b600060016000838152602001908152602001600020600501549050919050565b60016020528060005260406000206000915090508060000160009054906101000a900460ff16908060000160019054906101000a900473ffffffffffffffffffffffffffffffffffffffff16908060010160009054906101000a900473ffffffffffffffffffffffffffffffffffffffff169080600201549080600301549080600401549080600501549080600601549080600701549080600801549080600901549080600a015490508c565b6000600260008373ffffffffffffffffffffffffffffffffffffffff1673ffffffffffffffffffffffffffffffffffffffff168152602001908152602001600020805490509050919050565b600060016000838152602001908152602001600020600301544210158015610b665750610b6482610989565b155b9050919050565b600063bc197c8160e01b905095945050505050565b600080308484604051602001610b9a93929190611612565b6040516020818303038152906040528051906020012060001c90508091505092915050565b60008060008054906101000a900473ffffffffffffffffffffffffffffffffffffffff1673ffffffffffffffffffffffffffffffffffffffff163373ffffffffffffffffffffffffffffffffffffffff1614610c50576040517f08c379a0000000000000000000000000000000000000000000000000000000008152600401610c47906117b1565b60405180910390fd5b6001600084815260200190815260200160002060000160009054906101000a900460ff1615610cb4576040517f08c379a0000000000000000000000000000000000000000000000000000000008152600401610cab90611791565b60405180910390fd5b600180600085815260200190815260200160002060000160006101000a81548160ff02191690831515021790555060016000848152602001908152602001600020600701546001600085815260200190815260200160002060010160009054906101000a900473ffffffffffffffffffffffffffffffffffffffff1691509150915091565b60008060009054906101000a900473ffffffffffffffffffffffffffffffffffffffff1673ffffffffffffffffffffffffffffffffffffffff163373ffffffffffffffffffffffffffffffffffffffff1614610dca576040517f08c379a0000000000000000000000000000000000000000000000000000000008152600401610dc1906117b1565b60405180910390fd5b610dd382610989565b610e0d5782600160008481526020019081526020016000206008016000828254610dfd9190611928565b9250508190555060019050610e12565b600090505b92915050565b60008054906101000a900473ffffffffffffffffffffffffffffffffffffffff1681565b60006001600086815260200190815260200160002060000160009054906101000a900460ff16610ea1576040517f08c379a0000000000000000000000000000000000000000000000000000000008152600401610e98906117f1565b60405180910390fd5b6001600086815260200190815260200160002060090154841115610efa576040517f08c379a0000000000000000000000000000000000000000000000000000000008152600401610ef190611831565b60405180910390fd5b60006001600087815260200190815260200160002060000160019054906101000a900473ffffffffffffffffffffffffffffffffffffffff1690508073ffffffffffffffffffffffffffffffffffffffff166323b872dd3089886040518463ffffffff1660e01b8152600401610f729392919061166a565b602060405180830381600087803b158015610f8c57600080fd5b505af1158015610fa0573d6000803e3d6000fd5b505050506040513d601f19601f82011682018060405250810190610fc4919061141f565b5063f23a6e6160e01b9150509695505050505050565b60007f01ffc9a7000000000000000000000000000000000000000000000000000000007bffffffffffffffffffffffffffffffffffffffffffffffffffffffff1916827bffffffffffffffffffffffffffffffffffffffffffffffffffffffff1916149050919050565b6000611057611052846118ba565b611895565b9050808382526020820190508285602086028201111561107657600080fd5b60005b858110156110a6578161108c88826111cb565b845260208401935060208301925050600181019050611079565b5050509392505050565b60006110c36110be846118e6565b611895565b9050828152602081018484840111156110db57600080fd5b6110e6848285611a26565b509392505050565b6000813590506110fd81611d10565b92915050565b600082601f83011261111457600080fd5b8135611124848260208601611044565b91505092915050565b60008151905061113c81611d27565b92915050565b60008135905061115181611d3e565b92915050565b60008083601f84011261116957600080fd5b8235905067ffffffffffffffff81111561118257600080fd5b60208301915083600182028301111561119a57600080fd5b9250929050565b600082601f8301126111b257600080fd5b81356111c28482602086016110b0565b91505092915050565b6000813590506111da81611d55565b92915050565b6000602082840312156111f257600080fd5b6000611200848285016110ee565b91505092915050565b600080600080600060a0868803121561122157600080fd5b600061122f888289016110ee565b9550506020611240888289016110ee565b945050604086013567ffffffffffffffff81111561125d57600080fd5b61126988828901611103565b935050606086013567ffffffffffffffff81111561128657600080fd5b61129288828901611103565b925050608086013567ffffffffffffffff8111156112af57600080fd5b6112bb888289016111a1565b9150509295509295909350565b60008060008060008060a087890312156112e157600080fd5b60006112ef89828a016110ee565b965050602061130089828a016110ee565b955050604061131189828a016111cb565b945050606061132289828a016111cb565b935050608087013567ffffffffffffffff81111561133f57600080fd5b61134b89828a01611157565b92509250509295509295509295565b6000806040838503121561136d57600080fd5b600061137b858286016110ee565b925050602061138c858286016111cb565b9150509250929050565b60008060008060008060c087890312156113af57600080fd5b60006113bd89828a016110ee565b96505060206113ce89828a016111cb565b95505060406113df89828a016111cb565b94505060606113f089828a016111cb565b935050608061140189828a016111cb565b92505060a061141289828a016111cb565b9150509295509295509295565b60006020828403121561143157600080fd5b600061143f8482850161112d565b91505092915050565b60006020828403121561145a57600080fd5b600061146884828501611142565b91505092915050565b60006020828403121561148357600080fd5b6000611491848285016111cb565b91505092915050565b600080604083850312156114ad57600080fd5b60006114bb858286016111cb565b92505060206114cc858286016111cb565b9150509250929050565b6114df816119b2565b82525050565b6114f66114f1826119b2565b611a66565b82525050565b611505816119c4565b82525050565b611514816119d0565b82525050565b6000611527602b83611917565b915061153282611b10565b604082019050919050565b600061154a602d83611917565b915061155582611b5f565b604082019050919050565b600061156d602183611917565b915061157882611bae565b604082019050919050565b6000611590604783611917565b915061159b82611bfd565b606082019050919050565b60006115b3602183611917565b91506115be82611c72565b604082019050919050565b60006115d6603583611917565b91506115e182611cc1565b604082019050919050565b6115f581611a1c565b82525050565b61160c61160782611a1c565b611a8a565b82525050565b600061161e82866114e5565b60148201915061162e82856114e5565b60148201915061163e82846115fb565b602082019150819050949350505050565b600060208201905061166460008301846114d6565b92915050565b600060608201905061167f60008301866114d6565b61168c60208301856114d6565b61169960408301846115ec565b949350505050565b60006020820190506116b660008301846114fc565b92915050565b6000610180820190506116d2600083018f6114fc565b6116df602083018e6114d6565b6116ec604083018d6114d6565b6116f9606083018c6115ec565b611706608083018b6115ec565b61171360a083018a6115ec565b61172060c08301896115ec565b61172d60e08301886115ec565b61173b6101008301876115ec565b6117496101208301866115ec565b6117576101408301856115ec565b6117656101608301846115ec565b9d9c50505050505050505050505050565b600060208201905061178b600083018461150b565b92915050565b600060208201905081810360008301526117aa8161151a565b9050919050565b600060208201905081810360008301526117ca8161153d565b9050919050565b600060208201905081810360008301526117ea81611560565b9050919050565b6000602082019050818103600083015261180a81611583565b9050919050565b6000602082019050818103600083015261182a816115a6565b9050919050565b6000602082019050818103600083015261184a816115c9565b9050919050565b600060208201905061186660008301846115ec565b92915050565b600060408201905061188160008301856115ec565b61188e60208301846114d6565b9392505050565b600061189f6118b0565b90506118ab8282611a35565b919050565b6000604051905090565b600067ffffffffffffffff8211156118d5576118d4611ac3565b5b602082029050602081019050919050565b600067ffffffffffffffff82111561190157611900611ac3565b5b61190a82611af2565b9050602081019050919050565b600082825260208201905092915050565b600061193382611a1c565b915061193e83611a1c565b9250827fffffffffffffffffffffffffffffffffffffffffffffffffffffffffffffffff0382111561197357611972611a94565b5b828201905092915050565b600061198982611a1c565b915061199483611a1c565b9250828210156119a7576119a6611a94565b5b828203905092915050565b60006119bd826119fc565b9050919050565b60008115159050919050565b60007fffffffff0000000000000000000000000000000000000000000000000000000082169050919050565b600073ffffffffffffffffffffffffffffffffffffffff82169050919050565b6000819050919050565b82818337600083830152505050565b611a3e82611af2565b810181811067ffffffffffffffff82111715611a5d57611a5c611ac3565b5b80604052505050565b6000611a7182611a78565b9050919050565b6000611a8382611b03565b9050919050565b6000819050919050565b7f4e487b7100000000000000000000000000000000000000000000000000000000600052601160045260246000fd5b7f4e487b7100000000000000000000000000000000000000000000000000000000600052604160045260246000fd5b6000601f19601f8301169050919050565b60008160601b9050919050565b7f596f75206861766520616c72656164792069737375656420626f6e647320666f60008201527f722074686973206c6f616e000000000000000000000000000000000000000000602082015250565b7f4f6e6c792074686520626f6e6420636f6e74726163742063616e2063616c6c2060008201527f746869732066756e6374696f6e00000000000000000000000000000000000000602082015250565b7f596f75206d757374206d616b6520746865206d696e696d756d207061796d656e60008201527f7400000000000000000000000000000000000000000000000000000000000000602082015250565b7f74686973206c6f616e20686173206e6f74206265656e2069737375656420796560008201527f742e20486f7720646f20796f75206576656e206861766520626f6e647320666f60208201527f722069743f3f3f00000000000000000000000000000000000000000000000000604082015250565b7f5468697320636f6e747261637420697320616c72656179642070616964206f6660008201527f6600000000000000000000000000000000000000000000000000000000000000602082015250565b7f5468657265206973206e6f7420656e6f756768207061796d656e74732061766160008201527f696c61626c6520666f7220636f6c6c656374696f6e0000000000000000000000602082015250565b611d19816119b2565b8114611d2457600080fd5b50565b611d30816119c4565b8114611d3b57600080fd5b50565b611d47816119d0565b8114611d5257600080fd5b50565b611d5e81611a1c565b8114611d6957600080fd5b5056fea26469706673582212209c8eb8acf95e92f0eabbcb748c3fb1692ae0723e197c4f9cb0ea748de07ab05364736f6c63430008010033",
  "immutableReferences": {},
  "source": "/// SPDX-License-Identifier: None\npragma solidity ^0.8.0;\n\nimport \"@openzeppelin/contracts/token/ERC1155/ERC1155.sol\";\nimport \"@openzeppelin/contracts/token/ERC1155/utils/ERC1155Holder.sol\";\nimport {IERC20} from '@openzeppelin/contracts/token/ERC20/IERC20.sol';\nimport {IERC20PaymentStandard} from './IERC20PaymentStandard.sol';\n\ncontract ERC20PaymentStandard is ERC1155Holder{\n    \n    address public bondContract;\n    \n    struct loan {\n        bool issued;\n        address ERC20Address;\n        address borrower;\n        //bytes32 merkleRoot;\n        uint256 paymentPeriod;\n        uint256 paymentDueDate;\n        uint256 minPayment;\n        uint256 interestRateInverse;\n        uint256 accrualPeriod;\n        uint256 principal;\n        uint256 totalPaymentsValue;\n        uint256 awaitingCollection;\n        uint256 paymentComplete;\n    }\n    \n    mapping(uint256 => loan) public loanLookup;\n    mapping(address => uint256[]) public loanIDs;\n    \n    constructor(address _bonds){\n        bondContract = _bonds;\n    }\n    \n    /// @notice requires only the Bonds Contract call this function\n    modifier onlyBonds{\n        require(msg.sender == bondContract, \"Only the bond contract can call this function\");\n        _;\n    }\n    \n    /// @notice requires contract is not paid off\n    modifier incomplete(uint256 _id){\n        require(loanLookup[_id].paymentComplete <\n        loanLookup[_id].totalPaymentsValue,\n        \"This contract is alreayd paid off\");\n        _;\n    }\n    \n    function getNumberOfLoans(address _who) external view returns(uint256){\n        return loanIDs[_who].length;\n    }\n    \n    /*\n    * @notice called when bonds are issued so as to make sure lender can only mint bonds once.\n     */\n    function issueBonds(uint256 _id) external onlyBonds returns(uint256,address){\n        require(!loanLookup[_id].issued,\"You have already issued bonds for this loan\");\n        loanLookup[_id].issued = true;\n        return(loanLookup[_id].principal,loanLookup[_id].borrower);\n    }\n    \n    /**\n    * @notice Called each time new NFTs are minted by staking\n    * @param _amm the ammount of interest to add\n    * @param _id is the id of the loan\n    * @return true if added. Will not add interest if payment has been completed.\n    *This prevents lenders from refusing to end a loan when it is rightfully over by forever\n    *increasing the totalPaymentsValue through interest staking and never fully collecting payment.\n    *This also means that if lenders do not realize interest gains soon enough they may not be able to collect them before\n    *the borrower can complete the loan.\n     */\n    function addInterest(uint256 _amm, uint256 _id) onlyBonds external returns(bool){\n        if(!isComplete(_id)){\n            loanLookup[_id].totalPaymentsValue += _amm;\n            return true;\n        }else{\n            return false;\n        }\n    }\n\n    function getInterest(uint256 _id) external view returns(uint256){\n        return(loanLookup[_id].interestRateInverse);\n    }\n    \n    /**\n    * @notice This contract is not very forgiving. Miss one payment and you're marked as delinquent. Unless contract is complete\n    * @param _id is the hash id of the loan. Same as bond ERC1155 ID as well\n    * @return if delinquent or not. Meaning missed a payment\n     */\n    function isDelinquent(uint256 _id) external view returns(bool){\n        return (block.timestamp >= loanLookup[_id].paymentDueDate && !isComplete(_id));\n    }\n    \n     /**\n    * @notice contract must be configured before bonds are issued. Pushes new loan to array for user\n    * @dev borrower is msg.sender for testing. In production might want to make this a param\n    * @param _minPayment is the minimum payment that must be made before the payment period ends\n    * @param _paymentPeriod payment must be made by this time or delinquent function will return true\n    * @param _principal the origional loan value before interest\n    * @param _inverseInterestRate the interest rate expressed as inverse. 2% = 1/5 = inverse of 5\n    * @param _accrualPeriod the time it takes for interest to accrue in seconds\n     */\n    function configureNew(\n    address _erc20,\n    uint256 _minPayment, \n    uint256 _paymentPeriod, \n    uint256 _principal, \n    uint256 _inverseInterestRate, \n    uint256 _accrualPeriod\n    )\n    external\n    virtual\n    {\n        //Create new ID for the loan\n        uint256 id = getId(msg.sender, loanIDs[msg.sender].length);\n        //Push to loan IDs\n        loanIDs[msg.sender].push(id);\n        //Add loan info to lookup\n        loanLookup[id] = loan(\n        {\n            issued: false,\n            ERC20Address: _erc20,\n            borrower: msg.sender,\n            paymentPeriod: _paymentPeriod,\n            paymentDueDate: block.timestamp + _paymentPeriod,\n            minPayment: _minPayment,\n            interestRateInverse: _inverseInterestRate,\n            accrualPeriod: _accrualPeriod,\n            principal: _principal,\n            totalPaymentsValue: _principal,               //For now. Will update with interest updates\n            awaitingCollection: 0,\n            paymentComplete: 0\n            }\n        );\n    }\n    \n    /**\n    * @notice function handles the payment of the loan. Does not have to be borrower\n    *as payment comes in. The contract holds it until collection by bond owners. MUST APPROVE FIRST in ERC20 contract\n     */\n    function payment(uint256 _id, uint256 _erc20Ammount) \n    external \n    virtual\n    incomplete(_id)\n    {\n        loan memory ln = loanLookup[_id];\n        require(_erc20Ammount >= ln.minPayment ||                                   //Payment must be more than min payment\n                ln.totalPaymentsValue - ln.paymentComplete < ln.minPayment,     //Exception for the last payment (remainder)\n                \"You must make the minimum payment\");\n                \n        IERC20(ln.ERC20Address).transferFrom(msg.sender, address(this), _erc20Ammount);     \n        ln.awaitingCollection += _erc20Ammount;                         \n        ln.paymentDueDate = block.timestamp + ln.paymentPeriod;             //Reset paymentTimer;\n        ln.paymentComplete += _erc20Ammount;                                //Increase paymentComplete\n    }\n    \n    /**\n     * @notice handles payment collection automatically when ERC1155s are sent\n     */\n    function onERC1155Received(address _operator, address _from, uint256 _id, uint256 _value, bytes calldata _data) public override returns(bytes4){\n        require(loanLookup[_id].issued, \"this loan has not been issued yet. How do you even have bonds for it???\");\n        require(_value <= loanLookup[_id].awaitingCollection,\"There is not enough payments available for collection\");\n        IERC20 erc20 = IERC20(loanLookup[_id].ERC20Address);\n        erc20.transferFrom(address(this), _from, _value);\n        return this.onERC1155Received.selector;\n    }\n    \n    /**\n    * @notice helper function\n    * @param _id of loan to check\n    * @return return if the contract is payed off or not as bool\n     */\n    function isComplete(uint256 _id) public view returns(bool){\n        return loanLookup[_id].paymentComplete >=\n        loanLookup[_id].totalPaymentsValue ||\n        !loanLookup[_id].issued;\n    }\n\n    //Returns the ID for a loan given the borrower and index in the array\n    function getId(address _borrower, uint256 _index) public view returns(uint256){\n        uint256 id = uint256(\n            keccak256(abi.encodePacked(\n            address(this),\n            _borrower,\n            _index\n        )));\n        return id;\n    }\n    \n\n    \n    \n    \n}",
  "sourcePath": "/home/carson/Documents/linkHackathon2021/loan-wolf/contracts/contracts/ERC20PaymentStandard.sol",
  "compiler": {
    "name": "solc",
    "version": "0.8.1+commit.df193b15.Emscripten.clang"
  },
  "schemaVersion": "3.3.4",
  "updatedAt": "2021-03-31T18:32:14.778Z",
  "devdoc": {
    "kind": "dev",
    "methods": {
      "addInterest(uint256,uint256)": {
        "params": {
          "_amm": "the ammount of interest to add",
          "_id": "is the id of the loan"
        },
        "returns": {
          "_0": "true if added. Will not add interest if payment has been completed. This prevents lenders from refusing to end a loan when it is rightfully over by forever increasing the totalPaymentsValue through interest staking and never fully collecting payment. This also means that if lenders do not realize interest gains soon enough they may not be able to collect them before the borrower can complete the loan."
        }
      },
      "configureNew(address,uint256,uint256,uint256,uint256,uint256)": {
        "details": "borrower is msg.sender for testing. In production might want to make this a param",
        "params": {
          "_accrualPeriod": "the time it takes for interest to accrue in seconds",
          "_inverseInterestRate": "the interest rate expressed as inverse. 2% = 1/5 = inverse of 5",
          "_minPayment": "is the minimum payment that must be made before the payment period ends",
          "_paymentPeriod": "payment must be made by this time or delinquent function will return true",
          "_principal": "the origional loan value before interest"
        }
      },
      "isComplete(uint256)": {
        "params": {
          "_id": "of loan to check"
        },
        "returns": {
          "_0": "return if the contract is payed off or not as bool"
        }
      },
      "isDelinquent(uint256)": {
        "params": {
          "_id": "is the hash id of the loan. Same as bond ERC1155 ID as well"
        },
        "returns": {
          "_0": "if delinquent or not. Meaning missed a payment"
        }
      },
      "supportsInterface(bytes4)": {
        "details": "See {IERC165-supportsInterface}."
      }
    },
    "version": 1
  },
  "userdoc": {
    "kind": "user",
    "methods": {
      "addInterest(uint256,uint256)": {
        "notice": "Called each time new NFTs are minted by staking"
      },
      "configureNew(address,uint256,uint256,uint256,uint256,uint256)": {
        "notice": "contract must be configured before bonds are issued. Pushes new loan to array for user"
      },
      "isComplete(uint256)": {
        "notice": "helper function"
      },
      "isDelinquent(uint256)": {
        "notice": "This contract is not very forgiving. Miss one payment and you're marked as delinquent. Unless contract is complete"
      },
      "onERC1155Received(address,address,uint256,uint256,bytes)": {
        "notice": "handles payment collection automatically when ERC1155s are sent"
      },
      "payment(uint256,uint256)": {
        "notice": "function handles the payment of the loan. Does not have to be borrower as payment comes in. The contract holds it until collection by bond owners. MUST APPROVE FIRST in ERC20 contract"
      }
    },
    "version": 1
  }
}