{
  "contractName": "ERC20PaymentStandard",
  "abi": [
    {
      "inputs": [
        {
          "internalType": "address",
          "name": "_bonds",
          "type": "address"
        }
      ],
      "stateMutability": "nonpayable",
      "type": "constructor"
    },
    {
      "inputs": [],
      "name": "bondContract",
      "outputs": [
        {
          "internalType": "address",
          "name": "",
          "type": "address"
        }
      ],
      "stateMutability": "view",
      "type": "function",
      "constant": true
    },
    {
      "inputs": [
        {
          "internalType": "address",
          "name": "",
          "type": "address"
        },
        {
          "internalType": "uint256",
          "name": "",
          "type": "uint256"
        }
      ],
      "name": "loanIDs",
      "outputs": [
        {
          "internalType": "uint256",
          "name": "",
          "type": "uint256"
        }
      ],
      "stateMutability": "view",
      "type": "function",
      "constant": true
    },
    {
      "inputs": [
        {
          "internalType": "uint256",
          "name": "",
          "type": "uint256"
        }
      ],
      "name": "loanLookup",
      "outputs": [
        {
          "internalType": "bool",
          "name": "issued",
          "type": "bool"
        },
        {
          "internalType": "address",
          "name": "ERC20Address",
          "type": "address"
        },
        {
          "internalType": "address",
          "name": "borrower",
          "type": "address"
        },
        {
          "internalType": "bytes32",
          "name": "merkleRoot",
          "type": "bytes32"
        },
        {
          "internalType": "uint256",
          "name": "paymentPeriod",
          "type": "uint256"
        },
        {
          "internalType": "uint256",
          "name": "paymentDueDate",
          "type": "uint256"
        },
        {
          "internalType": "uint256",
          "name": "minPayment",
          "type": "uint256"
        },
        {
          "internalType": "uint256",
          "name": "interestRateInverse",
          "type": "uint256"
        },
        {
          "internalType": "uint256",
          "name": "accrualPeriod",
          "type": "uint256"
        },
        {
          "internalType": "uint256",
          "name": "principal",
          "type": "uint256"
        },
        {
          "internalType": "uint256",
          "name": "totalPaymentsValue",
          "type": "uint256"
        },
        {
          "internalType": "uint256",
          "name": "awaitingCollection",
          "type": "uint256"
        },
        {
          "internalType": "uint256",
          "name": "paymentComplete",
          "type": "uint256"
        }
      ],
      "stateMutability": "view",
      "type": "function",
      "constant": true
    },
    {
      "inputs": [
        {
          "internalType": "address",
          "name": "",
          "type": "address"
        },
        {
          "internalType": "address",
          "name": "",
          "type": "address"
        },
        {
          "internalType": "uint256[]",
          "name": "",
          "type": "uint256[]"
        },
        {
          "internalType": "uint256[]",
          "name": "",
          "type": "uint256[]"
        },
        {
          "internalType": "bytes",
          "name": "",
          "type": "bytes"
        }
      ],
      "name": "onERC1155BatchReceived",
      "outputs": [
        {
          "internalType": "bytes4",
          "name": "",
          "type": "bytes4"
        }
      ],
      "stateMutability": "nonpayable",
      "type": "function"
    },
    {
      "inputs": [
        {
          "internalType": "address",
          "name": "",
          "type": "address"
        },
        {
          "internalType": "address",
          "name": "",
          "type": "address"
        },
        {
          "internalType": "uint256",
          "name": "",
          "type": "uint256"
        },
        {
          "internalType": "uint256",
          "name": "",
          "type": "uint256"
        },
        {
          "internalType": "bytes",
          "name": "",
          "type": "bytes"
        }
      ],
      "name": "onERC1155Received",
      "outputs": [
        {
          "internalType": "bytes4",
          "name": "",
          "type": "bytes4"
        }
      ],
      "stateMutability": "nonpayable",
      "type": "function"
    },
    {
      "inputs": [
        {
          "internalType": "bytes4",
          "name": "interfaceId",
          "type": "bytes4"
        }
      ],
      "name": "supportsInterface",
      "outputs": [
        {
          "internalType": "bool",
          "name": "",
          "type": "bool"
        }
      ],
      "stateMutability": "view",
      "type": "function",
      "constant": true
    },
    {
      "inputs": [
        {
          "internalType": "address",
          "name": "_who",
          "type": "address"
        }
      ],
      "name": "getNumberOfLoans",
      "outputs": [
        {
          "internalType": "uint256",
          "name": "",
          "type": "uint256"
        }
      ],
      "stateMutability": "view",
      "type": "function",
      "constant": true
    },
    {
      "inputs": [
        {
          "internalType": "uint256",
          "name": "_id",
          "type": "uint256"
        }
      ],
      "name": "issueBonds",
      "outputs": [
        {
          "internalType": "uint256",
          "name": "",
          "type": "uint256"
        },
        {
          "internalType": "address",
          "name": "",
          "type": "address"
        }
      ],
      "stateMutability": "nonpayable",
      "type": "function"
    },
    {
      "inputs": [
        {
          "internalType": "uint256",
          "name": "_amm",
          "type": "uint256"
        },
        {
          "internalType": "uint256",
          "name": "_id",
          "type": "uint256"
        }
      ],
      "name": "addInterest",
      "outputs": [
        {
          "internalType": "bool",
          "name": "",
          "type": "bool"
        }
      ],
      "stateMutability": "nonpayable",
      "type": "function"
    },
    {
      "inputs": [
        {
          "internalType": "uint256",
          "name": "_id",
          "type": "uint256"
        }
      ],
      "name": "getInterest",
      "outputs": [
        {
          "internalType": "uint256",
          "name": "",
          "type": "uint256"
        }
      ],
      "stateMutability": "view",
      "type": "function",
      "constant": true
    },
    {
      "inputs": [
        {
          "internalType": "uint256",
          "name": "_id",
          "type": "uint256"
        }
      ],
      "name": "isDelinquent",
      "outputs": [
        {
          "internalType": "bool",
          "name": "",
          "type": "bool"
        }
      ],
      "stateMutability": "view",
      "type": "function",
      "constant": true
    },
    {
      "inputs": [
        {
          "internalType": "address",
          "name": "_erc20",
          "type": "address"
        },
        {
          "internalType": "address",
          "name": "_borrower",
          "type": "address"
        },
        {
          "internalType": "uint256",
          "name": "_minPayment",
          "type": "uint256"
        },
        {
          "internalType": "uint256",
          "name": "_paymentPeriod",
          "type": "uint256"
        },
        {
          "internalType": "uint256",
          "name": "_principal",
          "type": "uint256"
        },
        {
          "internalType": "uint256",
          "name": "_inverseInterestRate",
          "type": "uint256"
        },
        {
          "internalType": "uint256",
          "name": "_accrualPeriod",
          "type": "uint256"
        }
      ],
      "name": "configureNew",
      "outputs": [
        {
          "internalType": "uint256",
          "name": "",
          "type": "uint256"
        }
      ],
      "stateMutability": "nonpayable",
      "type": "function"
    },
    {
      "inputs": [
        {
          "internalType": "uint256",
          "name": "_id",
          "type": "uint256"
        },
        {
          "internalType": "uint256",
          "name": "_erc20Ammount",
          "type": "uint256"
        }
      ],
      "name": "payment",
      "outputs": [],
      "stateMutability": "nonpayable",
      "type": "function"
    },
    {
      "inputs": [
        {
          "internalType": "uint256",
          "name": "_id",
          "type": "uint256"
        },
        {
          "internalType": "uint256",
          "name": "_amm",
          "type": "uint256"
        }
      ],
      "name": "withdrawl",
      "outputs": [],
      "stateMutability": "nonpayable",
      "type": "function"
    },
    {
      "inputs": [
        {
          "internalType": "uint256",
          "name": "_id",
          "type": "uint256"
        }
      ],
      "name": "isComplete",
      "outputs": [
        {
          "internalType": "bool",
          "name": "",
          "type": "bool"
        }
      ],
      "stateMutability": "view",
      "type": "function",
      "constant": true
    },
    {
      "inputs": [
        {
          "internalType": "address",
          "name": "_borrower",
          "type": "address"
        },
        {
          "internalType": "uint256",
          "name": "_index",
          "type": "uint256"
        }
      ],
      "name": "getId",
      "outputs": [
        {
          "internalType": "uint256",
          "name": "",
          "type": "uint256"
        }
      ],
      "stateMutability": "view",
      "type": "function",
      "constant": true
    }
  ],
  "bytecode": "0x608060405234801561001057600080fd5b5060405161142538038061142583398101604081905261002f91610054565b60008054600160a060020a031916600160a060020a0392909216919091179055610082565b600060208284031215610065578081fd5b8151600160a060020a038116811461007b578182fd5b9392505050565b611394806100916000396000f3fe608060405234801561001057600080fd5b506004361061011d576000357c010000000000000000000000000000000000000000000000000000000090048063a97868be116100b4578063e62e1e4211610083578063e62e1e421461025f578063e7004a7a14610272578063f1f2a75714610287578063f23a6e611461029a5761011d565b8063a97868be146101f8578063bc197c811461020b578063c5d3e11d1461022b578063d41db84b1461023e5761011d565b80635fe2d689116100f05780635fe2d68914610193578063630e69ad146101a65780637e23f5dd146101d257806391f67191146101e55761011d565b806301ffc9a7146101225780632f63147f1461014b5780633a0be1a6146101605780634af5011614610173575b600080fd5b610135610130366004610e83565b6102ad565b6040516101429190610fa1565b60405180910390f35b61015e610159366004610ec3565b6102f3565b005b61013561016e366004610eab565b610542565b610186610181366004610e3a565b61057a565b6040516101429190611280565b6101866101a1366004610eab565b6105ab565b6101b96101b4366004610eab565b6105c0565b6040516101429d9c9b9a99989796959493929190610fac565b6101866101e0366004610cb3565b610627565b6101356101f3366004610eab565b610642565b61015e610206366004610ec3565b61066e565b61021e610219366004610cd4565b610806565b6040516101429190611017565b610186610239366004610e3a565b610830565b61025161024c366004610eab565b61086a565b604051610142929190611289565b61013561026d366004610ec3565b6108ff565b61027a610972565b6040516101429190610f18565b610186610295366004610ddd565b610981565b61021e6102a8366004610d7a565b610b53565b6000600160e060020a031982167f4e2312e00000000000000000000000000000000000000000000000000000000014806102eb57506102eb82610b7d565b90505b919050565b60008281526001602052604090206009810154600b909101548391116103375760405160e560020a62461bcd02815260040161032e90611223565b60405180910390fd5b60008381526001602081815260409283902083516101a081018552815460ff811615158252600160a060020a036101009182900481169483019490945293820154909216938201939093526002830154606082015260038301546080820152600483015460a0820152600583015460c08201819052600684015460e083015260078401549282019290925260088301546101208201526009830154610140820152600a830154610160820152600b909201546101808301528310158061041557508060c0015181610180015182610140015161041391906112e9565b105b6104345760405160e560020a62461bcd02815260040161032e90611143565b8060200151600160a060020a03166323b872dd3330866040518463ffffffff167c010000000000000000000000000000000000000000000000000000000002815260040161048493929190610f2c565b602060405180830381600087803b15801561049e57600080fd5b505af11580156104b2573d6000803e3d6000fd5b505050506040513d601f19601f820116820180604052508101906104d69190610e63565b506000848152600160205260408120600a0180548592906104f89084906112d1565b9091555050608081015161050c90426112d1565b60008581526001602052604081206004810192909255600b90910180548592906105379084906112d1565b909155505050505050565b60008181526001602052604081206009810154600b909101541015806102eb57505060009081526001602052604090205460ff161590565b6002602052816000526040600020818154811061059657600080fd5b90600052602060002001600091509150505481565b60009081526001602052604090206006015490565b600160208190526000918252604090912080549181015460028201546003830154600484015460058501546006860154600787015460088801546009890154600a8a0154600b909a015460ff8c169b600160a060020a0361010090910481169b9a1699908d565b600160a060020a031660009081526002602052604090205490565b60008181526001602052604081206004015442108015906102eb575061066782610542565b1592915050565b600080548382526001602052604090912054600160a060020a03918216916101008204169060ff166106b55760405160e560020a62461bcd02815260040161032e906111a0565b6000848152600160205260409020600a01548311156106e95760405160e560020a62461bcd02815260040161032e906110e6565b6040517ff242432a000000000000000000000000000000000000000000000000000000008152600160a060020a0383169063f242432a90610734903390309089908990600401610f50565b600060405180830381600087803b15801561074e57600080fd5b505af1158015610762573d6000803e3d6000fd5b50506040517fa9059cbb000000000000000000000000000000000000000000000000000000008152600160a060020a038416925063a9059cbb91506107ad9033908790600401610f88565b602060405180830381600087803b1580156107c757600080fd5b505af11580156107db573d6000803e3d6000fd5b505050506040513d601f19601f820116820180604052508101906107ff9190610e63565b5050505050565b7fbc197c810000000000000000000000000000000000000000000000000000000095945050505050565b60008030848460405160200161084893929190610ee4565b60408051601f1981840301815291905280516020909101209150505b92915050565b600080548190600160a060020a0316331461089a5760405160e560020a62461bcd02815260040161032e90611089565b60008381526001602052604090205460ff16156108cc5760405160e560020a62461bcd02815260040161032e9061102c565b50506000818152600160208190526040909120805460ff1916821781556008810154910154600160a060020a0316915091565b60008054600160a060020a0316331461092d5760405160e560020a62461bcd02815260040161032e90611089565b61093682610542565b61096a576000828152600160205260408120600901805485929061095b9084906112d1565b90915550600191506108649050565b506000610864565b600054600160a060020a031681565b600160a060020a03861660009081526002602052604081205481906109a7908990610830565b600160a060020a03808a16600090815260026020908152604080832080546001810182559084528284200185905580516101a081018252928352928d169082015233918101919091527f592fa743889fc7f92ac2a37bb1f5ba1daf2a5c84741ca0e0061d243a2e6707ba60608201526080810188905290915060a08101610a2e88426112d1565b8152602080820199909952604080820196909652606080820195909552608080820188905260a080830198909852600060c080840182905260e09384018290528582526001808d5291899020855181549d87015160ff19909e169015151774ffffffffffffffffffffffffffffffffffffffff001916610100600160a060020a039e8f16810291909117825599860151928101805473ffffffffffffffffffffffffffffffffffffffff191693909d1692909217909b5595830151600287015582015160038601559581015160048501559687015160058401559386015160068301555090840151600782015561012084015160088201556101408401516009820155610160840151600a82015561018090930151600b909301929092555092915050565b7ff23a6e610000000000000000000000000000000000000000000000000000000095945050505050565b600160e060020a031981167f01ffc9a70000000000000000000000000000000000000000000000000000000014919050565b8035600160a060020a03811681146102ee57600080fd5b600082601f830112610bd6578081fd5b8135602067ffffffffffffffff821115610bf257610bf261132f565b808202610c008282016112a0565b838152828101908684018388018501891015610c1a578687fd5b8693505b85841015610c3c578035835260019390930192918401918401610c1e565b50979650505050505050565b600082601f830112610c58578081fd5b813567ffffffffffffffff811115610c7257610c7261132f565b610c85601f8201601f19166020016112a0565b818152846020838601011115610c99578283fd5b816020850160208301379081016020019190915292915050565b600060208284031215610cc4578081fd5b610ccd82610baf565b9392505050565b600080600080600060a08688031215610ceb578081fd5b610cf486610baf565b9450610d0260208701610baf565b9350604086013567ffffffffffffffff80821115610d1e578283fd5b610d2a89838a01610bc6565b94506060880135915080821115610d3f578283fd5b610d4b89838a01610bc6565b93506080880135915080821115610d60578283fd5b50610d6d88828901610c48565b9150509295509295909350565b600080600080600060a08688031215610d91578081fd5b610d9a86610baf565b9450610da860208701610baf565b93506040860135925060608601359150608086013567ffffffffffffffff811115610dd1578182fd5b610d6d88828901610c48565b600080600080600080600060e0888a031215610df7578182fd5b610e0088610baf565b9650610e0e60208901610baf565b96999698505050506040850135946060810135946080820135945060a0820135935060c0909101359150565b60008060408385031215610e4c578182fd5b610e5583610baf565b946020939093013593505050565b600060208284031215610e74578081fd5b81518015158114610ccd578182fd5b600060208284031215610e94578081fd5b8135600160e060020a031981168114610ccd578182fd5b600060208284031215610ebc578081fd5b5035919050565b60008060408385031215610ed5578182fd5b50508035926020909101359150565b6c01000000000000000000000000600160a060020a0394851681028252929093169091026014830152602882015260480190565b600160a060020a0391909116815260200190565b600160a060020a039384168152919092166020820152604081019190915260600190565b600160a060020a0394851681529290931660208301526040820152606081019190915260a06080820181905260009082015260c00190565b600160a060020a03929092168252602082015260400190565b901515815260200190565b9c15158d52600160a060020a039b8c1660208e015299909a1660408c015260608b019790975260808a019590955260a089019390935260c088019190915260e08701526101008601526101208501526101408401526101608301919091526101808201526101a00190565b600160e060020a031991909116815260200190565b6020808252602b908201527f596f75206861766520616c72656164792069737375656420626f6e647320666f60408201527f722074686973206c6f616e000000000000000000000000000000000000000000606082015260800190565b6020808252602d908201527f4f6e6c792074686520626f6e6420636f6e74726163742063616e2063616c6c2060408201527f746869732066756e6374696f6e00000000000000000000000000000000000000606082015260800190565b60208082526036908201527f546865726520617265206e6f7420656e6f756768207061796d656e747320617660408201527f61696c61626c6520666f7220636f6c6c656374696f6e00000000000000000000606082015260800190565b60208082526021908201527f596f75206d757374206d616b6520746865206d696e696d756d207061796d656e60408201527f7400000000000000000000000000000000000000000000000000000000000000606082015260800190565b60208082526047908201527f74686973206c6f616e20686173206e6f74206265656e2069737375656420796560408201527f742e20486f7720646f20796f75206576656e206861766520626f6e647320666f60608201527f722069743f3f3f00000000000000000000000000000000000000000000000000608082015260a00190565b60208082526021908201527f5468697320636f6e747261637420697320616c72656179642070616964206f6660408201527f6600000000000000000000000000000000000000000000000000000000000000606082015260800190565b90815260200190565b918252600160a060020a0316602082015260400190565b604051601f8201601f1916810167ffffffffffffffff811182821017156112c9576112c961132f565b604052919050565b600082198211156112e4576112e4611300565b500190565b6000828210156112fb576112fb611300565b500390565b7f4e487b7100000000000000000000000000000000000000000000000000000000600052601160045260246000fd5b7f4e487b7100000000000000000000000000000000000000000000000000000000600052604160045260246000fdfea2646970667358221220ac2f61827882694cdc44618940223a166e6143dd9fa687cf8d90c6d3de621e4d64736f6c63430008010033",
  "immutableReferences": {},
  "source": "/// SPDX-License-Identifier: None\npragma solidity ^0.8.0;\n\nimport \"@openzeppelin/contracts/token/ERC1155/utils/ERC1155Holder.sol\";\nimport {IERC20} from '@openzeppelin/contracts/token/ERC20/IERC20.sol';\nimport {IERC1155} from '@openzeppelin/contracts/token/ERC1155/IERC1155.sol';\n\n/**\n* @title ERC20PaymentStandard\n* @author Carson Case\n* @notice This contract is a standard meant to be overriden that works with the Bonds contract to offer noncolateralized, flexable lending onchain\n */\ncontract ERC20PaymentStandard is ERC1155Holder{\n    // Initialized in constructor\n    address public bondContract;\n    \n    //Loan object. Stores lots of info about each loan\n    struct loan {\n        bool issued;\n        address ERC20Address;\n        address borrower;\n        bytes32 merkleRoot;\n        uint256 paymentPeriod;\n        uint256 paymentDueDate;\n        uint256 minPayment;\n        uint256 interestRateInverse;\n        uint256 accrualPeriod;\n        uint256 principal;\n        uint256 totalPaymentsValue;\n        uint256 awaitingCollection;\n        uint256 paymentComplete;\n    }\n    \n    //Two mappings. One to get the loans for a user. And the other to get the the loans based off id\n    mapping(uint256 => loan) public loanLookup;\n    mapping(address => uint256[]) public loanIDs;\n    \n    /**\n    * @notice just sets bonds contract\n    * @param _bonds contract\n     */\n    constructor(address _bonds){\n        bondContract = _bonds;\n    }\n    \n    /// @notice requires only the Bonds Contract call this function\n    modifier onlyBonds{\n        require(msg.sender == bondContract, \"Only the bond contract can call this function\");\n        _;\n    }\n    \n    /// @notice requires contract is not paid off\n    modifier incomplete(uint256 _id){\n        require(loanLookup[_id].paymentComplete <\n        loanLookup[_id].totalPaymentsValue,\n        \"This contract is alreayd paid off\");\n        _;\n    }\n    \n    /**\n    * @notice gets the number of loans a person has\n    * @param _who is who to look up\n    * @return length\n     */\n    function getNumberOfLoans(address _who) external virtual view returns(uint256){\n        return loanIDs[_who].length;\n    }\n    \n    /**\n    * @notice called when bonds are issued so as to make sure lender can only mint bonds once.\n    * @param _id loan ID\n    * @return the loan principal (so bonds knows how many NFTs to mint)\n    * @return the borrowers address (so bonds can make sure borrower is calling this function)\n     */\n    function issueBonds(uint256 _id) external virtual onlyBonds returns(uint256,address){\n        require(!loanLookup[_id].issued,\"You have already issued bonds for this loan\");\n        loanLookup[_id].issued = true;\n        return(loanLookup[_id].principal,loanLookup[_id].borrower);\n    }\n    \n    /**\n    * @notice Called each time new NFTs are minted by staking\n    * @param _amm the ammount of interest to add\n    * @param _id is the id of the loan\n    * @return true if added. Will not add interest if payment has been completed.\n    *This prevents lenders from refusing to end a loan when it is rightfully over by forever\n    *increasing the totalPaymentsValue through interest staking and never fully collecting payment.\n    *This also means that if lenders do not realize interest gains soon enough they may not be able to collect them before\n    *the borrower can complete the loan.\n     */\n    function addInterest(uint256 _amm, uint256 _id) onlyBonds external virtual returns(bool){\n        if(!isComplete(_id)){\n            loanLookup[_id].totalPaymentsValue += _amm;\n            return true;\n        }else{\n            return false;\n        }\n    }\n\n    /**\n    * @notice get the interest rate of a loan. Makes it easy for other contract since it doens't have to parse struct\n    * @param _id is the loan ID\n    * @return inverse interest rate\n     */\n    function getInterest(uint256 _id) external virtual view returns(uint256){\n        return(loanLookup[_id].interestRateInverse);\n    }\n    \n    /**\n    * @notice This contract is not very forgiving. Miss one payment and you're marked as delinquent. Unless contract is complete\n    * @param _id is the hash id of the loan. Same as bond ERC1155 ID as well\n    * @return if delinquent or not. Meaning missed a payment\n     */\n    function isDelinquent(uint256 _id) public virtual view returns(bool){\n        return (block.timestamp >= loanLookup[_id].paymentDueDate && !isComplete(_id));\n    }\n    \n     /**\n    * @notice contract must be configured before bonds are issued. Pushes new loan to array for user\n    * @dev borrower is msg.sender for testing. In production might want to make this a param\n    * @param _erc20 is the ERC20 contract address that will be used for payments\n    * @param _borrower is the borrower loan is being configured for. Keep in mind. ONLY this borrower can mint bonds to start the loan\n    * @param _minPayment is the minimum payment that must be made before the payment period ends\n    * @param _paymentPeriod payment must be made by this time or delinquent function will return true\n    * @param _principal the origional loan value before interest\n    * @param _inverseInterestRate the interest rate expressed as inverse. 2% = 1/5 = inverse of 5\n    * @param _accrualPeriod the time it takes for interest to accrue in seconds\n    * @return the id it just created\n     */\n    function configureNew(\n    address _erc20,\n    address _borrower,\n    uint256 _minPayment, \n    uint256 _paymentPeriod, \n    uint256 _principal, \n    uint256 _inverseInterestRate, \n    uint256 _accrualPeriod\n    )\n    external\n    virtual\n    returns(uint256)\n    {\n        //Create new ID for the loan\n        uint256 id = getId(_borrower, loanIDs[_borrower].length);\n        //Push to loan IDs\n        loanIDs[_borrower].push(id);\n        //Add loan info to lookup\n        loanLookup[id] = loan(\n        {\n            issued: false,\n            ERC20Address: _erc20,\n            borrower: msg.sender,\n            merkleRoot: keccak256(\"Hello World\"),\n            paymentPeriod: _paymentPeriod,\n            paymentDueDate: block.timestamp + _paymentPeriod,\n            minPayment: _minPayment,\n            interestRateInverse: _inverseInterestRate,\n            accrualPeriod: _accrualPeriod,\n            principal: _principal,\n            totalPaymentsValue: _principal,               //For now. Will update with interest updates\n            awaitingCollection: 0,\n            paymentComplete: 0\n            }\n        );\n        return id;\n    }\n    \n    /**\n    * @notice function handles the payment of the loan. Does not have to be borrower\n    *as payment comes in. The contract holds it until collection by bond owners. MUST APPROVE FIRST in ERC20 contract first\n    * @param _id to pay off\n    * @param _erc20Ammount is ammount in loan's ERC20 to pay\n     */\n    function payment(uint256 _id, uint256 _erc20Ammount) \n    external \n    virtual\n    incomplete(_id)\n    {\n        loan memory ln = loanLookup[_id];\n        require(_erc20Ammount >= ln.minPayment ||                                   //Payment must be more than min payment\n                ln.totalPaymentsValue - ln.paymentComplete < ln.minPayment,     //Exception for the last payment (remainder)\n                \"You must make the minimum payment\");\n                \n        IERC20(ln.ERC20Address).transferFrom(msg.sender, address(this), _erc20Ammount);     \n        loanLookup[_id].awaitingCollection += _erc20Ammount;                         \n        loanLookup[_id].paymentDueDate = block.timestamp + ln.paymentPeriod;             //Reset paymentTimer;\n        loanLookup[_id].paymentComplete += _erc20Ammount;                                //Increase paymentComplete\n    }\n    \n    /**\n    * @notice MUST approve this contract to spend your ERC1155s in bonds. Used to have this auto handled by the on received function.\n    * However that was not a good idea as a hacker could create fake bonds.\n    * @param _id is the id of the bond to send in\n    * @param _amm is the ammount to send\n     */\n    function withdrawl(uint256 _id, uint256 _amm) external virtual{\n        IERC1155 bonds = IERC1155(bondContract);\n        IERC20 erc20 = IERC20(loanLookup[_id].ERC20Address);\n        require(loanLookup[_id].issued, \"this loan has not been issued yet. How do you even have bonds for it???\");\n        require(_amm <= loanLookup[_id].awaitingCollection,\"There are not enough payments available for collection\");\n        bonds.safeTransferFrom(msg.sender, address(this), _id, _amm, \"\");\n        erc20.transfer(msg.sender, _amm);\n    }\n    \n    /**\n    * @notice helper function\n    * @param _id of loan to check\n    * @return return if the contract is payed off or not as bool\n     */\n    function isComplete(uint256 _id) public virtual view returns(bool){\n        return loanLookup[_id].paymentComplete >=\n        loanLookup[_id].totalPaymentsValue ||\n        !loanLookup[_id].issued;\n    }\n\n    /**\n    * @notice Returns the ID for a loan given the borrower and index in the array\n    * @param _borrower is borrower\n    * @param _index is the index in the borrowers loan array\n    * @return the loan ID\n     */\n    //\n    function getId(address _borrower, uint256 _index) public virtual view returns(uint256){\n        uint256 id = uint256(\n            keccak256(abi.encodePacked(\n            address(this),\n            _borrower,\n            _index\n        )));\n        return id;\n    }\n}",
  "sourcePath": "/home/carson/Documents/linkHackathon2021/loan-wolf/contracts/contracts/ERC20PaymentStandard.sol",
  "compiler": {
    "name": "solc",
    "version": "0.8.1+commit.df193b15.Emscripten.clang"
  },
  "schemaVersion": "3.3.4",
  "updatedAt": "2021-04-11T02:13:49.138Z",
  "networkType": "ethereum",
  "devdoc": {
    "author": "Carson Case",
    "kind": "dev",
    "methods": {
      "addInterest(uint256,uint256)": {
        "params": {
          "_amm": "the ammount of interest to add",
          "_id": "is the id of the loan"
        },
        "returns": {
          "_0": "true if added. Will not add interest if payment has been completed. This prevents lenders from refusing to end a loan when it is rightfully over by forever increasing the totalPaymentsValue through interest staking and never fully collecting payment. This also means that if lenders do not realize interest gains soon enough they may not be able to collect them before the borrower can complete the loan."
        }
      },
      "configureNew(address,address,uint256,uint256,uint256,uint256,uint256)": {
        "details": "borrower is msg.sender for testing. In production might want to make this a param",
        "params": {
          "_accrualPeriod": "the time it takes for interest to accrue in seconds",
          "_borrower": "is the borrower loan is being configured for. Keep in mind. ONLY this borrower can mint bonds to start the loan",
          "_erc20": "is the ERC20 contract address that will be used for payments",
          "_inverseInterestRate": "the interest rate expressed as inverse. 2% = 1/5 = inverse of 5",
          "_minPayment": "is the minimum payment that must be made before the payment period ends",
          "_paymentPeriod": "payment must be made by this time or delinquent function will return true",
          "_principal": "the origional loan value before interest"
        },
        "returns": {
          "_0": "the id it just created"
        }
      },
      "constructor": {
        "params": {
          "_bonds": "contract"
        }
      },
      "getId(address,uint256)": {
        "params": {
          "_borrower": "is borrower",
          "_index": "is the index in the borrowers loan array"
        },
        "returns": {
          "_0": "the loan ID"
        }
      },
      "getInterest(uint256)": {
        "params": {
          "_id": "is the loan ID"
        },
        "returns": {
          "_0": "inverse interest rate"
        }
      },
      "getNumberOfLoans(address)": {
        "params": {
          "_who": "is who to look up"
        },
        "returns": {
          "_0": "length"
        }
      },
      "isComplete(uint256)": {
        "params": {
          "_id": "of loan to check"
        },
        "returns": {
          "_0": "return if the contract is payed off or not as bool"
        }
      },
      "isDelinquent(uint256)": {
        "params": {
          "_id": "is the hash id of the loan. Same as bond ERC1155 ID as well"
        },
        "returns": {
          "_0": "if delinquent or not. Meaning missed a payment"
        }
      },
      "issueBonds(uint256)": {
        "params": {
          "_id": "loan ID"
        },
        "returns": {
          "_0": "the loan principal (so bonds knows how many NFTs to mint)",
          "_1": "the borrowers address (so bonds can make sure borrower is calling this function)"
        }
      },
      "payment(uint256,uint256)": {
        "params": {
          "_erc20Ammount": "is ammount in loan's ERC20 to pay",
          "_id": "to pay off"
        }
      },
      "supportsInterface(bytes4)": {
        "details": "See {IERC165-supportsInterface}."
      },
      "withdrawl(uint256,uint256)": {
        "params": {
          "_amm": "is the ammount to send",
          "_id": "is the id of the bond to send in"
        }
      }
    },
    "title": "ERC20PaymentStandard",
    "version": 1
  },
  "userdoc": {
    "kind": "user",
    "methods": {
      "addInterest(uint256,uint256)": {
        "notice": "Called each time new NFTs are minted by staking"
      },
      "configureNew(address,address,uint256,uint256,uint256,uint256,uint256)": {
        "notice": "contract must be configured before bonds are issued. Pushes new loan to array for user"
      },
      "constructor": {
        "notice": "just sets bonds contract"
      },
      "getId(address,uint256)": {
        "notice": "Returns the ID for a loan given the borrower and index in the array"
      },
      "getInterest(uint256)": {
        "notice": "get the interest rate of a loan. Makes it easy for other contract since it doens't have to parse struct"
      },
      "getNumberOfLoans(address)": {
        "notice": "gets the number of loans a person has"
      },
      "isComplete(uint256)": {
        "notice": "helper function"
      },
      "isDelinquent(uint256)": {
        "notice": "This contract is not very forgiving. Miss one payment and you're marked as delinquent. Unless contract is complete"
      },
      "issueBonds(uint256)": {
        "notice": "called when bonds are issued so as to make sure lender can only mint bonds once."
      },
      "payment(uint256,uint256)": {
        "notice": "function handles the payment of the loan. Does not have to be borrower as payment comes in. The contract holds it until collection by bond owners. MUST APPROVE FIRST in ERC20 contract first"
      },
      "withdrawl(uint256,uint256)": {
        "notice": "MUST approve this contract to spend your ERC1155s in bonds. Used to have this auto handled by the on received function. However that was not a good idea as a hacker could create fake bonds."
      }
    },
    "notice": "This contract is a standard meant to be overriden that works with the Bonds contract to offer noncolateralized, flexable lending onchain",
    "version": 1
  }
}