{
  "contractName": "ERC20CollateralPayment",
  "abi": [
    {
      "inputs": [
        {
          "internalType": "address",
          "name": "_bonds",
          "type": "address"
        }
      ],
      "stateMutability": "nonpayable",
      "type": "constructor"
    },
    {
      "inputs": [
        {
          "internalType": "uint256",
          "name": "_amm",
          "type": "uint256"
        },
        {
          "internalType": "uint256",
          "name": "_id",
          "type": "uint256"
        }
      ],
      "name": "addInterest",
      "outputs": [
        {
          "internalType": "bool",
          "name": "",
          "type": "bool"
        }
      ],
      "stateMutability": "nonpayable",
      "type": "function"
    },
    {
      "inputs": [],
      "name": "bondContract",
      "outputs": [
        {
          "internalType": "address",
          "name": "",
          "type": "address"
        }
      ],
      "stateMutability": "view",
      "type": "function",
      "constant": true
    },
    {
      "inputs": [
        {
          "internalType": "uint256",
          "name": "",
          "type": "uint256"
        }
      ],
      "name": "collateralLookup",
      "outputs": [
        {
          "internalType": "address",
          "name": "ERC20Contract",
          "type": "address"
        },
        {
          "internalType": "uint256",
          "name": "ammount",
          "type": "uint256"
        }
      ],
      "stateMutability": "view",
      "type": "function",
      "constant": true
    },
    {
      "inputs": [
        {
          "internalType": "address",
          "name": "_erc20",
          "type": "address"
        },
        {
          "internalType": "address",
          "name": "_borrower",
          "type": "address"
        },
        {
          "internalType": "uint256",
          "name": "_minPayment",
          "type": "uint256"
        },
        {
          "internalType": "uint256",
          "name": "_paymentPeriod",
          "type": "uint256"
        },
        {
          "internalType": "uint256",
          "name": "_principal",
          "type": "uint256"
        },
        {
          "internalType": "uint256",
          "name": "_inverseInterestRate",
          "type": "uint256"
        },
        {
          "internalType": "uint256",
          "name": "_accrualPeriod",
          "type": "uint256"
        }
      ],
      "name": "configureNew",
      "outputs": [
        {
          "internalType": "uint256",
          "name": "",
          "type": "uint256"
        }
      ],
      "stateMutability": "nonpayable",
      "type": "function"
    },
    {
      "inputs": [
        {
          "internalType": "address",
          "name": "_borrower",
          "type": "address"
        },
        {
          "internalType": "uint256",
          "name": "_index",
          "type": "uint256"
        }
      ],
      "name": "getId",
      "outputs": [
        {
          "internalType": "uint256",
          "name": "",
          "type": "uint256"
        }
      ],
      "stateMutability": "view",
      "type": "function",
      "constant": true
    },
    {
      "inputs": [
        {
          "internalType": "uint256",
          "name": "_id",
          "type": "uint256"
        }
      ],
      "name": "getInterest",
      "outputs": [
        {
          "internalType": "uint256",
          "name": "",
          "type": "uint256"
        }
      ],
      "stateMutability": "view",
      "type": "function",
      "constant": true
    },
    {
      "inputs": [
        {
          "internalType": "address",
          "name": "_who",
          "type": "address"
        }
      ],
      "name": "getNumberOfLoans",
      "outputs": [
        {
          "internalType": "uint256",
          "name": "",
          "type": "uint256"
        }
      ],
      "stateMutability": "view",
      "type": "function",
      "constant": true
    },
    {
      "inputs": [
        {
          "internalType": "uint256",
          "name": "_id",
          "type": "uint256"
        }
      ],
      "name": "isComplete",
      "outputs": [
        {
          "internalType": "bool",
          "name": "",
          "type": "bool"
        }
      ],
      "stateMutability": "view",
      "type": "function",
      "constant": true
    },
    {
      "inputs": [
        {
          "internalType": "uint256",
          "name": "_id",
          "type": "uint256"
        }
      ],
      "name": "isDelinquent",
      "outputs": [
        {
          "internalType": "bool",
          "name": "",
          "type": "bool"
        }
      ],
      "stateMutability": "view",
      "type": "function",
      "constant": true
    },
    {
      "inputs": [
        {
          "internalType": "uint256",
          "name": "_id",
          "type": "uint256"
        }
      ],
      "name": "issueBonds",
      "outputs": [
        {
          "internalType": "uint256",
          "name": "",
          "type": "uint256"
        },
        {
          "internalType": "address",
          "name": "",
          "type": "address"
        }
      ],
      "stateMutability": "nonpayable",
      "type": "function"
    },
    {
      "inputs": [
        {
          "internalType": "address",
          "name": "",
          "type": "address"
        },
        {
          "internalType": "uint256",
          "name": "",
          "type": "uint256"
        }
      ],
      "name": "loanIDs",
      "outputs": [
        {
          "internalType": "uint256",
          "name": "",
          "type": "uint256"
        }
      ],
      "stateMutability": "view",
      "type": "function",
      "constant": true
    },
    {
      "inputs": [
        {
          "internalType": "uint256",
          "name": "",
          "type": "uint256"
        }
      ],
      "name": "loanLookup",
      "outputs": [
        {
          "internalType": "bool",
          "name": "issued",
          "type": "bool"
        },
        {
          "internalType": "address",
          "name": "ERC20Address",
          "type": "address"
        },
        {
          "internalType": "address",
          "name": "borrower",
          "type": "address"
        },
        {
          "internalType": "uint256",
          "name": "paymentPeriod",
          "type": "uint256"
        },
        {
          "internalType": "uint256",
          "name": "paymentDueDate",
          "type": "uint256"
        },
        {
          "internalType": "uint256",
          "name": "minPayment",
          "type": "uint256"
        },
        {
          "internalType": "uint256",
          "name": "interestRateInverse",
          "type": "uint256"
        },
        {
          "internalType": "uint256",
          "name": "accrualPeriod",
          "type": "uint256"
        },
        {
          "internalType": "uint256",
          "name": "principal",
          "type": "uint256"
        },
        {
          "internalType": "uint256",
          "name": "totalPaymentsValue",
          "type": "uint256"
        },
        {
          "internalType": "uint256",
          "name": "awaitingCollection",
          "type": "uint256"
        },
        {
          "internalType": "uint256",
          "name": "paymentComplete",
          "type": "uint256"
        }
      ],
      "stateMutability": "view",
      "type": "function",
      "constant": true
    },
    {
      "inputs": [
        {
          "internalType": "address",
          "name": "",
          "type": "address"
        },
        {
          "internalType": "address",
          "name": "",
          "type": "address"
        },
        {
          "internalType": "uint256[]",
          "name": "",
          "type": "uint256[]"
        },
        {
          "internalType": "uint256[]",
          "name": "",
          "type": "uint256[]"
        },
        {
          "internalType": "bytes",
          "name": "",
          "type": "bytes"
        }
      ],
      "name": "onERC1155BatchReceived",
      "outputs": [
        {
          "internalType": "bytes4",
          "name": "",
          "type": "bytes4"
        }
      ],
      "stateMutability": "nonpayable",
      "type": "function"
    },
    {
      "inputs": [
        {
          "internalType": "address",
          "name": "",
          "type": "address"
        },
        {
          "internalType": "address",
          "name": "",
          "type": "address"
        },
        {
          "internalType": "uint256",
          "name": "",
          "type": "uint256"
        },
        {
          "internalType": "uint256",
          "name": "",
          "type": "uint256"
        },
        {
          "internalType": "bytes",
          "name": "",
          "type": "bytes"
        }
      ],
      "name": "onERC1155Received",
      "outputs": [
        {
          "internalType": "bytes4",
          "name": "",
          "type": "bytes4"
        }
      ],
      "stateMutability": "nonpayable",
      "type": "function"
    },
    {
      "inputs": [
        {
          "internalType": "uint256",
          "name": "_id",
          "type": "uint256"
        },
        {
          "internalType": "uint256",
          "name": "_erc20Ammount",
          "type": "uint256"
        }
      ],
      "name": "payment",
      "outputs": [],
      "stateMutability": "nonpayable",
      "type": "function"
    },
    {
      "inputs": [
        {
          "internalType": "bytes4",
          "name": "interfaceId",
          "type": "bytes4"
        }
      ],
      "name": "supportsInterface",
      "outputs": [
        {
          "internalType": "bool",
          "name": "",
          "type": "bool"
        }
      ],
      "stateMutability": "view",
      "type": "function",
      "constant": true
    },
    {
      "inputs": [
        {
          "internalType": "address",
          "name": "_ERC20Contract",
          "type": "address"
        },
        {
          "internalType": "uint256",
          "name": "_ammount",
          "type": "uint256"
        },
        {
          "internalType": "uint256",
          "name": "_loanId",
          "type": "uint256"
        }
      ],
      "name": "addCollateral",
      "outputs": [],
      "stateMutability": "nonpayable",
      "type": "function"
    },
    {
      "inputs": [
        {
          "internalType": "uint256",
          "name": "_loanId",
          "type": "uint256"
        }
      ],
      "name": "returnCollateral",
      "outputs": [],
      "stateMutability": "nonpayable",
      "type": "function"
    },
    {
      "inputs": [
        {
          "internalType": "uint256",
          "name": "_id",
          "type": "uint256"
        },
        {
          "internalType": "uint256",
          "name": "_amm",
          "type": "uint256"
        }
      ],
      "name": "withdrawl",
      "outputs": [],
      "stateMutability": "nonpayable",
      "type": "function"
    }
  ],
  "bytecode": "0x60806040523480156200001157600080fd5b5060405162002a8938038062002a89833981810160405281019062000037919062000097565b80806000806101000a81548173ffffffffffffffffffffffffffffffffffffffff021916908373ffffffffffffffffffffffffffffffffffffffff160217905550505062000111565b6000815190506200009181620000f7565b92915050565b600060208284031215620000aa57600080fd5b6000620000ba8482850162000080565b91505092915050565b6000620000d082620000d7565b9050919050565b600073ffffffffffffffffffffffffffffffffffffffff82169050919050565b6200010281620000c3565b81146200010e57600080fd5b50565b61296880620001216000396000f3fe608060405234801561001057600080fd5b50600436106101215760003560e01c806391f67191116100ad578063d41db84b11610071578063d41db84b14610382578063e62e1e42146103b3578063e7004a7a146103e3578063f1f2a75714610401578063f23a6e611461043157610121565b806391f67191146102ba578063a97868be146102ea578063bc197c8114610306578063c5d3e11d14610336578063c75cf2451461036657610121565b806344e02dbc116100f457806344e02dbc146101d35780634af50116146101ef5780635fe2d6891461021f578063630e69ad1461024f5780637e23f5dd1461028a57610121565b806301ffc9a7146101265780632f63147f146101565780633a0be1a614610172578063444da0c9146101a2575b600080fd5b610140600480360381019061013b9190611d0e565b610461565b60405161014d9190612097565b60405180910390f35b610170600480360381019061016b9190611d60565b6104db565b005b61018c60048036038101906101879190611d37565b610816565b6040516101999190612097565b60405180910390f35b6101bc60048036038101906101b79190611d37565b61087b565b6040516101ca92919061206e565b60405180910390f35b6101ed60048036038101906101e89190611d37565b6108bf565b005b61020960048036038101906102049190611c5a565b610aba565b60405161021691906122c7565b60405180910390f35b61023960048036038101906102349190611d37565b610aeb565b60405161024691906122c7565b60405180910390f35b61026960048036038101906102649190611d37565b610b0b565b6040516102819c9b9a999897969594939291906120b2565b60405180910390f35b6102a4600480360381019061029f9190611a45565b610bb8565b6040516102b191906122c7565b60405180910390f35b6102d460048036038101906102cf9190611d37565b610c04565b6040516102e19190612097565b60405180910390f35b61030460048036038101906102ff9190611d60565b610c39565b005b610320600480360381019061031b9190611a6e565b611068565b60405161032d919061216c565b60405180910390f35b610350600480360381019061034b9190611c5a565b61107d565b60405161035d91906122c7565b60405180910390f35b610380600480360381019061037b9190611c96565b6110ba565b005b61039c60048036038101906103979190611d37565b611381565b6040516103aa9291906122e2565b60405180910390f35b6103cd60048036038101906103c89190611d60565b6114fb565b6040516103da9190612097565b60405180910390f35b6103eb6115da565b6040516103f89190611fc4565b60405180910390f35b61041b60048036038101906104169190611bbc565b6115fe565b60405161042891906122c7565b60405180910390f35b61044b60048036038101906104469190611b2d565b611874565b604051610458919061216c565b60405180910390f35b60007f4e2312e0000000000000000000000000000000000000000000000000000000007bffffffffffffffffffffffffffffffffffffffffffffffffffffffff1916827bffffffffffffffffffffffffffffffffffffffffffffffffffffffff191614806104d457506104d382611889565b5b9050919050565b81600160008281526020019081526020016000206008015460016000838152602001908152602001600020600a01541061054a576040517f08c379a000000000000000000000000000000000000000000000000000000000815260040161054190612207565b60405180910390fd5b600060016000858152602001908152602001600020604051806101800160405290816000820160009054906101000a900460ff161515151581526020016000820160019054906101000a900473ffffffffffffffffffffffffffffffffffffffff1673ffffffffffffffffffffffffffffffffffffffff1673ffffffffffffffffffffffffffffffffffffffff1681526020016001820160009054906101000a900473ffffffffffffffffffffffffffffffffffffffff1673ffffffffffffffffffffffffffffffffffffffff1673ffffffffffffffffffffffffffffffffffffffff1681526020016002820154815260200160038201548152602001600482015481526020016005820154815260200160068201548152602001600782015481526020016008820154815260200160098201548152602001600a8201548152505090508060a00151831015806106b957508060a001518161016001518261012001516106b79190612405565b105b6106f8576040517f08c379a00000000000000000000000000000000000000000000000000000000081526004016106ef906121c7565b60405180910390fd5b806020015173ffffffffffffffffffffffffffffffffffffffff166323b872dd3330866040518463ffffffff1660e01b815260040161073993929190611fdf565b602060405180830381600087803b15801561075357600080fd5b505af1158015610767573d6000803e3d6000fd5b505050506040513d601f19601f8201168201806040525081019061078b9190611ce5565b50826001600086815260200190815260200160002060090160008282546107b291906123af565b925050819055508060600151426107c991906123af565b60016000868152602001908152602001600020600301819055508260016000868152602001908152602001600020600a01600082825461080991906123af565b9250508190555050505050565b6000600160008381526020019081526020016000206008015460016000848152602001908152602001600020600a015410158061087457506001600083815260200190815260200160002060000160009054906101000a900460ff16155b9050919050565b60036020528060005260406000206000915090508060000160009054906101000a900473ffffffffffffffffffffffffffffffffffffffff16908060010154905082565b6001600082815260200190815260200160002060010160009054906101000a900473ffffffffffffffffffffffffffffffffffffffff1673ffffffffffffffffffffffffffffffffffffffff163373ffffffffffffffffffffffffffffffffffffffff1614610963576040517f08c379a000000000000000000000000000000000000000000000000000000000815260040161095a906122a7565b60405180910390fd5b61096c81610816565b8061099857506001600082815260200190815260200160002060000160009054906101000a900460ff16155b6109d7576040517f08c379a00000000000000000000000000000000000000000000000000000000081526004016109ce90612247565b60405180910390fd5b60006003600083815260200190815260200160002060000160009054906101000a900473ffffffffffffffffffffffffffffffffffffffff1690508073ffffffffffffffffffffffffffffffffffffffff1663a9059cbb3360036000868152602001908152602001600020600101546040518363ffffffff1660e01b8152600401610a6392919061206e565b602060405180830381600087803b158015610a7d57600080fd5b505af1158015610a91573d6000803e3d6000fd5b505050506040513d601f19601f82011682018060405250810190610ab59190611ce5565b505050565b60026020528160005260406000208181548110610ad657600080fd5b90600052602060002001600091509150505481565b600060016000838152602001908152602001600020600501549050919050565b60016020528060005260406000206000915090508060000160009054906101000a900460ff16908060000160019054906101000a900473ffffffffffffffffffffffffffffffffffffffff16908060010160009054906101000a900473ffffffffffffffffffffffffffffffffffffffff169080600201549080600301549080600401549080600501549080600601549080600701549080600801549080600901549080600a015490508c565b6000600260008373ffffffffffffffffffffffffffffffffffffffff1673ffffffffffffffffffffffffffffffffffffffff168152602001908152602001600020805490509050919050565b600060016000838152602001908152602001600020600301544210158015610c325750610c3082610816565b155b9050919050565b60008060009054906101000a900473ffffffffffffffffffffffffffffffffffffffff16905060006001600085815260200190815260200160002060000160019054906101000a900473ffffffffffffffffffffffffffffffffffffffff16905060006003600086815260200190815260200160002060000160009054906101000a900473ffffffffffffffffffffffffffffffffffffffff1690506001600086815260200190815260200160002060000160009054906101000a900460ff16610d38576040517f08c379a0000000000000000000000000000000000000000000000000000000008152600401610d2f906121e7565b60405180910390fd5b6001600086815260200190815260200160002060090154841115610d91576040517f08c379a0000000000000000000000000000000000000000000000000000000008152600401610d8890612267565b60405180910390fd5b8273ffffffffffffffffffffffffffffffffffffffff1663f242432a333088886040518563ffffffff1660e01b8152600401610dd09493929190612016565b600060405180830381600087803b158015610dea57600080fd5b505af1158015610dfe573d6000803e3d6000fd5b505050508173ffffffffffffffffffffffffffffffffffffffff1663a9059cbb33866040518363ffffffff1660e01b8152600401610e3d92919061206e565b602060405180830381600087803b158015610e5757600080fd5b505af1158015610e6b573d6000803e3d6000fd5b505050506040513d601f19601f82011682018060405250810190610e8f9190611ce5565b50610e9985610c04565b8015610ebc57506000600360008781526020019081526020016000206001015414155b15611061578360036000878152602001908152602001600020600101541015610fa457600060036000878152602001908152602001600020600101819055508073ffffffffffffffffffffffffffffffffffffffff1663a9059cbb3360036000898152602001908152602001600020600101546040518363ffffffff1660e01b8152600401610f4c92919061206e565b602060405180830381600087803b158015610f6657600080fd5b505af1158015610f7a573d6000803e3d6000fd5b505050506040513d601f19601f82011682018060405250810190610f9e9190611ce5565b50611060565b83600360008781526020019081526020016000206001016000828254610fca9190612405565b925050819055508073ffffffffffffffffffffffffffffffffffffffff1663a9059cbb33866040518363ffffffff1660e01b815260040161100c92919061206e565b602060405180830381600087803b15801561102657600080fd5b505af115801561103a573d6000803e3d6000fd5b505050506040513d601f19601f8201168201806040525081019061105e9190611ce5565b505b5b5050505050565b600063bc197c8160e01b905095945050505050565b60008030848460405160200161109593929190611f87565b6040516020818303038152906040528051906020012060001c90508091505092915050565b3373ffffffffffffffffffffffffffffffffffffffff166001600083815260200190815260200160002060010160009054906101000a900473ffffffffffffffffffffffffffffffffffffffff1673ffffffffffffffffffffffffffffffffffffffff161461115e576040517f08c379a000000000000000000000000000000000000000000000000000000000815260040161115590612227565b60405180910390fd5b60008390506000600360008481526020019081526020016000206001015414156112195760405180604001604052808573ffffffffffffffffffffffffffffffffffffffff168152602001848152506003600084815260200190815260200160002060008201518160000160006101000a81548173ffffffffffffffffffffffffffffffffffffffff021916908373ffffffffffffffffffffffffffffffffffffffff160217905550602082015181600101559050506112eb565b6003600083815260200190815260200160002060000160009054906101000a900473ffffffffffffffffffffffffffffffffffffffff1673ffffffffffffffffffffffffffffffffffffffff168473ffffffffffffffffffffffffffffffffffffffff16146112bd576040517f08c379a00000000000000000000000000000000000000000000000000000000081526004016112b490612287565b60405180910390fd5b826003600084815260200190815260200160002060010160008282546112e391906123af565b925050819055505b8073ffffffffffffffffffffffffffffffffffffffff166323b872dd3330866040518463ffffffff1660e01b815260040161132893929190611fdf565b602060405180830381600087803b15801561134257600080fd5b505af1158015611356573d6000803e3d6000fd5b505050506040513d601f19601f8201168201806040525081019061137a9190611ce5565b5050505050565b60008060008054906101000a900473ffffffffffffffffffffffffffffffffffffffff1673ffffffffffffffffffffffffffffffffffffffff163373ffffffffffffffffffffffffffffffffffffffff1614611412576040517f08c379a0000000000000000000000000000000000000000000000000000000008152600401611409906121a7565b60405180910390fd5b6001600084815260200190815260200160002060000160009054906101000a900460ff1615611476576040517f08c379a000000000000000000000000000000000000000000000000000000000815260040161146d90612187565b60405180910390fd5b600180600085815260200190815260200160002060000160006101000a81548160ff02191690831515021790555060016000848152602001908152602001600020600701546001600085815260200190815260200160002060010160009054906101000a900473ffffffffffffffffffffffffffffffffffffffff1691509150915091565b60008060009054906101000a900473ffffffffffffffffffffffffffffffffffffffff1673ffffffffffffffffffffffffffffffffffffffff163373ffffffffffffffffffffffffffffffffffffffff161461158c576040517f08c379a0000000000000000000000000000000000000000000000000000000008152600401611583906121a7565b60405180910390fd5b61159582610816565b6115cf57826001600084815260200190815260200160002060080160008282546115bf91906123af565b92505081905550600190506115d4565b600090505b92915050565b60008054906101000a900473ffffffffffffffffffffffffffffffffffffffff1681565b60008061164d88600260008b73ffffffffffffffffffffffffffffffffffffffff1673ffffffffffffffffffffffffffffffffffffffff1681526020019081526020016000208054905061107d565b9050600260008973ffffffffffffffffffffffffffffffffffffffff1673ffffffffffffffffffffffffffffffffffffffff1681526020019081526020016000208190806001815401808255809150506001900390600052602060002001600090919091909150556040518061018001604052806000151581526020018a73ffffffffffffffffffffffffffffffffffffffff1681526020013373ffffffffffffffffffffffffffffffffffffffff168152602001878152602001874261171491906123af565b81526020018881526020018581526020018481526020018681526020018681526020016000815260200160008152506001600083815260200190815260200160002060008201518160000160006101000a81548160ff02191690831515021790555060208201518160000160016101000a81548173ffffffffffffffffffffffffffffffffffffffff021916908373ffffffffffffffffffffffffffffffffffffffff16021790555060408201518160010160006101000a81548173ffffffffffffffffffffffffffffffffffffffff021916908373ffffffffffffffffffffffffffffffffffffffff160217905550606082015181600201556080820151816003015560a0820151816004015560c0820151816005015560e0820151816006015561010082015181600701556101208201518160080155610140820151816009015561016082015181600a015590505080915050979650505050505050565b600063f23a6e6160e01b905095945050505050565b60007f01ffc9a7000000000000000000000000000000000000000000000000000000007bffffffffffffffffffffffffffffffffffffffffffffffffffffffff1916827bffffffffffffffffffffffffffffffffffffffffffffffffffffffff1916149050919050565b600061190661190184612330565b61230b565b9050808382526020820190508285602086028201111561192557600080fd5b60005b85811015611955578161193b8882611a30565b845260208401935060208301925050600181019050611928565b5050509392505050565b600061197261196d8461235c565b61230b565b90508281526020810184848401111561198a57600080fd5b6119958482856124ad565b509392505050565b6000813590506119ac816128d6565b92915050565b600082601f8301126119c357600080fd5b81356119d38482602086016118f3565b91505092915050565b6000815190506119eb816128ed565b92915050565b600081359050611a0081612904565b92915050565b600082601f830112611a1757600080fd5b8135611a2784826020860161195f565b91505092915050565b600081359050611a3f8161291b565b92915050565b600060208284031215611a5757600080fd5b6000611a658482850161199d565b91505092915050565b600080600080600060a08688031215611a8657600080fd5b6000611a948882890161199d565b9550506020611aa58882890161199d565b945050604086013567ffffffffffffffff811115611ac257600080fd5b611ace888289016119b2565b935050606086013567ffffffffffffffff811115611aeb57600080fd5b611af7888289016119b2565b925050608086013567ffffffffffffffff811115611b1457600080fd5b611b2088828901611a06565b9150509295509295909350565b600080600080600060a08688031215611b4557600080fd5b6000611b538882890161199d565b9550506020611b648882890161199d565b9450506040611b7588828901611a30565b9350506060611b8688828901611a30565b925050608086013567ffffffffffffffff811115611ba357600080fd5b611baf88828901611a06565b9150509295509295909350565b600080600080600080600060e0888a031215611bd757600080fd5b6000611be58a828b0161199d565b9750506020611bf68a828b0161199d565b9650506040611c078a828b01611a30565b9550506060611c188a828b01611a30565b9450506080611c298a828b01611a30565b93505060a0611c3a8a828b01611a30565b92505060c0611c4b8a828b01611a30565b91505092959891949750929550565b60008060408385031215611c6d57600080fd5b6000611c7b8582860161199d565b9250506020611c8c85828601611a30565b9150509250929050565b600080600060608486031215611cab57600080fd5b6000611cb98682870161199d565b9350506020611cca86828701611a30565b9250506040611cdb86828701611a30565b9150509250925092565b600060208284031215611cf757600080fd5b6000611d05848285016119dc565b91505092915050565b600060208284031215611d2057600080fd5b6000611d2e848285016119f1565b91505092915050565b600060208284031215611d4957600080fd5b6000611d5784828501611a30565b91505092915050565b60008060408385031215611d7357600080fd5b6000611d8185828601611a30565b9250506020611d9285828601611a30565b9150509250929050565b611da581612439565b82525050565b611dbc611db782612439565b6124ed565b82525050565b611dcb8161244b565b82525050565b611dda81612457565b82525050565b6000611ded602b8361239e565b9150611df882612597565b604082019050919050565b6000611e10602d8361239e565b9150611e1b826125e6565b604082019050919050565b6000611e3360218361239e565b9150611e3e82612635565b604082019050919050565b6000611e5660478361239e565b9150611e6182612684565b606082019050919050565b6000611e7960218361239e565b9150611e84826126f9565b604082019050919050565b6000611e9c60248361239e565b9150611ea782612748565b604082019050919050565b6000611ebf603a8361239e565b9150611eca82612797565b604082019050919050565b6000611ee260008361238d565b9150611eed826127e6565b600082019050919050565b6000611f0560358361239e565b9150611f10826127e9565b604082019050919050565b6000611f2860408361239e565b9150611f3382612838565b604082019050919050565b6000611f4b60288361239e565b9150611f5682612887565b604082019050919050565b611f6a816124a3565b82525050565b611f81611f7c826124a3565b612511565b82525050565b6000611f938286611dab565b601482019150611fa38285611dab565b601482019150611fb38284611f70565b602082019150819050949350505050565b6000602082019050611fd96000830184611d9c565b92915050565b6000606082019050611ff46000830186611d9c565b6120016020830185611d9c565b61200e6040830184611f61565b949350505050565b600060a08201905061202b6000830187611d9c565b6120386020830186611d9c565b6120456040830185611f61565b6120526060830184611f61565b818103608083015261206381611ed5565b905095945050505050565b60006040820190506120836000830185611d9c565b6120906020830184611f61565b9392505050565b60006020820190506120ac6000830184611dc2565b92915050565b6000610180820190506120c8600083018f611dc2565b6120d5602083018e611d9c565b6120e2604083018d611d9c565b6120ef606083018c611f61565b6120fc608083018b611f61565b61210960a083018a611f61565b61211660c0830189611f61565b61212360e0830188611f61565b612131610100830187611f61565b61213f610120830186611f61565b61214d610140830185611f61565b61215b610160830184611f61565b9d9c50505050505050505050505050565b60006020820190506121816000830184611dd1565b92915050565b600060208201905081810360008301526121a081611de0565b9050919050565b600060208201905081810360008301526121c081611e03565b9050919050565b600060208201905081810360008301526121e081611e26565b9050919050565b6000602082019050818103600083015261220081611e49565b9050919050565b6000602082019050818103600083015261222081611e6c565b9050919050565b6000602082019050818103600083015261224081611e8f565b9050919050565b6000602082019050818103600083015261226081611eb2565b9050919050565b6000602082019050818103600083015261228081611ef8565b9050919050565b600060208201905081810360008301526122a081611f1b565b9050919050565b600060208201905081810360008301526122c081611f3e565b9050919050565b60006020820190506122dc6000830184611f61565b92915050565b60006040820190506122f76000830185611f61565b6123046020830184611d9c565b9392505050565b6000612315612326565b905061232182826124bc565b919050565b6000604051905090565b600067ffffffffffffffff82111561234b5761234a61254a565b5b602082029050602081019050919050565b600067ffffffffffffffff8211156123775761237661254a565b5b61238082612579565b9050602081019050919050565b600082825260208201905092915050565b600082825260208201905092915050565b60006123ba826124a3565b91506123c5836124a3565b9250827fffffffffffffffffffffffffffffffffffffffffffffffffffffffffffffffff038211156123fa576123f961251b565b5b828201905092915050565b6000612410826124a3565b915061241b836124a3565b92508282101561242e5761242d61251b565b5b828203905092915050565b600061244482612483565b9050919050565b60008115159050919050565b60007fffffffff0000000000000000000000000000000000000000000000000000000082169050919050565b600073ffffffffffffffffffffffffffffffffffffffff82169050919050565b6000819050919050565b82818337600083830152505050565b6124c582612579565b810181811067ffffffffffffffff821117156124e4576124e361254a565b5b80604052505050565b60006124f8826124ff565b9050919050565b600061250a8261258a565b9050919050565b6000819050919050565b7f4e487b7100000000000000000000000000000000000000000000000000000000600052601160045260246000fd5b7f4e487b7100000000000000000000000000000000000000000000000000000000600052604160045260246000fd5b6000601f19601f8301169050919050565b60008160601b9050919050565b7f596f75206861766520616c72656164792069737375656420626f6e647320666f60008201527f722074686973206c6f616e000000000000000000000000000000000000000000602082015250565b7f4f6e6c792074686520626f6e6420636f6e74726163742063616e2063616c6c2060008201527f746869732066756e6374696f6e00000000000000000000000000000000000000602082015250565b7f596f75206d757374206d616b6520746865206d696e696d756d207061796d656e60008201527f7400000000000000000000000000000000000000000000000000000000000000602082015250565b7f74686973206c6f616e20686173206e6f74206265656e2069737375656420796560008201527f742e20486f7720646f20796f75206576656e206861766520626f6e647320666f60208201527f722069743f3f3f00000000000000000000000000000000000000000000000000604082015250565b7f5468697320636f6e747261637420697320616c72656179642070616964206f6660008201527f6600000000000000000000000000000000000000000000000000000000000000602082015250565b7f6f6e6c792074686520626f72726f7765722063616e2061646420636f6c6c617460008201527f6572616c00000000000000000000000000000000000000000000000000000000602082015250565b7f6c6f616e206d7573742062652070616964206f6666206f72206e6f742073746160008201527f7274656420746f20636f6c6c65637420636f6c6c61746572616c000000000000602082015250565b50565b7f5468657265206973206e6f7420656e6f756768207061796d656e74732061766160008201527f696c61626c6520666f7220636f6c6c656374696f6e0000000000000000000000602082015250565b7f5768656e20696e6372656173696e6720636f6c6c61746572616c2c20796f752060008201527f6d75737420757365207468652073616d65204552433230206164647265737320602082015250565b7f6f6e6c792074686520626f72726f7765722063616e20636f6c6c65637420636f60008201527f6c6c61746572616c000000000000000000000000000000000000000000000000602082015250565b6128df81612439565b81146128ea57600080fd5b50565b6128f68161244b565b811461290157600080fd5b50565b61290d81612457565b811461291857600080fd5b50565b612924816124a3565b811461292f57600080fd5b5056fea2646970667358221220bfd716d27a71b80ab81c6eaaae371372085589f7a5a2fc639be39c9bd2c243a064736f6c63430008010033",
  "immutableReferences": {},
  "source": "/// SPDX-License-Identifier: None\npragma solidity ^0.8.0;\n\nimport \"./ERC20PaymentStandard.sol\";\nimport {IERC20} from '@openzeppelin/contracts/token/ERC20/IERC20.sol';\n\n/**\n* @title ERC20CollateralPayment\n* @author Carson Case\n* @notice this is an example of a override of ERC20PaymentStandard. This offers ERC20 collateral to be be added\n */\ncontract ERC20CollateralPayment is ERC20PaymentStandard{\n    /// @notice collateral info is stored in a struct/mapping pair\n    struct collateral{\n        address ERC20Contract;\n        uint256 ammount;\n    }\n    mapping(uint256 => collateral) public collateralLookup;\n\n    /**\n    * @notice constructor just runs the ERC20PaymentStandard constructor\n    * @param _bonds is the contract address of bonds\n     */\n    constructor(address _bonds) ERC20PaymentStandard(_bonds){}\n\n    /**\n    * @notice addCollateral must be called before issuing loan\n    * @param _ERC20Contract address of the ERC20 you want to have as collaterall. DOES NOT have to be equal to payment ERC20\n    * @param _ammount is the ammount to add as collateral\n    * @param _loanId is the loan ID to add collateral to\n     */\n    function addCollateral(address _ERC20Contract, uint256 _ammount, uint256 _loanId) external{\n        require(loanLookup[_loanId].borrower == msg.sender, \"only the borrower can add collateral\");\n        IERC20 erc20 = IERC20(_ERC20Contract);\n        if(collateralLookup[_loanId].ammount == 0){\n            collateralLookup[_loanId] = collateral(_ERC20Contract, _ammount);\n        }else{\n            require(_ERC20Contract == collateralLookup[_loanId].ERC20Contract, \"When increasing collateral, you must use the same ERC20 address \");\n            collateralLookup[_loanId].ammount += _ammount;\n        }\n        erc20.transferFrom(msg.sender, address(this), _ammount);\n    }\n\n    /**\n    * @notice return Collateral when the loan is complete \n    * @param _loanId is the loan ID\n     */\n    function returnCollateral(uint256 _loanId) external{\n        require(msg.sender == loanLookup[_loanId].borrower, \"only the borrower can collect collateral\");\n        require(isComplete(_loanId) || !loanLookup[_loanId].issued, \"loan must be paid off or not started to collect collateral\");\n        IERC20 erc20 = IERC20(collateralLookup[_loanId].ERC20Contract);\n        erc20.transfer(msg.sender, collateralLookup[_loanId].ammount);\n    }\n\n    /**\n    * @notice MUST approve this contract to spend your ERC1155s in bonds. Used to have this auto handled by the on received function.\n    * However that was not a good idea as a hacker could create fake bonds.\n    * @param _id is the id of the bond to send in\n    * @param _amm is the ammount to send\n     */\n    function withdrawl(uint256 _id, uint256 _amm) external override{\n        IERC1155 erc1155 = IERC1155(bondContract);\n        IERC20 erc20 = IERC20(loanLookup[_id].ERC20Address);\n        IERC20 col = IERC20(collateralLookup[_id].ERC20Contract);\n        require(loanLookup[_id].issued, \"this loan has not been issued yet. How do you even have bonds for it???\");\n        require(_amm <= loanLookup[_id].awaitingCollection,\"There is not enough payments available for collection\");\n        erc1155.safeTransferFrom(msg.sender, address(this), _id, _amm, \"\");\n        erc20.transfer(msg.sender, _amm);\n        if(isDelinquent(_id) && collateralLookup[_id].ammount !=0){\n            if(collateralLookup[_id].ammount < _amm){\n                collateralLookup[_id].ammount = 0;\n                col.transfer(msg.sender, collateralLookup[_id].ammount);\n            }else{\n                collateralLookup[_id].ammount -= _amm;\n                col.transfer(msg.sender, _amm);\n            }\n        }\n    }\n}",
  "sourcePath": "/home/carson/Documents/linkHackathon2021/loan-wolf/contracts/contracts/ERC20CollateralPayment.sol",
  "compiler": {
    "name": "solc",
    "version": "0.8.1+commit.df193b15.Emscripten.clang"
  },
  "schemaVersion": "3.3.4",
  "updatedAt": "2021-04-06T01:53:48.062Z",
  "networkType": "ethereum",
  "devdoc": {
    "author": "Carson Case",
    "kind": "dev",
    "methods": {
      "addCollateral(address,uint256,uint256)": {
        "params": {
          "_ERC20Contract": "address of the ERC20 you want to have as collaterall. DOES NOT have to be equal to payment ERC20",
          "_ammount": "is the ammount to add as collateral",
          "_loanId": "is the loan ID to add collateral to"
        }
      },
      "addInterest(uint256,uint256)": {
        "params": {
          "_amm": "the ammount of interest to add",
          "_id": "is the id of the loan"
        },
        "returns": {
          "_0": "true if added. Will not add interest if payment has been completed. This prevents lenders from refusing to end a loan when it is rightfully over by forever increasing the totalPaymentsValue through interest staking and never fully collecting payment. This also means that if lenders do not realize interest gains soon enough they may not be able to collect them before the borrower can complete the loan."
        }
      },
      "configureNew(address,address,uint256,uint256,uint256,uint256,uint256)": {
        "details": "borrower is msg.sender for testing. In production might want to make this a param",
        "params": {
          "_accrualPeriod": "the time it takes for interest to accrue in seconds",
          "_borrower": "is the borrower loan is being configured for. Keep in mind. ONLY this borrower can mint bonds to start the loan",
          "_erc20": "is the ERC20 contract address that will be used for payments",
          "_inverseInterestRate": "the interest rate expressed as inverse. 2% = 1/5 = inverse of 5",
          "_minPayment": "is the minimum payment that must be made before the payment period ends",
          "_paymentPeriod": "payment must be made by this time or delinquent function will return true",
          "_principal": "the origional loan value before interest"
        },
        "returns": {
          "_0": "the id it just created"
        }
      },
      "constructor": {
        "params": {
          "_bonds": "is the contract address of bonds"
        }
      },
      "getId(address,uint256)": {
        "params": {
          "_borrower": "is borrower",
          "_index": "is the index in the borrowers loan array"
        },
        "returns": {
          "_0": "the loan ID"
        }
      },
      "getInterest(uint256)": {
        "params": {
          "_id": "is the loan ID"
        },
        "returns": {
          "_0": "inverse interest rate"
        }
      },
      "getNumberOfLoans(address)": {
        "params": {
          "_who": "is who to look up"
        },
        "returns": {
          "_0": "length"
        }
      },
      "isComplete(uint256)": {
        "params": {
          "_id": "of loan to check"
        },
        "returns": {
          "_0": "return if the contract is payed off or not as bool"
        }
      },
      "isDelinquent(uint256)": {
        "params": {
          "_id": "is the hash id of the loan. Same as bond ERC1155 ID as well"
        },
        "returns": {
          "_0": "if delinquent or not. Meaning missed a payment"
        }
      },
      "issueBonds(uint256)": {
        "params": {
          "_id": "loan ID"
        },
        "returns": {
          "_0": "the loan principal (so bonds knows how many NFTs to mint)",
          "_1": "the borrowers address (so bonds can make sure borrower is calling this function)"
        }
      },
      "payment(uint256,uint256)": {
        "params": {
          "_erc20Ammount": "is ammount in loan's ERC20 to pay",
          "_id": "to pay off"
        }
      },
      "returnCollateral(uint256)": {
        "params": {
          "_loanId": "is the loan ID"
        }
      },
      "supportsInterface(bytes4)": {
        "details": "See {IERC165-supportsInterface}."
      },
      "withdrawl(uint256,uint256)": {
        "params": {
          "_amm": "is the ammount to send",
          "_id": "is the id of the bond to send in"
        }
      }
    },
    "title": "ERC20CollateralPayment",
    "version": 1
  },
  "userdoc": {
    "kind": "user",
    "methods": {
      "addCollateral(address,uint256,uint256)": {
        "notice": "addCollateral must be called before issuing loan"
      },
      "addInterest(uint256,uint256)": {
        "notice": "Called each time new NFTs are minted by staking"
      },
      "configureNew(address,address,uint256,uint256,uint256,uint256,uint256)": {
        "notice": "contract must be configured before bonds are issued. Pushes new loan to array for user"
      },
      "constructor": {
        "notice": "constructor just runs the ERC20PaymentStandard constructor"
      },
      "getId(address,uint256)": {
        "notice": "Returns the ID for a loan given the borrower and index in the array"
      },
      "getInterest(uint256)": {
        "notice": "get the interest rate of a loan. Makes it easy for other contract since it doens't have to use parse struct"
      },
      "getNumberOfLoans(address)": {
        "notice": "gets the number of loans a person has"
      },
      "isComplete(uint256)": {
        "notice": "helper function"
      },
      "isDelinquent(uint256)": {
        "notice": "This contract is not very forgiving. Miss one payment and you're marked as delinquent. Unless contract is complete"
      },
      "issueBonds(uint256)": {
        "notice": "called when bonds are issued so as to make sure lender can only mint bonds once."
      },
      "payment(uint256,uint256)": {
        "notice": "function handles the payment of the loan. Does not have to be borrower as payment comes in. The contract holds it until collection by bond owners. MUST APPROVE FIRST in ERC20 contract first"
      },
      "returnCollateral(uint256)": {
        "notice": "return Collateral when the loan is complete "
      },
      "withdrawl(uint256,uint256)": {
        "notice": "MUST approve this contract to spend your ERC1155s in bonds. Used to have this auto handled by the on received function. However that was not a good idea as a hacker could create fake bonds."
      }
    },
    "notice": "this is an example of a override of ERC20PaymentStandard. This offers ERC20 collateral to be be added",
    "version": 1
  }
}