{
  "contractName": "HackerBonds",
  "abi": [
    {
      "inputs": [],
      "stateMutability": "nonpayable",
      "type": "constructor"
    },
    {
      "anonymous": false,
      "inputs": [
        {
          "indexed": true,
          "internalType": "address",
          "name": "account",
          "type": "address"
        },
        {
          "indexed": true,
          "internalType": "address",
          "name": "operator",
          "type": "address"
        },
        {
          "indexed": false,
          "internalType": "bool",
          "name": "approved",
          "type": "bool"
        }
      ],
      "name": "ApprovalForAll",
      "type": "event"
    },
    {
      "anonymous": false,
      "inputs": [
        {
          "indexed": true,
          "internalType": "address",
          "name": "operator",
          "type": "address"
        },
        {
          "indexed": true,
          "internalType": "address",
          "name": "from",
          "type": "address"
        },
        {
          "indexed": true,
          "internalType": "address",
          "name": "to",
          "type": "address"
        },
        {
          "indexed": false,
          "internalType": "uint256[]",
          "name": "ids",
          "type": "uint256[]"
        },
        {
          "indexed": false,
          "internalType": "uint256[]",
          "name": "values",
          "type": "uint256[]"
        }
      ],
      "name": "TransferBatch",
      "type": "event"
    },
    {
      "anonymous": false,
      "inputs": [
        {
          "indexed": true,
          "internalType": "address",
          "name": "operator",
          "type": "address"
        },
        {
          "indexed": true,
          "internalType": "address",
          "name": "from",
          "type": "address"
        },
        {
          "indexed": true,
          "internalType": "address",
          "name": "to",
          "type": "address"
        },
        {
          "indexed": false,
          "internalType": "uint256",
          "name": "id",
          "type": "uint256"
        },
        {
          "indexed": false,
          "internalType": "uint256",
          "name": "value",
          "type": "uint256"
        }
      ],
      "name": "TransferSingle",
      "type": "event"
    },
    {
      "anonymous": false,
      "inputs": [
        {
          "indexed": false,
          "internalType": "string",
          "name": "value",
          "type": "string"
        },
        {
          "indexed": true,
          "internalType": "uint256",
          "name": "id",
          "type": "uint256"
        }
      ],
      "name": "URI",
      "type": "event"
    },
    {
      "inputs": [
        {
          "internalType": "address",
          "name": "account",
          "type": "address"
        },
        {
          "internalType": "uint256",
          "name": "id",
          "type": "uint256"
        }
      ],
      "name": "balanceOf",
      "outputs": [
        {
          "internalType": "uint256",
          "name": "",
          "type": "uint256"
        }
      ],
      "stateMutability": "view",
      "type": "function"
    },
    {
      "inputs": [
        {
          "internalType": "address[]",
          "name": "accounts",
          "type": "address[]"
        },
        {
          "internalType": "uint256[]",
          "name": "ids",
          "type": "uint256[]"
        }
      ],
      "name": "balanceOfBatch",
      "outputs": [
        {
          "internalType": "uint256[]",
          "name": "",
          "type": "uint256[]"
        }
      ],
      "stateMutability": "view",
      "type": "function"
    },
    {
      "inputs": [
        {
          "internalType": "address",
          "name": "account",
          "type": "address"
        },
        {
          "internalType": "address",
          "name": "operator",
          "type": "address"
        }
      ],
      "name": "isApprovedForAll",
      "outputs": [
        {
          "internalType": "bool",
          "name": "",
          "type": "bool"
        }
      ],
      "stateMutability": "view",
      "type": "function"
    },
    {
      "inputs": [
        {
          "internalType": "address",
          "name": "from",
          "type": "address"
        },
        {
          "internalType": "address",
          "name": "to",
          "type": "address"
        },
        {
          "internalType": "uint256[]",
          "name": "ids",
          "type": "uint256[]"
        },
        {
          "internalType": "uint256[]",
          "name": "amounts",
          "type": "uint256[]"
        },
        {
          "internalType": "bytes",
          "name": "data",
          "type": "bytes"
        }
      ],
      "name": "safeBatchTransferFrom",
      "outputs": [],
      "stateMutability": "nonpayable",
      "type": "function"
    },
    {
      "inputs": [
        {
          "internalType": "address",
          "name": "from",
          "type": "address"
        },
        {
          "internalType": "address",
          "name": "to",
          "type": "address"
        },
        {
          "internalType": "uint256",
          "name": "id",
          "type": "uint256"
        },
        {
          "internalType": "uint256",
          "name": "amount",
          "type": "uint256"
        },
        {
          "internalType": "bytes",
          "name": "data",
          "type": "bytes"
        }
      ],
      "name": "safeTransferFrom",
      "outputs": [],
      "stateMutability": "nonpayable",
      "type": "function"
    },
    {
      "inputs": [
        {
          "internalType": "address",
          "name": "operator",
          "type": "address"
        },
        {
          "internalType": "bool",
          "name": "approved",
          "type": "bool"
        }
      ],
      "name": "setApprovalForAll",
      "outputs": [],
      "stateMutability": "nonpayable",
      "type": "function"
    },
    {
      "inputs": [
        {
          "internalType": "bytes4",
          "name": "interfaceId",
          "type": "bytes4"
        }
      ],
      "name": "supportsInterface",
      "outputs": [
        {
          "internalType": "bool",
          "name": "",
          "type": "bool"
        }
      ],
      "stateMutability": "view",
      "type": "function"
    },
    {
      "inputs": [
        {
          "internalType": "uint256",
          "name": "",
          "type": "uint256"
        }
      ],
      "name": "uri",
      "outputs": [
        {
          "internalType": "string",
          "name": "",
          "type": "string"
        }
      ],
      "stateMutability": "view",
      "type": "function"
    },
    {
      "inputs": [
        {
          "internalType": "uint256",
          "name": "_amm",
          "type": "uint256"
        },
        {
          "internalType": "uint256",
          "name": "_id",
          "type": "uint256"
        }
      ],
      "name": "mintFakes",
      "outputs": [],
      "stateMutability": "nonpayable",
      "type": "function"
    }
  ],
  "bytecode": "0x60806040523480156200001157600080fd5b5060408051808201909152601e81527f68747470733a2f2f746573742e636f6d2f6170692f7b69647d2e6a736f6e000060208201526200005a8164010000000062000061810204565b5062000176565b8051620000769060029060208401906200007a565b5050565b828054620000889062000120565b90600052602060002090601f016020900481019282620000ac5760008555620000f7565b82601f10620000c757805160ff1916838001178555620000f7565b82800160010185558215620000f7579182015b82811115620000f7578251825591602001919060010190620000da565b506200010592915062000109565b5090565b5b808211156200010557600081556001016200010a565b6002810460018216806200013557607f821691505b6020821081141562000170577f4e487b7100000000000000000000000000000000000000000000000000000000600052602260045260246000fd5b50919050565b6118e580620001866000396000f3fe608060405234801561001057600080fd5b50600436106100af576000357c0100000000000000000000000000000000000000000000000000000000900480634e1273f4116100835780634e1273f4146101325780635a20364b14610152578063a22cb46514610165578063e985e9c514610178578063f242432a1461018b576100af565b8062fdd58e146100b457806301ffc9a7146100dd5780630e89341c146100fd5780632eb2c2d61461011d575b600080fd5b6100c76100c2366004610fc0565b61019e565b6040516100d491906116ae565b60405180910390f35b6100f06100eb3660046110b2565b6101f8565b6040516100d49190611291565b61011061010b3660046110f1565b610272565b6040516100d4919061129c565b61013061012b366004610e7d565b610306565b005b610145610140366004610fe9565b61057e565b6040516100d49190611250565b610130610160366004611109565b6106ad565b610130610173366004610f86565b6106cc565b6100f0610186366004610e4b565b61079d565b610130610199366004610f23565b6107cb565b6000600160a060020a0383166101d25760405160e560020a62461bcd0281526004016101c990611369565b60405180910390fd5b50600090815260208181526040808320600160a060020a03949094168352929052205490565b6000600160e060020a031982167fd9b67a2600000000000000000000000000000000000000000000000000000000148061025b5750600160e060020a031982167f0e89341c00000000000000000000000000000000000000000000000000000000145b8061026a575061026a8261096a565b90505b919050565b60606002805461028190611718565b80601f01602080910402602001604051908101604052809291908181526020018280546102ad90611718565b80156102fa5780601f106102cf576101008083540402835291602001916102fa565b820191906000526020600020905b8154815290600101906020018083116102dd57829003601f168201915b50505050509050919050565b815183511461032a5760405160e560020a62461bcd0281526004016101c9906115f4565b600160a060020a0384166103535760405160e560020a62461bcd0281526004016101c990611423565b61035b61099c565b600160a060020a031685600160a060020a0316148061038157506103818561018661099c565b6103a05760405160e560020a62461bcd0281526004016101c990611480565b60006103aa61099c565b90506103ba818787878787610576565b60005b84518110156105105760008582815181106103eb5760e060020a634e487b7102600052603260045260246000fd5b60200260200101519050600085838151811061041a5760e060020a634e487b7102600052603260045260246000fd5b60209081029190910181015160008481528083526040808220600160a060020a038e16835290935291909120549091508181101561046d5760405160e560020a62461bcd0281526004016101c9906114dd565b6104778282611701565b60008085815260200190815260200160002060008c600160a060020a0316600160a060020a03168152602001908152602001600020819055508160008085815260200190815260200160002060008b600160a060020a0316600160a060020a0316815260200190815260200160002060008282546104f591906116e9565b925050819055505050508061050990611783565b90506103bd565b5084600160a060020a031686600160a060020a031682600160a060020a03167f4a39dc06d4c0dbc64b70af90fd698a233a518aa5d07e595d983b8c0526c8f7fb8787604051610560929190611263565b60405180910390a46105768187878787876109a1565b505050505050565b606081518351146105a45760405160e560020a62461bcd0281526004016101c990611597565b6000835167ffffffffffffffff8111156105d15760e060020a634e487b7102600052604160045260246000fd5b6040519080825280602002602001820160405280156105fa578160200160208202803683370190505b50905060005b84518110156106a55761066785828151811061062f5760e060020a634e487b7102600052603260045260246000fd5b602002602001015185838151811061065a5760e060020a634e487b7102600052603260045260246000fd5b602002602001015161019e565b82828151811061068a5760e060020a634e487b7102600052603260045260246000fd5b602090810291909101015261069e81611783565b9050610600565b509392505050565b6106c833828460405180602001604052806000815250610b01565b5050565b81600160a060020a03166106de61099c565b600160a060020a031614156107085760405160e560020a62461bcd0281526004016101c99061153a565b806001600061071561099c565b600160a060020a03908116825260208083019390935260409182016000908120918716808252919093529120805460ff19169215159290921790915561075961099c565b600160a060020a03167f17307eab39ab6107e8899845ad3d59bd9653f200f220920489ca2b5937696c31836040516107919190611291565b60405180910390a35050565b600160a060020a03918216600090815260016020908152604080832093909416825291909152205460ff1690565b600160a060020a0384166107f45760405160e560020a62461bcd0281526004016101c990611423565b6107fc61099c565b600160a060020a031685600160a060020a0316148061082257506108228561018661099c565b6108415760405160e560020a62461bcd0281526004016101c9906113c6565b600061084b61099c565b905061086b81878761085c88610beb565b61086588610beb565b87610576565b600084815260208181526040808320600160a060020a038a168452909152902054838110156108af5760405160e560020a62461bcd0281526004016101c9906114dd565b6108b98482611701565b600086815260208181526040808320600160a060020a038c811685529252808320939093558816815290812080548692906108f59084906116e9565b9250508190555085600160a060020a031687600160a060020a031683600160a060020a03167fc3d58168c5ae7397731d063d5bbf3d657854427343f4c083240f7aacaa2d0f62888860405161094b9291906116b7565b60405180910390a4610961828888888888610c47565b50505050505050565b600160e060020a031981167f01ffc9a70000000000000000000000000000000000000000000000000000000014919050565b335b90565b6109b384600160a060020a0316610d4d565b15610576576040517fbc197c81000000000000000000000000000000000000000000000000000000008152600160a060020a0385169063bc197c8190610a0590899089908890889088906004016111af565b602060405180830381600087803b158015610a1f57600080fd5b505af1925050508015610a4f575060408051601f3d908101601f19168201909252610a4c918101906110d5565b60015b610ab557610a5b6117d0565b806308c379a01415610a985750610a70611804565b80610a7b5750610a9a565b8060405160e560020a62461bcd0281526004016101c9919061129c565b505b60405160e560020a62461bcd0281526004016101c9906112af565b600160e060020a031981167fbc197c8100000000000000000000000000000000000000000000000000000000146109615760405160e560020a62461bcd0281526004016101c99061130c565b600160a060020a038416610b2a5760405160e560020a62461bcd0281526004016101c990611651565b6000610b3461099c565b9050610b468160008761085c88610beb565b600084815260208181526040808320600160a060020a038916845290915281208054859290610b769084906116e9565b9250508190555084600160a060020a03166000600160a060020a031682600160a060020a03167fc3d58168c5ae7397731d063d5bbf3d657854427343f4c083240f7aacaa2d0f628787604051610bcd9291906116b7565b60405180910390a4610be481600087878787610c47565b5050505050565b60408051600180825281830190925260609160009190602080830190803683370190505090508281600081518110610c365760e060020a634e487b7102600052603260045260246000fd5b602090810291909101015292915050565b610c5984600160a060020a0316610d4d565b15610576576040517ff23a6e61000000000000000000000000000000000000000000000000000000008152600160a060020a0385169063f23a6e6190610cab908990899088908890889060040161120d565b602060405180830381600087803b158015610cc557600080fd5b505af1925050508015610cf5575060408051601f3d908101601f19168201909252610cf2918101906110d5565b60015b610d0157610a5b6117d0565b600160e060020a031981167ff23a6e6100000000000000000000000000000000000000000000000000000000146109615760405160e560020a62461bcd0281526004016101c99061130c565b3b151590565b8035600160a060020a038116811461026d57600080fd5b600082601f830112610d7a578081fd5b81356020610d87826116c5565b604051610d948282611756565b838152828101915085830183850287018401881015610db1578586fd5b855b85811015610dcf57813584529284019290840190600101610db3565b5090979650505050505050565b600082601f830112610dec578081fd5b813567ffffffffffffffff811115610e0657610e066117b7565b604051610e1d601f8301601f191660200182611756565b818152846020838601011115610e31578283fd5b816020850160208301379081016020019190915292915050565b60008060408385031215610e5d578182fd5b610e6683610d53565b9150610e7460208401610d53565b90509250929050565b600080600080600060a08688031215610e94578081fd5b610e9d86610d53565b9450610eab60208701610d53565b9350604086013567ffffffffffffffff80821115610ec7578283fd5b610ed389838a01610d6a565b94506060880135915080821115610ee8578283fd5b610ef489838a01610d6a565b93506080880135915080821115610f09578283fd5b50610f1688828901610ddc565b9150509295509295909350565b600080600080600060a08688031215610f3a578081fd5b610f4386610d53565b9450610f5160208701610d53565b93506040860135925060608601359150608086013567ffffffffffffffff811115610f7a578182fd5b610f1688828901610ddc565b60008060408385031215610f98578182fd5b610fa183610d53565b915060208301358015158114610fb5578182fd5b809150509250929050565b60008060408385031215610fd2578182fd5b610fdb83610d53565b946020939093013593505050565b60008060408385031215610ffb578182fd5b823567ffffffffffffffff80821115611012578384fd5b818501915085601f830112611025578384fd5b81356020611032826116c5565b60405161103f8282611756565b8381528281019150858301838502870184018b101561105c578889fd5b8896505b848710156110855761107181610d53565b835260019690960195918301918301611060565b509650508601359250508082111561109b578283fd5b506110a885828601610d6a565b9150509250929050565b6000602082840312156110c3578081fd5b81356110ce81611896565b9392505050565b6000602082840312156110e6578081fd5b81516110ce81611896565b600060208284031215611102578081fd5b5035919050565b6000806040838503121561111b578182fd5b50508035926020909101359150565b6000815180845260208085019450808401835b838110156111595781518752958201959082019060010161113d565b509495945050505050565b60008151808452815b818110156111895760208185018101518683018201520161116d565b8181111561119a5782602083870101525b50601f01601f19169290920160200192915050565b6000600160a060020a03808816835280871660208401525060a060408301526111db60a083018661112a565b82810360608401526111ed818661112a565b905082810360808401526112018185611164565b98975050505050505050565b6000600160a060020a03808816835280871660208401525084604083015283606083015260a0608083015261124560a0830184611164565b979650505050505050565b6000602082526110ce602083018461112a565b600060408252611276604083018561112a565b8281036020840152611288818561112a565b95945050505050565b901515815260200190565b6000602082526110ce6020830184611164565b60208082526034908201527f455243313135353a207472616e7366657220746f206e6f6e204552433131353560408201527f526563656976657220696d706c656d656e746572000000000000000000000000606082015260800190565b60208082526028908201527f455243313135353a204552433131353552656365697665722072656a6563746560408201527f6420746f6b656e73000000000000000000000000000000000000000000000000606082015260800190565b6020808252602b908201527f455243313135353a2062616c616e636520717565727920666f7220746865207a60408201527f65726f2061646472657373000000000000000000000000000000000000000000606082015260800190565b60208082526029908201527f455243313135353a2063616c6c6572206973206e6f74206f776e6572206e6f7260408201527f20617070726f7665640000000000000000000000000000000000000000000000606082015260800190565b60208082526025908201527f455243313135353a207472616e7366657220746f20746865207a65726f20616460408201527f6472657373000000000000000000000000000000000000000000000000000000606082015260800190565b60208082526032908201527f455243313135353a207472616e736665722063616c6c6572206973206e6f742060408201527f6f776e6572206e6f7220617070726f7665640000000000000000000000000000606082015260800190565b6020808252602a908201527f455243313135353a20696e73756666696369656e742062616c616e636520666f60408201527f72207472616e7366657200000000000000000000000000000000000000000000606082015260800190565b60208082526029908201527f455243313135353a2073657474696e6720617070726f76616c2073746174757360408201527f20666f722073656c660000000000000000000000000000000000000000000000606082015260800190565b60208082526029908201527f455243313135353a206163636f756e747320616e6420696473206c656e67746860408201527f206d69736d617463680000000000000000000000000000000000000000000000606082015260800190565b60208082526028908201527f455243313135353a2069647320616e6420616d6f756e7473206c656e6774682060408201527f6d69736d61746368000000000000000000000000000000000000000000000000606082015260800190565b60208082526021908201527f455243313135353a206d696e7420746f20746865207a65726f2061646472657360408201527f7300000000000000000000000000000000000000000000000000000000000000606082015260800190565b90815260200190565b918252602082015260400190565b600067ffffffffffffffff8211156116df576116df6117b7565b5060209081020190565b600082198211156116fc576116fc61179e565b500190565b6000828210156117135761171361179e565b500390565b60028104600182168061172c57607f821691505b602082108114156117505760e060020a634e487b7102600052602260045260246000fd5b50919050565b601f8201601f1916810167ffffffffffffffff8111828210171561177c5761177c6117b7565b6040525050565b60006000198214156117975761179761179e565b5060010190565b60e060020a634e487b7102600052601160045260246000fd5b60e060020a634e487b7102600052604160045260246000fd5b600060033d111561099e57600481823e517c0100000000000000000000000000000000000000000000000000000000900490565b600060443d10156118145761099e565b6040516003193d81016004833e81513d67ffffffffffffffff816024840111818411171561184657505050505061099e565b82850191508151818111156118605750505050505061099e565b843d870101602082850101111561187c5750505050505061099e565b61188b60208286010187611756565b509094505050505090565b600160e060020a0319811681146118ac57600080fd5b5056fea2646970667358221220888f16fde0682d4553fd40bf79794c3d0b22a77ba6582d1047a8f223dbc6ae2364736f6c63430008010033",
  "immutableReferences": {},
  "source": "/// SPDX-License-Identifier: None\npragma solidity ^0.8.0;\n\nimport \"@openzeppelin/contracts/token/ERC1155/ERC1155.sol\";\nimport {IERC20PaymentStandard} from '../IERC20PaymentStandard.sol';\n\ncontract HackerBonds is ERC1155 {\n\n    constructor() ERC1155(\"https://test.com/api/{id}.json\"){}\n\n    function mintFakes(uint256 _amm, uint256 _id) external{\n        _mint(msg.sender, _id, _amm, \"\");\n    }\n}\n\n",
  "sourcePath": "/home/carson/Documents/linkHackathon2021/loan-wolf/contracts/contracts/ tests/HackerBonds.sol",
  "compiler": {
    "name": "solc",
    "version": "0.8.1+commit.df193b15.Emscripten.clang"
  },
  "schemaVersion": "3.3.4",
  "updatedAt": "2021-04-10T02:55:55.712Z",
  "devdoc": {
    "kind": "dev",
    "methods": {
      "balanceOf(address,uint256)": {
        "details": "See {IERC1155-balanceOf}. Requirements: - `account` cannot be the zero address."
      },
      "balanceOfBatch(address[],uint256[])": {
        "details": "See {IERC1155-balanceOfBatch}. Requirements: - `accounts` and `ids` must have the same length."
      },
      "isApprovedForAll(address,address)": {
        "details": "See {IERC1155-isApprovedForAll}."
      },
      "safeBatchTransferFrom(address,address,uint256[],uint256[],bytes)": {
        "details": "See {IERC1155-safeBatchTransferFrom}."
      },
      "safeTransferFrom(address,address,uint256,uint256,bytes)": {
        "details": "See {IERC1155-safeTransferFrom}."
      },
      "setApprovalForAll(address,bool)": {
        "details": "See {IERC1155-setApprovalForAll}."
      },
      "supportsInterface(bytes4)": {
        "details": "See {IERC165-supportsInterface}."
      },
      "uri(uint256)": {
        "details": "See {IERC1155MetadataURI-uri}. This implementation returns the same URI for *all* token types. It relies on the token type ID substitution mechanism https://eips.ethereum.org/EIPS/eip-1155#metadata[defined in the EIP]. Clients calling this function must replace the `\\{id\\}` substring with the actual token type ID."
      }
    },
    "version": 1
  },
  "userdoc": {
    "kind": "user",
    "methods": {},
    "version": 1
  }
}