{
  "contractName": "HackerBonds",
  "abi": [
    {
      "inputs": [],
      "stateMutability": "nonpayable",
      "type": "constructor"
    },
    {
      "anonymous": false,
      "inputs": [
        {
          "indexed": true,
          "internalType": "address",
          "name": "account",
          "type": "address"
        },
        {
          "indexed": true,
          "internalType": "address",
          "name": "operator",
          "type": "address"
        },
        {
          "indexed": false,
          "internalType": "bool",
          "name": "approved",
          "type": "bool"
        }
      ],
      "name": "ApprovalForAll",
      "type": "event"
    },
    {
      "anonymous": false,
      "inputs": [
        {
          "indexed": true,
          "internalType": "address",
          "name": "operator",
          "type": "address"
        },
        {
          "indexed": true,
          "internalType": "address",
          "name": "from",
          "type": "address"
        },
        {
          "indexed": true,
          "internalType": "address",
          "name": "to",
          "type": "address"
        },
        {
          "indexed": false,
          "internalType": "uint256[]",
          "name": "ids",
          "type": "uint256[]"
        },
        {
          "indexed": false,
          "internalType": "uint256[]",
          "name": "values",
          "type": "uint256[]"
        }
      ],
      "name": "TransferBatch",
      "type": "event"
    },
    {
      "anonymous": false,
      "inputs": [
        {
          "indexed": true,
          "internalType": "address",
          "name": "operator",
          "type": "address"
        },
        {
          "indexed": true,
          "internalType": "address",
          "name": "from",
          "type": "address"
        },
        {
          "indexed": true,
          "internalType": "address",
          "name": "to",
          "type": "address"
        },
        {
          "indexed": false,
          "internalType": "uint256",
          "name": "id",
          "type": "uint256"
        },
        {
          "indexed": false,
          "internalType": "uint256",
          "name": "value",
          "type": "uint256"
        }
      ],
      "name": "TransferSingle",
      "type": "event"
    },
    {
      "anonymous": false,
      "inputs": [
        {
          "indexed": false,
          "internalType": "string",
          "name": "value",
          "type": "string"
        },
        {
          "indexed": true,
          "internalType": "uint256",
          "name": "id",
          "type": "uint256"
        }
      ],
      "name": "URI",
      "type": "event"
    },
    {
      "inputs": [
        {
          "internalType": "address",
          "name": "account",
          "type": "address"
        },
        {
          "internalType": "uint256",
          "name": "id",
          "type": "uint256"
        }
      ],
      "name": "balanceOf",
      "outputs": [
        {
          "internalType": "uint256",
          "name": "",
          "type": "uint256"
        }
      ],
      "stateMutability": "view",
      "type": "function"
    },
    {
      "inputs": [
        {
          "internalType": "address[]",
          "name": "accounts",
          "type": "address[]"
        },
        {
          "internalType": "uint256[]",
          "name": "ids",
          "type": "uint256[]"
        }
      ],
      "name": "balanceOfBatch",
      "outputs": [
        {
          "internalType": "uint256[]",
          "name": "",
          "type": "uint256[]"
        }
      ],
      "stateMutability": "view",
      "type": "function"
    },
    {
      "inputs": [
        {
          "internalType": "address",
          "name": "account",
          "type": "address"
        },
        {
          "internalType": "address",
          "name": "operator",
          "type": "address"
        }
      ],
      "name": "isApprovedForAll",
      "outputs": [
        {
          "internalType": "bool",
          "name": "",
          "type": "bool"
        }
      ],
      "stateMutability": "view",
      "type": "function"
    },
    {
      "inputs": [
        {
          "internalType": "address",
          "name": "from",
          "type": "address"
        },
        {
          "internalType": "address",
          "name": "to",
          "type": "address"
        },
        {
          "internalType": "uint256[]",
          "name": "ids",
          "type": "uint256[]"
        },
        {
          "internalType": "uint256[]",
          "name": "amounts",
          "type": "uint256[]"
        },
        {
          "internalType": "bytes",
          "name": "data",
          "type": "bytes"
        }
      ],
      "name": "safeBatchTransferFrom",
      "outputs": [],
      "stateMutability": "nonpayable",
      "type": "function"
    },
    {
      "inputs": [
        {
          "internalType": "address",
          "name": "from",
          "type": "address"
        },
        {
          "internalType": "address",
          "name": "to",
          "type": "address"
        },
        {
          "internalType": "uint256",
          "name": "id",
          "type": "uint256"
        },
        {
          "internalType": "uint256",
          "name": "amount",
          "type": "uint256"
        },
        {
          "internalType": "bytes",
          "name": "data",
          "type": "bytes"
        }
      ],
      "name": "safeTransferFrom",
      "outputs": [],
      "stateMutability": "nonpayable",
      "type": "function"
    },
    {
      "inputs": [
        {
          "internalType": "address",
          "name": "operator",
          "type": "address"
        },
        {
          "internalType": "bool",
          "name": "approved",
          "type": "bool"
        }
      ],
      "name": "setApprovalForAll",
      "outputs": [],
      "stateMutability": "nonpayable",
      "type": "function"
    },
    {
      "inputs": [
        {
          "internalType": "bytes4",
          "name": "interfaceId",
          "type": "bytes4"
        }
      ],
      "name": "supportsInterface",
      "outputs": [
        {
          "internalType": "bool",
          "name": "",
          "type": "bool"
        }
      ],
      "stateMutability": "view",
      "type": "function"
    },
    {
      "inputs": [
        {
          "internalType": "uint256",
          "name": "",
          "type": "uint256"
        }
      ],
      "name": "uri",
      "outputs": [
        {
          "internalType": "string",
          "name": "",
          "type": "string"
        }
      ],
      "stateMutability": "view",
      "type": "function"
    },
    {
      "inputs": [
        {
          "internalType": "uint256",
          "name": "_amm",
          "type": "uint256"
        },
        {
          "internalType": "uint256",
          "name": "_id",
          "type": "uint256"
        }
      ],
      "name": "mintFakes",
      "outputs": [],
      "stateMutability": "nonpayable",
      "type": "function"
    }
  ],
  "bytecode": "0x60806040523480156200001157600080fd5b5060408051808201909152601e81527f68747470733a2f2f746573742e636f6d2f6170692f7b69647d2e6a736f6e000060208201526200007a7f01ffc9a700000000000000000000000000000000000000000000000000000000640100000000620000fd810204565b6200008e81640100000000620001cc810204565b620000c27fd9b67a2600000000000000000000000000000000000000000000000000000000640100000000620000fd810204565b620000f67f0e89341c00000000000000000000000000000000000000000000000000000000640100000000620000fd810204565b506200028a565b7fffffffff0000000000000000000000000000000000000000000000000000000080821614156200018f57604080517f08c379a000000000000000000000000000000000000000000000000000000000815260206004820152601c60248201527f4552433136353a20696e76616c696420696e7465726661636520696400000000604482015290519081900360640190fd5b7fffffffff00000000000000000000000000000000000000000000000000000000166000908152602081905260409020805460ff19166001179055565b8051620001e1906003906020840190620001e5565b5050565b828054600181600116156101000203166002900490600052602060002090601f016020900481019282601f106200022857805160ff191683800117855562000258565b8280016001018555821562000258579182015b82811115620002585782518255916020019190600101906200023b565b50620002669291506200026a565b5090565b6200028791905b8082111562000266576000815560010162000271565b90565b6118a2806200029a6000396000f3fe608060405234801561001057600080fd5b50600436106100965760003560e060020a900480634e1273f41161006a5780634e1273f41461036f5780635a20364b146104e6578063a22cb46514610509578063e985e9c514610537578063f242432a1461056557610096565b8062fdd58e1461009b57806301ffc9a7146100d95780630e89341c146101145780632eb2c2d6146101a6575b600080fd5b6100c7600480360360408110156100b157600080fd5b50600160a060020a038135169060200135610630565b60408051918252519081900360200190f35b610100600480360360208110156100ef57600080fd5b5035600160e060020a0319166106a2565b604080519115158252519081900360200190f35b6101316004803603602081101561012a57600080fd5b50356106c1565b6040805160208082528351818301528351919283929083019185019080838360005b8381101561016b578181015183820152602001610153565b50505050905090810190601f1680156101985780820380516001836020036101000a031916815260200191505b509250505060405180910390f35b61036d600480360360a08110156101bc57600080fd5b600160a060020a0382358116926020810135909116918101906060810160408201356401000000008111156101f057600080fd5b82018360208201111561020257600080fd5b8035906020019184602083028401116401000000008311171561022457600080fd5b919080806020026020016040519081016040528093929190818152602001838360200280828437600092019190915250929594936020810193503591505064010000000081111561027457600080fd5b82018360208201111561028657600080fd5b803590602001918460208302840111640100000000831117156102a857600080fd5b91908080602002602001604051908101604052809392919081815260200183836020028082843760009201919091525092959493602081019350359150506401000000008111156102f857600080fd5b82018360208201111561030a57600080fd5b8035906020019184600183028401116401000000008311171561032c57600080fd5b91908080601f016020809104026020016040519081016040528093929190818152602001838380828437600092019190915250929550610759945050505050565b005b6104966004803603604081101561038557600080fd5b8101906020810181356401000000008111156103a057600080fd5b8201836020820111156103b257600080fd5b803590602001918460208302840111640100000000831117156103d457600080fd5b919080806020026020016040519081016040528093929190818152602001838360200280828437600092019190915250929594936020810193503591505064010000000081111561042457600080fd5b82018360208201111561043657600080fd5b8035906020019184602083028401116401000000008311171561045857600080fd5b919080806020026020016040519081016040528093929190818152602001838360200280828437600092019190915250929550610a60945050505050565b60408051602080825283518183015283519192839290830191858101910280838360005b838110156104d25781810151838201526020016104ba565b505050509050019250505060405180910390f35b61036d600480360360408110156104fc57600080fd5b5080359060200135610be4565b61036d6004803603604081101561051f57600080fd5b50600160a060020a0381351690602001351515610c03565b6101006004803603604081101561054d57600080fd5b50600160a060020a0381358116916020013516610cf5565b61036d600480360360a081101561057b57600080fd5b600160a060020a03823581169260208101359091169160408201359160608101359181019060a0810160808201356401000000008111156105bb57600080fd5b8201836020820111156105cd57600080fd5b803590602001918460018302840111640100000000831117156105ef57600080fd5b91908080601f016020809104026020016040519081016040528093929190818152602001838380828437600092019190915250929550610d23945050505050565b6000600160a060020a03831661067a5760405160e560020a62461bcd02815260040180806020018281038252602b8152602001806116cc602b913960400191505060405180910390fd5b506000908152600160209081526040808320600160a060020a03949094168352929052205490565b600160e060020a03191660009081526020819052604090205460ff1690565b60038054604080516020601f600260001961010060018816150201909516949094049384018190048102820181019092528281526060939092909183018282801561074d5780601f106107225761010080835404028352916020019161074d565b820191906000526020600020905b81548152906001019060200180831161073057829003601f168201915b50505050509050919050565b815183511461079c5760405160e560020a62461bcd0281526004018080602001828103825260288152602001806118246028913960400191505060405180910390fd5b600160a060020a0384166107e45760405160e560020a62461bcd0281526004018080602001828103825260258152602001806117516025913960400191505060405180910390fd5b6107ec610efa565b600160a060020a031685600160a060020a03161480610817575061081785610812610efa565b610cf5565b6108555760405160e560020a62461bcd0281526004018080602001828103825260328152602001806117766032913960400191505060405180910390fd5b600061085f610efa565b905061086f818787878787610a58565b60005b845181101561097057600085828151811061088957fe5b6020026020010151905060008583815181106108a157fe5b6020026020010151905061090e816040518060600160405280602a81526020016117a8602a91396001600086815260200190815260200160002060008d600160a060020a0316600160a060020a0316815260200190815260200160002054610efe9092919063ffffffff16565b6000838152600160209081526040808320600160a060020a038e811685529252808320939093558a16815220546109459082610f98565b6000928352600160208181526040808620600160a060020a038d168752909152909320555001610872565b5084600160a060020a031686600160a060020a031682600160a060020a03167f4a39dc06d4c0dbc64b70af90fd698a233a518aa5d07e595d983b8c0526c8f7fb8787604051808060200180602001838103835285818151815260200191508051906020019060200280838360005b838110156109f65781810151838201526020016109de565b50505050905001838103825284818151815260200191508051906020019060200280838360005b83811015610a35578181015183820152602001610a1d565b5050505090500194505050505060405180910390a4610a58818787878787610ffc565b505050505050565b60608151835114610aa55760405160e560020a62461bcd0281526004018080602001828103825260298152602001806117fb6029913960400191505060405180910390fd5b6060835167ffffffffffffffff81118015610abf57600080fd5b50604051908082528060200260200182016040528015610ae9578160200160208202803683370190505b50905060005b8451811015610bdc576000600160a060020a0316858281518110610b0f57fe5b6020026020010151600160a060020a03161415610b605760405160e560020a62461bcd0281526004018080602001828103825260318152602001806116f76031913960400191505060405180910390fd5b60016000858381518110610b7057fe5b602002602001015181526020019081526020016000206000868381518110610b9457fe5b6020026020010151600160a060020a0316600160a060020a0316815260200190815260200160002054828281518110610bc957fe5b6020908102919091010152600101610aef565b509392505050565b610bff33828460405180602001604052806000815250611362565b5050565b81600160a060020a0316610c15610efa565b600160a060020a03161415610c5e5760405160e560020a62461bcd0281526004018080602001828103825260298152602001806117d26029913960400191505060405180910390fd5b8060026000610c6b610efa565b600160a060020a03908116825260208083019390935260409182016000908120918716808252919093529120805460ff191692151592909217909155610caf610efa565b6040805184151581529051600160a060020a0392909216917f17307eab39ab6107e8899845ad3d59bd9653f200f220920489ca2b5937696c319181900360200190a35050565b600160a060020a03918216600090815260026020908152604080832093909416825291909152205460ff1690565b600160a060020a038416610d6b5760405160e560020a62461bcd0281526004018080602001828103825260258152602001806117516025913960400191505060405180910390fd5b610d73610efa565b600160a060020a031685600160a060020a03161480610d995750610d9985610812610efa565b610dd75760405160e560020a62461bcd0281526004018080602001828103825260298152602001806117286029913960400191505060405180910390fd5b6000610de1610efa565b9050610e01818787610df288611473565b610dfb88611473565b87610a58565b610e4e836040518060600160405280602a81526020016117a8602a91396000878152600160209081526040808320600160a060020a038d168452909152902054919063ffffffff610efe16565b6000858152600160209081526040808320600160a060020a038b81168552925280832093909355871681522054610e859084610f98565b6000858152600160209081526040808320600160a060020a03808b168086529184529382902094909455805188815291820187905280518a8416938616927fc3d58168c5ae7397731d063d5bbf3d657854427343f4c083240f7aacaa2d0f6292908290030190a4610a588187878787876114b7565b3390565b60008184841115610f905760405160e560020a62461bcd0281526004018080602001828103825283818151815260200191508051906020019080838360005b83811015610f55578181015183820152602001610f3d565b50505050905090810190601f168015610f825780820380516001836020036101000a031916815260200191505b509250505060405180910390fd5b505050900390565b600082820183811015610ff5576040805160e560020a62461bcd02815260206004820152601b60248201527f536166654d6174683a206164646974696f6e206f766572666c6f770000000000604482015290519081900360640190fd5b9392505050565b61100e84600160a060020a0316611669565b15610a585783600160a060020a031663bc197c8187878686866040518663ffffffff1660e060020a0281526004018086600160a060020a0316600160a060020a0316815260200185600160a060020a0316600160a060020a03168152602001806020018060200180602001848103845287818151815260200191508051906020019060200280838360005b838110156110b1578181015183820152602001611099565b50505050905001848103835286818151815260200191508051906020019060200280838360005b838110156110f05781810151838201526020016110d8565b50505050905001848103825285818151815260200191508051906020019080838360005b8381101561112c578181015183820152602001611114565b50505050905090810190601f1680156111595780820380516001836020036101000a031916815260200191505b5098505050505050505050602060405180830381600087803b15801561117e57600080fd5b505af19250505080156111a357506040513d602081101561119e57600080fd5b505160015b6112ee576040516000815260443d10156111bf5750600061125f565b60046000803e60e060020a600051046308c379a081146111e357600091505061125f565b60043d036004833e81513d602482011167ffffffffffffffff8211171561120f5760009250505061125f565b808301805167ffffffffffffffff81111561123157600094505050505061125f565b8060208301013d860181111561124f5760009550505050505061125f565b601f01601f191660405250925050505b8061126a57506112b4565b60405160e560020a62461bcd028152602060048201818152835160248401528351849391928392604401919085019080838360008315610f55578181015183820152602001610f3d565b60405160e560020a62461bcd0281526004018080602001828103825260348152602001806116706034913960400191505060405180910390fd5b600160e060020a031981167fbc197c8100000000000000000000000000000000000000000000000000000000146113595760405160e560020a62461bcd0281526004018080602001828103825260288152602001806116a46028913960400191505060405180910390fd5b50505050505050565b600160a060020a0384166113aa5760405160e560020a62461bcd02815260040180806020018281038252602181526020018061184c6021913960400191505060405180910390fd5b60006113b4610efa565b90506113c681600087610df288611473565b6000848152600160209081526040808320600160a060020a03891684529091529020546113f9908463ffffffff610f9816565b6000858152600160209081526040808320600160a060020a03808b16808652918452828520959095558151898152928301889052815190948616927fc3d58168c5ae7397731d063d5bbf3d657854427343f4c083240f7aacaa2d0f6292908290030190a461146c816000878787876114b7565b5050505050565b6040805160018082528183019092526060918291906020808301908036833701905050905082816000815181106114a657fe5b602090810291909101015292915050565b6114c984600160a060020a0316611669565b15610a585783600160a060020a031663f23a6e6187878686866040518663ffffffff1660e060020a0281526004018086600160a060020a0316600160a060020a0316815260200185600160a060020a0316600160a060020a0316815260200184815260200183815260200180602001828103825283818151815260200191508051906020019080838360005b8381101561156d578181015183820152602001611555565b50505050905090810190601f16801561159a5780820380516001836020036101000a031916815260200191505b509650505050505050602060405180830381600087803b1580156115bd57600080fd5b505af19250505080156115e257506040513d60208110156115dd57600080fd5b505160015b6115fe576040516000815260443d10156111bf5750600061125f565b600160e060020a031981167ff23a6e6100000000000000000000000000000000000000000000000000000000146113595760405160e560020a62461bcd0281526004018080602001828103825260288152602001806116a46028913960400191505060405180910390fd5b3b15159056fe455243313135353a207472616e7366657220746f206e6f6e2045524331313535526563656976657220696d706c656d656e746572455243313135353a204552433131353552656365697665722072656a656374656420746f6b656e73455243313135353a2062616c616e636520717565727920666f7220746865207a65726f2061646472657373455243313135353a2062617463682062616c616e636520717565727920666f7220746865207a65726f2061646472657373455243313135353a2063616c6c6572206973206e6f74206f776e6572206e6f7220617070726f766564455243313135353a207472616e7366657220746f20746865207a65726f2061646472657373455243313135353a207472616e736665722063616c6c6572206973206e6f74206f776e6572206e6f7220617070726f766564455243313135353a20696e73756666696369656e742062616c616e636520666f72207472616e73666572455243313135353a2073657474696e6720617070726f76616c2073746174757320666f722073656c66455243313135353a206163636f756e747320616e6420696473206c656e677468206d69736d61746368455243313135353a2069647320616e6420616d6f756e7473206c656e677468206d69736d61746368455243313135353a206d696e7420746f20746865207a65726f2061646472657373a264697066735822122016e3c205d8b7919cb20f8ff7de8edc009c9f8ee5963d19b146605a335ebff14664736f6c63430006060033",
  "immutableReferences": {},
  "source": "/// SPDX-License-Identifier: None\npragma solidity ^0.6.6;\n\nimport \"@openzeppelin/contracts/token/ERC1155/ERC1155.sol\";\nimport {IERC20PaymentStandard} from '../IERC20PaymentStandard.sol';\n\ncontract HackerBonds is ERC1155 {\n\n    constructor() ERC1155(\"https://test.com/api/{id}.json\") public{}\n\n    function mintFakes(uint256 _amm, uint256 _id) external{\n        _mint(msg.sender, _id, _amm, \"\");\n    }\n}\n\n",
  "sourcePath": "/home/carson/Documents/linkHackathon2021/loan-wolf/contracts/contracts/ tests/HackerBonds.sol",
  "compiler": {
    "name": "solc",
    "version": "0.6.6+commit.6c089d02.Emscripten.clang"
  },
  "schemaVersion": "3.3.4",
  "updatedAt": "2021-04-11T15:05:10.377Z",
  "devdoc": {
    "methods": {
      "balanceOf(address,uint256)": {
        "details": "See {IERC1155-balanceOf}.     * Requirements:     * - `account` cannot be the zero address."
      },
      "balanceOfBatch(address[],uint256[])": {
        "details": "See {IERC1155-balanceOfBatch}.     * Requirements:     * - `accounts` and `ids` must have the same length."
      },
      "isApprovedForAll(address,address)": {
        "details": "See {IERC1155-isApprovedForAll}."
      },
      "safeBatchTransferFrom(address,address,uint256[],uint256[],bytes)": {
        "details": "See {IERC1155-safeBatchTransferFrom}."
      },
      "safeTransferFrom(address,address,uint256,uint256,bytes)": {
        "details": "See {IERC1155-safeTransferFrom}."
      },
      "setApprovalForAll(address,bool)": {
        "details": "See {IERC1155-setApprovalForAll}."
      },
      "supportsInterface(bytes4)": {
        "details": "See {IERC165-supportsInterface}.     * Time complexity O(1), guaranteed to always use less than 30 000 gas."
      },
      "uri(uint256)": {
        "details": "See {IERC1155MetadataURI-uri}.     * This implementation returns the same URI for *all* token types. It relies on the token type ID substitution mechanism https://eips.ethereum.org/EIPS/eip-1155#metadata[defined in the EIP].     * Clients calling this function must replace the `\\{id\\}` substring with the actual token type ID."
      }
    }
  },
  "userdoc": {
    "methods": {}
  }
}