{
  "contractName": "PaymentAAveWrappedAPY",
  "abi": [
    {
      "inputs": [
        {
          "internalType": "address",
          "name": "_bondsContract",
          "type": "address"
        },
        {
          "internalType": "address",
          "name": "_aaveContract",
          "type": "address"
        }
      ],
      "stateMutability": "nonpayable",
      "type": "constructor"
    },
    {
      "anonymous": false,
      "inputs": [
        {
          "indexed": true,
          "internalType": "bytes32",
          "name": "id",
          "type": "bytes32"
        }
      ],
      "name": "ChainlinkCancelled",
      "type": "event"
    },
    {
      "anonymous": false,
      "inputs": [
        {
          "indexed": true,
          "internalType": "bytes32",
          "name": "id",
          "type": "bytes32"
        }
      ],
      "name": "ChainlinkFulfilled",
      "type": "event"
    },
    {
      "anonymous": false,
      "inputs": [
        {
          "indexed": true,
          "internalType": "bytes32",
          "name": "id",
          "type": "bytes32"
        }
      ],
      "name": "ChainlinkRequested",
      "type": "event"
    },
    {
      "inputs": [],
      "name": "aaveContract",
      "outputs": [
        {
          "internalType": "address",
          "name": "",
          "type": "address"
        }
      ],
      "stateMutability": "view",
      "type": "function"
    },
    {
      "inputs": [
        {
          "internalType": "uint256",
          "name": "_amm",
          "type": "uint256"
        },
        {
          "internalType": "uint256",
          "name": "_id",
          "type": "uint256"
        }
      ],
      "name": "addInterest",
      "outputs": [
        {
          "internalType": "bool",
          "name": "",
          "type": "bool"
        }
      ],
      "stateMutability": "nonpayable",
      "type": "function"
    },
    {
      "inputs": [],
      "name": "bondContract",
      "outputs": [
        {
          "internalType": "address",
          "name": "",
          "type": "address"
        }
      ],
      "stateMutability": "view",
      "type": "function"
    },
    {
      "inputs": [
        {
          "internalType": "bytes32",
          "name": "_requestId",
          "type": "bytes32"
        },
        {
          "internalType": "uint256",
          "name": "_merkleRoot",
          "type": "uint256"
        }
      ],
      "name": "fulfill",
      "outputs": [],
      "stateMutability": "nonpayable",
      "type": "function"
    },
    {
      "inputs": [
        {
          "internalType": "address",
          "name": "_borrower",
          "type": "address"
        },
        {
          "internalType": "uint256",
          "name": "_index",
          "type": "uint256"
        }
      ],
      "name": "getId",
      "outputs": [
        {
          "internalType": "uint256",
          "name": "",
          "type": "uint256"
        }
      ],
      "stateMutability": "view",
      "type": "function"
    },
    {
      "inputs": [
        {
          "internalType": "address",
          "name": "_who",
          "type": "address"
        }
      ],
      "name": "getNumberOfLoans",
      "outputs": [
        {
          "internalType": "uint256",
          "name": "",
          "type": "uint256"
        }
      ],
      "stateMutability": "view",
      "type": "function"
    },
    {
      "inputs": [
        {
          "internalType": "uint256",
          "name": "_id",
          "type": "uint256"
        }
      ],
      "name": "isComplete",
      "outputs": [
        {
          "internalType": "bool",
          "name": "",
          "type": "bool"
        }
      ],
      "stateMutability": "view",
      "type": "function"
    },
    {
      "inputs": [
        {
          "internalType": "uint256",
          "name": "_id",
          "type": "uint256"
        }
      ],
      "name": "isDelinquent",
      "outputs": [
        {
          "internalType": "bool",
          "name": "",
          "type": "bool"
        }
      ],
      "stateMutability": "view",
      "type": "function"
    },
    {
      "inputs": [
        {
          "internalType": "uint256",
          "name": "_id",
          "type": "uint256"
        }
      ],
      "name": "issueBonds",
      "outputs": [
        {
          "internalType": "uint256",
          "name": "",
          "type": "uint256"
        },
        {
          "internalType": "address",
          "name": "",
          "type": "address"
        }
      ],
      "stateMutability": "nonpayable",
      "type": "function"
    },
    {
      "inputs": [
        {
          "internalType": "address",
          "name": "",
          "type": "address"
        },
        {
          "internalType": "uint256",
          "name": "",
          "type": "uint256"
        }
      ],
      "name": "loanIDs",
      "outputs": [
        {
          "internalType": "uint256",
          "name": "",
          "type": "uint256"
        }
      ],
      "stateMutability": "view",
      "type": "function"
    },
    {
      "inputs": [
        {
          "internalType": "uint256",
          "name": "",
          "type": "uint256"
        }
      ],
      "name": "loanLookup",
      "outputs": [
        {
          "internalType": "bool",
          "name": "issued",
          "type": "bool"
        },
        {
          "internalType": "address",
          "name": "ERC20Address",
          "type": "address"
        },
        {
          "internalType": "address",
          "name": "borrower",
          "type": "address"
        },
        {
          "internalType": "bytes32",
          "name": "chainlinkRequestId",
          "type": "bytes32"
        },
        {
          "internalType": "uint256",
          "name": "paymentPeriod",
          "type": "uint256"
        },
        {
          "internalType": "uint256",
          "name": "paymentDueDate",
          "type": "uint256"
        },
        {
          "internalType": "uint256",
          "name": "minPayment",
          "type": "uint256"
        },
        {
          "internalType": "uint256",
          "name": "interestRateInverse",
          "type": "uint256"
        },
        {
          "internalType": "uint256",
          "name": "accrualPeriod",
          "type": "uint256"
        },
        {
          "internalType": "uint256",
          "name": "principal",
          "type": "uint256"
        },
        {
          "internalType": "uint256",
          "name": "totalPaymentsValue",
          "type": "uint256"
        },
        {
          "internalType": "uint256",
          "name": "awaitingCollection",
          "type": "uint256"
        },
        {
          "internalType": "uint256",
          "name": "paymentComplete",
          "type": "uint256"
        }
      ],
      "stateMutability": "view",
      "type": "function"
    },
    {
      "inputs": [
        {
          "internalType": "bytes32",
          "name": "",
          "type": "bytes32"
        }
      ],
      "name": "merkleRoots",
      "outputs": [
        {
          "internalType": "bytes32",
          "name": "",
          "type": "bytes32"
        }
      ],
      "stateMutability": "view",
      "type": "function"
    },
    {
      "inputs": [
        {
          "internalType": "address",
          "name": "",
          "type": "address"
        },
        {
          "internalType": "address",
          "name": "",
          "type": "address"
        },
        {
          "internalType": "uint256[]",
          "name": "",
          "type": "uint256[]"
        },
        {
          "internalType": "uint256[]",
          "name": "",
          "type": "uint256[]"
        },
        {
          "internalType": "bytes",
          "name": "",
          "type": "bytes"
        }
      ],
      "name": "onERC1155BatchReceived",
      "outputs": [
        {
          "internalType": "bytes4",
          "name": "",
          "type": "bytes4"
        }
      ],
      "stateMutability": "nonpayable",
      "type": "function"
    },
    {
      "inputs": [
        {
          "internalType": "address",
          "name": "",
          "type": "address"
        },
        {
          "internalType": "address",
          "name": "",
          "type": "address"
        },
        {
          "internalType": "uint256",
          "name": "",
          "type": "uint256"
        },
        {
          "internalType": "uint256",
          "name": "",
          "type": "uint256"
        },
        {
          "internalType": "bytes",
          "name": "",
          "type": "bytes"
        }
      ],
      "name": "onERC1155Received",
      "outputs": [
        {
          "internalType": "bytes4",
          "name": "",
          "type": "bytes4"
        }
      ],
      "stateMutability": "nonpayable",
      "type": "function"
    },
    {
      "inputs": [
        {
          "internalType": "uint256",
          "name": "_id",
          "type": "uint256"
        },
        {
          "internalType": "uint256",
          "name": "_erc20Ammount",
          "type": "uint256"
        }
      ],
      "name": "payment",
      "outputs": [],
      "stateMutability": "nonpayable",
      "type": "function"
    },
    {
      "inputs": [
        {
          "internalType": "bytes4",
          "name": "interfaceId",
          "type": "bytes4"
        }
      ],
      "name": "supportsInterface",
      "outputs": [
        {
          "internalType": "bool",
          "name": "",
          "type": "bool"
        }
      ],
      "stateMutability": "view",
      "type": "function"
    },
    {
      "inputs": [
        {
          "internalType": "uint256",
          "name": "_id",
          "type": "uint256"
        },
        {
          "internalType": "uint256",
          "name": "_amm",
          "type": "uint256"
        }
      ],
      "name": "withdrawl",
      "outputs": [],
      "stateMutability": "nonpayable",
      "type": "function"
    },
    {
      "inputs": [
        {
          "internalType": "address",
          "name": "_erc20",
          "type": "address"
        },
        {
          "internalType": "address",
          "name": "_borrower",
          "type": "address"
        },
        {
          "internalType": "uint256",
          "name": "_minPayment",
          "type": "uint256"
        },
        {
          "internalType": "uint256",
          "name": "_paymentPeriod",
          "type": "uint256"
        },
        {
          "internalType": "uint256",
          "name": "_principal",
          "type": "uint256"
        },
        {
          "internalType": "uint256",
          "name": "_inverseInterestRate",
          "type": "uint256"
        },
        {
          "internalType": "uint256",
          "name": "_accrualPeriod",
          "type": "uint256"
        }
      ],
      "name": "configureNew",
      "outputs": [
        {
          "internalType": "uint256",
          "name": "",
          "type": "uint256"
        }
      ],
      "stateMutability": "nonpayable",
      "type": "function"
    },
    {
      "inputs": [
        {
          "internalType": "uint256",
          "name": "_id",
          "type": "uint256"
        }
      ],
      "name": "getInterest",
      "outputs": [
        {
          "internalType": "uint256",
          "name": "",
          "type": "uint256"
        }
      ],
      "stateMutability": "view",
      "type": "function"
    }
  ],
  "bytecode": "0x6080604052600160055560078054600160a060020a031916732f90a6d021db21e1b2a077c5a37b3c7e75d15b7e1790557f323966613961613133626631343638373838623763633461353030613435623860085567016345785d8a00006009553480156200006c57600080fd5b506040516200256b3803806200256b8339810160408190526200008f91620002f2565b81620000c47f01ffc9a70000000000000000000000000000000000000000000000000000000064010000000062000141810204565b620000f87f4e2312e00000000000000000000000000000000000000000000000000000000064010000000062000141810204565b6200010b640100000000620001e6810204565b600a8054600160a060020a03928316600160a060020a031991821617909155600e80549390921692169190911790555062000380565b7fffffffff000000000000000000000000000000000000000000000000000000008082161415620001a9576040517f08c379a0000000000000000000000000000000000000000000000000000000008152600401620001a09062000330565b60405180910390fd5b7fffffffff00000000000000000000000000000000000000000000000000000000166000908152602081905260409020805460ff19166001179055565b6200029e73c89bd4e1632d3a43cb03aaad5262cbe4038bc571600160a060020a03166338cc48316040518163ffffffff167c010000000000000000000000000000000000000000000000000000000002815260040160206040518083038186803b1580156200025457600080fd5b505afa15801562000269573d6000803e3d6000fd5b505050506040513d601f19601f820116820180604052508101906200028f9190620002c2565b640100000000620002a0810204565b565b60038054600160a060020a031916600160a060020a0392909216919091179055565b600060208284031215620002d4578081fd5b8151600160a060020a0381168114620002eb578182fd5b9392505050565b6000806040838503121562000305578081fd5b8251620003128162000367565b6020840151909250620003258162000367565b809150509250929050565b6020808252601c908201527f4552433136353a20696e76616c696420696e7465726661636520696400000000604082015260600190565b600160a060020a03811681146200037d57600080fd5b50565b6121db80620003906000396000f3fe608060405234801561001057600080fd5b50600436106101255760003560e060020a9004806391f67191116100b1578063e62e1e4211610075578063e62e1e421461028f578063e7004a7a146102a2578063f1f2a757146102aa578063f23a6e61146102bd578063fe5a5377146102d057610125565b806391f6719114610215578063a97868be14610228578063bc197c811461023b578063c5d3e11d1461025b578063d41db84b1461026e57610125565b80634af50116116100f85780634af501161461018e5780635fe2d689146101ae578063630e69ad146101c15780637e23f5dd146101ed5780638e33f7761461020057610125565b806301ffc9a71461012a5780632f63147f146101535780633a0be1a6146101685780634357855e1461017b575b600080fd5b61013d610138366004611a15565b6102e3565b60405161014a9190611cfd565b60405180910390f35b6101666101613660046119f4565b610306565b005b61013d6101763660046119dc565b610505565b6101666101893660046119f4565b61053f565b6101a161019c366004611991565b6105dd565b60405161014a9190611d73565b6101a16101bc3660046119dc565b61060b565b6101d46101cf3660046119dc565b61063a565b60405161014a9d9c9b9a99989796959493929190611d08565b6101a16101fb366004611803565b6106b0565b6102086106cb565b60405161014a9190611be8565b61013d6102233660046119dc565b6106da565b6101666102363660046119f4565b610706565b61024e61024936600461181f565b61089e565b60405161014a9190611d7c565b6101a1610269366004611991565b6108c8565b61028161027c3660046119dc565b610900565b60405161014a929190612122565b61013d61029d3660046119f4565b610997565b6102086109fb565b6101a16102b8366004611930565b610a0a565b61024e6102cb3660046118c9565b610c3d565b6101a16102de3660046119dc565b610c67565b600160e060020a0319811660009081526020819052604090205460ff165b919050565b6000828152600b60208190526040909120600981015491015483911161034a5760405160e560020a62461bcd02815260040161034190612068565b60405180910390fd5b6103526115d6565b506000838152600b602081815260409283902083516101a081018552815460ff811615158252600160a060020a03610100918290048116948301949094526001830154909316948101949094526002810154606085015260038101546080850152600481015460a0850152600581015460c08501819052600682015460e086015260078201549285019290925260088101546101208501526009810154610140850152600a810154610160850152909101546101808301528310158061042757508060c0015181610180015182610140015103105b6104465760405160e560020a62461bcd02815260040161034190611f88565b8060200151600160a060020a03166323b872dd3330866040518463ffffffff1660e060020a02815260040161047d93929190611bfc565b602060405180830381600087803b15801561049757600080fd5b505af11580156104ab573d6000803e3d6000fd5b505050506040513d601f19601f820116820180604052508101906104cf91906119bc565b506000938452600b60208190526040909420600a8101805485019055608090910151420160048201559092018054909101905550565b6000818152600b602081905260408220600981015491015410158061053957506000828152600b602052604090205460ff16155b92915050565b6000828152600660205260409020548290600160a060020a0316331461057a5760405160e560020a62461bcd028152600401610341906120c5565b600081815260066020526040808220805473ffffffffffffffffffffffffffffffffffffffff191690555182917f7cc135e0cebb02c3480ae5d74d377283180a2601f8f644edf7987b009316c63a91a2506000918252600d602052604090912055565b600c60205281600052604060002081815481106105f657fe5b90600052602060002001600091509150505481565b6000818152600b602052604081205461053990610635906101009004600160a060020a0316610c79565b610d21565b600b60208190526000918252604090912080546001820154600283015460038401546004850154600586015460068701546007880154600889015460098a0154600a8b01549a909b015460ff8a169b610100909a04600160a060020a039081169b9916999798969795969495939492939192908d565b600160a060020a03166000908152600c602052604090205490565b600e54600160a060020a031681565b6000818152600b6020526040812060040154421080159061053957506106ff82610505565b1592915050565b600a546000838152600b6020526040902054600160a060020a03918216916101008204169060ff1661074d5760405160e560020a62461bcd02815260040161034190611fe5565b6000848152600b60205260409020600a01548311156107815760405160e560020a62461bcd02815260040161034190611f2b565b6040517ff242432a000000000000000000000000000000000000000000000000000000008152600160a060020a0383169063f242432a906107cc903390309089908990600401611c20565b600060405180830381600087803b1580156107e657600080fd5b505af11580156107fa573d6000803e3d6000fd5b50506040517fa9059cbb000000000000000000000000000000000000000000000000000000008152600160a060020a038416925063a9059cbb91506108459033908790600401611c58565b602060405180830381600087803b15801561085f57600080fd5b505af1158015610873573d6000803e3d6000fd5b505050506040513d601f19601f8201168201806040525081019061089791906119bc565b5050505050565b7fbc197c810000000000000000000000000000000000000000000000000000000095945050505050565b6000803084846040516020016108e093929190611b8c565b60408051808303601f190181529190528051602090910120949350505050565b600a546000908190600160a060020a031633146109325760405160e560020a62461bcd02815260040161034190611e71565b6000838152600b602052604090205460ff16156109645760405160e560020a62461bcd02815260040161034190611d91565b50506000818152600b60205260409020805460ff1916600190811782556008820154910154600160a060020a0316915091565b600a54600090600160a060020a031633146109c75760405160e560020a62461bcd02815260040161034190611e71565b6109d082610505565b6109f357506000818152600b602052604090206009018054830190556001610539565b506000610539565b600a54600160a060020a031681565b6000610a1588610c79565b6fffffffffffffffffffffffffffffffff16610a465760405160e560020a62461bcd02815260040161034190611dee565b600160a060020a0387166000908152600c6020526040812054610a6a9089906108c8565b9050600c600089600160a060020a0316600160a060020a03168152602001908152602001600020819080600181540180825580915050600190039060005260206000200160009091909190915055604051806101a001604052806000151581526020018a600160a060020a0316815260200133600160a060020a0316815260200160006001028152602001878152602001874201815260200188815260200185815260200160018152602001868152602001868152602001600081526020016000815250600b600083815260200190815260200160002060008201518160000160006101000a81548160ff02191690831515021790555060208201518160000160016101000a815481600160a060020a030219169083600160a060020a0316021790555060408201518160010160006101000a815481600160a060020a030219169083600160a060020a03160217905550606082015181600201556080820151816003015560a0820151816004015560c0820151816005015560e0820151816006015561010082015181600701556101208201518160080155610140820151816009015561016082015181600a015561018082015181600b0155905050610c3081610d47565b5098975050505050505050565b7ff23a6e610000000000000000000000000000000000000000000000000000000095945050505050565b600d6020526000908152604090205481565b600e546040517f35ea6a75000000000000000000000000000000000000000000000000000000008152600091600160a060020a03169081906335ea6a7590610cc5908690600401611be8565b6101806040518083038186803b158015610cde57600080fd5b505afa158015610cf2573d6000803e3d6000fd5b505050506040513d601f19601f82011682018060405250810190610d169190611a3d565b608001519392505050565b6000806fffffffffffffffffffffffffffffffff83168181610d3f57fe5b049392505050565b6000610d51611655565b600854610d7f90307f4357855e00000000000000000000000000000000000000000000000000000000610eed565b9050610de16040518060400160405280600381526020017f67657400000000000000000000000000000000000000000000000000000000008152506040518060600160405280602d8152602001612179602d913983919063ffffffff610f1816565b610e316040518060400160405280600781526020017f6578745061746800000000000000000000000000000000000000000000000000815250610e2385610f47565b83919063ffffffff610f1816565b610eb06040518060400160405280600481526020017f70617468000000000000000000000000000000000000000000000000000000008152506040518060400160405280600a81526020017f6d65726b6c65726f6f740000000000000000000000000000000000000000000081525083610f189092919063ffffffff16565b600754600954600091610ed091600160a060020a0390911690849061107c565b6000858152600b6020526040902060020181905592505050919050565b610ef5611655565b610efd611655565b610f0f8186868663ffffffff6111ce16565b95945050505050565b6080830151610f2d908363ffffffff61120b16565b6080830151610f42908263ffffffff61120b16565b505050565b606081610f88575060408051808201909152600181527f30000000000000000000000000000000000000000000000000000000000000006020820152610301565b8160005b8115610fa057600101600a82049150610f8c565b60608167ffffffffffffffff81118015610fb957600080fd5b506040519080825280601f01601f191660200182016040528015610fe4576020820181803683370190505b509050815b851561107357600019016000600a8704600a02870360300190506000817f01000000000000000000000000000000000000000000000000000000000000000290508084848151811061103757fe5b60200101907effffffffffffffffffffffffffffffffffffffffffffffffffffffffffffff1916908160001a905350600a880497505050610fe9565b50949350505050565b600030600554604051602001611093929190611bc0565b60408051808303601f190181529181528151602092830120600554606087015260008181526006909352818320805473ffffffffffffffffffffffffffffffffffffffff1916600160a060020a038916179055905190925082917fb5e6e01e79f91267dc17b4e6314d5d4d03593d2ceee0fbb452b750bd70ea5af991a2600354600160a060020a0316634000aea0858461112c87611228565b6040518463ffffffff1660e060020a02815260040161114d93929190611cd5565b602060405180830381600087803b15801561116757600080fd5b505af115801561117b573d6000803e3d6000fd5b505050506040513d601f19601f8201168201806040525081019061119f91906119bc565b6111be5760405160e560020a62461bcd02815260040161034190611ece565b6005805460010190559392505050565b6111d6611655565b6111e685608001516101006112bc565b5050918352600160a060020a03166020830152600160e060020a031916604082015290565b61121882600383516112f6565b610f42828263ffffffff6113f916565b6060634042994660e060020a026000808460000151856020015186604001518760600151600189608001516000015160405160240161126e989796959493929190611c71565b60408051601f198184030181529190526020810180517bffffffffffffffffffffffffffffffffffffffffffffffffffffffff16600160e060020a0319909316929092179091529050919050565b6112c461168a565b60208206156112d95760208206602003820191505b506020828101829052604080518085526000815290920101905290565b60178111611318576113128360ff84811660200216831761141a565b50610f42565b60ff811161134c57611339836018602060ff8616021763ffffffff61141a16565b506113128382600163ffffffff61143216565b61ffff81116113815761136e836019602060ff8616021763ffffffff61141a16565b506113128382600263ffffffff61143216565b63ffffffff81116113b8576113a583601a602060ff8616021763ffffffff61141a16565b506113128382600463ffffffff61143216565b67ffffffffffffffff8111610f42576113e083601b602060ff8616021763ffffffff61141a16565b506113f38382600863ffffffff61143216565b50505050565b61140161168a565b61141383846000015151848551611453565b9392505050565b61142261168a565b61141383846000015151846114ff565b61143a61168a565b61144b84856000015151858561154a565b949350505050565b61145b61168a565b825182111561146957600080fd5b84602001518285011115611493576114938561148b87602001518786016115a8565b6002026115bf565b6000808651805187602083010193508088870111156114b25787860182525b505050602084015b602084106114d95780518252601f1990930192602091820191016114ba565b51815160001960208690036101000a019081169019919091161790525083949350505050565b61150761168a565b83602001518310611523576115238485602001516002026115bf565b835180516020858301018481535080851415611540576001810182525b5093949350505050565b61155261168a565b8460200151848301111561156f5761156f858584016002026115bf565b60006001836101000a03905085518386820101858319825116178152508051848701111561159d5783860181525b509495945050505050565b6000818311156115b9575081610539565b50919050565b81516115cb83836112bc565b506113f383826113f9565b604051806101a001604052806000151581526020016000600160a060020a031681526020016000600160a060020a03168152602001600080191681526020016000815260200160008152602001600081526020016000815260200160008152602001600081526020016000815260200160008152602001600081525090565b6040805160a08101825260008082526020820181905291810182905260608101919091526080810161168561168a565b905290565b604051806040016040528060608152602001600081525090565b805161053981612160565b600082601f8301126116bf578081fd5b813567ffffffffffffffff8111156116d5578182fd5b60208082026116e5828201612139565b8381529350818401858301828701840188101561170157600080fd5b600092505b84831015611724578035825260019290920191908301908301611706565b505050505092915050565b600082601f83011261173f578081fd5b813567ffffffffffffffff811115611755578182fd5b611768601f8201601f1916602001612139565b915080825283602082850101111561177f57600080fd5b8060208401602084013760009082016020015292915050565b6000602082840312156117a9578081fd5b6117b36020612139565b9151825250919050565b80516fffffffffffffffffffffffffffffffff8116811461053957600080fd5b805164ffffffffff8116811461053957600080fd5b805160ff8116811461053957600080fd5b600060208284031215611814578081fd5b813561141381612160565b600080600080600060a08688031215611836578081fd5b853561184181612160565b9450602086013561185181612160565b9350604086013567ffffffffffffffff8082111561186d578283fd5b61187989838a016116af565b9450606088013591508082111561188e578283fd5b61189a89838a016116af565b935060808801359150808211156118af578283fd5b506118bc8882890161172f565b9150509295509295909350565b600080600080600060a086880312156118e0578081fd5b85356118eb81612160565b945060208601356118fb81612160565b93506040860135925060608601359150608086013567ffffffffffffffff811115611924578182fd5b6118bc8882890161172f565b600080600080600080600060e0888a03121561194a578182fd5b873561195581612160565b9650602088013561196581612160565b96999698505050506040850135946060810135946080820135945060a0820135935060c0909101359150565b600080604083850312156119a3578182fd5b82356119ae81612160565b946020939093013593505050565b6000602082840312156119cd578081fd5b81518015158114611413578182fd5b6000602082840312156119ed578081fd5b5035919050565b60008060408385031215611a06578182fd5b50508035926020909101359150565b600060208284031215611a26578081fd5b8135600160e060020a031981168114611413578182fd5b6000610180808385031215611a50578182fd5b611a5981612139565b611a638585611798565b8152611a7285602086016117bd565b6020820152611a8485604086016117bd565b6040820152611a9685606086016117bd565b6060820152611aa885608086016117bd565b6080820152611aba8560a086016117bd565b60a0820152611acc8560c086016117dd565b60c0820152611ade8560e086016116a4565b60e08201526101009150611af4858386016116a4565b828201526101209150611b09858386016116a4565b828201526101409150611b1e858386016116a4565b828201526101609150611b33858386016117f2565b918101919091529392505050565b60008151808452815b81811015611b6657602081850181015186830182015201611b4a565b81811115611b775782602083870101525b50601f01601f19169290920160200192915050565b6c01000000000000000000000000600160a060020a0394851681028252929093169091026014830152602882015260480190565b600160a060020a03929092166c01000000000000000000000000028252601482015260340190565b600160a060020a0391909116815260200190565b600160a060020a039384168152919092166020820152604081019190915260600190565b600160a060020a0394851681529290931660208301526040820152606081019190915260a06080820181905260009082015260c00190565b600160a060020a03929092168252602082015260400190565b6000610100600160a060020a03808c1684528a6020850152896040850152808916606085015250600160e060020a0319871660808401528560a08401528460c08401528060e0840152611cc681840185611b41565b9b9a5050505050505050505050565b6000600160a060020a038516825283602083015260606040830152610f0f6060830184611b41565b901515815260200190565b9c15158d52600160a060020a039b8c1660208e015299909a1660408c015260608b019790975260808a019590955260a089019390935260c088019190915260e08701526101008601526101208501526101408401526101608301919091526101808201526101a00190565b90815260200190565b600160e060020a031991909116815260200190565b6020808252602b908201527f596f75206861766520616c72656164792069737375656420626f6e647320666f60408201527f722074686973206c6f616e000000000000000000000000000000000000000000606082015260800190565b6020808252604f908201527f5468697320746f6b656e206973206e6f7420636f6d70617461626c652077697460408201527f6820414156652e20506c6561736520757365206120646966666572656e74207060608201527f61796d656e7420636f6e74726163740000000000000000000000000000000000608082015260a00190565b6020808252602d908201527f4f6e6c792074686520626f6e6420636f6e74726163742063616e2063616c6c2060408201527f746869732066756e6374696f6e00000000000000000000000000000000000000606082015260800190565b60208082526023908201527f756e61626c6520746f207472616e73666572416e6443616c6c20746f206f726160408201527f636c650000000000000000000000000000000000000000000000000000000000606082015260800190565b60208082526036908201527f546865726520617265206e6f7420656e6f756768207061796d656e747320617660408201527f61696c61626c6520666f7220636f6c6c656374696f6e00000000000000000000606082015260800190565b60208082526021908201527f596f75206d757374206d616b6520746865206d696e696d756d207061796d656e60408201527f7400000000000000000000000000000000000000000000000000000000000000606082015260800190565b60208082526047908201527f74686973206c6f616e20686173206e6f74206265656e2069737375656420796560408201527f742e20486f7720646f20796f75206576656e206861766520626f6e647320666f60608201527f722069743f3f3f00000000000000000000000000000000000000000000000000608082015260a00190565b60208082526021908201527f5468697320636f6e747261637420697320616c72656179642070616964206f6660408201527f6600000000000000000000000000000000000000000000000000000000000000606082015260800190565b60208082526028908201527f536f75726365206d75737420626520746865206f7261636c65206f662074686560408201527f2072657175657374000000000000000000000000000000000000000000000000606082015260800190565b918252600160a060020a0316602082015260400190565b60405181810167ffffffffffffffff8111828210171561215857600080fd5b604052919050565b600160a060020a038116811461217557600080fd5b5056fe687474703a2f2f34302e3132312e3231312e33353a353030302f6170692f6765746c6f616e7364657461696c73a2646970667358221220283196bba1fc000f0b980fd6b8d79981359d1cc69c52d62ba59220fea903c16064736f6c63430006060033",
  "immutableReferences": {},
  "source": "/// SPDX-License-Identifier: None\npragma solidity ^0.6.6;\npragma experimental ABIEncoderV2;\n\nimport './ERC20PaymentStandard.sol';\n\n/**\n* @title AaveLendingPool \n* @notice Is the lending pool contract for aave used to get aave's lending rate for a given token\n* @author Carson Case\n */\ninterface AaveLendingPool{\n    struct ReserveData {\n        //stores the reserve configuration\n        ReserveConfigurationMap configuration;\n        //the liquidity index. Expressed in ray\n        uint128 liquidityIndex;\n        //variable borrow index. Expressed in ray\n        uint128 variableBorrowIndex;\n        //the current supply rate. Expressed in ray\n        uint128 currentLiquidityRate;\n        //the current variable borrow rate. Expressed in ray\n        uint128 currentVariableBorrowRate;\n        //the current stable borrow rate. Expressed in ray\n        uint128 currentStableBorrowRate;\n        uint40 lastUpdateTimestamp;\n        //tokens addresses\n        address aTokenAddress;\n        address stableDebtTokenAddress;\n        address variableDebtTokenAddress;\n        //address of the interest rate strategy\n        address interestRateStrategyAddress;\n        //the id of the reserve. Represents the position in the list of the active reserves\n        uint8 id;\n    }\n\n    struct ReserveConfigurationMap {\n        //bit 0-15: LTV\n        //bit 16-31: Liq. threshold\n        //bit 32-47: Liq. bonus\n        //bit 48-55: Decimals\n        //bit 56: Reserve is active\n        //bit 57: reserve is frozen\n        //bit 58: borrowing is enabled\n        //bit 59: stable rate borrowing enabled\n        //bit 60-63: reserved\n        //bit 64-79: reserve factor\n        uint256 data;\n     }\n\n    function getReserveData(address)\n    external\n    view\n    returns (ReserveData memory);\n}\n\n/**\n* @title PaymentAAveWrappedAPY\n* @notice Is an example of a contract based on the ERC20 Payment Standard that matches AAve's borrow rate for the payment token anytime interest is collected\n* @notice NOTE. The interest rate found in the loan struct is NOT accurate. The getInterest function must be used with this contract.\n* @author Carson Case\n */\ncontract PaymentAAveWrappedAPY is ERC20PaymentStandard{\n    uint8 constant PERCENT_PRECISION = 27;\n    uint128 constant SECONDS_IN_A_YEAR = 31540000;\n    address public aaveContract;\n    \n    /// @notice constructor takes in AAve lending pool address\n    constructor(address _bondsContract, address _aaveContract) public ERC20PaymentStandard(_bondsContract){\n        //0xE0fBa4Fc209b4948668006B2bE61711b7f465bAe;\n        aaveContract = _aaveContract;\n    }\n    \n    /**\n    * @notice contract must be configured before bonds are issued. Pushes new loan to array for user\n    * @dev borrower is msg.sender for testing. In production might want to make this a param\n    * @param _erc20 is the ERC20 contract address that will be used for payments\n    * @param _borrower is the borrower loan is being configured for. Keep in mind. ONLY this borrower can mint bonds to start the loan\n    * @param _minPayment is the minimum payment that must be made before the payment period ends\n    * @param _paymentPeriod payment must be made by this time or delinquent function will return true\n    * @param _principal the origional loan value before interest\n    * @param _inverseInterestRate What you put does not matter. Will always be based on aave.\n    * @param _accrualPeriod What you put does not matter. It will be 1 second since it is 1 second for aave.\n    * @return the id it just created\n     */\n    function configureNew(\n    address _erc20,\n    address _borrower,\n    uint256 _minPayment, \n    uint256 _paymentPeriod, \n    uint256 _principal, \n    uint256 _inverseInterestRate, \n    uint256 _accrualPeriod\n    )\n    external\n    override\n    returns(uint256)\n    {\n        require(getAPY(_erc20) != 0, \"This token is not compatable with AAVe. Please use a different payment contract\");\n        //Create new ID for the loan\n        uint256 id = getId(_borrower, loanIDs[_borrower].length);\n        //Push to loan IDs\n        loanIDs[_borrower].push(id);\n        //Add loan info to lookup\n        loanLookup[id] = loan(\n        {\n            issued: false,\n            ERC20Address: _erc20,\n            borrower: msg.sender,\n            chainlinkRequestId: 0x0,\n            paymentPeriod: _paymentPeriod,\n            paymentDueDate: block.timestamp + _paymentPeriod,\n            minPayment: _minPayment,\n            interestRateInverse: _inverseInterestRate,\n            accrualPeriod: 1,\n            principal: _principal,\n            totalPaymentsValue: _principal,               //For now. Will update with interest updates\n            awaitingCollection: 0,\n            paymentComplete: 0\n            }\n        );\n        requestMerkleRoot(id);\n        return id;\n    }\n    \n    /**\n    * @notice get the interest rate of a loan. Makes it easy for other contract since it doens't have to parse struct\n    * @param _id is the loan ID\n    * @return inverse interest rate\n     */\n    function getInterest(uint256 _id) external virtual override view returns(uint256){\n        return(convertInterestToInverse(getAPY(loanLookup[_id].ERC20Address)));\n    }\n\n    /**\n    * @notice function gets the APY from AAve's contract\n    * @param _token is the erc20 to get the aave borrow rate for\n    * @return uint258 as the rate\n     */\n    function getAPY(address _token) internal virtual view returns(uint128){\n        AaveLendingPool alp = AaveLendingPool(aaveContract);\n        return alp.getReserveData(_token).currentVariableBorrowRate;\n    }\n    \n    /**\n    * @notice function converts the 27 decimal precision percent from aave to a inverse\n    * @param _interestInPercent is the 27 decimal precision precent\n    * @return a uint256 of the lending rate in an inverse\n     */\n    function convertInterestToInverse(uint128 _interestInPercent) internal virtual pure returns(uint256){\n        uint256 numerator = 10**PERCENT_PRECISION;\n        return((numerator*SECONDS_IN_A_YEAR)/_interestInPercent);\n    }\n    \n}\n\n",
  "sourcePath": "/home/carson/Documents/linkHackathon2021/loan-wolf/contracts/contracts/PaymentAAveWrappedAPY.sol",
  "compiler": {
    "name": "solc",
    "version": "0.6.6+commit.6c089d02.Emscripten.clang"
  },
  "schemaVersion": "3.3.4",
  "updatedAt": "2021-04-11T22:14:01.560Z",
  "devdoc": {
    "author": "Carson Case",
    "methods": {
      "addInterest(uint256,uint256)": {
        "params": {
          "_amm": "the ammount of interest to add",
          "_id": "is the id of the loan"
        },
        "returns": {
          "_0": "true if added. Will not add interest if payment has been completed. his prevents lenders from refusing to end a loan when it is rightfully over by forever ncreasing the totalPaymentsValue through interest staking and never fully collecting payment. his also means that if lenders do not realize interest gains soon enough they may not be able to collect them before he borrower can complete the loan."
        }
      },
      "configureNew(address,address,uint256,uint256,uint256,uint256,uint256)": {
        "details": "borrower is msg.sender for testing. In production might want to make this a param",
        "params": {
          "_accrualPeriod": "What you put does not matter. It will be 1 second since it is 1 second for aave.",
          "_borrower": "is the borrower loan is being configured for. Keep in mind. ONLY this borrower can mint bonds to start the loan",
          "_erc20": "is the ERC20 contract address that will be used for payments",
          "_inverseInterestRate": "What you put does not matter. Will always be based on aave.",
          "_minPayment": "is the minimum payment that must be made before the payment period ends",
          "_paymentPeriod": "payment must be made by this time or delinquent function will return true",
          "_principal": "the origional loan value before interest"
        },
        "returns": {
          "_0": "the id it just created"
        }
      },
      "fulfill(bytes32,uint256)": {
        "params": {
          "_merkleRoot": "is what's returned",
          "_requestId": "is the request ID"
        }
      },
      "getId(address,uint256)": {
        "params": {
          "_borrower": "is borrower",
          "_index": "is the index in the borrowers loan array"
        },
        "returns": {
          "_0": "the loan ID"
        }
      },
      "getInterest(uint256)": {
        "params": {
          "_id": "is the loan ID"
        },
        "returns": {
          "_0": "inverse interest rate"
        }
      },
      "getNumberOfLoans(address)": {
        "params": {
          "_who": "is who to look up"
        },
        "returns": {
          "_0": "length"
        }
      },
      "isComplete(uint256)": {
        "params": {
          "_id": "of loan to check"
        },
        "returns": {
          "_0": "return if the contract is payed off or not as bool"
        }
      },
      "isDelinquent(uint256)": {
        "params": {
          "_id": "is the hash id of the loan. Same as bond ERC1155 ID as well"
        },
        "returns": {
          "_0": "if delinquent or not. Meaning missed a payment"
        }
      },
      "issueBonds(uint256)": {
        "params": {
          "_id": "loan ID"
        },
        "returns": {
          "_0": "the loan principal (so bonds knows how many NFTs to mint)",
          "_1": "the borrowers address (so bonds can make sure borrower is calling this function)"
        }
      },
      "payment(uint256,uint256)": {
        "params": {
          "_erc20Ammount": "is ammount in loan's ERC20 to pay",
          "_id": "to pay off"
        }
      },
      "supportsInterface(bytes4)": {
        "details": "See {IERC165-supportsInterface}.     * Time complexity O(1), guaranteed to always use less than 30 000 gas."
      },
      "withdrawl(uint256,uint256)": {
        "params": {
          "_amm": "is the ammount to send",
          "_id": "is the id of the bond to send in"
        }
      }
    },
    "title": "PaymentAAveWrappedAPY"
  },
  "userdoc": {
    "methods": {
      "addInterest(uint256,uint256)": {
        "notice": "Called each time new NFTs are minted by staking"
      },
      "configureNew(address,address,uint256,uint256,uint256,uint256,uint256)": {
        "notice": "contract must be configured before bonds are issued. Pushes new loan to array for user"
      },
      "constructor": "constructor takes in AAve lending pool address",
      "fulfill(bytes32,uint256)": {
        "notice": "Chainlink fulfill function. Called to set the merkle root for a request ID"
      },
      "getId(address,uint256)": {
        "notice": "Returns the ID for a loan given the borrower and index in the array"
      },
      "getInterest(uint256)": {
        "notice": "get the interest rate of a loan. Makes it easy for other contract since it doens't have to parse struct"
      },
      "getNumberOfLoans(address)": {
        "notice": "gets the number of loans a person has"
      },
      "isComplete(uint256)": {
        "notice": "helper function"
      },
      "isDelinquent(uint256)": {
        "notice": "This contract is not very forgiving. Miss one payment and you're marked as delinquent. Unless contract is complete"
      },
      "issueBonds(uint256)": {
        "notice": "called when bonds are issued so as to make sure lender can only mint bonds once."
      },
      "payment(uint256,uint256)": {
        "notice": "function handles the payment of the loan. Does not have to be borrower s payment comes in. The contract holds it until collection by bond owners. MUST APPROVE FIRST in ERC20 contract first"
      },
      "withdrawl(uint256,uint256)": {
        "notice": "MUST approve this contract to spend your ERC1155s in bonds. Used to have this auto handled by the on received function. However that was not a good idea as a hacker could create fake bonds."
      }
    },
    "notice": "Is an example of a contract based on the ERC20 Payment Standard that matches AAve's borrow rate for the payment token anytime interest is collectedNOTE. The interest rate found in the loan struct is NOT accurate. The getInterest function must be used with this contract."
  }
}