{
  "contractName": "SimpleEthPayment",
  "abi": [
    {
      "inputs": [
        {
          "internalType": "address",
          "name": "_bondContract",
          "type": "address"
        },
        {
          "internalType": "uint256",
          "name": "_minPayment",
          "type": "uint256"
        },
        {
          "internalType": "uint256",
          "name": "_paymentPeriod",
          "type": "uint256"
        },
        {
          "internalType": "uint256",
          "name": "_principal",
          "type": "uint256"
        },
        {
          "internalType": "uint256",
          "name": "_inverseInterestRate",
          "type": "uint256"
        },
        {
          "internalType": "uint256",
          "name": "_accrualPeriod",
          "type": "uint256"
        }
      ],
      "stateMutability": "nonpayable",
      "type": "constructor"
    },
    {
      "inputs": [],
      "name": "accrualPeriod",
      "outputs": [
        {
          "internalType": "uint256",
          "name": "",
          "type": "uint256"
        }
      ],
      "stateMutability": "view",
      "type": "function"
    },
    {
      "inputs": [],
      "name": "awaitingCollection",
      "outputs": [
        {
          "internalType": "uint256",
          "name": "",
          "type": "uint256"
        }
      ],
      "stateMutability": "view",
      "type": "function"
    },
    {
      "inputs": [],
      "name": "bondContract",
      "outputs": [
        {
          "internalType": "address",
          "name": "",
          "type": "address"
        }
      ],
      "stateMutability": "view",
      "type": "function"
    },
    {
      "inputs": [],
      "name": "borrower",
      "outputs": [
        {
          "internalType": "address",
          "name": "",
          "type": "address"
        }
      ],
      "stateMutability": "view",
      "type": "function"
    },
    {
      "inputs": [],
      "name": "interestRateInverse",
      "outputs": [
        {
          "internalType": "uint256",
          "name": "",
          "type": "uint256"
        }
      ],
      "stateMutability": "view",
      "type": "function"
    },
    {
      "inputs": [],
      "name": "minPayment",
      "outputs": [
        {
          "internalType": "uint256",
          "name": "",
          "type": "uint256"
        }
      ],
      "stateMutability": "view",
      "type": "function"
    },
    {
      "inputs": [
        {
          "internalType": "address",
          "name": "",
          "type": "address"
        },
        {
          "internalType": "address",
          "name": "",
          "type": "address"
        },
        {
          "internalType": "uint256[]",
          "name": "",
          "type": "uint256[]"
        },
        {
          "internalType": "uint256[]",
          "name": "",
          "type": "uint256[]"
        },
        {
          "internalType": "bytes",
          "name": "",
          "type": "bytes"
        }
      ],
      "name": "onERC1155BatchReceived",
      "outputs": [
        {
          "internalType": "bytes4",
          "name": "",
          "type": "bytes4"
        }
      ],
      "stateMutability": "nonpayable",
      "type": "function"
    },
    {
      "inputs": [
        {
          "internalType": "address",
          "name": "",
          "type": "address"
        },
        {
          "internalType": "address",
          "name": "",
          "type": "address"
        },
        {
          "internalType": "uint256",
          "name": "",
          "type": "uint256"
        },
        {
          "internalType": "uint256",
          "name": "",
          "type": "uint256"
        },
        {
          "internalType": "bytes",
          "name": "",
          "type": "bytes"
        }
      ],
      "name": "onERC1155Received",
      "outputs": [
        {
          "internalType": "bytes4",
          "name": "",
          "type": "bytes4"
        }
      ],
      "stateMutability": "nonpayable",
      "type": "function"
    },
    {
      "inputs": [],
      "name": "paymentComplete",
      "outputs": [
        {
          "internalType": "uint256",
          "name": "",
          "type": "uint256"
        }
      ],
      "stateMutability": "view",
      "type": "function"
    },
    {
      "inputs": [],
      "name": "paymentDueDate",
      "outputs": [
        {
          "internalType": "uint256",
          "name": "",
          "type": "uint256"
        }
      ],
      "stateMutability": "view",
      "type": "function"
    },
    {
      "inputs": [],
      "name": "paymentPeriod",
      "outputs": [
        {
          "internalType": "uint256",
          "name": "",
          "type": "uint256"
        }
      ],
      "stateMutability": "view",
      "type": "function"
    },
    {
      "inputs": [],
      "name": "principal",
      "outputs": [
        {
          "internalType": "uint256",
          "name": "",
          "type": "uint256"
        }
      ],
      "stateMutability": "view",
      "type": "function"
    },
    {
      "inputs": [
        {
          "internalType": "bytes4",
          "name": "interfaceId",
          "type": "bytes4"
        }
      ],
      "name": "supportsInterface",
      "outputs": [
        {
          "internalType": "bool",
          "name": "",
          "type": "bool"
        }
      ],
      "stateMutability": "view",
      "type": "function"
    },
    {
      "inputs": [],
      "name": "totalPaymentsValue",
      "outputs": [
        {
          "internalType": "uint256",
          "name": "",
          "type": "uint256"
        }
      ],
      "stateMutability": "view",
      "type": "function"
    },
    {
      "inputs": [],
      "name": "payment",
      "outputs": [],
      "stateMutability": "payable",
      "type": "function"
    },
    {
      "inputs": [
        {
          "internalType": "uint256",
          "name": "_amm",
          "type": "uint256"
        }
      ],
      "name": "collect",
      "outputs": [],
      "stateMutability": "nonpayable",
      "type": "function"
    },
    {
      "inputs": [],
      "name": "isDelinquent",
      "outputs": [
        {
          "internalType": "bool",
          "name": "",
          "type": "bool"
        }
      ],
      "stateMutability": "view",
      "type": "function"
    },
    {
      "inputs": [
        {
          "internalType": "uint256",
          "name": "_amm",
          "type": "uint256"
        }
      ],
      "name": "addInterest",
      "outputs": [
        {
          "internalType": "bool",
          "name": "",
          "type": "bool"
        }
      ],
      "stateMutability": "nonpayable",
      "type": "function"
    },
    {
      "inputs": [],
      "name": "isComplete",
      "outputs": [
        {
          "internalType": "bool",
          "name": "",
          "type": "bool"
        }
      ],
      "stateMutability": "view",
      "type": "function"
    }
  ],
  "bytecode": "0x60806040523480156200001157600080fd5b506040516200176138038062001761833981810160405281019062000037919062000132565b33600160006101000a81548173ffffffffffffffffffffffffffffffffffffffff021916908373ffffffffffffffffffffffffffffffffffffffff160217905550856000806101000a81548173ffffffffffffffffffffffffffffffffffffffff021916908373ffffffffffffffffffffffffffffffffffffffff160217905550846004819055508360028190555082600781905550600754600881905550816005819055508342620000eb9190620001c8565b60038190555080600681905550505050505050620002c6565b600081519050620001158162000292565b92915050565b6000815190506200012c81620002ac565b92915050565b60008060008060008060c087890312156200014c57600080fd5b60006200015c89828a0162000104565b96505060206200016f89828a016200011b565b95505060406200018289828a016200011b565b94505060606200019589828a016200011b565b9350506080620001a889828a016200011b565b92505060a0620001bb89828a016200011b565b9150509295509295509295565b6000620001d58262000259565b9150620001e28362000259565b9250827fffffffffffffffffffffffffffffffffffffffffffffffffffffffffffffffff038211156200021a576200021962000263565b5b828201905092915050565b6000620002328262000239565b9050919050565b600073ffffffffffffffffffffffffffffffffffffffff82169050919050565b6000819050919050565b7f4e487b7100000000000000000000000000000000000000000000000000000000600052601160045260246000fd5b6200029d8162000225565b8114620002a957600080fd5b50565b620002b78162000259565b8114620002c357600080fd5b50565b61148b80620002d66000396000f3fe6080604052600436106101145760003560e01c8063b2fa1c9e116100a0578063d9ef045911610064578063d9ef045914610386578063e7004a7a146103b1578063f23a6e61146103dc578063f666415514610419578063fcda967b1461044457610114565b8063b2fa1c9e1461029f578063ba5d3078146102ca578063bc197c81146102f5578063ce3f865f14610332578063d0bf4de61461035b57610114565b806342f6487a116100e757806342f6487a146101e95780635d73ca35146101f35780637df1f1b91461021e57806382a4ac30146102495780639f0a340c1461027457610114565b806301ffc9a71461011957806310b0624a146101565780632e276499146101815780633290f515146101ac575b600080fd5b34801561012557600080fd5b50610140600480360381019061013b9190610ca9565b61046f565b60405161014d9190610ece565b60405180910390f35b34801561016257600080fd5b5061016b6104e9565b6040516101789190610fa4565b60405180910390f35b34801561018d57600080fd5b506101966104ef565b6040516101a39190610fa4565b60405180910390f35b3480156101b857600080fd5b506101d360048036038101906101ce9190610cd2565b6104f5565b6040516101e09190610ece565b60405180910390f35b6101f16105be565b005b3480156101ff57600080fd5b506102086106ac565b6040516102159190610fa4565b60405180910390f35b34801561022a57600080fd5b506102336106b2565b6040516102409190610e32565b60405180910390f35b34801561025557600080fd5b5061025e6106d8565b60405161026b9190610fa4565b60405180910390f35b34801561028057600080fd5b506102896106de565b6040516102969190610fa4565b60405180910390f35b3480156102ab57600080fd5b506102b46106e4565b6040516102c19190610ece565b60405180910390f35b3480156102d657600080fd5b506102df6106f3565b6040516102ec9190610fa4565b60405180910390f35b34801561030157600080fd5b5061031c60048036038101906103179190610b5b565b6106f9565b6040516103299190610ee9565b60405180910390f35b34801561033e57600080fd5b5061035960048036038101906103549190610cd2565b61070e565b005b34801561036757600080fd5b50610370610936565b60405161037d9190610ece565b60405180910390f35b34801561039257600080fd5b5061039b610954565b6040516103a89190610fa4565b60405180910390f35b3480156103bd57600080fd5b506103c661095a565b6040516103d39190610e32565b60405180910390f35b3480156103e857600080fd5b5061040360048036038101906103fe9190610c1a565b61097e565b6040516104109190610ee9565b60405180910390f35b34801561042557600080fd5b5061042e610993565b60405161043b9190610fa4565b60405180910390f35b34801561045057600080fd5b50610459610999565b6040516104669190610fa4565b60405180910390f35b60007f4e2312e0000000000000000000000000000000000000000000000000000000007bffffffffffffffffffffffffffffffffffffffffffffffffffffffff1916827bffffffffffffffffffffffffffffffffffffffffffffffffffffffff191614806104e257506104e18261099f565b5b9050919050565b60025481565b60045481565b60008060009054906101000a900473ffffffffffffffffffffffffffffffffffffffff1673ffffffffffffffffffffffffffffffffffffffff163373ffffffffffffffffffffffffffffffffffffffff1614610586576040517f08c379a000000000000000000000000000000000000000000000000000000000815260040161057d90610f04565b60405180910390fd5b61058e6106e4565b6105b45781600860008282546105a49190611063565b92505081905550600190506105b9565b600090505b919050565b600854600a5410610604576040517f08c379a00000000000000000000000000000000000000000000000000000000081526004016105fb90610f64565b60405180910390fd5b600454341015806106255750600454600a5460085461062391906110b9565b105b610664576040517f08c379a000000000000000000000000000000000000000000000000000000000815260040161065b90610f44565b60405180910390fd5b34600960008282546106769190611063565b925050819055506002544261068b9190611063565b60038190555034600a60008282546106a39190611063565b92505081905550565b600a5481565b600160009054906101000a900473ffffffffffffffffffffffffffffffffffffffff1681565b60095481565b60055481565b6000600854600a541015905090565b60075481565b600063bc197c8160e01b905095945050505050565b806009541115610753576040517f08c379a000000000000000000000000000000000000000000000000000000000815260040161074a90610f84565b60405180910390fd5b60008060009054906101000a900473ffffffffffffffffffffffffffffffffffffffff16905060003073ffffffffffffffffffffffffffffffffffffffff169050828273ffffffffffffffffffffffffffffffffffffffff1662fdd58e33846040518363ffffffff1660e01b81526004016107cf929190610ea5565b60206040518083038186803b1580156107e757600080fd5b505afa1580156107fb573d6000803e3d6000fd5b505050506040513d601f19601f8201168201806040525081019061081f9190610cfb565b1015610860576040517f08c379a000000000000000000000000000000000000000000000000000000000815260040161085790610f24565b60405180910390fd5b8173ffffffffffffffffffffffffffffffffffffffff1663f242432a333084876040518563ffffffff1660e01b815260040161089f9493929190610e4d565b600060405180830381600087803b1580156108b957600080fd5b505af11580156108cd573d6000803e3d6000fd5b5050505082600960008282546108e391906110b9565b925050819055503373ffffffffffffffffffffffffffffffffffffffff166108fc849081150290604051600060405180830381858888f19350505050158015610930573d6000803e3d6000fd5b50505050565b6000600354421015801561094f575061094d6106e4565b155b905090565b60035481565b60008054906101000a900473ffffffffffffffffffffffffffffffffffffffff1681565b600063f23a6e6160e01b905095945050505050565b60065481565b60085481565b60007f01ffc9a7000000000000000000000000000000000000000000000000000000007bffffffffffffffffffffffffffffffffffffffffffffffffffffffff1916827bffffffffffffffffffffffffffffffffffffffffffffffffffffffff1916149050919050565b6000610a1c610a1784610fe4565b610fbf565b90508083825260208201905082856020860282011115610a3b57600080fd5b60005b85811015610a6b5781610a518882610b31565b845260208401935060208301925050600181019050610a3e565b5050509392505050565b6000610a88610a8384611010565b610fbf565b905082815260208101848484011115610aa057600080fd5b610aab848285611161565b509392505050565b600081359050610ac281611410565b92915050565b600082601f830112610ad957600080fd5b8135610ae9848260208601610a09565b91505092915050565b600081359050610b0181611427565b92915050565b600082601f830112610b1857600080fd5b8135610b28848260208601610a75565b91505092915050565b600081359050610b408161143e565b92915050565b600081519050610b558161143e565b92915050565b600080600080600060a08688031215610b7357600080fd5b6000610b8188828901610ab3565b9550506020610b9288828901610ab3565b945050604086013567ffffffffffffffff811115610baf57600080fd5b610bbb88828901610ac8565b935050606086013567ffffffffffffffff811115610bd857600080fd5b610be488828901610ac8565b925050608086013567ffffffffffffffff811115610c0157600080fd5b610c0d88828901610b07565b9150509295509295909350565b600080600080600060a08688031215610c3257600080fd5b6000610c4088828901610ab3565b9550506020610c5188828901610ab3565b9450506040610c6288828901610b31565b9350506060610c7388828901610b31565b925050608086013567ffffffffffffffff811115610c9057600080fd5b610c9c88828901610b07565b9150509295509295909350565b600060208284031215610cbb57600080fd5b6000610cc984828501610af2565b91505092915050565b600060208284031215610ce457600080fd5b6000610cf284828501610b31565b91505092915050565b600060208284031215610d0d57600080fd5b6000610d1b84828501610b46565b91505092915050565b610d2d816110ed565b82525050565b610d3c816110ff565b82525050565b610d4b8161110b565b82525050565b6000610d5e602d83611052565b9150610d6982611210565b604082019050919050565b6000610d81604183611052565b9150610d8c8261125f565b606082019050919050565b6000610da4602183611052565b9150610daf826112d4565b604082019050919050565b6000610dc7602183611052565b9150610dd282611323565b604082019050919050565b6000610dea600083611041565b9150610df582611372565b600082019050919050565b6000610e0d606e83611052565b9150610e1882611375565b608082019050919050565b610e2c81611157565b82525050565b6000602082019050610e476000830184610d24565b92915050565b600060a082019050610e626000830187610d24565b610e6f6020830186610d24565b610e7c6040830185610e23565b610e896060830184610e23565b8181036080830152610e9a81610ddd565b905095945050505050565b6000604082019050610eba6000830185610d24565b610ec76020830184610e23565b9392505050565b6000602082019050610ee36000830184610d33565b92915050565b6000602082019050610efe6000830184610d42565b92915050565b60006020820190508181036000830152610f1d81610d51565b9050919050565b60006020820190508181036000830152610f3d81610d74565b9050919050565b60006020820190508181036000830152610f5d81610d97565b9050919050565b60006020820190508181036000830152610f7d81610dba565b9050919050565b60006020820190508181036000830152610f9d81610e00565b9050919050565b6000602082019050610fb96000830184610e23565b92915050565b6000610fc9610fda565b9050610fd58282611170565b919050565b6000604051905090565b600067ffffffffffffffff821115610fff57610ffe6111d0565b5b602082029050602081019050919050565b600067ffffffffffffffff82111561102b5761102a6111d0565b5b611034826111ff565b9050602081019050919050565b600082825260208201905092915050565b600082825260208201905092915050565b600061106e82611157565b915061107983611157565b9250827fffffffffffffffffffffffffffffffffffffffffffffffffffffffffffffffff038211156110ae576110ad6111a1565b5b828201905092915050565b60006110c482611157565b91506110cf83611157565b9250828210156110e2576110e16111a1565b5b828203905092915050565b60006110f882611137565b9050919050565b60008115159050919050565b60007fffffffff0000000000000000000000000000000000000000000000000000000082169050919050565b600073ffffffffffffffffffffffffffffffffffffffff82169050919050565b6000819050919050565b82818337600083830152505050565b611179826111ff565b810181811067ffffffffffffffff82111715611198576111976111d0565b5b80604052505050565b7f4e487b7100000000000000000000000000000000000000000000000000000000600052601160045260246000fd5b7f4e487b7100000000000000000000000000000000000000000000000000000000600052604160045260246000fd5b6000601f19601f8301169050919050565b7f4f6e6c792074686520626f6e6420636f6e74726163742063616e2063616c6c2060008201527f746869732066756e6374696f6e00000000000000000000000000000000000000602082015250565b7f596f7520646f206e6f7420686176652074686520626f6e642062616c616e636560008201527f20726571756972656420746f206d616b65207468697320636f6c6c656374696f60208201527f6e00000000000000000000000000000000000000000000000000000000000000604082015250565b7f596f75206d757374206d616b6520746865206d696e696d756d207061796d656e60008201527f7400000000000000000000000000000000000000000000000000000000000000602082015250565b7f5468697320636f6e747261637420697320616c72656179642070616964206f6660008201527f6600000000000000000000000000000000000000000000000000000000000000602082015250565b50565b7f5468657265206973206e6f7420656e6f756768207061796d656e74732072656160008201527f647920666f7220636f6c6c656374696f6e207965742e20596f75206d7573742060208201527f7761697420756e74696c2074686520626f72726f776572206d616b657320746860408201527f65206e657874207061796d656e74000000000000000000000000000000000000606082015250565b611419816110ed565b811461142457600080fd5b50565b6114308161110b565b811461143b57600080fd5b50565b61144781611157565b811461145257600080fd5b5056fea2646970667358221220b19531021f5d73a206a6bd1980a654d7dfce3a94f3dbc1aa2c2b61ef021ca9fc64736f6c63430008010033",
  "immutableReferences": {},
  "source": "/// SPDX-License-Identifier: None\npragma solidity ^0.8.0;\n\n//For Remix:\n//import \"https://github.com/OpenZeppelin/openzeppelin-contracts/blob/master/contracts/token/ERC1155/ERC1155.sol\";\n//import \"https://github.com/OpenZeppelin/openzeppelin-contracts/blob/master/contracts/token/ERC1155/utils/ERC1155Holder.sol\";\n//For Local:\nimport \"@openzeppelin/contracts/token/ERC1155/ERC1155.sol\";\nimport \"@openzeppelin/contracts/token/ERC1155/utils/ERC1155Holder.sol\";\n\n/**\n* @title SimpleEthPayment\n* @author Carson Case\n*\n* @notice the payment contract for demo\n* @dev ideas for improvement\n*   - big one. Make this more versitile. Multiple users/loans\n*   - make another for ERC-20s\n*   - add collaterall as a feature\n*   - change inverse interest rate to inverse interest*10^P. P being precision. This could add more precision to rate\n*   - if a lender refuses to unstake a bond he could revive a dead loan or keep it alive forever\n*       * to prevent this make the totalPaymentsValue hardcoded and calculated instead of updated\n*       * or have a max it can't surpass. \n */\ncontract SimpleEthPayment is ERC1155Holder{\n    \n    //State Variables\n    address public bondContract;\n    address public borrower;\n    //bytes32 merkleRoot;\n    uint256 public paymentPeriod;\n    uint256 public paymentDueDate;\n    uint256 public minPayment;\n    uint256 public interestRateInverse;\n    uint256 public accrualPeriod;\n    uint256 public principal;\n    uint256 public totalPaymentsValue;\n    uint256 public awaitingCollection;\n    uint256 public paymentComplete;\n    \n    /**\n    * @notice this contract must be deployed after the bond contract. As it is a parameter\n    * @dev borrower is msg.sender for testing. In production might want to make this a param\n    * @param _bondContract is the bond contract address\n    * @param _minPayment is the minimum payment that must be made before the payment period ends\n    * @param _paymentPeriod payment must be made by this time or delinquent function will return true\n    * @param _principal the origional loan value before interest\n    * @param _inverseInterestRate the interest rate expressed as inverse. 2% = 1/5 = inverse of 5\n    * @param _accrualPeriod the time it takes for interest to accrue in seconds\n     */\n    constructor(address _bondContract, uint256 _minPayment, uint256 _paymentPeriod, uint256 _principal, uint256 _inverseInterestRate, uint256 _accrualPeriod){\n        borrower = msg.sender;\n        bondContract = _bondContract;\n        minPayment = _minPayment;\n        paymentPeriod = _paymentPeriod;\n        principal = _principal;\n        totalPaymentsValue = principal;               //For now. Will update with interest updates\n        interestRateInverse = _inverseInterestRate;               \n        paymentDueDate = block.timestamp + _paymentPeriod;\n        accrualPeriod = _accrualPeriod;\n    }\n    \n    /// @notice requires contract is not paid off\n    modifier incomplete{\n        require(paymentComplete < totalPaymentsValue, \"This contract is alreayd paid off\");\n        _;\n    }\n    \n    /// @notice requires only the Bonds Contract call this function\n    modifier onlyBonds{\n        require(msg.sender == bondContract, \"Only the bond contract can call this function\");\n        _;\n    }\n    \n    /**\n    * @notice function handles the payment of the loan. Does not have to be borrower\n    *as payment comes in. The contract holds it until collection by bond owners. \n     */\n    function payment() payable external incomplete{\n        require(msg.value >= minPayment ||                              //Payment must be more than min payment\n                totalPaymentsValue - paymentComplete < minPayment,      //Exception for the last payment (remainder)\n                \"You must make the minimum payment\");\n                \n        awaitingCollection += msg.value;                         \n        paymentDueDate = block.timestamp + paymentPeriod;           //Reset paymentTimer;\n        paymentComplete += msg.value;                               //Increase paymentComplete\n    }\n    \n    /**\n    * @notice collect the eth in contract made as payments. Must trade in ERC-1155 bonds\n    *Must approve the transfer in Bonds contract first\n    * @param _amm is the ammount to collect (and trade in)\n     */\n    function collect(uint256 _amm) external{\n        require(awaitingCollection <= _amm, \"There is not enough payments ready for collection yet. You must wait until the borrower makes the next payment\");\n        ERC1155 nft = ERC1155(bondContract);\n        uint256 id = uint256(uint160(address(this)));\n        require(nft.balanceOf(msg.sender, id) >= _amm, \"You do not have the bond balance required to make this collection\");\n        nft.safeTransferFrom(msg.sender, address(this), id, _amm, \"\");\n        awaitingCollection -= _amm;\n        payable(msg.sender).transfer(_amm);\n    }\n    \n    /**\n    * @notice This contract is not very forgiving. Miss one payment and you're marked as delinquent. Unless contract is complete\n    * @return if delinquent or not. Meaning missed a payment\n     */\n    function isDelinquent() external view returns(bool){\n        return (block.timestamp >= paymentDueDate && !isComplete());\n    }\n    \n    /**\n    * @notice Called each time new NFTs are minted by staking\n    * @param _amm the ammount of interest to add\n    * @return true if added. Will not add interest if payment has been completed.\n    *This prevents lenders from refusing to end a loan when it is rightfully over by forever\n    *increasing the totalPaymentsValue through interest staking and never fully collecting payment.\n    *This also means that if lenders do not realize interest gains soon enough they may not be able to collect them before\n    *the borrower can complete the loan.\n     */\n    function addInterest(uint256 _amm) onlyBonds external returns(bool){\n        if(!isComplete()){\n            totalPaymentsValue += _amm;\n            return true;\n        }else{\n            return false;\n        }\n    }\n    \n    /**\n    * @notice helper function\n    * @return return if the contract is payed off or not as bool\n     */\n    function isComplete() public view returns(bool){\n        return paymentComplete >= totalPaymentsValue;\n    }\n\n\n\n\n}\n\n",
  "sourcePath": "/home/carson/Documents/linkHackathon2021/loan-wolf/contracts/contracts/SimpleEthPayment.sol",
  "compiler": {
    "name": "solc",
    "version": "0.8.1+commit.df193b15.Emscripten.clang"
  },
  "schemaVersion": "3.3.4",
  "updatedAt": "2021-03-26T02:02:59.898Z",
  "devdoc": {
    "author": "Carson Case",
    "details": "ideas for improvement   - big one. Make this more versitile. Multiple users/loans   - make another for ERC-20s   - add collaterall as a feature   - change inverse interest rate to inverse interest*10^P. P being precision. This could add more precision to rate   - if a lender refuses to unstake a bond he could revive a dead loan or keep it alive forever       * to prevent this make the totalPaymentsValue hardcoded and calculated instead of updated       * or have a max it can't surpass. ",
    "kind": "dev",
    "methods": {
      "addInterest(uint256)": {
        "params": {
          "_amm": "the ammount of interest to add"
        },
        "returns": {
          "_0": "true if added. Will not add interest if payment has been completed. This prevents lenders from refusing to end a loan when it is rightfully over by forever increasing the totalPaymentsValue through interest staking and never fully collecting payment. This also means that if lenders do not realize interest gains soon enough they may not be able to collect them before the borrower can complete the loan."
        }
      },
      "collect(uint256)": {
        "params": {
          "_amm": "is the ammount to collect (and trade in)"
        }
      },
      "constructor": {
        "details": "borrower is msg.sender for testing. In production might want to make this a param",
        "params": {
          "_accrualPeriod": "the time it takes for interest to accrue in seconds",
          "_bondContract": "is the bond contract address",
          "_inverseInterestRate": "the interest rate expressed as inverse. 2% = 1/5 = inverse of 5",
          "_minPayment": "is the minimum payment that must be made before the payment period ends",
          "_paymentPeriod": "payment must be made by this time or delinquent function will return true",
          "_principal": "the origional loan value before interest"
        }
      },
      "isComplete()": {
        "returns": {
          "_0": "return if the contract is payed off or not as bool"
        }
      },
      "isDelinquent()": {
        "returns": {
          "_0": "if delinquent or not. Meaning missed a payment"
        }
      },
      "supportsInterface(bytes4)": {
        "details": "See {IERC165-supportsInterface}."
      }
    },
    "title": "SimpleEthPayment",
    "version": 1
  },
  "userdoc": {
    "kind": "user",
    "methods": {
      "addInterest(uint256)": {
        "notice": "Called each time new NFTs are minted by staking"
      },
      "collect(uint256)": {
        "notice": "collect the eth in contract made as payments. Must trade in ERC-1155 bonds Must approve the transfer in Bonds contract first"
      },
      "constructor": {
        "notice": "this contract must be deployed after the bond contract. As it is a parameter"
      },
      "isComplete()": {
        "notice": "helper function"
      },
      "isDelinquent()": {
        "notice": "This contract is not very forgiving. Miss one payment and you're marked as delinquent. Unless contract is complete"
      },
      "payment()": {
        "notice": "function handles the payment of the loan. Does not have to be borrower as payment comes in. The contract holds it until collection by bond owners. "
      }
    },
    "notice": "the payment contract for demo",
    "version": 1
  }
}